:100000000C9464000C948C000C948C000C948C0068
:100010000C948C000C948C000C948C000C948C0030
:100020000C948C000C948C000C948C000C94A2000A
:100030000C948C000C948C000C948C000C948C0010
:100040000C9447100C948C000C94C40D0C94F60D79
:100050000C948C000C948C000C948C000C948C00F0
:100060000C946C0B0C948C00000000080002010042
:100070000003040700000000000000000102040863
:100080001020408001020408102001020408102002
:10009000040404040404040402020202020203032E
:1000A00003030303000000002300260029000000D2
:1000B0000000250028002B0000000000240027007D
:1000C0002A006C02830A260E11241FBECFEFD4E053
:1000D000DEBFCDBF11E0A0E0B1E0E8E1F9E202C08F
:1000E00005900D92A235B107D9F723E0A2E5B1E062
:1000F00001C01D92AB34B207E1F710E0C4E6D0E0D6
:1001000004C02197FE010E947C14C136D107C9F7B3
:100110000E94540E0C948A140C94000010928000DB
:1001200025E02093810029E03DE33093890020936E
:10013000880022E020936F0078949093E2018093EE
:10014000E10108951F920F920FB60F9211242F9381
:100150003F938F939F932091E3013091E40180912D
:10016000E1019091E20101972817390728F01092D8
:10017000E4011092E30109C08091E3019091E40150
:1001800001969093E4018093E30110928500109210
:1001900084009F918F913F912F910F900FBE0F90F0
:1001A0001F9018950F931F93CF93DF9326E040E0A5
:1001B00052EC61E070E085EA92E00E945F0D85EE0E
:1001C00091E00E94F20962E086E00E94591162E02B
:1001D00087E00E94591162E081E10E94591161E0BB
:1001E00083E00E94591161E085E00E94591181E08D
:1001F00090E00E94821490E090938D0180938C0196
:1002000082E090E00E94821490E090938B018093B2
:100210008A0183E090E00E94821490E0909389012B
:100220008093880184E090E00E94821490E0909393
:1002300087018093860102E511E0C0E0D0E0CE01A5
:1002400004960E94821490E0F801819391938F01AB
:100250002196C630D10599F78AE090E00E948E0081
:1002600086E791E090937F0180937E0188E791E09B
:1002700090938101809380018AE791E090938301BC
:10028000809382018CE791E09093850180938401B3
:10029000DF91CF911F910F9108950F931F9380913C
:1002A0006001811103C081E080935C0180915F0156
:1002B000811103C081E080935B0180915C01882300
:1002C00019F18091750181111FC00E949110009158
:1002D0005601109157012091580130915901DC01CC
:1002E000CB01801B910BA20BB30B893B9B40A1055B
:1002F000B10520F081E080935C0106C080915E0131
:10030000811102C010925C0180915B01882319F178
:100310008091740181111FC00E94911000915201BF
:10032000109153012091540130915501DC01CB0112
:10033000801B910BA20BB30B893B9B40A105B10520
:1003400020F081E080935B0106C080915D01811106
:1003500002C010925B0180915A01811104C0109279
:100360005C0110925B0190916001911110925C010F
:1003700020915F01211110925B0140916101509128
:10038000620120910C0130910D014217530724F4B2
:1003900010925C0110925B0120917501211104C043
:1003A000911102C081110AC00E9491106093560100
:1003B0007093570180935801909359018091740173
:1003C000811108C080915F01811104C080915A01A0
:1003D00081110AC00E9491106093520170935301E1
:1003E000809354019093550180915C01882321F002
:1003F00091E090935E0102C010925E0190915B01CA
:10040000992321F091E090935D0102C010925D016B
:10041000882311F05B9A01C05B9880915B0188236F
:1004200011F05D9A01C05D981F910F910895CF92D0
:10043000DF92EF92FF92CF936B017C01CA01B90169
:10044000C9B1C6FBCC27C0F9C093160129B1221F40
:100450002227221F2093150130911401C31799F010
:100460002C1731F020E030E0A9010E94F01107C004
:100470009B01AC0160E070E0CB010E94EF1121E034
:100480002093C40105C01092C40160E070E0CB016C
:10049000C09314019B01AC01C701B6010E94F01189
:1004A000CF91FF90EF90DF90CF9008952091C301FE
:1004B000422F50E08417950758F4662321F060E03E
:1004C00083ED91E003C060E085EC91E00C94D608E8
:1004D0002F5F2093C301089526E046E16FE083ED8E
:1004E00091E00E942B0826E046E160E185EC91E076
:1004F0000E942B0862E070E084E991E00C94A4076C
:100500001F93CF93DF931F92CDB7DEB7633609F405
:1005100063C058F5673009F455C090F4633009F4AE
:100520004DC038F4613009F461C008F045C010ECEA
:100530006EC0653009F464C008F042C019E967C0B4
:100540006A3209F463C048F4693009F43FC0E0F14D
:10055000603209F05CC01FEF5AC06136C9F1D0F5B6
:100560006D3209F054C01FEB52C06C3609F440C024
:1005700080F46736B9F128F4653681F188F511EA1F
:1005800046C0693699F180F16A3609F040C011EF32
:100590003EC0623799F138F4603761F168F56E3624
:1005A000B1F51BEA34C0643769F150F1653761F188
:1005B000693769F511E92BC014EA29C010EB27C08F
:1005C00012E825C018EF23C010E821C010E91FC0B1
:1005D00018E81DC013E81BC016EC19C016E817C0B8
:1005E0001EE815C012EC13C016E711C019EF0FC0BA
:1005F00017EC0DC01CE80BC018E909C01FEA07C0C2
:1006000012E905C017E803C011EC01C01CE9682F0E
:1006100085EE91E049830E94FC09612F85EE91E00F
:100620000E94B3094981612F442311F06F7701C003
:10063000606885EE91E00E94B30985EE91E00F902D
:10064000DF91CF911F910C94800A40E060E288E333
:100650000E94800240E060E289E30E94800240E064
:1006600060E28AE30E94800240E060E28BE30C9447
:1006700080028F929F92AF92BF92CF92DF92EF92C1
:10068000FF92CF93DF936B017C010E94D312EB01A9
:10069000072E000C880B990B0E940B139B01AC01D9
:1006A000C701B6010E94EF1120E030E040E251E4C2
:1006B0000E94C0134B015C0120E030E040E251ECAD
:1006C000C701B6010E945C1218167CF140E06DE291
:1006D00088E30E94800220E030E040E251E4C7015C
:1006E000B6010E9461126B017C0120E030E0A9019B
:1006F0000E94BB1318161CF4C701B60103C0C70142
:10070000B60190580E94DA1240E089E30E9480020C
:10071000CE016AE070E00E94461497FF03C09195F5
:100720008195910941E0682F25C020E030E0A901C2
:10073000C701B6010E945C1287FF30C040E06DE245
:1007400088E30E94800240E060E089E30E9480022A
:1007500020E030E0A901C701B6010E94BB131816C2
:100760001CF4C701B60103C0C701B60190580E942E
:10077000DA1241E08AE30E94800220E030E0A90121
:10078000C501B4010E94BB1318160CF448C0C50182
:10079000B40190580E94DA1240E054C020E030E0EA
:1007A00040E251E4C701B6010E945C1287FF10C00D
:1007B00040E060E088E30E94800240E060E089E37E
:1007C0000E948002C701B6010E94DA1241E024C0F3
:1007D00020E030E040E251E4C701B6010E94BB13C3
:1007E00040E087FD1FC060E088E30E94800220E0B7
:1007F00030E040E251E4C701B6010E9461120E945C
:10080000DA1240E089E30E948002CE016AE070E0E3
:100810000E94461441E0682F8AE30E948002C501CD
:10082000B401B8CF65E688E30E94800240E062E749
:1008300089E30E94800240E062E78AE30E9480022E
:1008400040E060E28BE3DF91CF91FF90EF90DF908B
:10085000CF90BF90AF909F908F900C948002EF92BA
:10086000FF920F931F93CF93DF93EC018A30910592
:1008700068F440E060E088E30E94800240E060E0CD
:1008800089E30E94800240E060E014C08436910554
:10089000B8F440E060E088E30E94800240E060E05D
:1008A00089E30E948002CE016AE070E00E94321467
:1008B000C82F40E08AE30E94800240E06C2F42C0D3
:1008C000C83E83E0D80798F440E060E088E30E94E7
:1008D0008002CE0164E670E00E9432147C0140E0A8
:1008E00089E30E9480020AE010E0C7011EC0C03107
:1008F00087E2D80780F5CE0168EE73E00E943214DB
:100900007C0140E088E30E94800204E610E0C70119
:10091000B8010E94321440E089E30E948002CE01B7
:10092000B8010E9432140AE010E0B8010E943214AB
:1009300040E08AE30E948002CE01B8010E94321496
:1009400040E0682F8BE3DF91CF911F910F91FF90D3
:10095000EF900C948002DF91CF911F910F91FF9047
:10096000EF900895CF92DF92EF92FF92CF936B01B9
:100970007C01C42F4CE251E060E070E084E991E03A
:100980000E94BE078823A9F0C701B601C1110AC0A1
:100990000E94D312CB01CF91FF90EF90DF90CF90C8
:1009A0000C942F04CF91FF90EF90DF90CF900C9498
:1009B0003903CF91FF90EF90DF90CF900C942503F7
:1009C0004F925F926F927F928F929F92AF92BF925F
:1009D000CF92DF92EF92FF920F931F93CF936B0111
:1009E0007C0149015A018091C401882369F081E0AA
:1009F000809393010E94911060938F0170939001F6
:100A00008093910190939201C0919301CC2309F4BA
:100A100043C00E94911040908F01509090016090CF
:100A2000910170909201DC01CB0184199509A6090E
:100A3000B7098D3B9240A105B10508F101151105DB
:100A400029F4C701B6010E94D3120FC0013011056D
:100A500029F4C701B6010E9439030AC0023011050A
:100A600039F4C701B6010E94DA12CB010E942F04AB
:100A7000C0918E01CC2371F010928E0127C041E00D
:100A8000012B09F440E0C501B4010E94B20481E0E9
:100A900080938E01C0E01AC00115110529F4C70129
:100AA000B6010E94D3120FC00130110529F4C7010D
:100AB000B6010E9439030AC00230110559F7C70177
:100AC000B6010E94DA12CB010E942F048C2FCF9125
:100AD0001F910F91FF90EF90DF90CF90BF90AF905C
:100AE0009F908F907F906F905F904F900895CF93DD
:100AF000C62F682F85EE91E00E94FC0960E085EE2C
:100B000091E00E94B3096C2F85EE91E00E94B30939
:100B100085EE91E0CF910C94800A0F931F93CF93B1
:100B2000DF938091610190916201209100013091E9
:100B300001012817390764F0609152017091530147
:100B40008CE20E947705609152017091530112C0AE
:100B500020910A0130910B018217930794F0609164
:100B60005C0170915D018CE20E94770560915C01EF
:100B700070915D018DE2DF91CF911F910F910C94E7
:100B80007705CCE0D1E002E511E080916101909120
:100B9000620122972A813B81821793078CF4288176
:100BA00039818217930764F0F801628573858CE2BE
:100BB0000E947705F801628573858DE20E947705B2
:100BC00002501109F1E0C030DF07F9F6DF91CF9153
:100BD0001F910F910895CF92DF92EF92FF920F93A2
:100BE0001F93CF93339B02C082E001C081E08093CA
:100BF00013016091690170916A018EE20E9477058C
:100C000060916701709168018FE20E9477050E94F0
:100C10008D0560911201262F30E080918C0190911A
:100C20008D01C297820F931F90936A01809369018F
:100C300080918A0190918B01C297280F391F3093C0
:100C4000680120936701C0911301C13021F0C230C7
:100C500009F451C0AFC070E080E090E00E94091339
:100C600020E030E040E85FE30E9417020E94DA12C1
:100C70006093120170E080E090E00E94091300E0B0
:100C800010E09B01AC010E94E004809112018536C6
:100C900020F084E68093120104C0811102C0C09349
:100CA00012018091690190916A01823391051CF4CF
:100CB00082E390E006C08F3F910539F034F08FEF6A
:100CC00090E090936A01809369018091670190910F
:100CD0006801823391051CF482E390E007C08F3FE6
:100CE000910509F00CF466C08FEF90E090936801D5
:100CF000809367015FC060910E0170910F01809138
:100D000010019091110120E030E040E85EE30E9484
:100D100017029B01AC0160930E0170930F01809349
:100D200010019093110160916301709164018091B1
:100D300065019091660101E010E00E94E00440919D
:100D40000E0150910F01609110017091110122E08C
:100D500030E085EA92E00E943510C0900E01D090FC
:100D60000F01E0901001F090110120E030E04CE024
:100D700052E4C701B6010E94BB1318162CF480E0A0
:100D800090E0ACE0B2E40EC020E030E040E951E495
:100D9000C701B6010E945C1287FF0CC080E090E0A2
:100DA000A0E9B1E480930E0190930F01A09310018C
:100DB000B093110120910E0130910F01409110016B
:100DC00050911101609163017091640180916501FE
:100DD000909166010E94EF1120E030E0A9010E948D
:100DE000BB13181624F481E080935A0102C01092BC
:100DF0005A0180915A01882311F0429A01C0429809
:100E0000CF911F910F91FF90EF90DF90CF900C94B6
:100E10004D01CF9348E050E0BC0185EE91E00E9487
:100E20007D0A85EE91E00E945709892B31F085EE0D
:100E300091E00E945F09C82FF4CF8C2FCF910895C5
:100E40008DE390E00E9409078170809375018DE326
:100E500090E00E94090786958170809374018DE36C
:100E600090E00E94090782FB882780F980936F0138
:100E70008DE390E00E94090783FB882780F9809327
:100E80006E018DE390E00E94090782958170809346
:100E90006D018DE390E00E94090785FB882780F9AA
:100EA00080936C018DE390E00E94090786FB882700
:100EB00080F980936B018CE390E00E940907829592
:100EC0008170809373018CE390E00E94090785FB99
:100ED000882780F9809372018CE390E00E940907D3
:100EE00086FB882780F9809371018CE390E00E9453
:100EF0000907881F8827881F8093700183B181703C
:100F00008093600183B18695817080935F0108951D
:100F10000E94200761E08CE291E00E9456026093FB
:100F2000630170936401809365019093660160E0B2
:100F30008CE291E00E9456020E94D31270936201EB
:100F4000609361010C94EB05FC01108611861286FA
:100F5000138615A214A216A217A210A611A612A6F5
:100F600013A614A615A621E026A7CB01770FAA0B7E
:100F7000BB0B848B958BA68BB78B08958F929F921A
:100F8000AF92BF92CF92DF92EF92FF920F931F9397
:100F9000CF93DF93EC016A017B010E9491100C89D1
:100FA0001D892E893F890230110521053105D1F0B7
:100FB00040F4013011052105310509F50E949D100D
:100FC0001EC0033011052105310579F004301105EB
:100FD00021053105A1F40E94911020E63AEE40E08F
:100FE00050E009C00E9491100AC00E94911028EEA2
:100FF00033E040E050E00E945A14CA01B901CC82AB
:10100000DD82EE82FF820C851D852E853F854B019A
:101010005C01801A910AA20AB30A8C149D04AE04E2
:10102000BF0458F06C877D878E879F878C8D8111D8
:1010300003C081E08C8F01C01C8E8C8DDF91CF911D
:101040001F910F91FF90EF90DF90CF90BF90AF90E6
:101050009F908F900895FC0166834783208781E0ED
:1010600085870895CF92DF92FF920F931F93CF93BE
:10107000DF93EC0161E08E810E9495110E94911036
:1010800009851A852B853C856017710782079307B0
:1010900020F419861A861B861C862D85211111C005
:1010A00009851A852B853C85DC01CB01801B910BC2
:1010B000A20BB30B803D9740A105B10510F481E070
:1010C0006DC01D860E94911069877A878B879C87E7
:1010D0001C821B821A821982188261E08E810E9412
:1010E000591160E08E810E94951164E170E080E00A
:1010F00090E00E94C210F89461E08E810E949511E8
:1011000088E290E00E94EA1060E08E810E9459110E
:1011100010E0F12C81E000E0C82ED12C8E810E94DD
:10112000C5118C159D0539F40F5F81E090E00E9498
:10113000EA100F3F99F78E810E94C5110F3FB9F059
:10114000143090F010FD10C09F2D969596959695B1
:10115000FE01E90FF11D9081990F908328852017DA
:1011600010F491609083F3941F5F1535A1F6789485
:1011700087E28F1590F42C8130E04881898190E0DE
:10118000840F911D4A81840F911D4B81840F911D05
:1011900099272817390709F492CF80E0DF91CF9182
:1011A0001F910F91FF90DF90CF900895CF92DF9223
:1011B000EF92FF920F931F93CF93DF93EC01162FC3
:1011C0000E943208882309F455C08F818B3031F09A
:1011D00008F450C08551823098F04CC06A8170E0AC
:1011E00080E090E00E940913112309F44EC020E032
:1011F00030E040E151E46B017C01C701B6012BC036
:101200000A81602F6F7770E080E090E00E940B13FE
:1012100020E030E040E853E40E94C0136B017C0101
:101220008B81682F70E080E090E00E940B139B019F
:10123000AC01C701B6010E94F01120E030E040E2AD
:1012400051E40E94611207FD90581123F1F020E053
:1012500030E040E151E40E94C01320E030E040EA79
:1012600050E40E94611220E030E040E052E40E942D
:10127000F0110BC067E171E085EA92E00E94A30ED5
:1012800040E030E020EC9FE703C0462F372F282FA7
:10129000C42ED32EE22EF92EC701B601DF91CF91D5
:1012A0001F910F91FF90EF90DF90CF900895809164
:1012B000150290E020911602821B910908959091E9
:1012C000160280911502981750F4E92FF0E0E95EBC
:1012D000FD4F208130E09F5F9093160202C02FEFF8
:1012E0003FEFC9010895E091160280911502E817B9
:1012F00030F4F0E0E95EFD4F808190E008958FEFDB
:101300009FEF08950895CF92DF92EF92FF920F938F
:101310001F93CF93DF937C01262F972F8A01809113
:10132000F101882391F0C62FD72F6E01C40ED51E70
:10133000CC15DD0571F06991D701ED91FC9101901B
:10134000F081E02DC7010995F3CF642F822F0E9411
:10135000430BC801DF91CF911F910F91FF90EF9048
:10136000DF90CF900895CF93DF931F92CDB7DEB774
:1013700069832091F1012223D1F02091F2012032E2
:1013800040F021E030E0FC013383228380E090E0F4
:1013900015C08091F301E82FF0E0EC50FE4F9981E9
:1013A00090838F5F8093F3018093F20105C061E029
:1013B000CE0101960E94430B81E090E00F90DF91F7
:1013C000CF910895FC011382128288EE93E0A0E091
:1013D000B0E084839583A683B78385E291E091830F
:1013E0008083089510921602109215021092F30154
:1013F0001092F2010C94870A81E08093F1016093CE
:1014000014021092F3011092F20108950F93062F27
:1014100021E04091F20164EF71E0809114020E949A
:10142000ED0A1092F3011092F2011092F1010F9166
:1014300008954F925F926F927F92AF92BF92CF9238
:10144000EF92FF920F931F93CF93DF935C01F62EE1
:10145000D42F28013901EE2021F10E94FC09CE2D64
:10146000C43008F0C3E0C150C0F0D501ED91FC914B
:10147000B8E0CB9FC0011124A301920104C056958E
:101480004795379527958A95D2F7CA01B9010190FA
:10149000F081E02DC5010995E6CF60E0C5010E940D
:1014A000060A4D2FD13208F040E22C2D67E172E0A0
:1014B0008F2D0E94A50A1092160280931502DF91CB
:1014C000CF911F910F91FF90EF90CF90BF90AF9071
:1014D0007F906F905F904F900895CF92EF920F930F
:1014E0001F93C22EE12C00E010E098010E94190A1F
:1014F0001F910F91EF90CF90089521E00C946D0A09
:1015000061E00C94060A85EE91E00C94E2091092D9
:10151000A40281E08093A2021092A10261E082E124
:101520000E94951161E083E10E949511E9EBF0E0E2
:1015300080818E7F808380818D7F808388E480930B
:10154000B80085E48093BC000895413208F043C0A0
:101550009091A4029111FCCF91E09093A40220936A
:10156000A2022FEF2093370210927C02240F2093C7
:101570007B029093A3029091A302880F892B809302
:10158000A3028091A102813061F41092A1028091A6
:10159000A3028093BB008091BC0083FDF8CF85EC53
:1015A00001C085EE8093BC008091A4028130E1F3FC
:1015B00080917C02841710F440917C022DE732E088
:1015C000FB01D9018A2F821B841718F48D91819316
:1015D000F9CF842F089580E008950F93413208F0E9
:1015E0004AC09091A4029111FCCF32E03093A40242
:1015F0000093A2023FEF3093370210927C02409397
:101600007B02FB016DE772E0DB013A2F361B3417DA
:1016100018F431913D93F9CF1092A3023091A302B7
:10162000880F832B8093A3028091A102813061F403
:101630001092A1028091A3028093BB008091BC0014
:1016400083FDF8CF85EC01C085EE8093BC0022239A
:1016500021F08091A4028230D1F3809137028F3F34
:1016600079F080913702803241F0809137028033E7
:1016700031F094E005C091E003C092E001C093E036
:10168000892F0F910895613298F42091A40224309B
:1016900089F460935902FC012BE532E0D9018A2FCD
:1016A000821B861718F481918D93F9CF80E00895FD
:1016B00081E0089582E0089585ED8093BC008091DB
:1016C000BC0084FDFCCF1092A402089585EC8093A9
:1016D000BC001092A40208951F920F920FB60F92B1
:1016E00011242F933F934F935F936F937F938F9327
:1016F0009F93AF93BF93EF93FF938091B900887F3F
:10170000803609F49EC078F5883209F45DC090F403
:10171000803109F456C038F4882309F4F5C08830C4
:1017200009F44FC0F5C0883109F44EC0803209F485
:101730005FC0EEC0803409F46AC058F4803309F405
:1017400057C0883309F0E4C0809337020E94660BCB
:10175000DFC0803509F44FC0883509F45DC0883496
:1017600009F0D6C0D3C0883909F4C4C0A8F48837BA
:1017700009F467C038F4883609F463C0803709F487
:1017800060C0C6C0883809F4B5C0803909F45FC0AC
:10179000803809F0BDC05BC0803B09F483C038F4D9
:1017A000803A09F466C0883A09F47CC0B1C0803C34
:1017B00009F4A4C0883C09F4A1C0883B09F487C09F
:1017C000A7C08091A30210C090917C0280917B02FF
:1017D000981770F5E0917C0281E08E0F80937C0277
:1017E000F0E0E358FD4F80818093BB0085EC83C01F
:1017F000809337028BC0E0917C0281E08E0F809352
:101800007C028091BB00F0E0E358FD4F8083909113
:101810007C0280917B026BC0E0917C0281E08E0FA4
:1018200080937C028091BB00F0E0E358FD4F808301
:101830008091A20281116AC081E08093A10284EAB2
:101840005EC083E08093A40210923802CFCF8091D3
:101850003802803208F04EC0E091380281E08E0FED
:10186000809338028091BB00F0E0E75CFD4F8083FD
:10187000BDCF0E94660B80913802803230F4E09137
:101880003802F0E0E75CFD4F10826091380270E0B2
:10189000E0919D02F0919E0289E392E009951092F9
:1018A000380236C084E08093A40210925A0210924B
:1018B0005902E0919F02F091A0020995809159028E
:1018C000811105C081E08093590210925B02E09182
:1018D0005A0281E08E0F80935A02F0E0E55AFD4FE4
:1018E00080818093BB0090915A0280915902981791
:1018F00008F47CCF85E88093BC000AC085EC809317
:10190000BC001092A40204C0109237020E945C0B2B
:10191000FF91EF91BF91AF919F918F917F916F91C7
:101920005F914F913F912F910F900FBE0F901F909D
:101930001895FC01918D228D892F90E0805C9F4F3E
:10194000821B91098F7399270895FC01918D828DD7
:10195000981731F0828DE80FF11D858D90E0089584
:101960008FEF9FEF0895FC01918D828D981761F0A4
:10197000828DDF01A80FB11D5D968C91928D9F5FC6
:101980009F73928F90E008958FEF9FEF08958CE101
:101990009EE0892B49F080E090E0892B29F00E949D
:1019A0001C0E81110C9400000895FC01848DDF0150
:1019B000A80FB11DA35ABF4F2C91848D90E00196C2
:1019C0008F739927848FA689B7892C93A089B189B1
:1019D0008C9180648C93938D848D981306C00288BB
:1019E000F389E02D80818F7D80830895CF93DF93ED
:1019F000EC01888D8823C9F0EA89FB89808185FD07
:101A000005C0A889B9898C9186FD0FC00FB607FC67
:101A1000F5CF808185FFF2CFA889B9898C9185FFA8
:101A2000EDCFCE010E94D50CE7CFDF91CF91089585
:101A3000EF92FF920F931F93CF93DF93EC0181E01E
:101A4000888F9B8D8C8D981305C0E889F9898081DA
:101A500085FD24C0F62E0B8D10E00F5F1F4F0F7316
:101A60001127E02E8C8DE8120CC00FB607FCFACFC0
:101A7000E889F989808185FFF5CFCE010E94D50CD8
:101A8000F1CF8B8DFE01E80FF11DE35AFF4FF0827D
:101A90000B8FEA89FB898081806207C0EE89FF890C
:101AA0006083E889F98980818064808381E090E0A7
:101AB000DF91CF911F910F91FF90EF900895CF92FA
:101AC000DF92EF92FF921F93CF93DF93EC016A01B5
:101AD0007B01122FE889F98982E080834115514EFC
:101AE00061057105B1F060E079E08DE390E0A70158
:101AF00096010E945A14DA01C9010197A109B1099E
:101B0000B695A79597958795AC01411580E1580743
:101B1000A8F0E889F989108260E874E88EE190E025
:101B2000A70196010E945A14BA01A9014150510916
:101B3000610971097695679557954795EC85FD85FF
:101B40005083EE85FF854083188EEC89FD891083D4
:101B5000EA89FB89808180618083EA89FB898081B1
:101B600088608083EA89FB89808180688083EA8934
:101B7000FB8980818F7D8083DF91CF911F91FF90C2
:101B8000EF90DF90CF9008951F920F920FB60F92B3
:101B900011242F938F939F93EF93FF93E091B502BE
:101BA000F091B6028081E091BB02F091BC0282FD0F
:101BB00012C090818091BE028F5F8F732091BF020F
:101BC000821751F0E091BE02F0E0EB55FD4F958F8A
:101BD0008093BE0201C08081FF91EF919F918F9110
:101BE0002F910F900FBE0F901F9018951F920F927C
:101BF0000FB60F9211242F933F934F935F936F93E0
:101C00007F938F939F93AF93BF93EF93FF9385EA57
:101C100092E00E94D50CFF91EF91BF91AF919F91FF
:101C20008F917F916F915F914F913F912F910F9085
:101C30000FBE0F901F90189585EA92E00E94990CB4
:101C400021E0892B09F420E0822F0895E5EAF2E0F3
:101C50001382128288EE93E0A0E0B0E08483958343
:101C6000A683B78385E391E09183808385EC90E040
:101C70009587848784EC90E09787868780EC90E056
:101C8000918B808B81EC90E0938B828B82EC90E047
:101C9000958B848B86EC90E0978B868B118E128EC1
:101CA000138E148E089508950E94F5100E94530E0D
:101CB0000E94D200C7ECDCE00E9488072097E1F385
:101CC0000E94C70CF9CFCF92DF92EF92FF920F9351
:101CD0001F93CF93DF936C017A018B01C0E0D0E0BA
:101CE000CE15DF0589F0D8016D918D01D601ED91FA
:101CF000FC910190F081E02DC6010995892B11F42A
:101D00007E0102C02196ECCFC701DF91CF911F91D8
:101D10000F91FF90EF90DF90CF90089561157105BE
:101D200079F0FB0101900020E9F73197AF01461BE4
:101D3000570BDC01ED91FC910280F381E02D0994B9
:101D400080E090E008950C948E0EDC01ED91FC9102
:101D50000190F081E02D099461E471E00C948E0E05
:101D60008F929F92AF92BF92CF92DF92EF92FF92AB
:101D70000F931F93CF93DF93CDB7DEB7A1970FB625
:101D8000F894DEBF0FBECDBF6C01142FE52FCB0141
:101D9000022F19A2223008F40AE07E0121E2E20EAD
:101DA000F11C802E912CA12CB12C612F7E2FA5012E
:101DB00094010E945A14029F1019112481E0E81A1C
:101DC000F1081A3014F4105D01C0195CF70110839A
:101DD000122FE32FCA01232B242B252B31F7B70118
:101DE000C6010E948E0EA1960FB6F894DEBF0FBEFC
:101DF000CDBFDF91CF911F910F91FF90EF90DF90BA
:101E0000CF90BF90AF909F908F900895CF92DF9228
:101E1000EF92FF920F931F93CF93DF93EC016A0130
:101E20007B012115310579F4E881F9810190F08178
:101E3000E02D642FDF91CF911F910F91FF90EF90D4
:101E4000DF90CF9009942A303105E9F477FF1AC06A
:101E50006DE20E94A50E8C0144275527BA014C194A
:101E60005D096E097F092AE0CE010E94B00E800F45
:101E7000911FDF91CF911F910F91FF90EF90DF9015
:101E8000CF9008952AE0B701A601CE01DF91CF914E
:101E90001F910F91FF90EF90DF90CF900C94B00EB8
:101EA0004F925F926F927F928F929F92AF92BF926A
:101EB000CF92DF92EF92FF92CF93DF93EC016A0112
:101EC0007B01B22E9A01AB01C701B6010E942D140D
:101ED000882319F064E471E027C026013701E894F3
:101EE00077F82FEF3FEF4FE75FE7C301B2010E94A2
:101EF0002D1481110DC02FEF3FEF4FE75FE7C301B6
:101F0000B2010E945C1218161CF468E471E00CC067
:101F10002FEF3FEF4FE75FE4C701B6010E94BB130D
:101F200018169CF46CE471E0CE01DF91CF91FF9024
:101F3000EF90DF90CF90BF90AF909F908F907F9069
:101F40006F905F904F900C948E0E2FEF3FEF4FE706
:101F50005FECC701B6010E945C1287FDE3CF20E071
:101F600030E0A901C701B6010E945C1287FF0AC0D8
:101F70006DE2CE010E94A50E4C01F7FAF094F7F83D
:101F8000F09402C0812C912CA12C60E070E080E0E4
:101F90009FE3AB1441F020E030E040E251E40E94C6
:101FA0006112A394F6CF9B01AC01C701B6010E9458
:101FB000F0112B013C010E94DA126B017C010E949E
:101FC00009139B01AC01C301B2010E94EF112B0167
:101FD0003C012AE0B701A601CE010E94B00E7C01AF
:101FE000E80CF91CBB2039F060E571E0CE010E94DD
:101FF0008E0EE80EF91EDB2CDD2039F120E030E0FA
:1020000040E251E4C301B2010E94C0132B013C0124
:102010000E94D3124B01770FAA08BB082AE030E0D8
:10202000B501A401CE010E94060FE80EF91EC501FC
:10203000B4010E940B139B01AC01C301B2010E94C9
:10204000EF112B013C01DA94D7CFC701DF91CF917B
:10205000FF90EF90DF90CF90BF90AF909F908F90C8
:102060007F906F905F904F9008950F931F93CF9341
:10207000DF93EC010E94500F8C01CE010E94AC0E48
:10208000800F911FDF91CF911F910F9108951F92A3
:102090000F920FB60F9211242F933F938F939F931C
:1020A000AF93BF938091430390914403A091450364
:1020B000B09146033091420323E0230F2D3720F4E3
:1020C0000196A11DB11D05C026E8230F0296A11D92
:1020D000B11D209342038093430390934403A09344
:1020E0004503B09346038091470390914803A09124
:1020F0004903B0914A030196A11DB11D8093470386
:1021000090934803A0934903B0934A03BF91AF91C2
:102110009F918F913F912F910F900FBE0F901F9025
:1021200018952FB7F8946091430370914403809100
:102130004503909146032FBF08953FB7F8948091CF
:10214000470390914803A0914903B0914A0326B5F3
:10215000A89B05C02F3F19F00196A11DB11D3FBFDF
:10216000BA2FA92F982F8827820F911DA11DB11D6D
:10217000BC01CD0142E0660F771F881F991F4A9569
:10218000D1F70895CF92DF92EF92FF92CF93DF9332
:102190006B017C010E949D10EB01C114D104E1048C
:1021A000F10489F00E94EE110E949D106C1B7D0BC2
:1021B000683E734090F381E0C81AD108E108F10845
:1021C000C851DC4FEACFDF91CF91FF90EF90DF90C5
:1021D000CF9008958230910538F0880F991F880FAD
:1021E000991F05970197F1F70895789484B5826057
:1021F00084BD84B5816084BD85B5826085BD85B5AB
:10220000816085BDEEE6F0E0808181608083E1E859
:10221000F0E0108280818260808380818160808391
:10222000E0E8F0E0808181608083E1EBF0E0808194
:1022300084608083E0EBF0E0808181608083EAE766
:10224000F0E08081846080838081826080838081EF
:10225000816080838081806880831092C1000895AE
:10226000833081F028F4813099F08230A1F0089514
:102270008730A9F08830B9F08430D1F480918000A3
:102280008F7D03C0809180008F77809380000895B8
:1022900084B58F7702C084B58F7D84BD0895809109
:1022A000B0008F7703C08091B0008F7D8093B00025
:1022B0000895CF93DF9390E0FC01E458FF4F249101
:1022C000FC01E057FF4F8491882361F190E0880F73
:1022D000991FFC01E854FF4FC591D491FC01E255D0
:1022E000FF4FA591B491611109C09FB7F8948881FF
:1022F000209582238883EC912E230BC0623061F4F9
:102300009FB7F8943881822F809583238883EC913E
:102310002E2B2C939FBF06C08FB7F894E8812E2BED
:1023200028838FBFDF91CF9108951F93CF93DF93C1
:10233000282F30E0F901E859FF4F8491F901E45862
:10234000FF4FD491F901E057FF4FC491CC23C9F05E
:10235000162F81110E943011EC2FF0E0EE0FFF1FBD
:10236000E255FF4FA591B4918FB7F894111105C0B4
:102370009C91ED2FE095E92302C0EC91ED2BEC93BD
:102380008FBFDF91CF911F910895CF93DF93282FB7
:1023900030E0F901E859FF4F8491F901E458FF4F0B
:1023A000D491F901E057FF4FC491CC2391F08111F2
:1023B0000E943011EC2FF0E0EE0FFF1FEC55FF4FA5
:1023C000A591B491EC91ED2381E090E021F480E0BF
:1023D00002C080E090E0DF91CF91089508955058B9
:1023E000BB27AA270E9407120C9481130E94731323
:1023F00038F00E947A1320F039F49F3F19F426F444
:102400000C9470130EF4E095E7FB0C946A13E92F1B
:102410000E94921358F3BA1762077307840795074F
:1024200020F079F4A6F50C94B4130EF4E0950B2E7D
:10243000BA2FA02D0B01B90190010C01CA01A00116
:102440001124FF27591B99F0593F50F4503E68F171
:102450001A16F040A22F232F342F4427585FF3CFB2
:10246000469537952795A795F0405395C9F77EF483
:102470001F16BA0B620B730B840BBAF09150A1F0CC
:10248000FF0FBB1F661F771F881FC2F70EC0BA0F52
:10249000621F731F841F48F4879577956795B795DA
:1024A000F7959E3F08F0B0CF9395880F08F09927D5
:1024B000EE0F9795879508950E94461308F481E0E2
:1024C00008950E9475120C9481130E947A1358F09B
:1024D0000E94731340F029F45F3F29F00C946A13B3
:1024E00051110C94B5130C9470130E94921368F35D
:1024F0009923B1F3552391F3951B550BBB27AA27BD
:1025000062177307840738F09F5F5F4F220F331FF6
:10251000441FAA1FA9F335D00E2E3AF0E0E832D0BE
:1025200091505040E695001CCAF72BD0FE2F29D0C1
:10253000660F771F881FBB1F261737074807AB0793
:10254000B0E809F0BB0B802DBF01FF2793585F4F08
:102550003AF09E3F510578F00C946A130C94B51331
:102560005F3FE4F3983ED4F3869577956795B795EA
:10257000F7959F5FC9F7880F911D9695879597F9F5
:102580000895E1E0660F771F881FBB1F621773076E
:102590008407BA0720F0621B730B840BBA0BEE1F83
:1025A00088F7E09508950E94DA126894B1110C94AE
:1025B000B51308950E949A1388F09F5798F0B92F89
:1025C0009927B751B0F0E1F0660F771F881F991F68
:1025D0001AF0BA95C9F714C0B13091F00E94B41343
:1025E000B1E008950C94B413672F782F8827B85F53
:1025F00039F0B93FCCF3869577956795B395D9F7C0
:102600003EF490958095709561957F4F8F4F9F4FC9
:102610000895E89409C097FB3EF4909580957095D5
:1026200061957F4F8F4F9F4F9923A9F0F92F96E91E
:10263000BB279395F695879577956795B795F11193
:10264000F8CFFAF4BB0F11F460FF1BC06F5F7F4F30
:102650008F4F9F4F16C0882311F096E911C0772342
:1026600021F09EE8872F762F05C0662371F096E84B
:10267000862F70E060E02AF09A95660F771F881F1A
:10268000DAF7880F9695879597F90895990F0008BE
:10269000550FAA0BE0E8FEEF16161706E807F90734
:1026A000C0F012161306E407F50798F0621B730BCF
:1026B000840B950B39F40A2661F0232B242B252B50
:1026C00021F408950A2609F4A140A6958FEF811DF3
:1026D000811D089597F99F6780E870E060E0089594
:1026E0009FEF80EC089500240A941616170618062A
:1026F0000906089500240A94121613061406050606
:102700000895092E0394000C11F4882352F0BB0F96
:1027100040F4BF2B11F460FF04C06F5F7F4F8F4FF9
:102720009F4F089557FD9058440F551F59F05F3F34
:1027300071F04795880F97FB991F61F09F3F79F0E3
:1027400087950895121613061406551FF2CF469565
:10275000F1DF08C0161617061806991FF1CF8695E7
:102760007105610508940895E894BB2766277727CB
:10277000CB0197F908950E94461308F48FEF08954E
:102780000E94D3130C9481130E94731338F00E949B
:102790007A1320F0952311F00C946A130C947013A3
:1027A00011240C94B5130E94921370F3959FC1F3FA
:1027B000950F50E0551F629FF001729FBB27F00DEF
:1027C000B11D639FAA27F00DB11DAA1F649F662744
:1027D000B00DA11D661F829F2227B00DA11D621F93
:1027E000739FB00DA11D621F839FA00D611D221F4D
:1027F000749F3327A00D611D231F849F600D211D31
:10280000822F762F6A2F11249F5750409AF0F1F0B3
:1028100088234AF0EE0FFF1FBB1F661F771F881F1C
:1028200091505040A9F79E3F510580F00C946A13D7
:102830000C94B5135F3FE4F3983ED4F386957795F7
:102840006795B795F795E7959F5FC1F7FE2B880FC2
:10285000911D9695879597F908950E944613880BC8
:10286000990B0895AA1BBB1B51E107C0AA1FBB1FF0
:10287000A617B70710F0A61BB70B881F991F5A950C
:10288000A9F780959095BC01CD01089597FB072E7F
:1028900016F4009407D077FD09D00E94321407FC8B
:1028A00005D03EF4909581959F4F08957095619560
:1028B0007F4F0895A1E21A2EAA1BBB1BFD010DC07C
:1028C000AA1FBB1FEE1FFF1FA217B307E407F507E0
:1028D00020F0A21BB30BE40BF50B661F771F881FBC
:1028E000991F1A9469F760957095809590959B0152
:1028F000AC01BD01CF010895EE0FFF1F0590F491CB
:10290000E02D0994F999FECF92BD81BDF89A9927DF
:0829100080B50895F894FFCF93
:10291800230028002D00320037003C000E00000084
:10292800C841320101010152656164206661696C28
:102938000000000000B309830957095F0973098281
:102948000900000000180D630E990CB30CA50CF6D5
:102958000C0D0A006E616E00696E66006F76660087
:022968002E003F
:00000001FF
