:100000000C9464000C948C000C948C000C948C0068
:100010000C948C000C948C000C948C000C948C0030
:100020000C948C000C948C000C948C000C94A2000A
:100030000C948C000C948C000C948C000C948C0010
:100040000C945E100C948C000C947D0F0C94AF0FEC
:100050000C948C000C948C000C948C000C948C00F0
:100060000C94250D0C948C00000000080002010087
:100070000003040700000000000000000102040863
:100080001020408001020408102001020408102002
:10009000040404040404040402020202020203032E
:1000A00003030303000000002300260029000000D2
:1000B0000000250028002B0000000000240027007D
:1000C0002A00FB023C0CDF0F11241FBECFEFD8E04B
:1000D000DEBFCDBF11E0A0E0B1E0E8E5F9E202C08B
:1000E00005900D92A433B107D9F723E0A4E3B1E062
:1000F00001C01D92A033B207E1F710E0C4E6D0E0E2
:1001000004C02197FE010E948E14C136D107C9F7A1
:100110000E940D100C94AA140C9400001092800000
:1001200025E02093810029E03DE33093890020936E
:10013000880022E020936F0078949093C701809309
:10014000C60108951F920F920FB60F9211242F939C
:100150003F938F939F932091C8013091C901809163
:10016000C6019091C70101972817390728F010920E
:10017000C9011092C80109C08091C8019091C901BC
:1001800001969093C9018093C80110928500109246
:1001900084009F918F913F912F910F900FBE0F90F0
:1001A0001F9018954F925F927F928F929F92AF927D
:1001B000BF92CF92DF92EF92FF920F931F93CF9354
:1001C000DF93FC017A0140E050E000E010E0412CB8
:1001D000512C20E030E0712C4B018E0C9F1C5C01F7
:1001E00088E0A80EB11C8091C8019091C901C0900F
:1001F000C801D090C901C814D90408F05EC08617A0
:10020000970708F45AC0772089F083B1807190E095
:1002100082179307B9F0C080D180D6012D913C910F
:1002200011972F5F3F4F2D933C930CC0CF01DC0102
:10023000CD90DD90CD01D6011D921C928A159B05B3
:10024000B1F7E3CF29B1207130E02415350559F01D
:10025000C280D380D6014D905C90BFEF4B1A5B0AF1
:10026000D6014D925C92A3B1A0724A2E512C401639
:10027000510651F0C480D580D6010D911C91119783
:100280000F5F1F4F0D931C9316B11170C12FB0E07B
:10029000DB2FC417D50751F006811781D8014D9186
:1002A0005C9111974F5F5F4F4D935C9377247394EC
:1002B000AE01820129019C0196CFB1E07B1213C0EF
:1002C0009F01285F3F4FC191D1918881998197FD0E
:1002D000019695958795B7010E94441479836883A8
:1002E000E217F30781F7DF91CF911F910F91FF90F4
:1002F000EF90DF90CF90BF90AF909F908F907F90C6
:100300005F904F90089526E040E052EC61E070E08D
:100310008AE892E00E94180F8AEC91E00E94AB0BF1
:1003200062E086E00E94701162E087E00E94701136
:1003300062E088E00E94701162E089E00E94701122
:1003400062E081E10E94701161E083E00E9470111F
:1003500061E085E00E94701181E090E00E949414B9
:1003600090E09093700180936F0182E090E00E9492
:10037000941490E090936C0180936B0183E090E083
:100380000E94941490E0909368018093670184E048
:1003900090E00E94941490E0909364018093630134
:1003A00084E190E00E948E0080E090E020E030E068
:1003B000F901E55AFE4FA9014D5A5E4F5183408322
:1003C00001962E5F3F4F8430910591F79093520133
:1003D0008093510108950F931F93809142018111E1
:1003E00003C081E080933E0180914101811103C0EF
:1003F00081E080933D0180913E01882319F1809135
:10040000500181111FC00E94A81000913801109165
:10041000390120913A0130913B01DC01CB01801B75
:10042000910BA20BB30B85319540A105B10520F0CE
:1004300081E080933E0106C080914001811102C09D
:1004400010923E0180913D01882319F180914F0166
:1004500081111FC00E94A810009134011091350134
:100460002091360130913701DC01CB01801B910BCB
:10047000A20BB30B85319540A105B10520F081E0B9
:1004800080933D0106C080913F01811102C010920E
:100490003D0180913C01811104C010923E011092F7
:1004A0003D0190914201911110923E012091410134
:1004B000211110923D0120915001211104C0911190
:1004C00002C081110AC00E94A81060933801709385
:1004D000390180933A0190933B0180914F01811142
:1004E00008C080914101811104C080913C018111BB
:1004F0000AC00E94A8106093340170933501809364
:1005000036019093370180913E01882321F091E0DC
:100510009093400102C01092400190913D019923B7
:1005200021F091E090933F0102C010923F01882397
:1005300011F05B9A01C05B9880913D01882311F016
:100540005D9A01C05D981F910F910895CF92DF923F
:10055000EF92FF92CF936B017C01CA01B901C9B13F
:10056000C6FBCC27C0F9C093080129B1221F22275E
:10057000221F2093070130910601C31799F02C1711
:1005800031F020E030E0A9010E94071207C09B0172
:10059000AC0160E070E0CB010E94061221E02093E4
:1005A000A90105C01092A90160E070E0CB01C093E1
:1005B00006019B01AC01C701B6010E940712CF9151
:1005C000FF90EF90DF90CF9008952091A801422FE7
:1005D00050E08417950758F4662321F060E088EB1B
:1005E00091E003C060E08AEA91E00C948F0A2F5FEB
:1005F0002093A801089526E046E16FE088EB91E0A2
:100600000E94E40926E046E160E18AEA91E00E9466
:10061000E40962E070E089E791E00C945D091F93C2
:10062000CF93DF931F92CDB7DEB7633609F463C073
:1006300058F5673009F455C090F4633009F44DC0A3
:1006400038F4613009F461C008F045C01FE36EC0A2
:10065000653009F464C008F042C016E667C06A322B
:1006600009F463C048F4693009F43FC0E0F1603236
:1006700009F05CC010E05AC06136C9F1D0F56D32A6
:1006800009F054C010E452C06C3609F440C080F444
:100690006736B9F128F4653681F188F51EE546C064
:1006A000693699F180F16A3609F040C01EE03EC01B
:1006B000623799F138F4603761F168F56E36B1F55B
:1006C00014E534C0643769F150F1653761F1693779
:1006D00069F51EE62BC01BE529C01FE427C01DE7F6
:1006E00025C017E023C01FE721C01FE61FC017E782
:1006F0001DC01CE71BC019E319C019E717C011E79B
:1007000015C01DE313C016E711C016E00FC018E3B3
:100710000DC013E70BC017E609C010E507C01DE6C2
:1007200005C018E703C01EE301C013E6682F8AEC7A
:1007300091E049830E94B50B612F8AEC91E00E9401
:100740006C0B4981612F411160688AEC91E00E9435
:100750006C0B8AEC91E00F90DF91CF911F910C947C
:10076000390C40E060E288E30E940F0340E060E261
:1007700089E30E940F0340E060E28AE30E940F03D6
:1007800040E060E28BE30C940F038F929F92AF9254
:10079000BF92CF92DF92EF92FF92CF93DF936B01E4
:1007A0007C010E94EA12EB01072E000C880B990BCA
:1007B0000E9422139B01AC01C701B6010E940612E0
:1007C00020E030E040E251E40E94D7134B015C018D
:1007D00020E030E040E251ECC701B6010E94731204
:1007E00018167CF140E06DE288E30E940F0320E0E0
:1007F00030E040E251E4C701B6010E9478126B017B
:100800007C0120E030E0A9010E94D21318161CF4EC
:10081000C701B60103C0C701B60190580E94F1128A
:1008200040E089E30E940F03CE016AE070E00E947D
:10083000581497FF03C091958195910941E0682F65
:1008400025C020E030E0A901C701B6010E94731263
:1008500087FF30C040E06DE288E30E940F0340E074
:1008600060E089E30E940F0320E030E0A901C701A6
:10087000B6010E94D21318161CF4C701B60103C0BA
:10088000C701B60190580E94F11241E08AE30E942C
:100890000F0320E030E0A901C501B4010E94D2138A
:1008A00018160CF448C0C501B40190580E94F1120A
:1008B00040E054C020E030E040E251E4C701B6011E
:1008C0000E94731287FF10C040E060E088E30E943E
:1008D0000F0340E060E089E30E940F03C701B60107
:1008E0000E94F11241E024C020E030E040E251E4F7
:1008F000C701B6010E94D21340E087FD1FC060E02F
:1009000088E30E940F0320E030E040E251E4C70199
:10091000B6010E9478120E94F11240E089E30E9421
:100920000F03CE016AE070E00E94581441E0682F86
:100930008AE30E940F03C501B401B8CF65E688E3DE
:100940000E940F0340E062E789E30E940F0340E04A
:1009500062E78AE30E940F0340E060E28BE3DF91ED
:10096000CF91FF90EF90DF90CF90BF90AF909F908E
:100970008F900C940F03EF92FF920F931F93CF93DE
:10098000DF93EC018A30910568F440E060E088E391
:100990000E940F0340E060E089E30E940F0340E003
:1009A00060E014C084369105B8F440E060E088E36C
:1009B0000E940F0340E060E089E30E940F03CE0134
:1009C0006AE070E00E944414C82F40E08AE30E946D
:1009D0000F0340E06C2F42C0C83E83E0D80798F474
:1009E00040E060E088E30E940F03CE0164E670E01F
:1009F0000E9444147C0140E089E30E940F030AE056
:100A000010E0C7011EC0C03187E2D80780F5CE01D3
:100A100068EE73E00E9444147C0140E088E30E9489
:100A20000F0304E610E0C701B8010E94441440E03F
:100A300089E30E940F03CE01B8010E9444140AE02A
:100A400010E0B8010E94441440E08AE30E940F03C2
:100A5000CE01B8010E94441440E0682F8BE3DF917F
:100A6000CF911F910F91FF90EF900C940F03DF91A6
:100A7000CF911F910F91FF90EF900895CF92DF9249
:100A8000EF92FF92CF936B017C01C42F42E350E0C1
:100A900060E070E089E791E00E9477098823A9F07F
:100AA000C701B601CC2339F0CF91FF90EF90DF90D2
:100AB000CF900C94C5030E94EA12CB01CF91FF9016
:100AC000EF90DF90CF900C94BB04CF91FF90EF900C
:100AD000DF90CF900C94B1034F925F926F927F9210
:100AE0008F929F92AF92BF92CF92DF92EF92FF923E
:100AF0000F93CF936B017C0149015A018091A901A9
:100B0000882369F081E0809378010E94A8106093A7
:100B10007401709375018093760190937701C09171
:100B20007801CC2391F10E94A8104090740150905C
:100B300075016090760170907701DC01CB0184191A
:100B40009509A609B7098D3B9240A105B10598F01A
:100B5000C701B601002319F00E94C50305C00E9419
:100B6000EA12CB010E94BB04C0917301CC23C9F0EF
:100B70001092730116C0402FC501B4010E943E05BA
:100B800081E080937301C0E00CC0C701B60100236F
:100B900019F00E94C50305C00E94EA12CB010E9411
:100BA000BB048C2FCF910F91FF90EF90DF90CF90EF
:100BB000BF90AF909F908F907F906F905F904F907D
:100BC0000895CF93C62F682F8AEC91E00E94B50B51
:100BD00060E08AEC91E00E946C0B6C2F8AEC91E053
:100BE0000E946C0B8AEC91E0CF910C94390CCF925F
:100BF000DF92EF92FF920F93CF93339B02C081E07D
:100C000001C082E0809305016091490170914A0121
:100C10008CE20E94E10560914701709148018DE2EC
:100C20000E94E10560916701709168018EE20E9467
:100C3000E10560916301709164018FE20E94E1051A
:100C400061E084E690E00E94E502609343017093C6
:100C50004401809345019093460160910401262F41
:100C600030E080916F0190917001C297820F931FC5
:100C700090934A018093490180916B0190916C019E
:100C8000C297280F391F3093480120934701C09124
:100C90000501C13021F0C23009F450C09FC070E09E
:100CA00080E090E00E94201320E030E040E85FE325
:100CB0000E94A6020E94F1126093040170E080E09D
:100CC00090E00E94201300E09B01AC010E946C05A3
:100CD00080910401853620F084E68093040104C0ED
:100CE000811102C0C09304018091490190914A0191
:100CF000863491051CF486E490E006C08F3F910590
:100D000039F034F08FEF90E090934A0180934901DD
:100D10008091470190914801863491051CF486E446
:100D200090E007C08F3F910509F00CF457C08FEF9A
:100D300090E0909348018093470150C0609100017A
:100D400070910101809102019091030120E030E057
:100D500040E05FE30E94A6029B01AC0160930001AA
:100D6000709301018093020190930301609143010C
:100D700070914401809145019091460101E00E94EB
:100D80006C05C0900001D0900101E0900201F0904C
:100D9000030120E030E04CE052E4C701B6010E94BC
:100DA000D21318162CF480E090E0ACE0B2E40EC050
:100DB00020E030E044E951E4C701B6010E9473121B
:100DC00087FF0CC080E090E0A0E9B1E480930001CF
:100DD00090930101A0930201B093030120910001BF
:100DE0003091010140910201509103016091430152
:100DF0007091440180914501909146010E94061234
:100E000020E030E0A9010E94D213181624F481E0FA
:100E100080933C0102C010923C0128B190913C01AA
:100E200030E4939FC0011124822B88B9CF910F9198
:100E3000FF90EF90DF90CF900C94EB010F93CF9346
:100E4000DF9300D000D0CDB7DEB760916F01709115
:100E5000700180E090E00E94201320E030E040E844
:100E60005FE30E94A6020E94F1126F3F710521F01C
:100E700018F08FEF90E00AC06115710529F07093AA
:100E8000700160936F0106C081E090E09093700163
:100E900080936F0160916F017091700180E090E02C
:100EA0000E9420139B01AC0180917101909172010D
:100EB000BC0180E090E029833A834B835C830E94ED
:100EC000201300E029813A814B815C810E946C05EE
:100ED000882331F060916F0181E090E00E949C14C2
:100EE00060916F01709170018CE20F900F900F90E4
:100EF0000F90DF91CF910F910C94E1050F93CF9359
:100F0000DF9300D000D0CDB7DEB760916B01709158
:100F10006C0180E090E00E94201320E030E040E887
:100F20005FE30E94A6020E94F1126F3F710521F05B
:100F300018F08FEF90E00AC06115710529F07093E9
:100F40006C0160936B0106C081E090E090936C01AE
:100F500080936B0160916B0170916C0180E090E077
:100F60000E9420139B01AC0180916D0190916E0154
:100F7000BC0180E090E029833A834B835C830E942C
:100F8000201300E029813A814B815C810E946C052D
:100F9000882331F060916B0182E090E00E949C1404
:100FA00060916B0170916C018DE20F900F900F902A
:100FB0000F90DF91CF910F910C94E1050F93CF9398
:100FC000DF9300D000D0CDB7DEB76091670170919C
:100FD000680180E090E00E94201320E030E040E8CB
:100FE0005FE30E94A6020E94F1126F3F710521F09B
:100FF00018F08FEF90E00AC06115710529F0709329
:1010000068016093670106C081E090E090936801F9
:1010100080936701609167017091680180E090E0C2
:101020000E9420139B01AC018091690190916A019B
:10103000BC0180E090E029833A834B835C830E946B
:10104000201300E029813A814B815C810E946C056C
:10105000882331F06091670183E090E00E949C1446
:1010600060916701709168018EE20F900F900F9070
:101070000F90DF91CF910F910C94E1050F93CF93D7
:10108000DF9300D000D0CDB7DEB7609163017091DF
:10109000640180E090E00E94201320E030E040E80E
:1010A0005FE30E94A6020E94F1126F3F710521F0DA
:1010B00018F08FEF90E00AC06115710529F0709368
:1010C00064016093630106C081E090E09093640145
:1010D00080936301609163017091640180E090E00E
:1010E0000E9420139B01AC018091650190916601E3
:1010F000BC0180E090E029833A834B835C830E94AB
:10110000201300E029813A814B815C810E946C05AB
:10111000882331F06091630184E090E00E949C1488
:1011200060916301709164018FE20F900F900F90B6
:101130000F90DF91CF910F910C94E105CF9348E090
:1011400050E0BC018AEC91E00E94360C8AEC91E000
:101150000E94100B892B31F08AEC91E00E94180B51
:10116000C82FF4CF8C2FCF9108958CE390E00E948C
:101170009E088F7008958DE390E00E949E08817014
:10118000809350018DE390E00E949E0886958170C7
:1011900080934F018CE390E00E949E0882958170BD
:1011A00080934E018CE390E00E949E0885FB882787
:1011B00080F980934D018CE390E00E949E0886FBAD
:1011C000882780F980934C018CE390E00E949E0870
:1011D000881F8827881F80934B0183B1817080937B
:1011E000420183B1869581708093410108950E94E8
:1011F000BB0841E050E065E070E08BE591E00E94C3
:10120000D200E0915D01F0915E0180819181909327
:10121000720180937101E0916101F091620180811E
:10122000918190936E0180936D01E0915B01F0914B
:101230005C018081918190936A0180936901E091C2
:101240005F01F091600180819181909366018093AC
:1012500065010E94B5088B3099F030F4882391F035
:101260008730B9F40C943E088E3041F08F3021F075
:101270008D3079F40C947E070C94F7050C941E07BE
:101280000C94DE0760E088EC90E00E94E5020C948C
:10129000C50340E060E08BE30E940F0340E06EE690
:1012A0008AE30E940F0340E060E289E30E940F039B
:1012B00040E060E288E30C940F03FC011086118685
:1012C0001286138615A214A216A217A210A611A6A2
:1012D00012A613A614A615A621E026A7CB01770F08
:1012E000AA0BBB0B848B958BA68BB78B08958F9223
:1012F0009F92AF92BF92CF92DF92EF92FF920F93A5
:101300001F93CF93DF93EC016A017B010E94A81029
:101310000C891D892E893F8902301105210531056F
:10132000D1F040F4013011052105310509F50E9485
:10133000B4101EC0033011052105310579F00430C9
:10134000110521053105A1F40E94A81020E63AEE0E
:1013500040E050E009C00E94A8100AC00E94A810F6
:1013600028EE33E040E050E00E946C14CA01B9015D
:10137000CC82DD82EE82FF820C851D852E853F8525
:101380004B015C01801A910AA20AB30A8C149D04D5
:10139000AE04BF0458F06C877D878E879F878C8D45
:1013A000811103C081E08C8F01C01C8E8C8DDF9178
:1013B000CF911F910F91FF90EF90DF90CF90BF9052
:1013C000AF909F908F900895FC016683478320879C
:1013D00081E085870895CF92DF92FF920F931F934C
:1013E000CF93DF93EC0161E08E810E94AC110E94EB
:1013F000A81009851A852B853C856017710782071F
:10140000930720F419861A861B861C862D852111C8
:1014100011C009851A852B853C85DC01CB01801B19
:10142000910BA20BB30B803D9740A105B10510F4C1
:1014300081E06DC01D860E94A81069877A878B871E
:101440009C871C821B821A821982188261E08E811D
:101450000E94701160E08E810E94AC1164E170E026
:1014600080E090E00E94D910F89461E08E810E94A3
:10147000AC1188E290E00E94011160E08E810E9430
:10148000701110E0F12C81E000E0C82ED12C8E818B
:101490000E94DC118C159D0539F40F5F81E090E00E
:1014A0000E9401110F3F99F78E810E94DC110F3FBE
:1014B000B9F0143090F010FD10C09F2D96959695C0
:1014C0009695FE01E90FF11D9081990F9083288573
:1014D000201710F491609083F3941F5F1535A1F6E7
:1014E000789487E28F1590F42C8130E048818981CF
:1014F00090E0840F911D4A81840F911D4B81840FD0
:10150000911D99272817390709F492CF80E0DF91C0
:10151000CF911F910F91FF90DF90CF900895CF92C0
:10152000DF92EF92FF920F931F93CF93DF93EC0123
:10153000162F0E94EB09882309F455C08F818B3048
:1015400031F008F450C08551823098F04CC06A8167
:1015500070E080E090E00E942013112309F44EC057
:1015600020E030E040E151E46B017C01C701B601AD
:101570002BC00A81602F6F7770E080E090E00E94BE
:10158000221320E030E040E853E40E94D7136B01BF
:101590007C018B81682F70E080E090E00E94221334
:1015A0009B01AC01C701B6010E94071220E030E0A8
:1015B00040E251E40E94781207FD90581123F1F0A7
:1015C00020E030E040E151E40E94D71320E030E019
:1015D00040EA50E40E94781220E030E040E052E41B
:1015E0000E9407120BC069E071E08AE892E00E9455
:1015F0005C1040E030E020EC9FE703C0462F372F1F
:10160000282FC42ED32EE22EF92EC701B601DF916A
:10161000CF911F910F91FF90EF90DF90CF900895A1
:101620008091FA0190E02091FB01821B91090895BD
:101630009091FB018091FA01981750F4E92FF0E0A6
:10164000E450FE4F208130E09F5F9093FB0102C089
:101650002FEF3FEFC9010895E091FB018091FA015E
:10166000E81730F4F0E0E450FE4F808190E00895F8
:101670008FEF9FEF08950895CF92DF92EF92FF9240
:101680000F931F93CF93DF937C01262F972F8A010F
:101690008091D601882391F0C62FD72F6E01C40EFA
:1016A000D51ECC15DD0571F06991D701ED91FC9146
:1016B0000190F081E02DC7010995F3CF642F822FAF
:1016C0000E94FC0CC801DF91CF911F910F91FF90F8
:1016D000EF90DF90CF900895CF93DF931F92CDB717
:1016E000DEB769832091D6012223D1F02091D70162
:1016F000203240F021E030E0FC013383228380E09F
:1017000090E015C08091D801E82FF0E0E752FE4F3D
:10171000998190838F5F8093D8018093D70105C012
:1017200061E0CE0101960E94FC0C81E090E00F90F8
:10173000DF91CF910895FC011382128288EE93E02D
:10174000A0E0B0E084839583A683B78387E191E02E
:101750009183808308951092FB011092FA011092F8
:10176000D8011092D7010C94400C81E08093D601EF
:101770006093F9011092D8011092D70108950F9348
:10178000062F21E04091D70169ED71E08091F901C8
:101790000E94A60C1092D8011092D7011092D60187
:1017A0000F9108954F925F926F927F92AF92BF9286
:1017B000CF92EF92FF920F931F93CF93DF935C0131
:1017C000F62ED42F28013901EE2021F10E94B50B0D
:1017D000CE2DC43008F0C3E0C150C0F0D501ED916A
:1017E000FC91B8E0CB9FC0011124A301920104C079
:1017F00056954795379527958A95D2F7CA01B9012D
:101800000190F081E02DC5010995E6CF60E0C501AA
:101810000E94BF0B4D2FD13208F040E22C2D6CEF0F
:1018200071E08F2D0E945E0C1092FB018093FA01F3
:10183000DF91CF911F910F91FF90EF90CF90BF90CC
:10184000AF907F906F905F904F900895CF92EF92FE
:101850000F931F93C22EE12C00E010E098010E942C
:10186000D20B1F910F91EF90CF90089521E00C942F
:10187000260C61E00C94BF0B8AEC91E00C949B0B5E
:101880001092890281E0809387021092860261E0C3
:1018900082E10E94AC1161E083E10E94AC11E9EBAE
:1018A000F0E080818E7F808380818D7F808388E4DB
:1018B0008093B80085E48093BC000895413208F01D
:1018C00043C0909189029111FCCF91E090938902DD
:1018D000209387022FEF20931C0210926102240FA5
:1018E000209360029093880290918802880F892B40
:1018F0008093880280918602813061F41092860282
:10190000809188028093BB008091BC0083FDF8CF5A
:1019100085EC01C085EE8093BC0080918902813006
:10192000E1F380916102841710F44091610222E694
:1019300032E0FB01D9018A2F821B841718F48D91A4
:101940008193F9CF842F089580E008950F93413259
:1019500008F04AC0909189029111FCCF32E0309397
:101960008902009387023FEF30931C0210926102BC
:1019700040936002FB0162E672E0DB013A2F361B06
:10198000341718F431913D93F9CF109288023091B9
:101990008802880F832B8093880280918602813091
:1019A00061F410928602809188028093BB0080913E
:1019B000BC0083FDF8CF85EC01C085EE8093BC00B0
:1019C000222321F0809189028230D1F380911C0280
:1019D0008F3F79F080911C02803241F080911C028F
:1019E000803331F094E005C091E003C092E001C083
:1019F00093E0892F0F910895613298F42091890224
:101A0000243089F460933E02FC0120E432E0D901E5
:101A10008A2F821B861718F481918D93F9CF80E06D
:101A2000089581E0089582E0089585ED8093BC00DB
:101A30008091BC0084FDFCCF10928902089585EC52
:101A40008093BC001092890208951F920F920FB6E6
:101A50000F9211242F933F934F935F936F937F9334
:101A60008F939F93AF93BF93EF93FF938091B900B0
:101A7000887F803609F49EC078F5883209F45DC00D
:101A800090F4803109F456C038F4882309F4F5C085
:101A9000883009F44FC0F5C0883109F44EC0803257
:101AA00009F45FC0EEC0803409F46AC058F4803392
:101AB00009F457C0883309F0E4C080931C020E94E7
:101AC0001F0DDFC0803509F44FC0883509F45DC0B3
:101AD000883409F0D6C0D3C0883909F4C4C0A8F44A
:101AE000883709F467C038F4883609F463C0803752
:101AF00009F460C0C6C0883809F4B5C0803909F45B
:101B00005FC0803809F0BDC05BC0803B09F483C072
:101B100038F4803A09F466C0883A09F47CC0B1C050
:101B2000803C09F4A4C0883C09F4A1C0883B09F4B6
:101B300087C0A7C08091880210C0909161028091F7
:101B40006002981770F5E091610281E08E0F80933A
:101B50006102F0E0EE59FD4F80818093BB0085EC7F
:101B600083C080931C028BC0E091610281E08E0FE4
:101B7000809361028091BB00F0E0EE59FD4F8083BD
:101B800090916102809160026BC0E091610281E0FE
:101B90008E0F809361028091BB00F0E0EE59FD4F03
:101BA00080838091870281116AC081E080938602E0
:101BB00084EA5EC083E08093890210921D02CFCF39
:101BC00080911D02803208F04EC0E0911D0281E03C
:101BD0008E0F80931D028091BB00F0E0E25EFD4F0E
:101BE0008083BDCF0E941F0D80911D02803230F492
:101BF000E0911D02F0E0E25EFD4F108260911D0257
:101C000070E0E0918202F09183028EE192E009950A
:101C100010921D0236C084E08093890210923F0228
:101C200010923E02E0918402F09185020995809124
:101C30003E02811105C081E080933E021092400275
:101C4000E0913F0281E08E0F80933F02F0E0E05C84
:101C5000FD4F80818093BB0090913F0280913E02B6
:101C6000981708F47CCF85E88093BC000AC085EC07
:101C70008093BC001092890204C010921C020E9442
:101C8000150DFF91EF91BF91AF919F918F917F9132
:101C90006F915F914F913F912F910F900FBE0F90D9
:101CA0001F901895FC01918D228D892F90E0805C0A
:101CB0009F4F821B91098F7399270895FC01918D85
:101CC000828D981731F0828DE80FF11D858D90E09F
:101CD00008958FEF9FEF0895FC01918D828D9817E5
:101CE00061F0828DDF01A80FB11D5D968C91928D00
:101CF0009F5F9F73928F90E008958FEF9FEF0895FD
:101D000085ED9FE0892B49F080E090E0892B29F058
:101D10000E94D50F81110C9400000895FC01848D60
:101D2000DF01A80FB11DA35ABF4F2C91848D90E005
:101D300001968F739927848FA689B7892C93A089E0
:101D4000B1898C9180648C93938D848D981306C097
:101D50000288F389E02D80818F7D80830895CF9361
:101D6000DF93EC01888D8823C9F0EA89FB898081A3
:101D700085FD05C0A889B9898C9186FD0FC00FB675
:101D800007FCF5CF808185FFF2CFA889B9898C91B6
:101D900085FFEDCFCE010E948E0EE7CFDF91CF9170
:101DA0000895EF92FF920F931F93CF93DF93EC016F
:101DB00081E0888F9B8D8C8D981305C0E889F98907
:101DC000808185FD24C0F62E0B8D10E00F5F1F4F24
:101DD0000F731127E02E8C8DE8120CC00FB607FC94
:101DE000FACFE889F989808185FFF5CFCE010E947D
:101DF0008E0EF1CF8B8DFE01E80FF11DE35AFF4FE0
:101E0000F0820B8FEA89FB898081806207C0EE89AE
:101E1000FF896083E889F98980818064808381E01B
:101E200090E0DF91CF911F910F91FF90EF90089577
:101E3000CF92DF92EF92FF921F93CF93DF93EC014B
:101E40006A017B01122FE889F98982E080834115BC
:101E5000514E61057105B1F060E079E08DE390E0ED
:101E6000A70196010E946C14DA01C9010197A1092A
:101E7000B109B695A79597958795AC01411580E175
:101E80005807A8F0E889F989108260E874E88EE1C3
:101E900090E0A70196010E946C14BA01A90141507B
:101EA0005109610971097695679557954795EC85B4
:101EB000FD855083EE85FF854083188EEC89FD8972
:101EC0001083EA89FB89808180618083EA89FB89AC
:101ED000808188608083EA89FB8980818068808333
:101EE000EA89FB8980818F7D8083DF91CF911F916B
:101EF000FF90EF90DF90CF9008951F920F920FB652
:101F00000F9211242F938F939F93EF93FF93E09160
:101F10009A02F0919B028081E091A002F091A102CF
:101F200082FD12C090818091A3028F5F8F732091F8
:101F3000A402821751F0E091A302F0E0E657FD4FB2
:101F4000958F8093A30201C08081FF91EF919F91B3
:101F50008F912F910F900FBE0F901F9018951F9289
:101F60000F920FB60F9211242F933F934F935F93CD
:101F70006F937F938F939F93AF93BF93EF93FF9351
:101F80008AE892E00E948E0EFF91EF91BF91AF918F
:101F90009F918F917F916F915F914F913F912F9181
:101FA0000F900FBE0F901F9018958AE892E00E9444
:101FB000520E21E0892B09F420E0822F0895EAE8EF
:101FC000F2E01382128288EE93E0A0E0B0E0848316
:101FD0009583A683B78387E291E09183808385EC24
:101FE00090E09587848784EC90E09787868780ECE3
:101FF00090E0918B808B81EC90E0938B828B82ECD4
:1020000090E0958B848B86EC90E0978B868B118E7D
:10201000128E138E148E089508950E940C110E9442
:102020000C100E948301C0E8DEE00E94F7082097B0
:10203000E1F30E94800EF9CFCF92DF92EF92FF92F0
:102040000F931F93CF93DF936C017A018B01C0E054
:10205000D0E0CE15DF0589F0D8016D918D01D60154
:10206000ED91FC910190F081E02DC6010995892B3D
:1020700011F47E0102C02196ECCFC701DF91CF9110
:102080001F910F91FF90EF90DF90CF900895611511
:10209000710579F0FB0101900020E9F73197AF015C
:1020A000461B570BDC01ED91FC910280F381E02D82
:1020B000099480E090E008950C9447101F920F92CD
:1020C0000FB60F9211242F933F938F939F93AF934B
:1020D000BF938091280390912903A0912A03B09186
:1020E0002B033091270323E0230F2D3720F4019693
:1020F000A11DB11D05C026E8230F0296A11DB11D2B
:10210000209327038093280390932903A0932A0305
:10211000B0932B0380912C0390912D03A0912E035B
:10212000B0912F030196A11DB11D80932C039093B4
:102130002D03A0932E03B0932F03BF91AF919F91D6
:102140008F913F912F910F900FBE0F901F90189578
:102150002FB7F894609128037091290380912A0386
:1021600090912B032FBF08953FB7F89480912C03D3
:1021700090912D03A0912E03B0912F0326B5A89B1B
:1021800005C02F3F19F00196A11DB11D3FBFBA2F09
:10219000A92F982F8827820F911DA11DB11DBC0169
:1021A000CD0142E0660F771F881F991F4A95D1F72E
:1021B0000895CF92DF92EF92FF92CF93DF936B015E
:1021C0007C010E94B410EB01C114D104E104F104BC
:1021D00089F00E9405120E94B4106C1B7D0B683EB2
:1021E000734090F381E0C81AD108E108F108C851A2
:1021F000DC4FEACFDF91CF91FF90EF90DF90CF904F
:1022000008958230910538F0880F991F880F991F23
:1022100005970197F1F70895789484B5826084BD9D
:1022200084B5816084BD85B5826085BD85B58160DA
:1022300085BDEEE6F0E0808181608083E1E8F0E03A
:102240001082808182608083808181608083E0E869
:10225000F0E0808181608083E1EBF0E08081846048
:102260008083E0EBF0E0808181608083EAE7F0E04A
:1022700080818460808380818260808380818160AE
:1022800080838081806880831092C10008958330AC
:1022900081F028F4813099F08230A1F008958730E0
:1022A000A9F08830B9F08430D1F4809180008F7D1E
:1022B00003C0809180008F7780938000089584B55B
:1022C0008F7702C084B58F7D84BD08958091B00062
:1022D0008F7703C08091B0008F7D8093B000089508
:1022E000CF93DF9390E0FC01E458FF4F2491FC0171
:1022F000E057FF4F8491882361F190E0880F991F88
:10230000FC01E854FF4FC591D491FC01E255FF4F09
:10231000A591B491611109C09FB7F8948881209567
:1023200082238883EC912E230BC0623061F49FB727
:10233000F8943881822F809583238883EC912E2B0B
:102340002C939FBF06C08FB7F894E8812E2B28836B
:102350008FBFDF91CF9108951F93CF93DF93282FE5
:1023600030E0F901E859FF4F8491F901E458FF4F3B
:10237000D491F901E057FF4FC491CC23C9F0162F37
:1023800081110E944711EC2FF0E0EE0FFF1FE25584
:10239000FF4FA591B4918FB7F894111105C09C918E
:1023A000ED2FE095E92302C0EC91ED2BEC938FBF6C
:1023B000DF91CF911F910895CF93DF93282F30E0C5
:1023C000F901E859FF4F8491F901E458FF4FD49186
:1023D000F901E057FF4FC491CC2391F081110E9485
:1023E0004711EC2FF0E0EE0FFF1FEC55FF4FA591CA
:1023F000B491EC91ED2381E090E021F480E002C003
:1024000080E090E0DF91CF91089508955058BB2768
:10241000AA270E941E120C9498130E948A1338F067
:102420000E94911320F039F49F3F19F426F40C9484
:1024300087130EF4E095E7FB0C948113E92F0E94BB
:10244000A91358F3BA17620773078407950720F09A
:1024500079F4A6F50C94CB130EF4E0950B2EBA2F5D
:10246000A02D0B01B90190010C01CA01A00111249A
:10247000FF27591B99F0593F50F4503E68F11A1646
:10248000F040A22F232F342F4427585FF3CF4695D7
:1024900037952795A795F0405395C9F77EF41F16F9
:1024A000BA0B620B730B840BBAF09150A1F0FF0FC3
:1024B000BB1F661F771F881FC2F70EC0BA0F621FAF
:1024C000731F841F48F4879577956795B795F7959F
:1024D0009E3F08F0B0CF9395880F08F09927EE0F34
:1024E0009795879508950E945D1308F481E00895FB
:1024F0000E948C120C9498130E94911358F00E9421
:102500008A1340F029F45F3F29F00C948113511194
:102510000C94CC130C9487130E94A91368F399238D
:10252000B1F3552391F3951B550BBB27AA276217CF
:102530007307840738F09F5F5F4F220F331F441FDC
:10254000AA1FA9F335D00E2E3AF0E0E832D0915010
:102550005040E695001CCAF72BD0FE2F29D0660FFD
:10256000771F881FBB1F261737074807AB07B0E840
:1025700009F0BB0B802DBF01FF2793585F4F3AF046
:102580009E3F510578F00C9481130C94CC135F3F5F
:10259000E4F3983ED4F3869577956795B795F795CC
:1025A0009F5FC9F7880F911D9695879597F90895B4
:1025B000E1E0660F771F881FBB1F62177307840750
:1025C000BA0720F0621B730B840BBA0BEE1F88F75F
:1025D000E09508950E94F1126894B1110C94CC1307
:1025E00008950E94B11388F09F5798F0B92F99274A
:1025F000B751B0F0E1F0660F771F881F991F1AF0EE
:10260000BA95C9F714C0B13091F00E94CB13B1E074
:1026100008950C94CB13672F782F8827B85F39F073
:10262000B93FCCF3869577956795B395D9F73EF486
:1026300090958095709561957F4F8F4F9F4F08952E
:10264000E89409C097FB3EF490958095709561954C
:102650007F4F8F4F9F4F9923A9F0F92F96E9BB2702
:102660009395F695879577956795B795F111F8CF7E
:10267000FAF4BB0F11F460FF1BC06F5F7F4F8F4FE9
:102680009F4F16C0882311F096E911C0772321F0DF
:102690009EE8872F762F05C0662371F096E8862F77
:1026A00070E060E02AF09A95660F771F881FDAF7CE
:1026B000880F9695879597F90895990F0008550FFB
:1026C000AA0BE0E8FEEF16161706E807F907C0F0B8
:1026D00012161306E407F50798F0621B730B840BC0
:1026E000950B39F40A2661F0232B242B252B21F49A
:1026F00008950A2609F4A140A6958FEF811D811D3A
:10270000089597F99F6780E870E060E008959FEF73
:1027100080EC089500240A94161617061806090678
:10272000089500240A941216130614060506089547
:10273000092E0394000C11F4882352F0BB0F40F4CF
:10274000BF2B11F460FF04C06F5F7F4F8F4F9F4F0F
:10275000089557FD9058440F551F59F05F3F71F091
:102760004795880F97FB991F61F09F3F79F08795F8
:102770000895121613061406551FF2CF4695F1DF81
:1027800008C0161617061806991FF1CF8695710511
:10279000610508940895E894BB2766277727CB0145
:1027A00097F908950E945D1308F48FEF08950E9431
:1027B000EA130C9498130E948A1338F00E94911324
:1027C00020F0952311F00C9481130C94871311249D
:1027D0000C94CC130E94A91370F3959FC1F3950F2D
:1027E00050E0551F629FF001729FBB27F00DB11D95
:1027F000639FAA27F00DB11DAA1F649F6627B00D25
:10280000A11D661F829F2227B00DA11D621F739F0D
:10281000B00DA11D621F839FA00D611D221F749F1B
:102820003327A00D611D231F849F600D211D822F62
:10283000762F6A2F11249F5750409AF0F1F0882389
:102840004AF0EE0FFF1FBB1F661F771F881F9150B6
:102850005040A9F79E3F510580F00C9481130C94D1
:10286000CC135F3FE4F3983ED4F386957795679554
:10287000B795F795E7959F5FC1F7FE2B880F911DE0
:102880009695879597F90895AA1BBB1B51E107C040
:10289000AA1FBB1FA617B70710F0A61BB70B881FF0
:1028A000991F5A95A9F780959095BC01CD0108957F
:1028B00097FB072E16F4009407D077FD09D00E94ED
:1028C000441407FC05D03EF4909581959F4F0895E0
:1028D000709561957F4F0895A1E21A2EAA1BBB1B2C
:1028E000FD010DC0AA1FBB1FEE1FFF1FA217B307DC
:1028F000E407F50720F0A21BB30BE40BF50B661FF2
:10290000771F881F991F1A9469F7609570958095B5
:1029100090959B01AC01BD01CF010895EE0FFF1F03
:102920000590F491E02D0994F999FECF92BD81BDF7
:10293000F89A992780B50895262FF999FECF1FBAE6
:1029400092BD81BD20BD0FB6F894FA9AF99A0FBED8
:0829500001960895F894FFCFF1
:102958000000C841320101010152656164206661CD
:10296800696C00000000006C0B3C0B100B180B2C62
:102978000B3B0B00000000D10E1C10520E6C0E5EBB
:042988000EAF0E0080
:00000001FF
