:100000000C9464000C948C000C948C000C948C0068
:100010000C948C000C948C000C948C000C948C0030
:100020000C948C000C948C000C948C000C948C0020
:100030000C948C000C948C000C948C000C948C0010
:100040000C9484050C948C000C9456080C9488082D
:100050000C948C000C948C000C948C000C948C00F0
:100060000C9457040C948C0000000008000201005E
:100070000003040700000000000000000102040863
:100080001020408001020408102001020408102002
:10009000040404040404040402020202020203032E
:1000A00003030303000000002300260029000000D2
:1000B0000000250028002B0000000000240027007D
:1000C0002A00B400B603B80811241FBECFEFD8E051
:1000D000DEBFCDBF11E0A0E0B1E0E6EDF6E102C089
:1000E00005900D92AE32B107D9F722E0AEE2B1E051
:1000F00001C01D92A93AB207E1F710E0C4E6D0E0D2
:1001000004C02197FE010E94630BC136D107C9F7D5
:100110000E9428090C94690B0C94000026E040E032
:1001200052EC61E070E08CE092E00E94F10783E421
:1001300091E00E948C0362E086E00E94960662E0F5
:1001400087E00E94960662E088E00C949606909103
:100150002E01891728F460E085E391E00C94700289
:100160009F5F90932E01089526E046E168E085E3C5
:1001700091E00C94C5011F93CF93DF931F92CDB7ED
:10018000DEB7633609F463C058F5673009F455C02B
:1001900090F4633009F44DC038F4613009F461C063
:1001A00008F045C01FE36EC0653009F464C008F074
:1001B00042C016E667C06A3209F463C048F4693089
:1001C00009F43FC0E0F1603209F05CC010E05AC0B1
:1001D0006136C9F1D0F56D3209F054C010E452C057
:1001E0006C3609F440C080F46736B9F128F46536FE
:1001F00081F188F51EE546C0693699F180F16A36CD
:1002000009F040C01EE03EC0623799F138F4603713
:1002100061F168F56E36B1F514E534C0643769F103
:1002200050F1653761F1693769F51EE62BC01BE5B2
:1002300029C01FE427C01DE725C017E023C01FE722
:1002400021C01FE61FC017E71DC01CE71BC019E334
:1002500019C019E717C011E715C01DE313C016E751
:1002600011C016E00FC018E30DC013E70BC017E66E
:1002700009C010E507C01DE605C018E703C01EE36E
:1002800001C013E6682F83E491E049830E9496033E
:10029000612F83E491E00E944D034981612F411158
:1002A000606883E491E00E944D0383E491E00F9045
:1002B000DF91CF911F910C94B303CF93C62F682F7A
:1002C00083E491E00E94960360E083E491E00E9461
:1002D0004D036C2F83E491E00E944D0383E491E091
:1002E000CF910C94B3030E94CE05709330016093BC
:1002F0002F010E94CE057093340160933301609109
:1003000000017091010180910201909103010E940E
:10031000170A40E080E20E94BB00609100017091EA
:10032000010180910201909103010E94170A40E0AF
:1003300081E20E94BB0060910001709101018091F7
:100340000201909103010E94170A40E082E20E949C
:10035000BB006091000170910101809102019091B8
:1003600003010E94170A40E083E20E94BB0081E083
:100370000E94A70060E08CE20E945D010E94CE0511
:1003800070933201609331010895FC0166834783C5
:10039000208781E085870895CF92DF92FF920F93A7
:1003A0001F93CF93DF93EC0161E08E810E94D20610
:1003B0000E94CE0509851A852B853C85601771073B
:1003C0008207930720F419861A861B861C862D85C2
:1003D000211111C009851A852B853C85DC01CB01D3
:1003E000801B910BA20BB30B803D9740A105B1057B
:1003F00010F481E06DC01D860E94CE0569877A8762
:100400008B879C871C821B821A821982188261E06A
:100410008E810E94960660E08E810E94D20664E181
:1004200070E080E090E00E94FF05F89461E08E812A
:100430000E94D20688E290E00E94270660E08E814A
:100440000E94960610E0F12C81E000E0C82ED12C2D
:100450008E810E9402078C159D0539F40F5F81E0A3
:1004600090E00E9427060F3F99F78E810E940207B5
:100470000F3FB9F0143090F010FD10C09F2D9695ED
:1004800096959695FE01E90FF11D9081990F908345
:100490002885201710F491609083F3941F5F153521
:1004A000A1F6789487E28F1590F42C8130E0488192
:1004B000898190E0840F911D4A81840F911D4B81A9
:1004C000840F911D99272817390709F492CF80E0EE
:1004D000DF91CF911F910F91FF90DF90CF90089502
:1004E000CF92DF92EF92FF920F931F93CF93DF9300
:1004F000EC01162F0E94CC01882309F455C08F818E
:100500008B3031F008F450C08551823098F04CC0E7
:100510006A8170E080E090E00E94460A112309F4AD
:100520004EC020E030E040E151E46B017C01C701A6
:10053000B6012BC00A81602F6F7770E080E090E0F9
:100540000E94480A20E030E040E853E40E94D40AC8
:100550006B017C018B81682F70E080E090E00E944D
:10056000480A9B01AC01C701B6010E94390920E08D
:1005700030E040E251E40E94A50907FD90581123A4
:10058000F1F020E030E040E151E40E94D40A20E0A4
:1005900030E040EA50E40E94A50920E030E040E06D
:1005A00052E40E9439090BC064E071E08CE092E0F3
:1005B0000E94250940E030E020EC9FE703C0462F71
:1005C000372F282FC42ED32EE22EF92EC701B601C5
:1005D000DF91CF911F910F91FF90EF90DF90CF901F
:1005E00008958091730190E020917401821B91091C
:1005F00008959091740180917301981750F4E92F38
:10060000F0E0EB58FE4F208130E09F5F9093740143
:1006100002C02FEF3FEFC9010895E091740180916E
:100620007301E81730F4F0E0EB58FE4F808190E062
:1006300008958FEF9FEF08950895CF92DF92EF9284
:10064000FF920F931F93CF93DF937C01262F972F59
:100650008A0180914F01882391F0C62FD72F6E0118
:10066000C40ED51ECC15DD0571F06991D701ED9151
:10067000FC910190F081E02DC7010995F3CF642F23
:10068000822F0E942E04C801DF91CF911F910F91FC
:10069000FF90EF90DF90CF900895CF93DF931F925C
:1006A000CDB7DEB7698320914F012223D1F020918D
:1006B0005001203240F021E030E0FC0133832283FE
:1006C00080E090E015C080915101E82FF0E0EE5AF3
:1006D000FE4F998190838F5F8093510180935001E9
:1006E00005C061E0CE0101960E942E0481E090E0F9
:1006F0000F90DF91CF910895FC011382128288EE52
:1007000093E0A0E0B0E084839583A683B78382E181
:1007100091E0918380830895109274011092730187
:1007200010925101109250010C94BA0381E0809311
:100730004F0160937201109251011092500108957F
:100740000F93062F21E04091500162E571E0809106
:1007500072010E94D8031092510110925001109220
:100760004F010F91089561E00C94A00383E491E0A0
:100770000C947C031092020281E08093000210929C
:10078000FF0161E082E10E94D20661E083E10E9404
:10079000D206E9EBF0E080818E7F808380818D7FBF
:1007A000808388E48093B80085E48093BC0008953A
:1007B0000F93413208F04AC0909102029111FCCF90
:1007C00032E030930202009300023FEF3093950134
:1007D0001092DA014093D901FB016BED71E0DB016E
:1007E0003A2F361B341718F431913D93F9CF1092FC
:1007F000010230910102880F832B809301028091C6
:10080000FF01813061F41092FF0180910102809319
:10081000BB008091BC0083FDF8CF85EC01C085EE64
:100820008093BC00222321F0809102028230D1F318
:10083000809195018F3F79F080919501803241F050
:1008400080919501803331F094E005C091E003C0C0
:1008500092E001C093E0892F0F910895613298F4DE
:1008600020910202243089F46093B701FC0129EB46
:1008700031E0D9018A2F821B861718F481918D935C
:10088000F9CF80E0089581E0089582E0089585ED34
:100890008093BC008091BC0084FDFCCF10920202CA
:1008A000089585EC8093BC001092020208951F9277
:1008B0000F920FB60F9211242F933F934F935F9394
:1008C0006F937F938F939F93AF93BF93EF93FF9318
:1008D0008091B900887F803609F49EC078F588320F
:1008E00009F45DC090F4803109F456C038F48823CF
:1008F00009F4F5C0883009F44FC0F5C0883109F417
:100900004EC0803209F45FC0EEC0803409F46AC082
:1009100058F4803309F457C0883309F0E4C0809359
:1009200095010E945104DFC0803509F44FC088351D
:1009300009F45DC0883409F0D6C0D3C0883909F401
:10094000C4C0A8F4883709F467C038F4883609F4BD
:1009500063C0803709F460C0C6C0883809F4B5C0E8
:10096000803909F45FC0803809F0BDC05BC0803BAE
:1009700009F483C038F4803A09F466C0883A09F46F
:100980007CC0B1C0803C09F4A4C0883C09F4A1C07B
:10099000883B09F487C0A7C08091010210C09091E4
:1009A000DA018091D901981770F5E091DA0181E0C0
:1009B0008E0F8093DA01F0E0E552FE4F8081809344
:1009C000BB0085EC83C0809395018BC0E091DA0178
:1009D00081E08E0F8093DA018091BB00F0E0E55258
:1009E000FE4F80839091DA018091D9016BC0E09134
:1009F000DA0181E08E0F8093DA018091BB00F0E094
:100A0000E552FE4F80838091000281116AC081E02F
:100A10008093FF0184EA5EC083E08093020210921B
:100A20009601CFCF80919601803208F04EC0E091C0
:100A3000960181E08E0F809396018091BB00F0E0DB
:100A4000E956FE4F8083BDCF0E94510480919601EC
:100A5000803230F4E0919601F0E0E956FE4F1082CA
:100A60006091960170E0E091FB01F091FC0187E953
:100A700091E009951092960136C084E080930202BD
:100A80001092B8011092B701E091FD01F091FE01C2
:100A900009958091B701811105C081E08093B7016C
:100AA0001092B901E091B80181E08E0F8093B801F6
:100AB000F0E0E754FE4F80818093BB009091B80135
:100AC0008091B701981708F47CCF85E88093BC002B
:100AD0000AC085EC8093BC001092020204C0109200
:100AE00095010E944704FF91EF91BF91AF919F91B3
:100AF0008F917F916F915F914F913F912F910F90C7
:100B00000FBE0F901F9018951F920F920FB60F9265
:100B100011242F933F938F939F93AF93BF93809113
:100B2000040290910502A0910602B0910702309153
:100B3000030223E0230F2D3720F40196A11DB11DE0
:100B400005C026E8230F0296A11DB11D20930302C4
:100B50008093040290930502A0930602B0930702CB
:100B60008091080290910902A0910A02B0910B02B3
:100B70000196A11DB11D8093080290930902A093D4
:100B80000A02B0930B02BF91AF919F918F913F9159
:100B90002F910F900FBE0F901F9018952FB7F894BC
:100BA0006091040270910502809106029091070203
:100BB0002FBF08953FB7F8948091080290910902E1
:100BC000A0910A02B0910B0226B5A89B05C02F3F49
:100BD00019F00196A11DB11D3FBFBA2FA92F982F63
:100BE0008827820F911DA11DB11DBC01CD0142E0DE
:100BF000660F771F881F991F4A95D1F70895CF92E6
:100C0000DF92EF92FF92CF93DF936B017C010E9402
:100C1000DA05EB01C114D104E104F10489F00E946A
:100C200037090E94DA056C1B7D0B683E734090F318
:100C300081E0C81AD108E108F108C851DC4FEACFB9
:100C4000DF91CF91FF90EF90DF90CF9008958230A9
:100C5000910538F0880F991F880F991F0597019704
:100C6000F1F70895789484B5826084BD84B581607D
:100C700084BD85B5826085BD85B5816085BDEEE6A4
:100C8000F0E0808181608083E1E8F0E01082808183
:100C900082608083808181608083E0E8F0E08081F1
:100CA00081608083E1EBF0E0808184608083E0EB11
:100CB000F0E0808181608083EAE7F0E080818460F9
:100CC0008083808182608083808181608083808155
:100CD000806880831092C1000895833081F028F4E9
:100CE000813099F08230A1F008958730A9F08830E2
:100CF000B9F08430D1F4809180008F7D03C0809161
:100D000080008F7780938000089584B58F7702C02C
:100D100084B58F7D84BD08958091B0008F7703C026
:100D20008091B0008F7D8093B0000895CF93DF93C2
:100D300090E0FC01E458FF4F2491FC01E057FF4F85
:100D40008491882361F190E0880F991FFC01E85499
:100D5000FF4FC591D491FC01E255FF4FA591B4918D
:100D6000611109C09FB7F8948881209582238883F8
:100D7000EC912E230BC0623061F49FB7F894388158
:100D8000822F809583238883EC912E2B2C939FBFF9
:100D900006C08FB7F894E8812E2B28838FBFDF9190
:100DA000CF9108951F93CF93DF93282F30E0F9015F
:100DB000E859FF4F8491F901E458FF4FD491F901AC
:100DC000E057FF4FC491CC23C9F0162F81110E9428
:100DD0006D06EC2FF0E0EE0FFF1FE255FF4FA591DF
:100DE000B4918FB7F894111105C09C91ED2FE09547
:100DF000E92302C0EC91ED2BEC938FBFDF91CF91F3
:100E00001F910895CF93DF93282F30E0F901E8591F
:100E1000FF4F8491F901E458FF4FD491F901E05755
:100E2000FF4FC491CC2391F081110E946D06EC2FED
:100E3000F0E0EE0FFF1FEC55FF4FA591B491EC9140
:100E4000ED2381E090E021F480E002C080E090E0BA
:100E5000DF91CF910895FC01918D228D892F90E033
:100E6000805C9F4F821B91098F7399270895FC0125
:100E7000918D828D981731F0828DE80FF11D858D4F
:100E800090E008958FEF9FEF0895FC01918D828D82
:100E9000981761F0828DDF01A80FB11D5D968C91CE
:100EA000928D9F5F9F73928F90E008958FEF9FEFD9
:100EB00008958EEA98E0892B49F080E090E0892B34
:100EC00029F00E94AE0881110C9400000895FC01E5
:100ED000848DDF01A80FB11DA35ABF4F2C91848DC3
:100EE00090E001968F739927848FA689B7892C93F8
:100EF000A089B1898C9180648C93938D848D981393
:100F000006C00288F389E02D80818F7D808308955B
:100F1000CF93DF93EC01888D8823C9F0EA89FB89A0
:100F2000808185FD05C0A889B9898C9186FD0FC097
:100F30000FB607FCF5CF808185FFF2CFA889B9896C
:100F40008C9185FFEDCFCE010E946707E7CFDF913F
:100F5000CF910895EF92FF920F931F93CF93DF935A
:100F6000EC0181E0888F9B8D8C8D981305C0E889FA
:100F7000F989808185FD24C0F62E0B8D10E00F5F6E
:100F80001F4F0F731127E02E8C8DE8120CC00FB687
:100F900007FCFACFE889F989808185FFF5CFCE017A
:100FA0000E946707F1CF8B8DFE01E80FF11DE35A18
:100FB000FF4FF0820B8FEA89FB898081806207C036
:100FC000EE89FF896083E889F98980818064808364
:100FD00081E090E0DF91CF911F910F91FF90EF9012
:100FE0000895CF92DF92EF92FF921F93CF93DF93FA
:100FF000EC016A017B01122FE889F98982E0808384
:101000004115514E61057105B1F060E079E08DE365
:1010100090E0A70196010E94410BDA01C9010197F6
:10102000A109B109B695A79597958795AC0141158A
:1010300080E15807A8F0E889F989108260E874E82F
:101040008EE190E0A70196010E94410BBA01A9012F
:1010500041505109610971097695679557954795F2
:10106000EC85FD855083EE85FF854083188EEC89E5
:10107000FD891083EA89FB89808180618083EA8908
:10108000FB89808188608083EA89FB898081806810
:101090008083EA89FB8980818F7D8083DF91CF9176
:1010A0001F91FF90EF90DF90CF9008951F920F92C5
:1010B0000FB60F9211242F938F939F93EF93FF936B
:1010C000E0911C02F0911D028081E0912202F091DA
:1010D000230282FD12C09081809125028F5F8F7361
:1010E00020912602821751F0E0912502F0E0E45FA2
:1010F000FD4F958F8093250201C08081FF91EF9174
:101100009F918F912F910F900FBE0F901F90189568
:101110001F920F920FB60F9211242F933F934F936C
:101120005F936F937F938F939F93AF93BF93EF934F
:10113000FF938CE092E00E946707FF91EF91BF91CF
:10114000AF919F918F917F916F915F914F913F915F
:101150002F910F900FBE0F901F9018958CE092E08A
:101160000E942B0721E0892B09F420E0822F0895AB
:10117000ECE0F2E01382128288EE93E0A0E0B0E0AF
:1011800084839583A683B78382E291E091838083F1
:1011900085EC90E09587848784EC90E0978786873C
:1011A00080EC90E0918B808B81EC90E0938B828B34
:1011B00082EC90E0958B848B86EC90E0978B868B0D
:1011C000118E128E138E148E0895CF92DF92EF92AD
:1011D000FF920F931F93CF93DF936C017A018B01E2
:1011E000C0E0D0E0CE15DF0589F0D8016D918D010A
:1011F000D601ED91FC910190F081E02DC601099599
:10120000892B11F47E0102C02196ECCFC701DF913A
:10121000CF911F910F91FF90EF90DF90CF900895A5
:101220006115710579F0FB0101900020E9F7319714
:10123000AF01461B570BDC01ED91FC910280F3815D
:10124000E02D099480E090E008950C941009089531
:101250000E9432060E9427090E948E00C9E5D7E04D
:101260000E9473012097E1F30E945907F9CF089576
:101270005058BB27AA270E9450090C949A0A0E9432
:101280008C0A38F00E94930A20F039F49F3F19F439
:1012900026F40C94890A0EF4E095E7FB0C94830A7B
:1012A000E92F0E94AB0A58F3BA1762077307840745
:1012B000950720F079F4A6F50C94CD0A0EF4E0958C
:1012C0000B2EBA2FA02D0B01B90190010C01CA0100
:1012D000A0011124FF27591B99F0593F50F4503EAB
:1012E00068F11A16F040A22F232F342F4427585F9D
:1012F000F3CF469537952795A795F0405395C9F7B5
:101300007EF41F16BA0B620B730B840BBAF091506C
:10131000A1F0FF0FBB1F661F771F881FC2F70EC00B
:10132000BA0F621F731F841F48F4879577956795DE
:10133000B795F7959E3F08F0B0CF9395880F08F0CA
:101340009927EE0F9795879508950E94B9090C94F7
:101350009A0A0E94930A58F00E948C0A40F029F4DD
:101360005F3F29F00C94830A51110C94CE0A0C941F
:10137000890A0E94AB0A68F39923B1F3552391F3CC
:10138000951B550BBB27AA2762177307840738F0F4
:101390009F5F5F4F220F331F441FAA1FA9F335D051
:1013A0000E2E3AF0E0E832D091505040E695001C05
:1013B000CAF72BD0FE2F29D0660F771F881FBB1FBF
:1013C000261737074807AB07B0E809F0BB0B802D9D
:1013D000BF01FF2793585F4F3AF09E3F510578F0C9
:1013E0000C94830A0C94CE0A5F3FE4F3983ED4F346
:1013F000869577956795B795F7959F5FC9F7880F9D
:10140000911D9695879597F90895E1E0660F771FEE
:10141000881FBB1F621773078407BA0720F0621B7F
:10142000730B840BBA0BEE1F88F7E09508950E94AA
:10143000B30A88F09F5798F0B92F9927B751B0F0A9
:10144000E1F0660F771F881F991F1AF0BA95C9F748
:1014500014C0B13091F00E94CD0AB1E008950C940F
:10146000CD0A672F782F8827B85F39F0B93FCCF3C2
:10147000869577956795B395D9F73EF490958095C5
:10148000709561957F4F8F4F9F4F0895E89409C0E5
:1014900097FB3EF490958095709561957F4F8F4FA7
:1014A0009F4F9923A9F0F92F96E9BB279395F695BD
:1014B000879577956795B795F111F8CFFAF4BB0F3B
:1014C00011F460FF1BC06F5F7F4F8F4F9F4F16C09F
:1014D000882311F096E911C0772321F09EE8872F29
:1014E000762F05C0662371F096E8862F70E060E0E5
:1014F0002AF09A95660F771F881FDAF7880F96955E
:10150000879597F9089597F99F6780E870E060E004
:1015100008959FEF80EC089500240A94161617068C
:1015200018060906089500240A94121613061406D4
:1015300005060895092E0394000C11F4882352F037
:10154000BB0F40F4BF2B11F460FF04C06F5F7F4FEF
:101550008F4F9F4F089557FD9058440F551F59F0D6
:101560005F3F71F04795880F97FB991F61F09F3F90
:1015700079F087950895121613061406551FF2CFB9
:101580004695F1DF08C0161617061806991FF1CF09
:1015900086957105610508940895E894BB27662730
:1015A0007727CB0197F908950E94E70A0C949A0ACD
:1015B0000E948C0A38F00E94930A20F0952311F0C3
:1015C0000C94830A0C94890A11240C94CE0A0E946C
:1015D000AB0A70F3959FC1F3950F50E0551F629FC2
:1015E000F001729FBB27F00DB11D639FAA27F00D7C
:1015F000B11DAA1F649F6627B00DA11D661F829FA3
:101600002227B00DA11D621F739FB00DA11D621F87
:10161000839FA00D611D221F749F3327A00D611DA4
:10162000231F849F600D211D822F762F6A2F112486
:101630009F5750409AF0F1F088234AF0EE0FFF1FB9
:10164000BB1F661F771F881F91505040A9F79E3F10
:10165000510580F00C94830A0C94CE0A5F3FE4F3AA
:10166000983ED4F3869577956795B795F795E79566
:101670009F5FC1F7FE2B880F911D9695879597F96F
:101680000895A1E21A2EAA1BBB1BFD010DC0AA1FC3
:10169000BB1FEE1FFF1FA217B307E407F50720F0DB
:1016A000A21BB30BE40BF50B661F771F881F991F56
:1016B0001A9469F760957095809590959B01AC019F
:1016C000BD01CF010895EE0FFF1F0590F491E02DAD
:0616D0000994F894FFCF1D
:1016D6000000A04052656164206661696C000000EC
:1016E60000004D031D03F102F9020D031C03000067
:0E16F6000000AA07E5082B07450737078807FD
:107800000C94343C0C94513C0C94513C0C94513CE1
:107810000C94513C0C94513C0C94513C0C94513CB4
:107820000C94513C0C94513C0C94513C0C94513CA4
:107830000C94513C0C94513C0C94513C0C94513C94
:107840000C94513C0C94513C0C94513C0C94513C84
:107850000C94513C0C94513C0C94513C0C94513C74
:107860000C94513C0C94513C11241FBECFEFD8E036
:10787000DEBFCDBF11E0A0E0B1E0ECE9FFE702C060
:1078800005900D92A230B107D9F712E0A2E0B1E065
:1078900001C01D92AD30B107E1F70E942D3D0C945F
:1078A000CC3F0C94003C982F959595959595959582
:1078B000905D8F708A307CF0282F295A8091C0000B
:1078C00085FFFCCF9093C6008091C00085FFFCCF60
:1078D0002093C6000895282F205DF0CF982F809127
:1078E000C00085FFFCCF9093C6000895EF92FF92F1
:1078F0000F931F93EE24FF2487018091C00087FD22
:1079000017C00894E11CF11C011D111D81E4E8164B
:1079100082E4F8068FE0080780E0180770F3E09132
:107920000401F091050109958091C00087FFE9CF1E
:107930008091C6001F910F91FF90EF9008950E94D3
:10794000763C982F8091C00085FFFCCF9093C600B5
:1079500091362CF490330CF09053892F089597555D
:10796000892F08951F930E949F3C182F0E949F3CCF
:107970001295107F810F1F9108951F93182F882350
:1079800021F00E94763C1150E1F71F9108951F935A
:10799000182F0E94763C803249F0809103018F5F5E
:1079A000809303018530C1F01F9108958091C0003C
:1079B00085FFFCCF84E18093C6008091C00085FFE5
:1079C000FCCF1093C6008091C00085FFFCCF80E102
:1079D0008093C6001F910895E0910401F091050184
:1079E00009951F9108950E94763C803241F0809164
:1079F00003018F5F80930301853081F008958091AA
:107A0000C00085FFFCCF84E18093C6008091C00058
:107A100085FFFCCF80E18093C6000895E0910401CA
:107A2000F09105010995089540E951E08823A1F0FE
:107A30002D9A28EE33E0FA013197F1F721503040CA
:107A4000D1F72D9828EE33E0FA013197F1F7215064
:107A50003040D1F7815061F708953F924F925F9285
:107A60006F927F928F929F92AF92BF92CF92DF924E
:107A7000EF92FF920F931F93CF93DF93000080E16B
:107A80008093C4001092C50088E18093C10086E015
:107A90008093C2005098589A259A81E00E94143D24
:107AA00024E1F22E9EE1E92E85E9D82E0FE0C02ECA
:107AB00010E1B12EAA24A394B1E49B2EA6E58A2E50
:107AC000F2E57F2EE0E26E2E79E4572E63E5462E36
:107AD00050E5352E0E94763C8033B1F18133B9F107
:107AE000803409F46FC0813409F476C0823409F41B
:107AF00085C0853409F488C0803531F1823521F1A3
:107B0000813511F1853509F485C0863509F48DC0BC
:107B1000843609F496C0843709F403C1853709F423
:107B200072C1863709F466C0809103018F5F80932C
:107B30000301853079F6E0910401F0910501099582
:107B40000E94763C803351F60E94F33CC3CF0E94E2
:107B5000763C803249F78091C00085FFFCCFF092DF
:107B6000C6008091C00085FFFCCF9092C600809136
:107B7000C00085FFFCCF8092C6008091C00085FFC9
:107B8000FCCF7092C6008091C00085FFFCCF609250
:107B9000C6008091C00085FFFCCF5092C600809146
:107BA000C00085FFFCCF4092C6008091C00085FFD9
:107BB000FCCF3092C6008091C00085FFFCCFB09210
:107BC000C60088CF0E94763C863808F4BDCF0E945C
:107BD000763C0E94F33C7ECF0E94763C803809F4CC
:107BE0009CC0813809F40BC1823809F43CC1883942
:107BF00009F48FC080E00E94C73C6CCF84E10E94F2
:107C0000BD3C0E94F33C66CF85E00E94BD3C0E94D3
:107C1000F33C60CF0E94763C809306010E94763C44
:107C2000809307010E94F33C55CF0E94763C80333D
:107C300009F41DC183E00E94BD3C80E00E94C73C66
:107C400049CF0E94763C809309020E94763C809343
:107C5000080280910C028E7F80930C020E94763C79
:107C6000853409F415C18091080290910902892B8D
:107C700089F000E010E00E94763CF801E85FFE4FDA
:107C800080830F5F1F4F80910802909109020817AF
:107C9000190788F30E94763C803209F045CF809125
:107CA0000C0280FF01C16091060170910701660F0F
:107CB000771F7093070160930601A0910802B091AD
:107CC00009021097C9F0E8E0F1E09B01AD014E0F09
:107CD0005F1FF999FECF32BD21BD819180BDFA9A17
:107CE000F99A2F5F3F4FE417F50799F76A0F7B1F4B
:107CF00070930701609306018091C00085FFFCCF5F
:107D0000F092C6008091C00085FFFCCFB092C60003
:107D1000E1CE83E00E94C73CDDCE82E00E94C73CFA
:107D2000D9CE0E94763C809309020E94763C8093D3
:107D300008028091060190910701880F991F909386
:107D40000701809306010E94763C853409F4A6C0A1
:107D500080910C028E7F80930C020E94763C8032D0
:107D600009F0B8CE8091C00085FFFCCFF092C6002C
:107D7000609108027091090261157105B9F140E046
:107D800050E080910C02A82FA170B82FB27011C0E2
:107D9000BB2309F45CC0E0910601F0910701319624
:107DA000F0930701E09306014F5F5F4F46175707B7
:107DB000E8F4AA2369F3F999FECF209106013091E6
:107DC000070132BD21BDF89A90B58091C00085FFB2
:107DD000FCCF9093C6002F5F3F4F30930701209355
:107DE00006014F5F5F4F4617570718F38091C00099
:107DF00085FDE5CE8091C00085FFF8CFE0CE81E023
:107E00000E94C73C67CE0E94763C803209F08CCE3F
:107E10008091C00085FFFCCFF092C6008091C00029
:107E200085FFFCCFE092C6008091C00085FFFCCFAB
:107E3000D092C6008091C00085FFFCCFC092C600E2
:107E40008091C00085FFFCCFB092C60043CEE09188
:107E50000601F091070194918091C00085FFFCCF4D
:107E60009093C6009CCF80E10E94C73C33CE0E9415
:107E7000763C0E94763C182F0E94763C112309F430
:107E800083C0113009F484C08FE00E94C73C22CE29
:107E900080910C02816080930C02E5CE80910C02EF
:107EA000816080930C0259CF809107018823880F4D
:107EB000880B8A2180930B02809106019091070123
:107EC000880F991F90930701809306018091080203
:107ED00080FF09C080910802909109020196909359
:107EE000090280930802F894F999FECF1127E091D6
:107EF0000601F0910701C8E0D1E08091080290915D
:107F00000902103091F40091570001700130D9F34B
:107F100003E000935700E89500915700017001308D
:107F2000D9F301E100935700E89509901990009169
:107F3000570001700130D9F301E000935700E89534
:107F40001395103498F011270091570001700130FB
:107F5000D9F305E000935700E895009157000170B0
:107F60000130D9F301E100935700E895329602976A
:107F700009F0C7CF103011F00296E5CF112480919F
:107F8000C00085FFB9CEBCCE8EE10E94C73CA2CD19
:0C7F900085E90E94C73C9ECDF894FFCF0D
:027F9C00800063
:040000030000780081
:00000001FF
