:100000000C9464000C948C000C948C000C948C0068
:100010000C948C000C948C000C948C000C948C0030
:100020000C948C000C948C000C948C000C94A2000A
:100030000C948C000C948C000C948C000C948C0010
:100040000C944E0F0C948C000C94A40D0C94D60DB3
:100050000C948C000C948C000C948C000C948C00F0
:100060000C944C0B0C948C00000000080002010062
:100070000003040700000000000000000102040863
:100080001020408001020408102001020408102002
:10009000040404040404040402020202020203032E
:1000A00003030303000000002300260029000000D2
:1000B0000000250028002B0000000000240027007D
:1000C0002A003002630A060E11241FBECFEFD8E0CB
:1000D000DEBFCDBF11E0A0E0B1E0E8E3F7E202C08F
:1000E00005900D92AE33B107D9F723E0AEE3B1E04E
:1000F00001C01D92A332B207E1F710E0C4E6D0E0E0
:1001000004C02197FE010E947E13C136D107C9F7B2
:100110000E94340E0C949A130C94000010928000EC
:1001200025E02093810029E03DE33093890020936E
:10013000880022E020936F0078949093BA01809316
:10014000B90108951F920F920FB60F9211242F93A9
:100150003F938F939F932091BB013091BC0180917D
:10016000B9019091BA0101972817390728F0109228
:10017000BC011092BB0109C08091BB019091BC01F0
:1001800001969093BC018093BB0110928500109260
:1001900084009F918F913F912F910F900FBE0F90F0
:1001A0001F9018954F925F927F928F929F92AF927D
:1001B000BF92CF92DF92EF92FF920F931F93CF9354
:1001C000DF93FC017A0140E050E000E010E0412CB8
:1001D000512C20E030E0712C4B018E0C9F1C5C01F7
:1001E00088E0A80EB11C8091BB019091BC01C09029
:1001F000BB01D090BC01C814D90408F05EC08617BA
:10020000970708F45AC0772089F083B1807190E095
:1002100082179307B9F0C080D180D6012D913C910F
:1002200011972F5F3F4F2D933C930CC0CF01DC0102
:10023000CD90DD90CD01D6011D921C928A159B05B3
:10024000B1F7E3CF29B1207130E02415350559F01D
:10025000C280D380D6014D905C90BFEF4B1A5B0AF1
:10026000D6014D925C92A3B1A0724A2E512C401639
:10027000510651F0C480D580D6010D911C91119783
:100280000F5F1F4F0D931C9316B11170C12FB0E07B
:10029000DB2FC417D50751F006811781D8014D9186
:1002A0005C9111974F5F5F4F4D935C9377247394EC
:1002B000AE01820129019C0196CFB1E07B1213C0EF
:1002C0009F01285F3F4FC191D1918881998197FD0E
:1002D000019695958795B7010E94341379836883B9
:1002E000E217F30781F7DF91CF911F910F91FF90F4
:1002F000EF90DF90CF90BF90AF909F908F907F90C6
:100300005F904F90089526E040E052EC61E070E08D
:100310008DE792E00E943F0D8DEB91E00E94D209A3
:1003200062E086E00E94601062E087E00E94601058
:1003300062E088E00E94601081E090E00E948413F7
:1003400090E0909363018093620182E090E00E94CC
:10035000841390E090935F0180935E0183E090E0CE
:100360000E94841390E090935B0180935A0184E093
:1003700090E00E94841390E090935701809356017F
:1003800084E090E00E948E0080E090E020E030E089
:10039000F901E25BFE4FA9014A5B5E4F5183408346
:1003A00001962E5F3F4F8430910591F79093450160
:1003B000809344010895CF92DF92EF92FF92CF9302
:1003C0006B017C01CA01B901C9B1C6FBCC27C0F9D8
:1003D000C093020129B1221F2227221F209301016D
:1003E00030910001C31799F02C1731F020E030E074
:1003F000A9010E94F71007C09B01AC0160E070E00A
:10040000CB010E94F61021E020939C0105C01092C0
:100410009C0160E070E0CB01C09300019B01AC0146
:10042000C701B6010E94F710CF91FF90EF90DF90C7
:10043000CF90089520919B01422F50E0841795079B
:1004400058F4662321F060E08BEA91E003C060E09D
:100450008DE991E00C94B6082F5F20939B010895DD
:1004600026E046E16FE08BEA91E00E940B0826E06F
:1004700046E160E18DE991E00E940B0862E070E0E6
:100480008CE691E00C9484071F93CF93DF931F9227
:10049000CDB7DEB7633609F463C058F5673009F4A9
:1004A00055C090F4633009F44DC038F4613009F45C
:1004B00061C008F045C01FE36EC0653009F464C038
:1004C00008F042C016E667C06A3209F463C048F417
:1004D000693009F43FC0E0F1603209F05CC010E01F
:1004E0005AC06136C9F1D0F56D3209F054C010E43C
:1004F00052C06C3609F440C080F46736B9F128F474
:10050000653681F188F51EE546C0693699F180F1BE
:100510006A3609F040C01EE03EC0623799F138F4F7
:10052000603761F168F56E36B1F514E534C06437B3
:1005300069F150F1653761F1693769F51EE62BC045
:100540001BE529C01FE427C01DE725C017E023C015
:100550001FE721C01FE61FC017E71DC01CE71BC017
:1005600019E319C019E717C011E715C01DE313C03F
:1005700016E711C016E00FC018E30DC013E70BC05B
:1005800017E609C010E507C01DE605C018E703C05F
:100590001EE301C013E6682F8DEB91E049830E94B2
:1005A000DC09612F8DEB91E00E9493094981612F55
:1005B000411160688DEB91E00E9493098DEB91E011
:1005C0000F90DF91CF911F910C94600A40E060E2A0
:1005D00088E30E94440240E060E289E30E94440212
:1005E00040E060E28AE30E94440240E060E28BE384
:1005F0000C9444028F929F92AF92BF92CF92DF925F
:10060000EF92FF92CF93DF936B017C010E94DA118E
:10061000EB01072E000C880B990B0E9412129B0114
:10062000AC01C701B6010E94F61020E030E040E2C4
:1006300051E40E94C7124B015C0120E030E040E22F
:1006400051ECC701B6010E94631118167CF140E01D
:100650006DE288E30E94440220E030E040E251E491
:10066000C701B6010E9468116B017C0120E030E0F7
:10067000A9010E94C21218161CF4C701B60103C0DA
:10068000C701B60190580E94E11140E089E30E9441
:100690004402CE016AE070E00E94481397FF03C055
:1006A00091958195910941E0682F25C020E030E0C7
:1006B000A901C701B6010E94631187FF30C040E065
:1006C0006DE288E30E94440240E060E089E30E941A
:1006D000440220E030E0A901C701B6010E94C21225
:1006E00018161CF4C701B60103C0C701B601905823
:1006F0000E94E11141E08AE30E94440220E030E0E0
:10070000A901C501B4010E94C21218160CF448C018
:10071000C501B40190580E94E11140E054C020E0AE
:1007200030E040E251E4C701B6010E94631187FF47
:1007300010C040E060E088E30E94440240E060E0D6
:1007400089E30E944402C701B6010E94E11141E021
:1007500024C020E030E040E251E4C701B6010E942D
:10076000C21240E087FD1FC060E088E30E9444029F
:1007700020E030E040E251E4C701B6010E94681178
:100780000E94E11140E089E30E944402CE016AE048
:1007900070E00E94481341E0682F8AE30E944402FF
:1007A000C501B401B8CF65E688E30E94440240E089
:1007B00062E789E30E94440240E062E78AE30E9424
:1007C000440240E060E28BE3DF91CF91FF90EF9035
:1007D000DF90CF90BF90AF909F908F900C94440289
:1007E000EF92FF920F931F93CF93DF93EC018A3028
:1007F000910568F440E060E088E30E94440240E034
:1008000060E089E30E94440240E060E014C0843666
:100810009105B8F440E060E088E30E94440240E0C3
:1008200060E089E30E944402CE016AE070E00E9429
:100830003413C82F40E08AE30E94440240E06C2F4A
:1008400042C0C83E83E0D80798F440E060E088E307
:100850000E944402CE0164E670E00E9434137C01E1
:1008600040E089E30E9444020AE010E0C7011EC094
:10087000C03187E2D80780F5CE0168EE73E00E94B0
:1008800034137C0140E088E30E94440204E610E057
:10089000C701B8010E94341340E089E30E9444027A
:1008A000CE01B8010E9434130AE010E0B8010E94A2
:1008B000341340E08AE30E944402CE01B8010E9452
:1008C000341340E0682F8BE3DF91CF911F910F919C
:1008D000FF90EF900C944402DF91CF911F910F9104
:1008E000FF90EF900895CF92DF92EF92FF92CF9317
:1008F0006B017C01C42F42E350E060E070E08CE6C5
:1009000091E00E949E078823A9F0C701B601CC237D
:1009100039F0CF91FF90EF90DF90CF900C94FA02D6
:100920000E94DA11CB01CF91FF90EF90DF90CF9032
:100930000C94F003CF91FF90EF90DF90CF900C9448
:10094000E6024F925F926F927F928F929F92AF9248
:10095000BF92CF92DF92EF92FF920F93CF936B01F2
:100960007C0149015A0180919C01882369F081E052
:1009700080936B010E94980F6093670170936801E8
:100980008093690190936A01C0916B01CC2391F12E
:100990000E94980F40906701509068016090690133
:1009A00070906A01DC01CB0184199509A609B70989
:1009B0008D3B9240A105B10598F0C701B601002317
:1009C00019F00E94FA0205C00E94DA11CB010E94C0
:1009D000F003C0916601CC23C9F01092660116C0E5
:1009E000402FC501B4010E94730481E08093660129
:1009F000C0E00CC0C701B601002319F00E94FA0242
:100A000005C00E94DA11CB010E94F0038C2FCF9118
:100A10000F91FF90EF90DF90CF90BF90AF909F909D
:100A20008F907F906F905F904F900895CF93C62FD7
:100A3000682F8DEB91E00E94DC0960E08DEB91E086
:100A40000E9493096C2F8DEB91E00E9493098DEB2E
:100A500091E0CF910C94600A0F93CF93DF9300D075
:100A600000D0CDB7DEB7609162017091630180E084
:100A700090E00E94101220E030E040E85FE30E9426
:100A8000DB010E94E1116F3F710521F018F08FEF3B
:100A900090E00AC06115710529F0709363016093BD
:100AA000620106C081E090E090936301809362014F
:100AB000609162017091630180E090E00E941012E9
:100AC0009B01AC018091640190916501BC0180E0C3
:100AD00090E029833A834B835C830E94101200E0EC
:100AE00029813A814B815C810E94A104882331F0E5
:100AF0006091620181E090E00E948C13609162013C
:100B0000709163018CE20F900F900F900F90DF9126
:100B1000CF910F910C9416050F93CF93DF9300D0D4
:100B200000D0CDB7DEB760915E0170915F0180E0CB
:100B300090E00E94101220E030E040E85FE30E9465
:100B4000DB010E94E1116F3F710521F018F08FEF7A
:100B500090E00AC06115710529F070935F01609300
:100B60005E0106C081E090E090935F0180935E019A
:100B700060915E0170915F0180E090E00E94101230
:100B80009B01AC018091600190916101BC0180E00A
:100B900090E029833A834B835C830E94101200E02B
:100BA00029813A814B815C810E94A104882331F024
:100BB00060915E0182E090E00E948C1360915E0182
:100BC00070915F018DE20F900F900F900F90DF9169
:100BD000CF910F910C9416050F93CF93DF9300D014
:100BE00000D0CDB7DEB760915A0170915B0180E013
:100BF00090E00E94101220E030E040E85FE30E94A5
:100C0000DB010E94E1116F3F710521F018F08FEFB9
:100C100090E00AC06115710529F070935B01609343
:100C20005A0106C081E090E090935B0180935A01E5
:100C300060915A0170915B0180E090E00E94101277
:100C40009B01AC0180915C0190915D01BC0180E051
:100C500090E029833A834B835C830E94101200E06A
:100C600029813A814B815C810E94A104882331F063
:100C700060915A0183E090E00E948C1360915A01C8
:100C800070915B018EE20F900F900F900F90DF91AB
:100C9000CF910F910C9416050F93CF93DF9300D053
:100CA00000D0CDB7DEB7609156017091570180E05A
:100CB00090E00E94101220E030E040E85FE30E94E4
:100CC000DB010E94E1116F3F710521F018F08FEFF9
:100CD00090E00AC06115710529F070935701609387
:100CE000560106C081E090E0909357018093560131
:100CF000609156017091570180E090E00E941012BF
:100D00009B01AC018091580190915901BC0180E098
:100D100090E029833A834B835C830E94101200E0A9
:100D200029813A814B815C810E94A104882331F0A2
:100D30006091560184E090E00E948C13609156010E
:100D4000709157018FE20F900F900F900F90DF91ED
:100D5000CF910F910C941605CF9348E050E0BC0161
:100D60008DEB91E00E945D0A8DEB91E00E943709C6
:100D7000892B31F08DEB91E00E943F09C82FF4CF11
:100D80008C2FCF9108958CE390E00E94AC068F7079
:100D900008958DE390E00E94AC068170809343013A
:100DA0008DE390E00E94AC068695817080934201AD
:100DB0008CE390E00E94AC068295817080934101A3
:100DC0008CE390E00E94AC0685FB882780F9809335
:100DD00040018CE390E00E94AC0686FB882780F9F6
:100DE00080933F018CE390E00E94AC06881F882727
:100DF000881F80933E016091410170E04AE050E01D
:100E00008DE792E00E94300F6091400170E04AE06F
:100E100050E08DE792E00E94300F60913F0170E05A
:100E20004AE050E08DE792E00E94300F60913E0171
:100E300070E04AE050E08DE792E00C94370F0E949A
:100E4000C90641E050E062E070E08EE491E00E946B
:100E5000D200E0915001F0915101808191819093F5
:100E6000650180936401E0915401F0915501808106
:100E700091819093610180936001E0914E01F09126
:100E80004F018081918190935D0180935C01E0919D
:100E90005201F09153018081918190935901809387
:100EA00058010E94C3068B3089F030F4882381F00A
:100EB0008730A9F40C944C068E3031F08F3019F144
:100EC0008D3069F40C948C050C942C050C94EC0575
:100ED00060E088EC90E00E941A020C94FA0240E074
:100EE00060E08BE30E94440240E06EE68AE30E94E9
:100EF000440240E060E289E30E94440240E060E294
:100F000088E30C9444020895FC0110861186128631
:100F1000138615A214A216A217A210A611A612A635
:100F200013A614A615A621E026A7CB01770FAA0BBE
:100F3000BB0B848B958BA68BB78B08958F929F925A
:100F4000AF92BF92CF92DF92EF92FF920F931F93D7
:100F5000CF93DF93EC016A017B010E94980F0C890B
:100F60001D892E893F890230110521053105D1F0F7
:100F700040F4013011052105310509F50E94A40F47
:100F80001EC0033011052105310579F0043011052B
:100F900021053105A1F40E94980F20E63AEE40E0C9
:100FA00050E009C00E94980F0AC00E94980F28EED6
:100FB00033E040E050E00E945C13CA01B901CC82EA
:100FC000DD82EE82FF820C851D852E853F854B01DB
:100FD0005C01801A910AA20AB30A8C149D04AE0423
:100FE000BF0458F06C877D878E879F878C8D811119
:100FF00003C081E08C8F01C01C8E8C8DDF91CF915E
:101000001F910F91FF90EF90DF90CF90BF90AF9026
:101010009F908F900895FC0166834783208781E02D
:1010200085870895CF92DF92FF920F931F93CF93FE
:10103000DF93EC0161E08E810E949C100E94980F6A
:1010400009851A852B853C856017710782079307F0
:1010500020F419861A861B861C862D85211111C045
:1010600009851A852B853C85DC01CB01801B910B02
:10107000A20BB30B803D9740A105B10510F481E0B0
:101080006DC01D860E94980F69877A878B879C8721
:101090001C821B821A821982188261E08E810E9452
:1010A000601060E08E810E949C1064E170E080E03E
:1010B00090E00E94C90FF89461E08E810E949C101C
:1010C00088E290E00E94F10F60E08E810E94601043
:1010D00010E0F12C81E000E0C82ED12C8E810E941E
:1010E000CC108C159D0539F40F5F81E090E00E94D3
:1010F000F10F0F3F99F78E810E94CC100F3FB9F08E
:10110000143090F010FD10C09F2D969596959695F1
:10111000FE01E90FF11D9081990F9083288520171A
:1011200010F491609083F3941F5F1535A1F67894C5
:1011300087E28F1590F42C8130E04881898190E01E
:10114000840F911D4A81840F911D4B81840F911D45
:1011500099272817390709F492CF80E0DF91CF91C2
:101160001F910F91FF90DF90CF900895CF92DF9263
:10117000EF92FF920F931F93CF93DF93EC01162F03
:101180000E941208882309F455C08F818B3031F0FA
:1011900008F450C08551823098F04CC06A8170E0EC
:1011A00080E090E00E941012112309F44EC020E06C
:1011B00030E040E151E46B017C01C701B6012BC076
:1011C0000A81602F6F7770E080E090E00E94121239
:1011D00020E030E040E853E40E94C7126B017C013C
:1011E0008B81682F70E080E090E00E9412129B01DA
:1011F000AC01C701B6010E94F71020E030E040E2E8
:1012000051E40E94681107FD90581123F1F020E08D
:1012100030E040E151E40E94C71220E030E040EAB3
:1012200050E40E94681120E030E040E052E40E9467
:10123000F7100BC063E071E08DE792E00E94830E2F
:1012400040E030E020EC9FE703C0462F372F282FE7
:10125000C42ED32EE22EF92EC701B601DF91CF9115
:101260001F910F91FF90EF90DF90CF9008958091A4
:10127000ED0190E02091EE01821B9109089590917B
:10128000EE018091ED01981750F4E92FF0E0E15163
:10129000FE4F208130E09F5F9093EE0102C02FEF60
:1012A0003FEFC9010895E091EE018091ED01E8174B
:1012B00030F4F0E0E151FE4F808190E008958FEF2F
:1012C0009FEF08950895CF92DF92EF92FF920F93D0
:1012D0001F93CF93DF937C01262F972F8A01809154
:1012E000C901882391F0C62FD72F6E01C40ED51ED9
:1012F000CC15DD0571F06991D701ED91FC9101905C
:10130000F081E02DC7010995F3CF642F822F0E9451
:10131000230BC801DF91CF911F910F91FF90EF90A8
:10132000DF90CF900895CF93DF931F92CDB7DEB7B4
:1013300069832091C9012223D1F02091CA01203272
:1013400040F021E030E0FC013383228380E090E034
:1013500015C08091CB01E82FF0E0E453FE4F998156
:1013600090838F5F8093CB018093CA0105C061E0B9
:10137000CE0101960E94230B81E090E00F90DF9157
:10138000CF910895FC011382128288EE93E0A0E0D1
:10139000B0E084839583A683B78381E191E0918354
:1013A000808308951092EE011092ED011092CB010E
:1013B0001092CA010C94670A81E08093C90160937E
:1013C000EC011092CB011092CA0108950F93062FE1
:1013D00021E04091CA016CEC71E08091EC010E9427
:1013E000CD0A1092CB011092CA011092C9010F913F
:1013F00008954F925F926F927F92AF92BF92CF9279
:10140000EF92FF920F931F93CF93DF935C01F62E21
:10141000D42F28013901EE2021F10E94DC09CE2DC4
:10142000C43008F0C3E0C150C0F0D501ED91FC918B
:10143000B8E0CB9FC0011124A301920104C05695CE
:101440004795379527958A95D2F7CA01B90101903A
:10145000F081E02DC5010995E6CF60E0C5010E944D
:10146000E6094D2FD13208F040E22C2D6FEE71E0ED
:101470008F2D0E94850A1092EE018093ED01DF917D
:10148000CF911F910F91FF90EF90CF90BF90AF90B1
:101490007F906F905F904F900895CF92EF920F934F
:1014A0001F93C22EE12C00E010E098010E94F90980
:1014B0001F910F91EF90CF90089521E00C944D0A69
:1014C00061E00C94E6098DEB91E00C94C209109256
:1014D0007C0281E080937A021092790261E082E1DD
:1014E0000E949C1061E083E10E949C10E9EBF0E017
:1014F00080818E7F808380818D7F808388E480934C
:10150000B80085E48093BC000895413208F043C0E0
:1015100090917C029111FCCF91E090937C022093FA
:101520007A022FEF20930F0210925402240F20937F
:10153000530290937B0290917B02880F892B8093BA
:101540007B0280917902813061F41092790280915E
:101550007B028093BB008091BC0083FDF8CF85ECBB
:1015600001C085EE8093BC0080917C028130E1F364
:1015700080915402841710F44091540225E532E022
:10158000FB01D9018A2F821B841718F48D91819356
:10159000F9CF842F089580E008950F93413208F029
:1015A0004AC090917C029111FCCF32E030937C02D2
:1015B00000937A023FEF30930F021092540240934F
:1015C0005302FB0165E572E0DB013A2F361B34174D
:1015D00018F431913D93F9CF10927B0230917B0248
:1015E000880F832B80937B0280917902813061F494
:1015F0001092790280917B028093BB008091BC00A5
:1016000083FDF8CF85EC01C085EE8093BC002223DA
:1016100021F080917C028230D1F380910F028F3FC4
:1016200079F080910F02803241F080910F02803377
:1016300031F094E005C091E003C092E001C093E076
:10164000892F0F910895613298F420917C02243003
:1016500089F460933102FC0123E332E0D9018A2F3F
:10166000821B861718F481918D93F9CF80E008953D
:1016700081E0089582E0089585ED8093BC0080911B
:10168000BC0084FDFCCF10927C02089585EC809311
:10169000BC0010927C0208951F920F920FB60F9219
:1016A00011242F933F934F935F936F937F938F9367
:1016B0009F93AF93BF93EF93FF938091B900887F7F
:1016C000803609F49EC078F5883209F45DC090F444
:1016D000803109F456C038F4882309F4F5C0883005
:1016E00009F44FC0F5C0883109F44EC0803209F4C6
:1016F0005FC0EEC0803409F46AC058F4803309F446
:1017000057C0883309F0E4C080930F020E94460B53
:10171000DFC0803509F44FC0883509F45DC08834D6
:1017200009F0D6C0D3C0883909F4C4C0A8F48837FA
:1017300009F467C038F4883609F463C0803709F4C7
:1017400060C0C6C0883809F4B5C0803909F45FC0EC
:10175000803809F0BDC05BC0803B09F483C038F419
:10176000803A09F466C0883A09F47CC0B1C0803C74
:1017700009F4A4C0883C09F4A1C0883B09F487C0DF
:10178000A7C080917B0210C09091540280915302B7
:10179000981770F5E091540281E08E0F8093540207
:1017A000F0E0EB5AFD4F80818093BB0085EC83C055
:1017B00080930F028BC0E091540281E08E0F8093E2
:1017C00054028091BB00F0E0EB5AFD4F8083909172
:1017D0005402809153026BC0E091540281E08E0F5D
:1017E000809354028091BB00F0E0EB5AFD4F808360
:1017F00080917A0281116AC081E08093790284EA43
:101800005EC083E080937C0210921002CFCF809163
:101810001002803208F04EC0E091100281E08E0F7D
:10182000809310028091BB00F0E0EF5EFD4F80835B
:10183000BDCF0E94460B80911002803230F4E091BF
:101840001002F0E0EF5EFD4F10826091100270E038
:10185000E0917502F091760281E192E00995109293
:10186000100236C084E080937C0210923202109203
:101870003102E0917702F09178020995809131026E
:10188000811105C081E08093310210923302E09112
:10189000320281E08E0F80933202F0E0ED5CFD4F6A
:1018A00080818093BB009091320280913102981721
:1018B00008F47CCF85E88093BC000AC085EC809357
:1018C000BC0010927C0204C010920F020E943C0BDC
:1018D000FF91EF91BF91AF919F918F917F916F9108
:1018E0005F914F913F912F910F900FBE0F901F90DE
:1018F0001895FC01918D228D892F90E0805C9F4F7F
:10190000821B91098F7399270895FC01918D828D17
:10191000981731F0828DE80FF11D858D90E00895C4
:101920008FEF9FEF0895FC01918D828D981761F0E4
:10193000828DDF01A80FB11D5D968C91928D9F5F06
:101940009F73928F90E008958FEF9FEF08958CEF33
:101950009DE0892B49F080E090E0892B29F00E94DE
:10196000FC0D81110C9400000895FC01848DDF01B1
:10197000A80FB11DA35ABF4F2C91848D90E0019602
:101980008F739927848FA689B7892C93A089B189F1
:101990008C9180648C93938D848D981306C00288FB
:1019A000F389E02D80818F7D80830895CF93DF932D
:1019B000EC01888D8823C9F0EA89FB89808185FD47
:1019C00005C0A889B9898C9186FD0FC00FB607FCA8
:1019D000F5CF808185FFF2CFA889B9898C9185FFE9
:1019E000EDCFCE010E94B50CE7CFDF91CF910895E6
:1019F000EF92FF920F931F93CF93DF93EC0181E05F
:101A0000888F9B8D8C8D981305C0E889F98980811A
:101A100085FD24C0F62E0B8D10E00F5F1F4F0F7356
:101A20001127E02E8C8DE8120CC00FB607FCFACF00
:101A3000E889F989808185FFF5CFCE010E94B50C38
:101A4000F1CF8B8DFE01E80FF11DE35AFF4FF082BD
:101A50000B8FEA89FB898081806207C0EE89FF894C
:101A60006083E889F98980818064808381E090E0E7
:101A7000DF91CF911F910F91FF90EF900895CF923A
:101A8000DF92EF92FF921F93CF93DF93EC016A01F5
:101A90007B01122FE889F98982E080834115514E3C
:101AA00061057105B1F060E079E08DE390E0A70198
:101AB00096010E945C13DA01C9010197A109B109DD
:101AC000B695A79597958795AC01411580E1580784
:101AD000A8F0E889F989108260E874E88EE190E066
:101AE000A70196010E945C13BA01A9014150510956
:101AF000610971097695679557954795EC85FD8540
:101B00005083EE85FF854083188EEC89FD89108314
:101B1000EA89FB89808180618083EA89FB898081F1
:101B200088608083EA89FB89808180688083EA8974
:101B3000FB8980818F7D8083DF91CF911F91FF9002
:101B4000EF90DF90CF9008951F920F920FB60F92F3
:101B500011242F938F939F93EF93FF93E0918D0226
:101B6000F0918E028081E0919302F091940282FDC7
:101B700012C09081809196028F5F8F73209197029F
:101B8000821751F0E0919602F0E0E358FD4F958FF7
:101B90008093960201C08081FF91EF919F918F9178
:101BA0002F910F900FBE0F901F9018951F920F92BC
:101BB0000FB60F9211242F933F934F935F936F9320
:101BC0007F938F939F93AF93BF93EF93FF938DE793
:101BD00092E00E94B50CFF91EF91BF91AF919F9160
:101BE0008F917F916F915F914F913F912F910F90C6
:101BF0000FBE0F901F9018958DE792E00E94790C10
:101C000021E0892B09F420E0822F0895EDE7F2E02E
:101C10001382128288EE93E0A0E0B0E08483958383
:101C2000A683B78381E291E09183808385EC90E085
:101C30009587848784EC90E09787868780EC90E096
:101C4000918B808B81EC90E0938B828B82EC90E087
:101C5000958B848B86EC90E0978B868B118E128E01
:101C6000138E148E089508950E94FC0F0E94330E67
:101C70000E948301C7EADCE00E941F072097E1F37E
:101C80000E94A70CF9CFCF92DF92EF92FF920F93B1
:101C90001F93CF93DF936C017A018B01C0E0D0E0FA
:101CA000CE15DF0589F0D8016D918D01D601ED913A
:101CB000FC910190F081E02DC6010995892B11F46A
:101CC0007E0102C02196ECCFC701DF91CF911F9119
:101CD0000F91FF90EF90DF90CF90089561157105FF
:101CE00079F0FB0101900020E9F73197AF01461B25
:101CF000570BDC01ED91FC910280F381E02D0994FA
:101D000080E090E008950C946E0EDC01ED91FC9162
:101D10000190F081E02D09946DE271E00C946E0E5B
:101D20008F929F92AF92BF92CF92DF92EF92FF92EB
:101D30000F931F93CF93DF93CDB7DEB7A1970FB665
:101D4000F894DEBF0FBECDBF6C01142FE52FCB0181
:101D5000022F19A2223008F40AE07E0121E2E20EED
:101D6000F11C802E912CA12CB12C612F7E2FA5016E
:101D700094010E945C13029F1019112481E0E81A5B
:101D8000F1081A3014F4105D01C0195CF7011083DA
:101D9000122FE32FCA01232B242B252B31F7B70158
:101DA000C6010E946E0EA1960FB6F894DEBF0FBE5C
:101DB000CDBFDF91CF911F910F91FF90EF90DF90FA
:101DC000CF90BF90AF909F908F900895CF92DF9269
:101DD000EF92FF920F931F93CF93DF93EC016A0171
:101DE0007B012115310579F4E881F9810190F081B9
:101DF000E02D642FDF91CF911F910F91FF90EF9015
:101E0000DF90CF9009942A303105E9F477FF1AC0AA
:101E10006DE20E94850E8C0144275527BA014C19AA
:101E20005D096E097F092AE0CE010E94900E800FA5
:101E3000911FDF91CF911F910F91FF90EF90DF9055
:101E4000CF9008952AE0B701A601CE01DF91CF918E
:101E50001F910F91FF90EF90DF90CF900C94900E18
:101E60009A01AB01770F660B770B0C94E60E0F937C
:101E70001F93CF93DF93EC019A01AB01770F660BB1
:101E8000770B0E94E60E8C01CE010E948C0E800F13
:101E9000911FDF91CF911F910F9108951F920F9283
:101EA0000FB60F9211242F933F938F939F93AF936D
:101EB000BF9380911B0390911C03A0911D03B091CF
:101EC0001E0330911A0323E0230F2D3720F40196CF
:101ED000A11DB11D05C026E8230F0296A11DB11D4D
:101EE00020931A0380931B0390931C03A0931D035C
:101EF000B0931E0380911F0390912003A0912103B2
:101F0000B09122030196A11DB11D80931F039093F0
:101F10002003A0932103B0932203BF91AF919F911F
:101F20008F913F912F910F900FBE0F901F9018959A
:101F30002FB7F89460911B0370911C0380911D03CF
:101F400090911E032FBF08953FB7F89480911F030F
:101F500090912003A0912103B091220326B5A89B64
:101F600005C02F3F19F00196A11DB11D3FBFBA2F2B
:101F7000A92F982F8827820F911DA11DB11DBC018B
:101F8000CD0142E0660F771F881F991F4A95D1F750
:101F90000895CF92DF92EF92FF92CF93DF936B0180
:101FA0007C010E94A40FEB01C114D104E104F104EF
:101FB00089F00E94F5100E94A40F6C1B7D0B683EF7
:101FC000734090F381E0C81AD108E108F108C851C4
:101FD000DC4FEACFDF91CF91FF90EF90DF90CF9071
:101FE00008958230910538F0880F991F880F991F46
:101FF00005970197F1F70895789484B5826084BDC0
:1020000084B5816084BD85B5826085BD85B58160FC
:1020100085BDEEE6F0E0808181608083E1E8F0E05C
:102020001082808182608083808181608083E0E88B
:10203000F0E0808181608083E1EBF0E0808184606A
:102040008083E0EBF0E0808181608083EAE7F0E06C
:1020500080818460808380818260808380818160D0
:1020600080838081806880831092C10008958330CE
:1020700081F028F4813099F08230A1F00895873002
:10208000A9F08830B9F08430D1F4809180008F7D40
:1020900003C0809180008F7780938000089584B57D
:1020A0008F7702C084B58F7D84BD08958091B00084
:1020B0008F7703C08091B0008F7D8093B00008952A
:1020C000CF93DF9390E0FC01E458FF4F2491FC0193
:1020D000E057FF4F8491882361F190E0880F991FAA
:1020E000FC01E854FF4FC591D491FC01E255FF4F2C
:1020F000A591B491611109C09FB7F894888120958A
:1021000082238883EC912E230BC0623061F49FB749
:10211000F8943881822F809583238883EC912E2B2D
:102120002C939FBF06C08FB7F894E8812E2B28838D
:102130008FBFDF91CF9108951F93CF93DF93282F07
:1021400030E0F901E859FF4F8491F901E458FF4F5D
:10215000D491F901E057FF4FC491CC23C9F0162F59
:1021600081110E943710EC2FF0E0EE0FFF1FE255B7
:10217000FF4FA591B4918FB7F894111105C09C91B0
:10218000ED2FE095E92302C0EC91ED2BEC938FBF8E
:10219000DF91CF911F910895CF93DF93282F30E0E7
:1021A000F901E859FF4F8491F901E458FF4FD491A8
:1021B000F901E057FF4FC491CC2391F081110E94A7
:1021C0003710EC2FF0E0EE0FFF1FEC55FF4FA591FD
:1021D000B491EC91ED2381E090E021F480E002C025
:1021E00080E090E0DF91CF91089508955058BB278B
:1021F000AA270E940E110C9488120E947A1238F0BD
:102200000E94811220F039F49F3F19F426F40C94B7
:1022100077120EF4E095E7FB0C947112E92F0E94FF
:10222000991258F3BA17620773078407950720F0CD
:1022300079F4A6F50C94BB120EF4E0950B2EBA2F90
:10224000A02D0B01B90190010C01CA01A0011124BC
:10225000FF27591B99F0593F50F4503E68F11A1668
:10226000F040A22F232F342F4427585FF3CF4695F9
:1022700037952795A795F0405395C9F77EF41F161B
:10228000BA0B620B730B840BBAF09150A1F0FF0FE5
:10229000BB1F661F771F881FC2F70EC0BA0F621FD1
:1022A000731F841F48F4879577956795B795F795C1
:1022B0009E3F08F0B0CF9395880F08F09927EE0F56
:1022C0009795879508950E944D1208F481E008952E
:1022D0000E947C110C9488120E94811258F00E9476
:1022E0007A1240F029F45F3F29F00C9471125111D9
:1022F0000C94BC120C9477120E94991268F39923E3
:10230000B1F3552391F3951B550BBB27AA276217F1
:102310007307840738F09F5F5F4F220F331F441FFE
:10232000AA1FA9F335D00E2E3AF0E0E832D0915032
:102330005040E695001CCAF72BD0FE2F29D0660F1F
:10234000771F881FBB1F261737074807AB07B0E862
:1023500009F0BB0B802DBF01FF2793585F4F3AF068
:102360009E3F510578F00C9471120C94BC125F3FA3
:10237000E4F3983ED4F3869577956795B795F795EE
:102380009F5FC9F7880F911D9695879597F90895D6
:10239000E1E0660F771F881FBB1F62177307840772
:1023A000BA0720F0621B730B840BBA0BEE1F88F781
:1023B000E09508950E94E1116894B1110C94BC124B
:1023C00008950E94A11288F09F5798F0B92F99277D
:1023D000B751B0F0E1F0660F771F881F991F1AF010
:1023E000BA95C9F714C0B13091F00E94BB12B1E0A8
:1023F00008950C94BB12672F782F8827B85F39F0A7
:10240000B93FCCF3869577956795B395D9F73EF4A8
:1024100090958095709561957F4F8F4F9F4F089550
:10242000E89409C097FB3EF490958095709561956E
:102430007F4F8F4F9F4F9923A9F0F92F96E9BB2724
:102440009395F695879577956795B795F111F8CFA0
:10245000FAF4BB0F11F460FF1BC06F5F7F4F8F4F0B
:102460009F4F16C0882311F096E911C0772321F001
:102470009EE8872F762F05C0662371F096E8862F99
:1024800070E060E02AF09A95660F771F881FDAF7F0
:10249000880F9695879597F90895990F0008550F1D
:1024A000AA0BE0E8FEEF16161706E807F907C0F0DA
:1024B00012161306E407F50798F0621B730B840BE2
:1024C000950B39F40A2661F0232B242B252B21F4BC
:1024D00008950A2609F4A140A6958FEF811D811D5C
:1024E000089597F99F6780E870E060E008959FEF96
:1024F00080EC089500240A9416161706180609069B
:10250000089500240A941216130614060506089569
:10251000092E0394000C11F4882352F0BB0F40F4F1
:10252000BF2B11F460FF04C06F5F7F4F8F4F9F4F31
:10253000089557FD9058440F551F59F05F3F71F0B3
:102540004795880F97FB991F61F09F3F79F087951A
:102550000895121613061406551FF2CF4695F1DFA3
:1025600008C0161617061806991FF1CF8695710533
:10257000610508940895E894BB2766277727CB0167
:1025800097F908950E944D1208F48FEF08950E9464
:10259000DA120C9488120E947A1238F00E9481128A
:1025A00020F0952311F00C9471120C9477121124E1
:1025B0000C94BC120E94991270F3959FC1F3950F71
:1025C00050E0551F629FF001729FBB27F00DB11DB7
:1025D000639FAA27F00DB11DAA1F649F6627B00D47
:1025E000A11D661F829F2227B00DA11D621F739F30
:1025F000B00DA11D621F839FA00D611D221F749F3E
:102600003327A00D611D231F849F600D211D822F84
:10261000762F6A2F11249F5750409AF0F1F08823AB
:102620004AF0EE0FFF1FBB1F661F771F881F9150D8
:102630005040A9F79E3F510580F00C9471120C9404
:10264000BC125F3FE4F3983ED4F386957795679587
:10265000B795F795E7959F5FC1F7FE2B880F911D02
:102660009695879597F90895AA1BBB1B51E107C062
:10267000AA1FBB1FA617B70710F0A61BB70B881F12
:10268000991F5A95A9F780959095BC01CD010895A1
:1026900097FB072E16F4009407D077FD09D00E940F
:1026A000341307FC05D03EF4909581959F4F089513
:1026B000709561957F4F0895A1E21A2EAA1BBB1B4E
:1026C000FD010DC0AA1FBB1FEE1FFF1FA217B307FE
:1026D000E407F50720F0A21BB30BE40BF50B661F14
:1026E000771F881F991F1A9469F7609570958095D8
:1026F00090959B01AC01BD01CF010895EE0FFF1F26
:102700000590F491E02D0994F999FECF92BD81BD19
:10271000F89A992780B50895262FF999FECF1FBA08
:1027200092BD81BD20BD0FB6F894FA9AF99A0FBEFA
:0827300001960895F894FFCF13
:1027380001010152656164206661696C0000000056
:10274800009309630937093F09530962090000002A
:1027580000F80C430E790C930C850CD60C0D0A006E
:0E2768006E616E00696E66006F7666002E0070
:00000001FF
