:100000000C946D000C9495000C9495000C94950044
:100010000C9495000C9495000C9495000C9495000C
:100020000C9495000C9495000C9495000C94AD00E4
:100030000C9495000C9495000C9495000C949500EC
:100040000C9479130C9495000C941B120C944D1283
:100050000C9495000C9495000C9495000C949500CC
:100060000C94C30F0C949500D20BCA0BD50BC10B8B
:10007000C40BC70BBE0BBB0BB80B00000008000283
:10008000010000030407000000000000000001025E
:100090000408102040800102040810200102040816
:1000A00010200404040404040404020202020202F4
:1000B00003030303030300000000230026002900BC
:1000C00000000000250028002B0000000000240094
:1000D00027002A002E03DA0E7D1211241FBECFEF57
:1000E000D8E0DEBFCDBF11E0A0E0B1E0EEE8FFE276
:1000F00002C005900D92A235B107D9F723E0A2E521
:10010000B1E001C01D92A137B207E1F710E0CDE6E2
:10011000D0E004C02197FE010E94A917CA36D1077A
:10012000C9F70E94AB120C94C5170C9400000C94F4
:10013000B7171092800025E02093810029E03DE36D
:10014000309389002093880022E020936F007894F8
:10015000909308028093070208951F920F920FB6A2
:100160000F9211242F933F938F939F932091090215
:1001700030910A0280910702909108020197281796
:10018000390728F010920A021092090209C08091E2
:10019000090290910A02019690930A028093090243
:1001A00010928500109284009F918F913F912F9122
:1001B0000F900FBE0F901F9018954F925F927F92F5
:1001C0008F929F92AF92BF92CF92DF92EF92FF9267
:1001D0000F931F93CF93DF93FC017A0140E050E02F
:1001E00000E010E0412C512C21E030E0712C4B015B
:1001F0008E0C9F1C5C0188E0A80EB11C8091090246
:1002000090910A02C0900902D0900A02C814D90441
:1002100008F05EC08617970708F45AC0772089F067
:1002200083B1807190E082179307B9F0C080D180CC
:10023000D6012D913C9111972F5F3F4F2D933C9309
:100240000CC0CF01DC01CD90DD90CD01D6011D9217
:100250001C928A159B05B1F7E3CF29B1207130E0DC
:100260002415350559F0C280D380D6014D905C909D
:10027000BFEF4B1A5B0AD6014D925C92A3B1A072FC
:100280004A2E512C4016510651F0C480D580D6011B
:100290000D911C9111970F5F1F4F0D931C9316B179
:1002A0001170C12FB0E0DB2FC417D50751F00681C4
:1002B0001781D8014D915C9111974F5F5F4F4D931E
:1002C0005C9377247394AE01820129019C0196CF3F
:1002D000B1E07B1213C09F01285F3F4FC191D191C4
:1002E0008881998197FD019695958795B7010E9420
:1002F0005F1779836883E217F30781F7DF91CF9166
:100300001F910F91FF90EF90DF90CF90BF90AF9033
:100310009F908F907F905F904F9008950F931F93C1
:10032000CF93DF9326E040E052EC61E070E08BEC8D
:1003300092E00E94B6118BE092E00E94490E62E0CA
:1003400086E00E948B1462E087E00E948B1462E0DA
:1003500088E00E948B1462E089E00E948B1462E0C6
:1003600081E10E948B1461E083E00E948B1461E0C4
:1003700085E00E948B1481E090E00E94AF1790E02E
:100380009093AD018093AC0182E090E00E94AF17A2
:1003900090E09093A9018093A80183E090E00E94EF
:1003A000AF1790E09093A5018093A40184E090E0C2
:1003B0000E94AF1790E09093A1018093A00104E503
:1003C00011E0C0E0D0E0CE0104960E94AF1790E0AB
:1003D000F801819391938F012196C630D10599F749
:1003E00084E190E00E94990020E030E080E090E01D
:1003F000F901E856FE4FA90140575E4F51834083F3
:1004000001962E5F3F4F8430910591F790938F01B5
:1004100080938E01DF91CF911F910F9108950F93DB
:100420001F9380917801811103C081E08093740152
:1004300080917701811103C081E0809373018091E5
:100440007401882319F180918D0181111FC00E94D0
:10045000C31300916E0110916F01209170013091D2
:100460007101DC01CB01801B910BA20BB30B893B0B
:100470009B40A105B10520F081E08093740106C086
:1004800080917601811102C01092740180917301F4
:10049000882319F180918C0181111FC00E94C31320
:1004A00000916A0110916B0120916C0130916D01F6
:1004B000DC01CB01801B910BA20BB30B893B9B4052
:1004C000A105B10520F081E08093730106C0809101
:1004D0007501811102C01092730180917201811126
:1004E00004C01092740110927301909178019111DF
:1004F00010927401209177012111109273014091A3
:10050000790150917A0120910C0130910D0142172F
:10051000530724F4109274011092730120918D01FD
:10052000211104C0911102C081110AC00E94C3139D
:1005300060936E0170936F018093700190937101CD
:1005400080918C01811108C080917701811104C0D4
:100550008091720181110AC00E94C31360936A01E5
:1005600070936B0180936C0190936D018091740185
:10057000882321F091E09093760102C010927601D9
:1005800090917301992321F091E09093750102C03D
:1005900010927501882311F05B9A01C05B988091DD
:1005A0007301882311F05D9A01C05D981F910F912E
:1005B0000895CF92DF92EF92FF92CF936B017C016F
:1005C000CA01B901C9B1C6FBCC27C0F9C093160155
:1005D00029B1221F2227221F2093150130911401D7
:1005E000C31799F02C1731F020E030E0A9010E94E8
:1005F000221507C09B01AC0160E070E0CB010E94B6
:10060000211521E02093E60105C01092E60160E08B
:1006100070E0CB01C09314019B01AC01C701B6018E
:100620000E942215CF91FF90EF90DF90CF90089518
:100630002091E501422F50E08417950758F4662376
:1006400021F060E089EF91E003C060E08BEE91E083
:100650000C942D0D2F5F2093E501089526E046E1CF
:100660006FE089EF91E00E94820C26E046E160E1B4
:100670008BEE91E00E94820C62E070E086EB91E0EC
:100680000C94FB0B1F93CF93DF931F92CDB7DEB774
:10069000633609F463C058F5673009F455C090F427
:1006A000633009F44DC038F4613009F461C008F0DA
:1006B00045C010EC6EC0653009F464C008F042C05B
:1006C00019E967C06A3209F463C048F4693009F473
:1006D0003FC0E0F1603209F05CC01FEF5AC06136E4
:1006E000C9F1D0F56D3209F054C01FEB52C06C3621
:1006F00009F440C080F46736B9F128F4653681F119
:1007000088F511EA46C0693699F180F16A3609F038
:1007100040C011EF3EC0623799F138F4603761F1A3
:1007200068F56E36B1F51BEA34C0643769F150F1F3
:10073000653761F1693769F511E92BC014EA29C001
:1007400010EB27C012E825C018EF23C010E821C025
:1007500010E91FC018E81DC013E81BC016EC19C033
:1007600016E817C01EE815C012EC13C016E711C03A
:1007700019EF0FC017EC0DC01CE80BC018E909C039
:100780001FEA07C012E905C017E803C011EC01C059
:100790001CE9682F8BE092E049830E94530E612F81
:1007A0008BE092E00E940A0E4981612F442311F0F0
:1007B0006F7701C060688BE092E00E940A0E8BE0C8
:1007C00092E00F90DF91CF911F910C94D70E40E0F3
:1007D00060E288E30E94420340E060E289E30E9415
:1007E000420340E060E28AE30E94420340E060E2AC
:1007F0008BE30C9442038F929F92AF92BF92CF9261
:10080000DF92EF92FF92CF93DF936B017C010E9406
:100810000516EB01072E000C880B990B0E943D1664
:100820009B01AC01C701B6010E94211520E030E018
:1008300040E251E40E94F2164B015C0120E030E0FE
:1008400040E251ECC701B6010E948E1518167CF1EA
:1008500040E06DE288E30E94420320E030E040E2A5
:1008600051E4C701B6010E9493156B017C0120E0A1
:1008700030E0A9010E94ED1618161CF4C701B6015C
:1008800003C0C701B60190580E940C1640E089E3EE
:100890000E944203CE016AE070E00E94731797FF46
:1008A00003C091958195910941E0682F25C020E012
:1008B00030E0A901C701B6010E948E1587FF30C044
:1008C00040E06DE288E30E94420340E060E089E39B
:1008D0000E94420320E030E0A901C701B6010E9456
:1008E000ED1618161CF4C701B60103C0C701B60106
:1008F00090580E940C1641E08AE30E94420320E0D7
:1009000030E0A901C501B4010E94ED1618160CF4DF
:1009100048C0C501B40190580E940C1640E054C074
:1009200020E030E040E251E4C701B6010E948E159C
:1009300087FF10C040E060E088E30E94420340E08F
:1009400060E089E30E944203C701B6010E940C16D1
:1009500041E024C020E030E040E251E4C701B601AC
:100960000E94ED1640E087FD1FC060E088E30E9412
:10097000420320E030E040E251E4C701B6010E94AA
:1009800093150E940C1640E089E30E944203CE01B9
:100990006AE070E00E94731741E0682F8AE30E94CA
:1009A0004203C501B401B8CF65E688E30E94420363
:1009B00040E062E789E30E94420340E062E78AE3A5
:1009C0000E94420340E060E28BE3DF91CF91FF9011
:1009D000EF90DF90CF90BF90AF909F908F900C944E
:1009E0004203EF92FF920F931F93CF93DF93EC019B
:1009F0008A30910568F440E060E088E30E94420399
:100A000040E060E089E30E94420340E060E014C0FF
:100A100084369105B8F440E060E088E30E94420328
:100A200040E060E089E30E944203CE016AE070E0AA
:100A30000E945F17C82F40E08AE30E94420340E013
:100A40006C2F42C0C83E83E0D80798F440E060E0D5
:100A500088E30E944203CE0164E670E00E945F17C3
:100A60007C0140E089E30E9442030AE010E0C701F4
:100A70001EC0C03187E2D80780F5CE0168EE73E072
:100A80000E945F177C0140E088E30E94420304E675
:100A900010E0C701B8010E945F1740E089E30E949F
:100AA0004203CE01B8010E945F170AE010E0B801CE
:100AB0000E945F1740E08AE30E944203CE01B80122
:100AC0000E945F1740E0682F8BE3DF91CF911F9169
:100AD0000F91FF90EF900C944203DF91CF911F9103
:100AE0000F91FF90EF900895CF92DF92EF92FF92D7
:100AF000CF936B017C01C42F42E350E060E070E0D3
:100B000086EB91E00E94150C8823A9F0C701B6017D
:100B1000CC2339F0CF91FF90EF90DF90CF900C94E1
:100B2000FB030E940516CB01CF91FF90EF90DF9061
:100B3000CF900C94F104CF91FF90EF90DF90CF9085
:100B40000C94E7034F925F926F927F928F929F92E5
:100B5000AF92BF92CF92DF92EF92FF920F93CF931B
:100B60006B017C0149015A018091E601882369F0FB
:100B700081E08093B5010E94C3136093B10170932B
:100B8000B2018093B3019093B401C091B501CC231D
:100B900091F10E94C3134090B1015090B201609056
:100BA000B3017090B401DC01CB0184199509A60949
:100BB000B7098D3B9240A105B10598F0C701B60178
:100BC000002319F00E94FB0305C00E940516CB010B
:100BD0000E94F104C091B001CC23C9F01092B00181
:100BE00016C0402FC501B4010E94740581E08093B6
:100BF000B001C0E00CC0C701B601002319F00E948B
:100C0000FB0305C00E940516CB010E94F1048C2F46
:100C1000CF910F91FF90EF90DF90CF90BF90AF906A
:100C20009F908F907F906F905F904F9008950F935B
:100C3000CF93DF93339B02C081E001C082E08093B9
:100C400013018091520190915301181619062CF04E
:100C5000109253011092520108C0059734F085E0BC
:100C600090E09093530180935201809152019091B2
:100C70005301EC01CC0FDD1FFE01EC5AFE4F6081E9
:100C800071816F3F71052CF02FEF30E031832083AD
:100C900005C01616170614F0118210822091130158
:100CA000213021F5BC01990F880B990B0E943D164C
:100CB00020E030E040E85FE30E94D9020E94051680
:100CC0007093530160935201660F771FFB01E05050
:100CD000FF4F60817181072E000C880B990B0E94D9
:100CE0003D16DF91CF910F910C94FB032230C9F593
:100CF000072E000C880B990B0E943D1620E030E077
:100D000040E85FE30E94D902CC5ADE4F0E940516EC
:100D100079836883E0915201F0915301EE0FFF1F38
:100D2000EC5AFE4F60817181072E000C880B990BE5
:100D30000E943D1600E09B01AC010E94A2058823A1
:100D400081F08091520190915301FC01EE0FFF1F41
:100D5000EC5AFE4F60810496DF91CF910F910C9475
:100D60009700DF91CF910F910895EF92FF920F932B
:100D70001F93CF93DF93EC018A30910568F440E034
:100D800065E688E30E94420340E060E089E30E9458
:100D9000420340E060E014C084369105B8F440E0BE
:100DA00065E688E30E94420340E060E089E30E9438
:100DB0004203CE016AE070E00E945F17C82F40E056
:100DC0008AE30E94420340E06C2F23C0C83E83E0C8
:100DD000D80740F540E065E688E30E944203CE0173
:100DE00064E670E00E945F177C0140E089E30E94A6
:100DF00042030AE010E0C701B8010E945F1740E01B
:100E00008AE30E944203CE01B8010E945F1740E0CE
:100E1000682F8BE3DF91CF911F910F91FF90EF909F
:100E20000C944203DF91CF911F910F91FF90EF90AF
:100E30000895EF92FF920F931F93CF93DF93109239
:100E400069011092680180918B01811106C081E0D7
:100E500090E09093690180936801809189018111EC
:100E600009C0809168019091690182609093690145
:100E70008093680180918A01811109C08091680185
:100E800090916901846090936901809368018091D9
:100E90008801811109C08091680190916901886081
:100EA000909369018093680180918601811109C046
:100EB00080916801909169018061909369018093AC
:100EC000680180918501811109C08091680190912C
:100ED0006901806290936901809368018091870124
:100EE000811109C08091680190916901806490939B
:100EF00069018093680180918401811109C080910A
:100F000068019091690180689093690180936801FC
:100F100080918301811109C08091680190916901DC
:100F20009160909369018093680180E090E00E9455
:100F3000B50606E511E0C0E0D0E0EE24E394F12C24
:100F400080916801909169010C2E02C0959587955A
:100F50000A94E2F7F80180FF1BC0F182E0828091E1
:100F6000540190915501843F91406CF4CE010E9450
:100F7000B5068091540190915501019690935501C9
:100F800080935401ECCF109255011092540102C08D
:100F90001182108221960E5F1F4FC930D10581F654
:100FA000DF91CF911F910F91FF90EF900895CF9314
:100FB000C62F682F8BE092E00E94530E60E08BE01A
:100FC00092E00E940A0E6C2F8BE092E00E940A0EC3
:100FD0008BE092E0CF910C94D70E0F931F93CF9399
:100FE000DF938091790190917A01209100013091F5
:100FF00001012817390764F060915401709155017F
:101000008CE20E94D707609154017091550112C083
:1010100020910A0130910B018217930794F060919F
:101020005E0170915F018CE20E94D70760915E01C2
:1010300070915F018DE2DF91CF911F910F910C9420
:10104000D707CCE0D1E004E511E0809179019091DF
:101050007A0122972A813B81821793078CF4288199
:1010600039818217930764F0F801628573858CE2F9
:101070000E94D707F801628573858DE20E94D70729
:1010800002501109F1E0C030DF07F9F6DF91CF918E
:101090001F910F910895CF92DF92EF92FF920F93DD
:1010A000CF93339B02C081E001C082E080931301A3
:1010B00060918101709182018EE20E94D707609158
:1010C0007F01709180018FE20E94D7070E94ED0797
:1010D00060911201262F30E08091AC019091AD011A
:1010E000C297820F931F9093820180938101809118
:1010F000A8019091A901C297280F391F3093800150
:1011000020937F01C0911301C13021F0C23009F456
:1011100050C09FC070E080E090E00E943B1620E04D
:1011200030E040E85FE30E94D9020E940C16609311
:10113000120170E080E090E00E943B1600E09B010D
:10114000AC010E94A20580911201853620F084E650
:101150008093120104C0811102C0C09312018091DA
:101160008101909182018C3391051CF48CE390E015
:1011700006C08F3F910539F034F08FEF90E09093E7
:1011800082018093810180917F01909180018C3355
:1011900091051CF48CE390E007C08F3F910509F0A6
:1011A0000CF457C08FEF90E09093800180937F0103
:1011B00050C060910E0170910F01809110019091CB
:1011C000110120E030E040E05FE30E94D9029B0182
:1011D000AC0160930E0170930F0180931001909306
:1011E000110160917B0170917C0180917D01909152
:1011F0007E0101E00E94A205C0900E01D0900F0177
:10120000E0901001F090110120E030E04CE052E459
:10121000C701B6010E94ED1618162CF480E090E08C
:10122000ACE0B2E40EC020E030E044E951E4C70194
:10123000B6010E948E1587FF0CC080E090E0A0E907
:10124000B1E480930E0190930F01A0931001B0932D
:10125000110120910E0130910F0140911001509128
:10126000110160917B0170917C0180917D019091D1
:101270007E010E94211520E030E0A9010E94ED16B8
:10128000181624F481E08093720102C0109272015A
:1012900080917201882311F0429A01C04298CF9147
:1012A0000F91FF90EF90DF90CF900C940F020F936F
:1012B000CF93DF9300D000D0CDB7DEB76091AC0103
:1012C0007091AD0180E090E00E943B1620E030E09C
:1012D00040E85FE30E94D9020E940C166F3F71053F
:1012E00021F018F08FEF90E00AC06115710529F028
:1012F0007093AD016093AC0106C081E090E09093E3
:10130000AD018093AC016091AC017091AD0180E0C2
:1013100090E00E943B169B01AC018091AE01909140
:10132000AF01BC0180E090E029833A834B835C836A
:101330000E943B1600E029813A814B815C810E942A
:10134000A205882331F06091AC0181E090E00E9419
:1013500097006091AC017091AD018EE20F900F90FB
:101360000F900F90DF91CF910F910C94D7070F93AF
:10137000CF93DF9300D000D0CDB7DEB76091A80146
:101380007091A90180E090E00E943B1620E030E0DF
:1013900040E85FE30E94D9020E940C166F3F71057E
:1013A00021F018F08FEF90E00AC06115710529F067
:1013B0007093A9016093A80106C081E090E090932A
:1013C000A9018093A8016091A8017091A90180E012
:1013D00090E00E943B169B01AC018091AA01909184
:1013E000AB01BC0180E090E029833A834B835C83AE
:1013F0000E943B1600E029813A814B815C810E946A
:10140000A205882331F06091A80182E090E00E945B
:1014100097006091A8017091A9018FE20F900F9041
:101420000F900F90DF91CF910F910C94D7070F93EE
:10143000CF93DF9300D000D0CDB7DEB76091A40189
:101440007091A50180E090E00E943B1620E030E022
:1014500040E85FE30E94D9020E940C166F3F7105BD
:1014600021F018F08FEF90E00AC06115710529F0A6
:101470007093A5016093A40106C081E090E0909371
:10148000A5018093A4016091A4017091A50180E061
:1014900090E00E943B169B01AC018091A6019091C7
:1014A000A701BC0180E090E029833A834B835C83F1
:1014B0000E943B1600E029813A814B815C810E94A9
:1014C000A205882331F06091A40183E090E00E949E
:1014D00097006091A4017091A5018CE20F900F908C
:1014E0000F900F90DF91CF910F910C94D7070F932E
:1014F000CF93DF9300D000D0CDB7DEB76091A001CD
:101500007091A10180E090E00E943B1620E030E065
:1015100040E85FE30E94D9020E940C166F3F7105FC
:1015200021F018F08FEF90E00AC06115710529F0E5
:101530007093A1016093A00106C081E090E09093B8
:10154000A1018093A0016091A0017091A10180E0B0
:1015500090E00E943B169B01AC018091A20190910A
:10156000A301BC0180E090E029833A834B835C8334
:101570000E943B1600E029813A814B815C810E94E8
:10158000A205882331F06091A00184E090E00E94E0
:1015900097006091A0017091A1018DE20F900F90D2
:1015A0000F900F90DF91CF910F910C94D707CF93AD
:1015B00048E050E0BC018BE092E00E94D40E8BE04A
:1015C00092E00E94AE0D892B31F08BE092E00E94F8
:1015D000B60DC82FF4CF8C2FCF9108958CE390E0F7
:1015E0000E94D70A8F7008958DE390E00E94D70A79
:1015F000817080938D018DE390E00E94D70A8695DB
:10160000817080938C018DE390E00E94D70A82FB69
:10161000882780F9809387018DE390E00E94D70AA4
:1016200083FB882780F9809386018DE390E00E94F8
:10163000D70A82958170809385018DE390E00E94A6
:10164000D70A85FB882780F9809384018DE390E099
:101650000E94D70A86FB882780F9809383018CE358
:1016600090E00E94D70A8295817080938B018CE371
:1016700090E00E94D70A85FB882780F980938A0131
:101680008CE390E00E94D70A86FB882780F980933C
:1016900089018CE390E00E94D70A881F8827881F61
:1016A0008093880183B181708093780183B186959E
:1016B00081708093770108950E94C3137093EA01AB
:1016C0006093E9010E94F40A61E084E690E00E94E0
:1016D000180360937B0170937C0180937D0190934C
:1016E0007E0160E086E990E00E9418030E940516E2
:1016F00070937A016093790141E050E063E070E01B
:1017000088E991E00E94DD00E0919801F091990153
:10171000808191819093AF018093AE01E0919C0113
:10172000F0919D01808191819093AB018093AA01FA
:10173000E0919A01F0919B01808191819093A701A2
:101740008093A601E0919E01F0919F01808191819B
:101750009093A3018093A2010E94EE0A90E0FC0105
:101760003797E930F10508F5EC5CFF4F0C94A917A9
:101770000E944B082EC00E9457092BC00E94B70937
:1017800028C00E94190725C00E94170A22C00E9483
:10179000770A1FC060E082E390E00E9418030E9475
:1017A000FB0317C00E94170614C040E060E08BE303
:1017B0000E94420340E06EE68AE30E94420340E05A
:1017C00060E289E30E94420340E060E288E30E9415
:1017D00042030E94C3137093E8016093E7012091D4
:1017E000E9013091EA01621B730B4AE050E08BEC97
:1017F00092E00C946313FC01108611861286138606
:1018000015A214A216A217A210A611A612A613A61C
:1018100014A615A621E026A7CB01770FAA0BBB0BB8
:10182000848B958BA68BB78B08958F929F92AF92E6
:10183000BF92CF92DF92EF92FF920F931F93CF93BD
:10184000DF93EC016A017B010E94C3130C891D899F
:101850002E893F890230110521053105D1F040F470
:10186000013011052105310509F50E94CF131EC075
:10187000033011052105310579F0043011052105EA
:101880003105A1F40E94C31320E63AEE40E050E097
:1018900009C00E94C3130AC00E94C31328EE33E09C
:1018A00040E050E00E948717CA01B901CC82DD8276
:1018B000EE82FF820C851D852E853F854B015C01E4
:1018C000801A910AA20AB30A8C149D04AE04BF04C4
:1018D00058F06C877D878E879F878C8D811103C020
:1018E00081E08C8F01C01C8E8C8DDF91CF911F9178
:1018F0000F91FF90EF90DF90CF90BF90AF909F90AF
:101900008F900895FC0166834783208781E0858757
:101910000895CF92DF92FF920F931F93CF93DF939F
:10192000EC0161E08E810E94C7140E94C3130985F7
:101930001A852B853C85601771078207930720F471
:1019400019861A861B861C862D85211111C00985D2
:101950001A852B853C85DC01CB01801B910BA20BEA
:10196000B30B803D9740A105B10510F481E06DC037
:101970001D860E94C31369877A878B879C871C8288
:101980001B821A821982188261E08E810E948B1458
:1019900060E08E810E94C71464E170E080E090E016
:1019A0000E94F413F89461E08E810E94C71488E2CB
:1019B00090E00E941C1460E08E810E948B1410E065
:1019C000F12C81E000E0C82ED12C8E810E94F7140A
:1019D0008C159D0539F40F5F81E090E00E941C1486
:1019E0000F3F99F78E810E94F7140F3FB9F0143022
:1019F00090F010FD10C09F2D969596959695FE013E
:101A0000E90FF11D9081990F90832885201710F41C
:101A100091609083F3941F5F1535A1F6789487E267
:101A20008F1590F42C8130E04881898190E0840FFB
:101A3000911D4A81840F911D4B81840F911D99271F
:101A40002817390709F492CF80E0DF91CF911F91D9
:101A50000F91FF90DF90CF900895CF92DF92EF9299
:101A6000FF920F931F93CF93DF93EC01162F0E94E9
:101A7000890C882309F455C08F818B3031F008F42C
:101A800050C08551823098F04CC06A8170E080E08F
:101A900090E00E943B16112309F44EC020E030E094
:101AA00040E151E46B017C01C701B6012BC00A8102
:101AB000602F6F7770E080E090E00E943D1620E09C
:101AC00030E040E853E40E94F2166B017C018B8108
:101AD000682F70E080E090E00E943D169B01AC0111
:101AE000C701B6010E94221520E030E040E251E437
:101AF0000E94931507FD90581123F1F020E030E08B
:101B000040E151E40E94F21620E030E040EA50E467
:101B10000E94931520E030E040E052E40E9422153C
:101B20000BC067E171E08BEC92E00E94FA1240E09A
:101B300030E020EC9FE703C0462F372F282FC42E1C
:101B4000D32EE22EF92EC701B601DF91CF911F915E
:101B50000F91FF90EF90DF90CF90089580913B021E
:101B600090E020913C02821B9109089590913C02E3
:101B700080913B02981750F4E92FF0E0E35CFD4FB1
:101B8000208130E09F5F90933C0202C02FEF3FEF37
:101B9000C9010895E0913C0280913B02E81730F4BE
:101BA000F0E0E35CFD4F808190E008958FEF9FEFC0
:101BB00008950895CF92DF92EF92FF920F931F93B3
:101BC000CF93DF937C01262F972F8A0180911702F4
:101BD000882391F0C62FD72F6E01C40ED51ECC15C9
:101BE000DD0571F06991D701ED91FC910190F081D3
:101BF000E02DC7010995F3CF642F822F0E949A0F21
:101C0000C801DF91CF911F910F91FF90EF90DF906E
:101C1000CF900895CF93DF931F92CDB7DEB769833E
:101C2000209117022223D1F020911802203240F097
:101C300021E030E0FC013383228380E090E015C096
:101C400080911902E82FF0E0E65EFD4F99819083C4
:101C50008F5F809319028093180205C061E0CE0166
:101C600001960E949A0F81E090E00F90DF91CF9152
:101C70000895FC011382128288EE93E0A0E0B0E0A8
:101C800084839583A683B78385E291E091838083E3
:101C9000089510923C0210923B0210921902109289
:101CA00018020C94DE0E81E08093170260933A02D2
:101CB000109219021092180208950F93062F21E036
:101CC000409118026AE172E080913A020E94440F4A
:101CD0001092190210921802109217020F91089593
:101CE0004F925F926F927F92AF92BF92CF92EF929C
:101CF000FF920F931F93CF93DF935C01F62ED42FA7
:101D000028013901EE2021F10E94530ECE2DC4305E
:101D100008F0C3E0C150C0F0D501ED91FC91B8E0EE
:101D2000CB9FC0011124A301920104C05695479591
:101D3000379527958A95D2F7CA01B9010190F081AC
:101D4000E02DC5010995E6CF60E0C5010E945D0E5A
:101D50004D2FD13208F040E22C2D6DE372E08F2D33
:101D60000E94FC0E10923C0280933B02DF91CF91C7
:101D70001F910F91FF90EF90CF90BF90AF907F9009
:101D80006F905F904F900895CF92EF920F931F93B3
:101D9000C22EE12C00E010E098010E94700E1F910D
:101DA0000F91EF90CF90089521E00C94C40E61E064
:101DB0000C945D0E8BE092E00C94390E1092CA02E6
:101DC00081E08093C8021092C70261E082E10E9424
:101DD000C71461E083E10E94C714E9EBF0E0808161
:101DE0008E7F808380818D7F808388E48093B8009C
:101DF00085E48093BC000895413208F043C090917F
:101E0000CA029111FCCF91E09093CA022093C802BC
:101E10002FEF20935D021092A202240F2093A102C3
:101E20009093C9029091C902880F892B8093C902AF
:101E30008091C702813061F41092C7028091C9027B
:101E40008093BB008091BC0083FDF8CF85EC01C07E
:101E500085EE8093BC008091CA028130E1F38091CD
:101E6000A202841710F44091A20223EA32E0FB019F
:101E7000D9018A2F821B841718F48D918193F9CF91
:101E8000842F089580E008950F93413208F04AC0EE
:101E90009091CA029111FCCF32E03093CA020093B4
:101EA000C8023FEF30935D021092A2024093A1025C
:101EB000FB0163EA72E0DB013A2F361B341718F49A
:101EC00031913D93F9CF1092C9023091C902880F28
:101ED000832B8093C9028091C702813061F41092F4
:101EE000C7028091C9028093BB008091BC0083FD32
:101EF000F8CF85EC01C085EE8093BC00222321F051
:101F00008091CA028230D1F380915D028F3F79F0D7
:101F100080915D02803241F080915D02803331F02A
:101F200094E005C091E003C092E001C093E0892FE6
:101F30000F910895613298F42091CA02243089F4F7
:101F400060937F02FC0121E832E0D9018A2F821BD5
:101F5000861718F481918D93F9CF80E0089581E080
:101F6000089582E0089585ED8093BC008091BC00C7
:101F700084FDFCCF1092CA02089585EC8093BC00CA
:101F80001092CA0208951F920F920FB60F92112459
:101F90002F933F934F935F936F937F938F939F9371
:101FA000AF93BF93EF93FF938091B900887F803602
:101FB00009F49EC078F5883209F45DC090F4803150
:101FC00009F456C038F4882309F4F5C0883009F4C0
:101FD0004FC0F5C0883109F44EC0803209F45FC0AB
:101FE000EEC0803409F46AC058F4803309F457C055
:101FF000883309F0E4C080935D020E94BD0FDFC00A
:10200000803509F44FC0883509F45DC0883409F083
:10201000D6C0D3C0883909F4C4C0A8F4883709F4FD
:1020200067C038F4883609F463C0803709F460C0AB
:10203000C6C0883809F4B5C0803909F45FC080385B
:1020400009F0BDC05BC0803B09F483C038F4803A1E
:1020500009F466C0883A09F47CC0B1C0803C09F438
:10206000A4C0883C09F4A1C0883B09F487C0A7C07C
:102070008091C90210C09091A2028091A10298178C
:1020800070F5E091A20281E08E0F8093A202F0E051
:10209000ED55FD4F80818093BB0085EC83C080931C
:1020A0005D028BC0E091A20281E08E0F8093A202BC
:1020B0008091BB00F0E0ED55FD4F80839091A2022E
:1020C0008091A1026BC0E091A20281E08E0F80930B
:1020D000A2028091BB00F0E0ED55FD4F808380911E
:1020E000C80281116AC081E08093C70284EA5EC0A1
:1020F00083E08093CA0210925E02CFCF80915E028D
:10210000803208F04EC0E0915E0281E08E0F809335
:102110005E028091BB00F0E0E15AFD4F8083BDCFAD
:102120000E94BD0F80915E02803230F4E0915E0229
:10213000F0E0E15AFD4F108260915E0270E0E091A4
:10214000C302F091C4028FE592E0099510925E02FD
:1021500036C084E08093CA021092800210927F02FF
:10216000E091C502F091C602099580917F0281112C
:1021700005C081E080937F0210928102E09180028D
:1021800081E08E0F80938002F0E0EF57FD4F808159
:102190008093BB009091800280917F02981708F491
:1021A0007CCF85E88093BC000AC085EC8093BC009E
:1021B0001092CA0204C010925D020E94B30FFF91F8
:1021C000EF91BF91AF919F918F917F916F915F91AF
:1021D0004F913F912F910F900FBE0F901F90189528
:1021E000FC01918D228D892F90E0805C9F4F821B96
:1021F00091098F7399270895FC01918D828D98170D
:1022000031F0828DE80FF11D858D90E008958FEFFC
:102210009FEF0895FC01918D828D981761F0828D5A
:10222000DF01A80FB11D5D968C91928D9F5F9F730A
:10223000928F90E008958FEF9FEF089583E792E1EA
:10224000892B49F080E090E0892B29F00E947312DD
:1022500081110C9400000895FC01848DDF01A80F0A
:10226000B11DA35ABF4F2C91848D90E001968F73BE
:102270009927848FA689B7892C93A089B1898C91DD
:1022800080648C93938D848D981306C00288F389A3
:10229000E02D80818F7D80830895CF93DF93EC01C3
:1022A000888D8823C9F0EA89FB89808185FD05C076
:1022B000A889B9898C9186FD0FC00FB607FCF5CFB0
:1022C000808185FFF2CFA889B9898C9185FFEDCFF8
:1022D000CE010E942C11E7CFDF91CF910895EF92AC
:1022E000FF920F931F93CF93DF93EC0181E0888FD0
:1022F0009B8D8C8D981305C0E889F989808185FDB7
:1023000024C0F62E0B8D10E00F5F1F4F0F731127A7
:10231000E02E8C8DE8120CC00FB607FCFACFE889CE
:10232000F989808185FFF5CFCE010E942C11F1CF74
:102330008B8DFE01E80FF11DE35AFF4FF0820B8FEA
:10234000EA89FB898081806207C0EE89FF8960830A
:10235000E889F98980818064808381E090E0DF9161
:10236000CF911F910F91FF90EF900895CF92DF9240
:10237000EF92FF921F93CF93DF93EC016A017B01F1
:10238000122FE889F98982E080834115514E610559
:102390007105B1F060E079E08DE390E0A70196016E
:1023A0000E948717DA01C9010197A109B109B69501
:1023B000A79597958795AC01411580E15807A8F03E
:1023C000E889F989108260E874E88EE190E0A7015D
:1023D00096010E948717BA01A9014150510961096C
:1023E00071097695679557954795EC85FD855083DE
:1023F000EE85FF854083188EEC89FD891083EA897C
:10240000FB89808180618083EA89FB898081886083
:102410008083EA89FB89808180688083EA89FB89DF
:1024200080818F7D8083DF91CF911F91FF90EF900E
:10243000DF90CF9008951F920F920FB60F92112444
:102440002F938F939F93EF93FF93E091DB02F09193
:10245000DC028081E091E102F091E20282FD12C093
:1024600090818091E4028F5F8F732091E502821743
:1024700051F0E091E402F0E0E553FD4F958F809339
:10248000E40201C08081FF91EF919F918F912F9184
:102490000F900FBE0F901F9018951F920F920FB6BE
:1024A0000F9211242F933F934F935F936F937F93DA
:1024B0008F939F93AF93BF93EF93FF938BEC92E037
:1024C0000E942C11FF91EF91BF91AF919F918F913D
:1024D0007F916F915F914F913F912F910F900FBE20
:1024E0000F901F9018958BEC92E00E94F01021E065
:1024F000892B09F420E0822F0895EBECF2E013829F
:10250000128288EE93E0A0E0B0E084839583A683F6
:10251000B78385E391E09183808385EC90E0958794
:10252000848784EC90E09787868780EC90E0918B9D
:10253000808B81EC90E0938B828B82EC90E0958B8A
:10254000848B86EC90E0978B868B118E128E138E87
:10255000148E089508950E9427140E94AA120E94C2
:102560008E01CEE1D1E10E945C0B2097E1F30E9445
:102570001E11F9CFCF92DF92EF92FF920F931F932C
:10258000CF93DF936C017A018B01C0E0D0E0CE15D0
:10259000DF0589F0D8016D918D01D601ED91FC9197
:1025A0000190F081E02DC6010995892B11F47E017F
:1025B00002C02196ECCFC701DF91CF911F910F91FF
:1025C000FF90EF90DF90CF9008956115710579F03D
:1025D000FB0101900020E9F73197AF01461B570B33
:1025E000DC01ED91FC910280F381E02D099480E003
:1025F00090E008950C94E51261E471E00C94E5120A
:102600008F929F92AF92BF92CF92DF92EF92FF9202
:102610000F931F93CF93DF93CDB7DEB7A1970FB67C
:10262000F894DEBF0FBECDBF6C01142FE52FCB0198
:10263000022F19A2223008F40AE07E0121E2E20E04
:10264000F11C802E912CA12CB12C612F7E2FA50185
:1026500094010E948717029F1019112481E0E81A43
:10266000F1081A3014F4105D01C0195CF7011083F1
:10267000122FE32FCA01232B242B252B31F7B7016F
:10268000C6010E94E512A1960FB6F894DEBF0FBEF8
:10269000CDBFDF91CF911F910F91FF90EF90DF9011
:1026A000CF90BF90AF909F908F90089521153105E6
:1026B00041F4DC01ED91FC910190F081E02D642F5B
:1026C00009940C9400130F931F93CF93DF93EC01A5
:1026D0009A01AB0160E070E00E9456138C01CE01BC
:1026E0000E94FC12800F911FDF91CF911F910F91DB
:1026F00008951F920F920FB60F9211242F933F93BC
:102700008F939F93AF93BF938091690390916A03D6
:10271000A0916B03B0916C033091680323E0230F09
:102720002D3720F40196A11DB11D05C026E8230F09
:102730000296A11DB11D20936803809369039093B5
:102740006A03A0936B03B0936C0380916D03909127
:102750006E03A0916F03B09170030196A11DB11D8E
:1027600080936D0390936E03A0936F03B0937003F7
:10277000BF91AF919F918F913F912F910F900FBE7D
:102780000F901F9018952FB7F8946091690370917E
:102790006A0380916B0390916C032FBF08953FB73C
:1027A000F89480916D0390916E03A0916F03B091A6
:1027B000700326B5A89B05C02F3F19F00196A11DF7
:1027C000B11D3FBFBA2FA92F982F8827820F911DC7
:1027D000A11DB11DBC01CD0142E0660F771F881F0E
:1027E000991F4A95D1F70895CF92DF92EF92FF9209
:1027F000CF93DF936B017C010E94CF13EB01C114D7
:10280000D104E104F10489F00E9420150E94CF1345
:102810006C1B7D0B683E734090F381E0C81AD108B1
:10282000E108F108C851DC4FEACFDF91CF91FF906A
:10283000EF90DF90CF9008958230910538F0880FA7
:10284000991F880F991F05970197F1F708957894BC
:1028500084B5826084BD84B5816084BD85B58260A5
:1028600085BD85B5816085BDEEE6F0E08081816043
:102870008083E1E8F0E01082808182608083808143
:1028800081608083E0E8F0E0808181608083E1EB1B
:10289000F0E0808184608083E0EBF0E08081816003
:1028A0008083EAE7F0E080818460808380818260B9
:1028B00080838081816080838081806880831092A2
:1028C000C1000895833081F028F4813099F082307E
:1028D000A1F008958730A9F08830B9F08430D1F4A0
:1028E000809180008F7D03C0809180008F778093DE
:1028F0008000089584B58F7702C084B58F7D84BD34
:1029000008958091B0008F7703C08091B0008F7DD3
:102910008093B0000895CF93DF9390E0FC01E257DD
:10292000FF4F2491FC01EE55FF4F8491882361F104
:1029300090E0880F991FFC01E653FF4FC591D49199
:10294000FC01E054FF4FA591B491611109C09FB7FC
:10295000F8948881209582238883EC912E230BC0E4
:10296000623061F49FB7F8943881822F8095832379
:102970008883EC912E2B2C939FBF06C08FB7F894C1
:10298000E8812E2B28838FBFDF91CF9108951F936D
:10299000CF93DF93282F30E0F901E658FF4F849161
:1029A000F901E257FF4FD491F901EE55FF4FC49161
:1029B000CC23C9F0162F81110E946214EC2FF0E095
:1029C000EE0FFF1FE054FF4FA591B4918FB7F8941D
:1029D000111105C09C91ED2FE095E92302C0EC9107
:1029E000ED2BEC938FBFDF91CF911F910895CF9383
:1029F000DF93282F30E0F901E658FF4F8491F90169
:102A0000E257FF4FD491F901EE55FF4FC491CC230B
:102A100091F081110E946214EC2FF0E0EE0FFF1F85
:102A2000EA54FF4FA591B491EC91ED2381E090E041
:102A300021F480E002C080E090E0DF91CF91089522
:102A400008955058BB27AA270E9439150C94B31635
:102A50000E94A51638F00E94AC1620F039F49F3F72
:102A600019F426F40C94A2160EF4E095E7FB0C94EE
:102A70009C16E92F0E94C41658F3BA176207730711
:102A80008407950720F079F4A6F50C94E6160EF469
:102A9000E0950B2EBA2FA02D0B01B90190010C016E
:102AA000CA01A0011124FF27591B99F0593F50F486
:102AB000503E68F11A16F040A22F232F342F4427DE
:102AC000585FF3CF469537952795A795F0405395D6
:102AD000C9F77EF41F16BA0B620B730B840BBAF0A6
:102AE0009150A1F0FF0FBB1F661F771F881FC2F711
:102AF0000EC0BA0F621F731F841F48F48795779525
:102B00006795B795F7959E3F08F0B0CF9395880FDE
:102B100008F09927EE0F9795879508950E947816EB
:102B200008F481E008950E94A7150C94B3160E9442
:102B3000AC1658F00E94A51640F029F45F3F29F02A
:102B40000C949C1651110C94E7160C94A2160E943A
:102B5000C41668F39923B1F3552391F3951B550BD4
:102B6000BB27AA2762177307840738F09F5F5F4F60
:102B7000220F331F441FAA1FA9F335D00E2E3AF09F
:102B8000E0E832D091505040E695001CCAF72BD0B7
:102B9000FE2F29D0660F771F881FBB1F2617370708
:102BA0004807AB07B0E809F0BB0B802DBF01FF273A
:102BB00093585F4F3AF09E3F510578F00C949C1665
:102BC0000C94E7165F3FE4F3983ED4F3869577952F
:102BD0006795B795F7959F5FC9F7880F911D9695F3
:102BE000879597F90895E1E0660F771F881FBB1F4F
:102BF000621773078407BA0720F0621B730B840BFC
:102C0000BA0BEE1F88F7E09508950E940C166894A1
:102C1000B1110C94E71608950E94CC1688F09F57C6
:102C200098F0B92F9927B751B0F0E1F0660F771FF0
:102C3000881F991F1AF0BA95C9F714C0B13091F0E6
:102C40000E94E616B1E008950C94E616672F782FDF
:102C50008827B85F39F0B93FCCF3869577956795AB
:102C6000B395D9F73EF490958095709561957F4F17
:102C70008F4F9F4F0895E89409C097FB3EF49095BD
:102C80008095709561957F4F8F4F9F4F9923A9F045
:102C9000F92F96E9BB279395F695879577956795D4
:102CA000B795F111F8CFFAF4BB0F11F460FF1BC018
:102CB0006F5F7F4F8F4F9F4F16C0882311F096E9AB
:102CC00011C0772321F09EE8872F762F05C0662359
:102CD00071F096E8862F70E060E02AF09A95660F12
:102CE000771F881FDAF7880F9695879597F90895CB
:102CF000990F0008550FAA0BE0E8FEEF161617060D
:102D0000E807F907C0F012161306E407F50798F074
:102D1000621B730B840B950B39F40A2661F0232B8D
:102D2000242B252B21F408950A2609F4A140A69509
:102D30008FEF811D811D089597F99F6780E870E0EE
:102D400060E008959FEF80EC089500240A94161621
:102D5000170618060906089500240A941216130689
:102D6000140605060895092E0394000C11F4882317
:102D700052F0BB0F40F4BF2B11F460FF04C06F5F33
:102D80007F4F8F4F9F4F089557FD9058440F551F09
:102D900059F05F3F71F04795880F97FB991F61F0DD
:102DA0009F3F79F087950895121613061406551F54
:102DB000F2CF4695F1DF08C0161617061806991FC0
:102DC000F1CF86957105610508940895E894BB27B5
:102DD00066277727CB0197F908950E94781608F4A3
:102DE0008FEF08950E9405170C94B3160E94A51644
:102DF00038F00E94AC1620F0952311F00C949C162C
:102E00000C94A21611240C94E7160E94C41670F3B9
:102E1000959FC1F3950F50E0551F629FF001729F7F
:102E2000BB27F00DB11D639FAA27F00DB11DAA1F8E
:102E3000649F6627B00DA11D661F829F2227B00DDB
:102E4000A11D621F739FB00DA11D621F839FA00D66
:102E5000611D221F749F3327A00D611D231F849FB6
:102E6000600D211D822F762F6A2F11249F5750400D
:102E70009AF0F1F088234AF0EE0FFF1FBB1F661F88
:102E8000771F881F91505040A9F79E3F510580F051
:102E90000C949C160C94E7165F3FE4F3983ED4F331
:102EA000869577956795B795F795E7959F5FC1F7F5
:102EB000FE2B880F911D9695879597F90895AA1B6B
:102EC000BB1B51E107C0AA1FBB1FA617B70710F015
:102ED000A61BB70B881F991F5A95A9F78095909547
:102EE000BC01CD01089597FB072E16F4009407D07E
:102EF00077FD09D00E945F1707FC05D03EF490953E
:102F000081959F4F0895709561957F4F0895A1E237
:102F10001A2EAA1BBB1BFD010DC0AA1FBB1FEE1F53
:102F2000FF1FA217B307E407F50720F0A21BB30B9E
:102F3000E40BF50B661F771F881F991F1A9469F71A
:102F400060957095809590959B01AC01BD01CF0176
:102F50000895EE0FFF1F0590F491E02D0994F99963
:102F6000FECF92BD81BDF89A992780B50895262F8E
:102F7000F999FECF1FBA92BD81BD20BD0FB6F8945E
:0E2F8000FA9AF99A0FBE01960895F894FFCFC1
:102F8E00230028002D00320037003C000E00000008
:102F9E00C841320101010152656164206661696CAC
:102FAE0000000000000A0EDA0DAE0DB60DCA0DD9E6
:102FBE000D000000006F11BA12F0100A11FC104D36
:102FCE00110D0A006E616E00696E66006F76660006
:022FDE002E00C3
:00000001FF
