:100000000C946F000C94A8140C94CF140C949700CB
:100010000C9497000C9497000C9497000C94970004
:100020000C9497000C9497000C9497000C94B300D8
:100030000C9497000C9497000C9497000C949700E4
:100040000C94F6140C9497000C94A6130C94D813EB
:100050000C9497000C9497000C9497000C949700C4
:100060000C9453110C949700E20DE00DDA0DE40DA1
:10007000D40DD60DD80DD20DD00DCE0DCC0D000067
:100080000008000201000003040700000000000057
:100090000000010204081020408001020408102022
:1000A00001020408102004040404040404040202ED
:1000B0000202020203030303030300000000230003
:1000C0002600290000000000250028002B00000069
:1000D0000000240027002A00B7036A100814112426
:1000E0001FBECFEFD8E0DEBFCDBF11E0A0E0B1E092
:1000F000EAEBF2E302C005900D92A834B107D9F7FC
:1001000023E0A8E4B1E001C01D92A936B207E1F7EF
:1001100010E0CFE6D0E004C02197FE010E9425192F
:10012000CC36D107C9F70E9436140C945B190C9495
:10013000000081E08093180108950C944D191092ED
:10014000800025E02093810026EC3DE23093890079
:100150002093880022E020936F007894909300020F
:100160008093FF0108951F920F920FB60F921124F2
:100170002F933F938F939F9320910102309102021E
:100180008091FF019091000201972817390728F00C
:10019000109202021092010209C080910102909116
:1001A0000202019690930202809301021092850050
:1001B000109284009F918F913F912F910F900FBECD
:1001C0000F901F9018956F927F929F92AF92BF925F
:1001D000CF92DF92EF92FF920F931F93CF93DF9313
:1001E000FC0100E010E0C0E0D0E0E12CF12C21E0C7
:1001F00030E0912C5B01A40EB51E6C0188E0C80EA6
:10020000D11C809101029091020240910102509113
:1002100002024A155B0508F05AC08617970708F4D2
:1002200056C0992089F083B1807190E082179307BE
:10023000B9F040815181DA012D913C9111972F5FE6
:100240003F4F2D933C930CC0CF01DC014D915D914C
:10025000CD01DA011D921C928C159D05B1F7E3CFFB
:1002600029B1207130E02E153F0551F0E280F38076
:10027000D7014D915C9111974F5F5F4F4D935C9308
:1002800043B1407250E04C175D0749F0E480F580BF
:10029000D701CD91DC9111972196CD93DC93C6B116
:1002A000C0FB662460F8712C6016710649F0068167
:1002B0001781D801CD91DC9111972196CD93DC93D4
:1002C000992493948301EA0179019C019ACFB1E0CA
:1002D0009B1211C09F01285F3F4FA191B1918D9159
:1002E0009C91119797FD0196959587958D939C9379
:1002F000E217F30791F7DF91CF911F910F91FF90D4
:10030000EF90DF90CF90BF90AF909F907F906F90D5
:1003100008950F931F93CF93DF9326E040E052ECB4
:1003200061E070E083EC92E00E94461383E092E08B
:100330000E94D90F62E086E00E94071662E087E023
:100340000E94071662E081E10E94071661E083E0E7
:100350000E94071661E085E00E94071641E050E028
:1003600069E970E080E00E94881481E090E00E94DA
:10037000451990E09093A00180939F0182E090E066
:100380000E94451990E090939C0180939B0183E02B
:1003900090E00E94451990E0909398018093970116
:1003A00084E090E00E94451990E09093940180933E
:1003B000930184E690E00E94451990E08C599F4F8C
:1003C0006AE070E00E94EF18072E000C880B990B72
:1003D0000E94B91760930E0170930F018093100172
:1003E000909311010AE411E0C0E0D0E0CE01049640
:1003F0000E94451990E0F801819391938F01219615
:10040000C630D10599F78AE090E00E949F0083E80A
:1004100091E090938C0180938B0185E891E090931B
:100420008E0180938D0187E891E0909390018093F5
:100430008F0189E891E09093920180939101DF917F
:10044000CF911F910F9108950F931F9380916C018D
:1004500081111CC00E94401500916401109165013A
:100460002091660130916701DC01CB01801B910B6B
:10047000A20BB30B81329E44A105B10520F081E0AF
:1004800080936A010FC010926A010CC010926A0139
:100490000E9440156093640170936501809366012A
:1004A0009093670180916B0181111CC00E944015DF
:1004B000009160011091610120916201309163010E
:1004C000DC01CB01801B910BA20BB30B813F954547
:1004D000A105B10520F081E0809369010FC0109261
:1004E00069010CC0109269010E944015609360017F
:1004F0007093610180936201909363018091680120
:10050000811116C010926A010E9440156093640127
:100510007093650180936601909367010E94401576
:100520006093600170936101809362019093630115
:1005300080918001811102C010926A0180917E0138
:10054000811102C01092690180917F01811102C066
:1005500010926A0180917D01811102C0109269019F
:1005600080917B01811102C010926A0180917A0111
:10057000811102C01092690180917C01811104C037
:1005800010926A011092690180917901811102C073
:1005900010926A0180917801811102C01092690164
:1005A00020916D0130916E0180910C0190910D01AF
:1005B0002817390724F410926A011092690180917A
:1005C0006A01882311F05B9A01C05B9880916901F0
:1005D000882311F05D9A01C05D981F910F910895D5
:1005E00083B1817091E0892780936C0183B18695F6
:1005F0008170982790936B010895CF92DF92EF92CC
:10060000FF92CF936B017C01CA01B901C9B1C6FB4E
:10061000CC27C0F9C093E20129B1221F2227221F53
:100620002093E101C11117C030911901332399F0D2
:10063000222341F09B01AC0160E070E0CB010E94FD
:100640009D1605C020E030E0A9010E949E1621E021
:100650002093E00105C01092E00160E070E0CB0162
:10066000C09319019B01AC01C701B6010E949E16FF
:10067000CF91FF90EF90DF90CF9008952091DE0111
:100680003091DF018217930728F460E081EF91E059
:100690000C94BD0E2F5F3F4F3093DF012093DE019E
:1006A00008952091DC013091DD018217930728F431
:1006B00060E083EE91E00C94BD0E2F5F3F4F3093CE
:1006C000DD012093DC010895409114015091150142
:1006D00064E070E08BE891E00E94E3002091140157
:1006E00030911501EBE8F1E0A081B1816D917C9131
:1006F0004CE3469FC001479F900D1124B9010E9411
:10070000EF187093A2016093A101A481B5816D914E
:100710007C91469FC001479F900D1124B9010E9412
:10072000EF1870939E0160939D01A281B3816D913A
:100730007C91469FC001479F900D1124B9010E94F2
:10074000EF1870939A01609399010680F781E02D6C
:1007500060817181469FC001479F900D1124B901AE
:100760000E94EF187093960160939501089526E01A
:1007700046E16FE081EF91E00E94120E26E046E133
:1007800060E183EE91E00E94120E62E070E08DEA7B
:1007900091E00C94F80D1F93CF93DF931F92CDB788
:1007A000DEB7633609F463C058F5673009F455C005
:1007B00090F4633009F44DC038F4613009F461C03D
:1007C00008F045C010EC6EC0653009F464C008F054
:1007D00042C019E967C06A3209F463C048F469305D
:1007E00009F43FC0E0F1603209F05CC01FEF5AC06D
:1007F0006136C9F1D0F56D3209F054C01FEB52C01B
:100800006C3609F440C080F46736B9F128F46536D7
:1008100081F188F511EA46C0693699F180F16A36AE
:1008200009F040C011EF3EC0623799F138F46037EB
:1008300061F168F56E36B1F51BEA34C0643769F1D1
:1008400050F1653761F1693769F511E92BC014EA98
:1008500029C010EB27C012E825C018EF23C010E80C
:1008600021C010E91FC018E81DC013E81BC016EC1A
:1008700019C016E817C01EE815C012EC13C016E721
:1008800011C019EF0FC017EC0DC01CE80BC018E920
:1008900009C01FEA07C012E905C017E803C011EC40
:1008A00001C01CE9682F83E092E049830E94E30FB6
:1008B000612F83E092E00E949A0F4981612F4423C7
:1008C00011F06F7701C0606883E092E00E949A0F98
:1008D00083E092E00F90DF91CF911F910C9467100D
:1008E00040E060E288E30E94CB0340E060E289E3FD
:1008F0000E94CB0340E060E28AE30E94CB0340E029
:1009000060E28BE30C94CB038F929F92AF92BF92E5
:10091000CF92DF92EF92FF92CF93DF936B017C0136
:100920000E948117EB01072E000C880B990B0E9487
:10093000B9179B01AC01C701B6010E949D1620E0CA
:1009400030E040E251E40E946E184B015C0120E06F
:1009500030E040E251ECC701B6010E940A171816B8
:100960007CF140E06DE288E30E94CB0320E030E0C0
:1009700040E251E4C701B6010E940F176B017C01F0
:1009800020E030E0A9010E94691818161CF4C70184
:10099000B60103C0C701B60190580E94881740E015
:1009A00089E30E94CB03CE016AE070E00E94EF1859
:1009B00097FF03C091958195910941E0682F25C06B
:1009C00020E030E0A901C701B6010E940A1787FFA5
:1009D00030C040E06DE288E30E94CB0340E060E07D
:1009E00089E30E94CB0320E030E0A901C701B601F2
:1009F0000E94691818161CF4C701B60103C0C7018C
:100A0000B60190580E94881741E08AE30E94CB0308
:100A100020E030E0A901C501B4010E946918181650
:100A20000CF448C0C501B40190580E94881740E0FA
:100A300054C020E030E040E251E4C701B6010E941A
:100A40000A1787FF10C040E060E088E30E94CB03F4
:100A500040E060E089E30E94CB03C701B6010E9439
:100A6000881741E024C020E030E040E251E4C701B3
:100A7000B6010E94691840E087FD1FC060E088E36E
:100A80000E94CB0320E030E040E251E4C701B60110
:100A90000E940F170E94881740E089E30E94CB0351
:100AA000CE016AE070E00E94EF1841E0682F8AE30F
:100AB0000E94CB03C501B401B8CF65E688E30E946C
:100AC000CB0340E062E789E30E94CB0340E062E7AA
:100AD0008AE30E94CB0340E060E28BE3DF91CF9199
:100AE000FF90EF90DF90CF90BF90AF909F908F904E
:100AF0000C94CB03EF92FF920F931F93CF93DF934E
:100B0000EC018A30910568F440E060E088E30E94DF
:100B1000CB0340E060E089E30E94CB0340E060E06B
:100B200014C084369105B8F440E060E088E30E9488
:100B3000CB0340E060E089E30E94CB03CE016AE092
:100B400070E00E94DB18C82F40E08AE30E94CB03CC
:100B500040E06C2F42C0C83E83E0D80798F440E0E4
:100B600060E088E30E94CB03CE0164E670E00E945F
:100B7000DB187C0140E089E30E94CB030AE010E02F
:100B8000C7011EC0C03187E2D80780F5CE0168EEEC
:100B900073E00E94DB187C0140E088E30E94CB03F5
:100BA00004E610E0C701B8010E94DB1840E089E3C9
:100BB0000E94CB03CE01B8010E94DB180AE010E0CE
:100BC000B8010E94DB1840E08AE30E94CB03CE010B
:100BD000B8010E94DB1840E0682F8BE3DF91CF91D2
:100BE0001F910F91FF90EF900C94CB03DF91CF9169
:100BF0001F910F91FF90EF9008952091A5013091E2
:100C0000A601253B31055CF4411106C00E94811705
:100C1000CB010E947A0505C00E94840402C00E9494
:100C200070048091A5019091A60101968D3D9105DA
:100C30002CF49093A6018093A50108951092A6012B
:100C40001092A50108954F925F926F927F928F92BA
:100C50009F92AF92BF92CF92DF92EF92FF920F934B
:100C60001F93CF936B017C0149015A018091E001F0
:100C7000882369F081E08093AC010E944015609365
:100C8000A8017093A9018093AA019093AB01C09130
:100C9000AC01CC2309F443C00E9440154090A80148
:100CA0005090A9016090AA017090AB01DC01CB01CA
:100CB00084199509A609B709813D9740A105B10599
:100CC00008F10115110529F4C701B6010E94811729
:100CD0000FC00130110529F4C701B6010E94840438
:100CE0000AC00230110539F4C701B6010E94881705
:100CF000CB010E947A05C091A701CC2371F010921C
:100D0000A70127C041E0012B09F440E0C501B4016F
:100D10000E94FD0581E08093A701C0E01AC0011583
:100D2000110529F4C701B6010E9481170FC00130D7
:100D3000110529F4C701B6010E9484040AC00230DB
:100D4000110559F7C701B6010E948817CB010E940F
:100D50007A058C2FCF911F910F91FF90EF90DF902C
:100D6000CF90BF90AF909F908F907F906F905F904B
:100D70004F900895EF92FF920F931F93CF93DF93BD
:100D8000EC018A30910568F440E065E688E30E9452
:100D9000CB0340E060E089E30E94CB0340E060E0E9
:100DA00014C084369105B8F440E065E688E30E94FB
:100DB000CB0340E060E089E30E94CB03CE016AE010
:100DC00070E00E94DB18C82F40E08AE30E94CB034A
:100DD00040E06C2F23C0C83E83E0D80740F540E0D8
:100DE00065E688E30E94CB03CE0164E670E00E94D2
:100DF000DB187C0140E089E30E94CB030AE010E0AD
:100E0000C701B8010E94DB1840E08AE30E94CB03CF
:100E1000CE01B8010E94DB1840E0682F8BE3DF9120
:100E2000CF911F910F91FF90EF900C94CB03DF9126
:100E3000CF911F910F91FF90EF900895EF92FF9245
:100E40000F931F93CF93DF9310925F0110925E0177
:100E500080918001811106C081E090E090935F0154
:100E600080935E0180917E01811109C080915E01B5
:100E700090915F01826090935F0180935E01809109
:100E80007F01811109C080915E0190915F018460B2
:100E900090935F0180935E0180917D01811109C073
:100EA00080915E0190915F01886090935F018093D3
:100EB0005E0180917B01811109C080915E0190915A
:100EC0005F01806190935F0180935E0180917A0160
:100ED000811109C080915E0190915F0180629093C1
:100EE0005F0180935E0180917C01811109C0809136
:100EF0005E0190915F01806490935F0180935E0139
:100F000080917901811109C080915E0190915F010A
:100F1000806890935F0180935E01809178018111D8
:100F200009C080915E0190915F01916090935F0193
:100F300080935E0180915E0190915F01892B21F485
:100F400080E090E00E94BA060CE411E080E090E0BE
:100F5000EE24E394F12C20915E0130915F01082E84
:100F600002C0359527950A94E2F7EC012196F80125
:100F700020FF1BC0F182E08280914A0190914B01D9
:100F8000883E93406CF4CE010E94BA0680914A01DB
:100F900090914B01019690934B0180934A01ECCFC5
:100FA00010924B0110924A0102C011821082CE01B0
:100FB0000E5F1F4F299779F6DF91CF911F910F9107
:100FC000FF90EF90089540E065E788E30E94CB032F
:100FD00041E061E089E30E94CB0340E060E08AE306
:100FE0000E94CB0340E060E08BE30C94CB03CF93F3
:100FF000C62F682F83E092E00E94E30F60E083E059
:1010000092E00E949A0F6C2F83E092E00E949A0F68
:1010100083E092E0CF910C946710CF92DF92EF9231
:10102000FF920F931F9360910E0170910F018091B9
:1010300010019091110120E030E040E05FE30E9458
:10104000FD029B01AC0160930E0170930F01809330
:1010500010019093110160916F0170917001809166
:1010600071019091720101E010E00E942306882333
:10107000D1F020E030E040E251E460910E01709147
:101080000F0180911001909111010E946E1820E0D3
:1010900030E048EC52E40E949D160E94881784E6D6
:1010A00090E00E949D00C0900E01D0900F01E09052
:1010B0001001F090110120E030E04CE052E4C70153
:1010C000B6010E94691818162CF480E090E0ACE09C
:1010D000B2E40EC020E030E040E951E4C701B601BF
:1010E0000E940A1787FF0CC080E090E0A0E9B1E4FD
:1010F00080930E0190930F01A0931001B093110102
:1011000060E070E08CE20E94F70760E070E08EE241
:101110000E94F70760E070E08DE20E94F70760E050
:1011200070E08FE20E94F70710926A011092690145
:101130001F910F91FF90EF90DF90CF9008950F9344
:101140001F93CF93DF9300D000D0CDB7DEB7339B92
:1011500002C081E001C082E08093130180914801C8
:1011600090914901181619062CF01092490110921D
:10117000480108C0059734F085E090E0909349015C
:101180008093480180911301823031F560914801CC
:1011900070914901072E000C880B990B0E94B9171A
:1011A00020E030E040E85FE30E94FD020E948117EA
:1011B0007093490160934801660F771FFB01E0506F
:1011C000FF4F60817181072E000C880B990B0E94E4
:1011D000B9170E9484048FC0813009F08CC08091BF
:1011E000480190914901880F991F8C01065B1E4FA1
:1011F000F80160817181072E000C880B990B0E9409
:10120000B91720E030E040E050E40E94FD020E9467
:101210008117F80171836083E0914801F0914901E1
:10122000EE0FFF1FE65BFE4F60817181072E000C01
:10123000880B990B0E94B91725E732E04AE15DE37C
:101240000E946E189B01AC018091990190919A01C6
:10125000BC0180E090E029833A834B835C830E9449
:10126000B71702E010E029813A814B815C810E942E
:101270002306882369F08091480190914901FC017F
:10128000EE0FFF1FE65BFE4F608104960E949D00FB
:10129000E0914801F0914901EE0FFF1FE65BFE4F20
:1012A000608171818CE20E94F707E0914801F09122
:1012B0004901EE0FFF1FE65BFE4F608171818EE2F8
:1012C0000E94F707E0914801F0914901EE0FFF1FDE
:1012D000E65BFE4F208131812F3F31051CF08FEFFF
:1012E00090E007C080911601909117018217930733
:1012F00014F0918380830F900F900F900F90DF91E7
:10130000CF911F910F910C9464030F931F93CF9370
:10131000DF9380916D0190916E01209100013091D9
:1013200001012817390764F060914A0170914B015F
:101330008CE20E94F70760914A0170914B0112C044
:1013400020910A0130910B018217930794F060916C
:101350005401709155018CE20E94F707609154018D
:10136000709155018EE2DF91CF911F910F910C94F6
:10137000F707CCE0D1E00AE411E080916D01909193
:101380006E0122972A813B81821793078CF4288172
:1013900039818217930764F0F801628573858CE2C6
:1013A0000E94F707F801628573858EE20E94F707B5
:1013B00002501109F1E0C030DF07F9F6DF91CF915B
:1013C0001F910F9108958F929F92AF92BF92CF92EB
:1013D000DF92EF92FF920F931F93CF93339B02C044
:1013E00081E001C082E080931301609175017091EA
:1013F00076018DE20E94F70760917301709174018C
:101400008FE20E94F7070E94850960911201862FE2
:1014100090E0C297880F991F40919F015091A001C1
:10142000480F591F509376014093750120919B01FD
:1014300030919C01820F931F9093740180937301EC
:101440004F3F510521F01CF02FEF30E005C04E3129
:10145000510534F42EE130E030937601209375018C
:101460008F3F910521F01CF08FEF90E004C04E9764
:1014700034F48EE190E09093740180937301C091F5
:101480001301C13021F0C23009F44FC0BBC070E07D
:1014900080E090E00E94B71720E030E040E85FE392
:1014A0000E94FD020E9488176093120170E080E0A4
:1014B00090E00E94B71700E010E09B01AC010E9491
:1014C000230680911201853620F084E68093120174
:1014D00004C0811102C0C0931201809175019091E6
:1014E00076018E3191051CF48EE190E005C08F3FAE
:1014F000910534F08FEF90E0909376018093750121
:1015000080917301909174018E3191051CF48EE1EC
:1015100090E006C08F3F91050CF474C08FEF90E00F
:1015200090937401809373016DC060910E0170916E
:101530000F01809110019091110120E030E040E016
:101540005FE30E94FD029B01AC0160930E0170936A
:101550000F01809310019093110160916F017091C0
:101560007001809171019091720101E010E00E9480
:1015700023068823D1F020E030E040E251E460917E
:101580000E0170910F0180911001909111010E9444
:101590006E1820E030E048EC52E40E949D160E9454
:1015A000881784E690E00E949D00C0900E01D090C4
:1015B0000F01E0901001F090110120E030E04CE0CC
:1015C00052E4C701B6010E94691818162CF480E095
:1015D00090E0ACE0B2E40EC020E030E040E951E43D
:1015E000C701B6010E940A1787FF0CC080E090E097
:1015F000A0E9B1E480930E0190930F01A093100134
:10160000B0931101C0906F01D0907001E090710112
:10161000F090720180900E0190900F01A090100147
:10162000B090110120E030E040E05FE3C501B4017B
:101630000E949E169B01AC01C701B6010E94691869
:1016400018161CF481E08093680120E030E040E04F
:101650005FE3C501B4010E949D169B01AC01C70167
:10166000B6010E940A1787FD1092680180916801F7
:10167000882311F0429A01C04298CF911F910F9197
:10168000FF90EF90DF90CF90BF90AF909F908F90A2
:101690000C9424020F931F93CF93DF9300D000D0BC
:1016A000CDB7DEB760919F017091A00180E090E01E
:1016B0000E94B71720E030E040E050E40E94FD02B5
:1016C0000E9488179B017093A00160939F016F3F58
:1016D000710521F018F08FEF90E007C0809116019E
:1016E000909117018217930720F09093A0018093A7
:1016F0009F0160919F017091A00180E090E00E94A5
:10170000B71725E732E04AE15DE30E946E189B01BE
:10171000AC018091A1019091A201BC0180E090E018
:1017200029833A834B835C830E94B71702E010E061
:1017300029813A814B815C810E942306882331F004
:1017400060919F0181E090E00E949D0060919F0167
:101750007091A0018DE20E94F7070F900F900F90FB
:101760000F90DF91CF911F910F910C9464030F9311
:101770001F93CF93DF9300D000D0CDB7DEB7609139
:101780009B0170919C0180E090E00E94B71720E0DF
:1017900030E040E050E40E94FD020E9488179B0167
:1017A00070939C0160939B016F3F710518F08FEF60
:1017B00090E007C08091160190911701821793075E
:1017C00020F090939C0180939B0160919B0170910C
:1017D0009C0180E090E00E94B71725E732E04AE1E3
:1017E0005DE30E946E189B01AC0180919D01909178
:1017F0009E01BC0180E090E029833A834B835C83A7
:101800000E94B71702E010E029813A814B815C8188
:101810000E942306882331F060919B0182E090E0D2
:101820000E949D0060919B0170919C018FE20E943B
:10183000F7070F900F900F900F90DF91CF911F91AE
:101840000F910C9464030F931F93CF93DF9300D0F9
:1018500000D0CDB7DEB7609197017091980180E01C
:1018600090E00E94B71720E030E040E050E40E9492
:10187000FD020E9488179B01709398016093970165
:101880006F3F710518F08FEF90E007C0809116014F
:10189000909117018217930720F0909398018093FD
:1018A0009701609197017091980180E090E00E940B
:1018B000B71725E732E04AE15DE30E946E189B010D
:1018C000AC018091990190919A01BC0180E090E077
:1018D00029833A834B835C830E94B71702E010E0B0
:1018E00029813A814B815C810E942306882331F053
:1018F0006091970183E090E00E949D0060919701C4
:10190000709198018CE20E94F7070F900F900F9052
:101910000F90DF91CF911F910F910C9464030F935F
:101920001F93CF93DF9300D000D0CDB7DEB7609187
:1019300093017091940180E090E00E94B71720E03D
:1019400030E040E050E40E94FD020E9488179B01B5
:1019500070939401609393016F3F710518F08FEFBE
:1019600090E007C0809116019091170182179307AC
:1019700020F0909394018093930160919301709172
:10198000940180E090E00E94B71725E732E04AE139
:101990005DE30E946E189B01AC01809195019091CE
:1019A0009601BC0180E090E029833A834B835C83FD
:1019B0000E94B71702E010E029813A814B815C81D7
:1019C0000E942306882331F06091930184E090E027
:1019D0000E949D0060919301709194018EE20E949B
:1019E000F7070F900F900F900F90DF91CF911F91FD
:1019F0000F910C946403CF9348E050E0BC0183E066
:101A000092E00E94641083E092E00E943E0F892BD6
:101A100031F083E092E00E94460FC82FF4CF8C2F64
:101A2000CF9108958CE390E00E94FB0C8F70089595
:101A3000CF938DE390E00E94FB0C81708093820134
:101A40008DE390E00E94FB0C86958170809381016C
:101A50008DE390E00E94FB0C82FB882780F9809345
:101A60007C018DE390E00E94FB0C83FB882780F9CA
:101A700080937B018DE390E00E94FB0C8295817046
:101A800080937A018DE390E00E94FB0C85FB882710
:101A900080F9809379018DE390E00E94FB0C86FB36
:101AA000882780F9809378018DE390E00E94FB0CF9
:101AB000881F8827881F809377018CE390E00E941D
:101AC000FB0CC1E0829581708C27809380018CE3B0
:101AD00090E00E94FB0C85FB882780F98C2780937F
:101AE0007F018CE390E00E94FB0C86FB882780F945
:101AF000C827C0937E018CE390E00E94FB0C809588
:101B0000881F8827881F80937D01CF910895809139
:101B100018018823E9F00E94180D0E94120D90E030
:101B20009093A4018093A30180917701811106C055
:101B300080E190E09093A4018093A301109218019A
:101B40008CE390E00E94FB0C8DE390E00E94FB0C84
:101B50008EE591E00E943E0360936F0170937001E7
:101B6000809371019093720182EC91E00E94510385
:101B70000E94811770936E0160936D010E94F002C4
:101B8000E091A301F091A4013697EB30F105E0F468
:101B9000EC5CFF4F0C9425190C940D080C94E30990
:101BA0000C944A0B0C94B70B0C941E070C94230C4A
:101BB0000C948F0C82E390E00E9451030C948404F7
:101BC0000C949F080C94E30740E060E08BE30E94D4
:101BD000CB0340E06EE68AE30E94CB0340E060E284
:101BE00089E30E94CB0340E060E288E30C94CB03DE
:101BF000FC01108611861286138615A214A216A265
:101C000017A210A611A612A613A614A615A621E0C7
:101C100026A7CB01770FAA0BBB0B848B958BA68BCA
:101C2000B78B0895FC0166834783208781E0858711
:101C30000895CF92DF92FF920F931F93CF93DF937C
:101C4000EC0161E08E810E9443160E9440150985D7
:101C50001A852B853C85601771078207930720F44E
:101C600019861A861B861C862D85211111C00985AF
:101C70001A852B853C85DC01CB01801B910BA20BC7
:101C8000B30B803D9740A105B10510F481E06DC014
:101C90001D860E94401569877A878B879C871C82E6
:101CA0001B821A821982188261E08E810E940716B7
:101CB00060E08E810E94431664E170E080E090E075
:101CC0000E946F15F89461E08E810E94431688E2AD
:101CD00090E00E94971560E08E810E94071610E048
:101CE000F12C81E000E0C82ED12C8E810E94731669
:101CF0008C159D0539F40F5F81E090E00E949715E7
:101D00000F3F99F78E810E9473160F3FB9F0143080
:101D100090F010FD10C09F2D969596959695FE011A
:101D2000E90FF11D9081990F90832885201710F4F9
:101D300091609083F3941F5F1535A1F6789487E244
:101D40008F1590F42C8130E04881898190E0840FD8
:101D5000911D4A81840F911D4B81840F911D9927FC
:101D60002817390709F492CF80E0DF91CF911F91B6
:101D70000F91FF90DF90CF900895CF92DF92EF9276
:101D8000FF920F931F93CF93DF93EC01162F0E94C6
:101D9000190E882309F455C08F818B3031F008F477
:101DA00050C08551823098F04CC06A8170E080E06C
:101DB00090E00E94B717112309F44EC020E030E0F4
:101DC00040E151E46B017C01C701B6012BC00A81DF
:101DD000602F6F7770E080E090E00E94B91720E0FC
:101DE00030E040E853E40E946E186B017C018B8167
:101DF000682F70E080E090E00E94B9179B01AC0171
:101E0000C701B6010E949E1620E030E040E251E496
:101E10000E940F1707FD90581123F1F020E030E0E9
:101E200040E151E40E946E1820E030E040EA50E4C6
:101E30000E940F1720E030E040E052E40E949E161E
:101E40000BC06EE171E083EC92E00E94851440E0EB
:101E500030E020EC9FE703C0462F372F282FC42EF9
:101E6000D32EE22EF92EC701B601DF91CF911F913B
:101E70000F91FF90EF90DF90CF9008958091330203
:101E800090E020913402821B9109089590913402D0
:101E900080913302981750F4E92FF0E0EB5CFD4F8E
:101EA000208130E09F5F9093340202C02FEF3FEF1C
:101EB000C9010895E091340280913302E81730F4AB
:101EC000F0E0EB5CFD4F808190E008958FEF9FEF95
:101ED00008950895CF92DF92EF92FF920F931F9390
:101EE000CF93DF937C01262F972F8A0180910F02D9
:101EF000882391F0C62FD72F6E01C40ED51ECC15A6
:101F0000DD0571F06991D701ED91FC910190F081AF
:101F1000E02DC7010995F3CF642F822F0E942A116B
:101F2000C801DF91CF911F910F91FF90EF90DF904B
:101F3000CF900895CF93DF931F92CDB7DEB769831B
:101F400020910F022223D1F020911002203240F084
:101F500021E030E0FC013383228380E090E015C073
:101F600080911102E82FF0E0EE5EFD4F99819083A1
:101F70008F5F809311028093100205C061E0CE0153
:101F800001960E942A1181E090E00F90DF91CF919D
:101F90000895FC011382128288EE93E0A0E0B0E085
:101FA00084839583A683B7838CE291E091838083B9
:101FB000089510923402109233021092110210927E
:101FC00010020C946E1081E080930F026093320235
:101FD000109211021092100208950F93062F21E023
:101FE0004091100262E172E0809132020E94D410AE
:101FF000109211021092100210920F020F91089588
:102000004F925F926F927F92AF92BF92CF92EF9278
:10201000FF920F931F93CF93DF935C01F62ED42F83
:1020200028013901EE2021F10E94E30FCE2DC430AA
:1020300008F0C3E0C150C0F0D501ED91FC91B8E0CB
:10204000CB9FC0011124A301920104C0569547956E
:10205000379527958A95D2F7CA01B9010190F08189
:10206000E02DC5010995E6CF60E0C5010E94ED0FA6
:102070004D2FD13208F040E22C2D65E372E08F2D18
:102080000E948C101092340280933302DF91CF9122
:102090001F910F91FF90EF90CF90BF90AF907F90E6
:1020A0006F905F904F900895CF92EF920F931F9390
:1020B000C22EE12C00E010E098010E9400101F9158
:1020C0000F91EF90CF90089521E00C94541061E0AF
:1020D0000C94ED0F83E092E00C94C90F1092C202B1
:1020E00081E08093C0021092BF0261E082E10E9411
:1020F000431661E083E10E944316E9EBF0E0808142
:102100008E7F808380818D7F808384E38093B8007D
:1021100085E48093BC000895413208F043C090915B
:10212000C2029111FCCF91E09093C2022093C002B1
:102130002FEF2093550210929A02240F20939902B8
:102140009093C1029091C102880F892B8093C102A4
:102150008091BF02813061F41092BF028091C10270
:102160008093BB008091BC0083FDF8CF85EC01C05B
:1021700085EE8093BC008091C2028130E1F38091B2
:102180009A02841710F440919A022BE932E0FB0185
:10219000D9018A2F821B841718F48D918193F9CF6E
:1021A000842F089580E008950F93413208F04AC0CB
:1021B0009091C2029111FCCF32E03093C2020093A1
:1021C000C0023FEF3093550210929A024093990259
:1021D000FB016BE972E0DB013A2F361B341718F470
:1021E00031913D93F9CF1092C1023091C102880F15
:1021F000832B8093C1028091BF02813061F41092E1
:10220000BF028091C1028093BB008091BC0083FD1E
:10221000F8CF85EC01C085EE8093BC00222321F02D
:102220008091C2028230D1F3809155028F3F79F0C4
:1022300080915502803241F080915502803331F017
:1022400094E005C091E003C092E001C093E0892FC3
:102250000F910895613298F42091C202243089F4DC
:1022600060937702FC0129E732E0D9018A2F821BB3
:10227000861718F481918D93F9CF80E0089581E05D
:10228000089582E0089585ED8093BC008091BC00A4
:1022900084FDFCCF1092C202089585EC8093BC00AF
:1022A0001092C20208951F920F920FB60F9211243E
:1022B0002F933F934F935F936F937F938F939F934E
:1022C000AF93BF93EF93FF938091B900887F8036DF
:1022D00009F49EC078F5883209F45DC090F480312D
:1022E00009F456C038F4882309F4F5C0883009F49D
:1022F0004FC0F5C0883109F44EC0803209F45FC088
:10230000EEC0803409F46AC058F4803309F457C031
:10231000883309F0E4C0809355020E944D11DFC05C
:10232000803509F44FC0883509F45DC0883409F060
:10233000D6C0D3C0883909F4C4C0A8F4883709F4DA
:1023400067C038F4883609F463C0803709F460C088
:10235000C6C0883809F4B5C0803909F45FC0803838
:1023600009F0BDC05BC0803B09F483C038F4803AFB
:1023700009F466C0883A09F47CC0B1C0803C09F415
:10238000A4C0883C09F4A1C0883B09F487C0A7C059
:102390008091C10210C090919A0280919902981781
:1023A00070F5E0919A0281E08E0F80939A02F0E03E
:1023B000E556FD4F80818093BB0085EC83C0809300
:1023C00055028BC0E0919A0281E08E0F80939A02B1
:1023D0008091BB00F0E0E556FD4F808390919A021A
:1023E000809199026BC0E0919A0281E08E0F8093F8
:1023F0009A028091BB00F0E0E556FD4F808380910A
:10240000C00281116AC081E08093BF0284EA5EC08D
:1024100083E08093C20210925602CFCF8091560281
:10242000803208F04EC0E091560281E08E0F80931A
:1024300056028091BB00F0E0E95AFD4F8083BDCF8A
:102440000E944D1180915602803230F4E091560284
:10245000F0E0E95AFD4F10826091560270E0E09181
:10246000BB02F091BC0287E592E0099510925602FA
:1024700036C084E08093C2021092780210927702F4
:10248000E091BD02F091BE02099580917702811121
:1024900005C081E08093770210927902E091780282
:1024A00081E08E0F80937802F0E0E758FD4F808145
:1024B0008093BB009091780280917702981708F47E
:1024C0007CCF85E88093BC000AC085EC8093BC007B
:1024D0001092C20204C0109255020E944311FF9153
:1024E000EF91BF91AF919F918F917F916F915F918C
:1024F0004F913F912F910F900FBE0F901F90189505
:10250000FC01918D228D892F90E0805C9F4F821B72
:1025100091098F7399270895FC01918D828D9817E9
:1025200031F0828DE80FF11D858D90E008958FEFD9
:102530009FEF0895FC01918D828D981761F0828D37
:10254000DF01A80FB11D5D968C91928D9F5F9F73E7
:10255000928F90E008958FEF9FEF08958EEF93E1B3
:10256000892B49F080E090E0892B29F00E94FE132E
:1025700081110C9400000895FC01848DDF01A80FE7
:10258000B11DA35ABF4F2C91848D90E001968F739B
:102590009927848FA689B7892C93A089B1898C91BA
:1025A00080648C93938D848D981306C00288F38980
:1025B000E02D80818F7D80830895CF93DF93EC01A0
:1025C000888D8823C9F0EA89FB89808185FD05C053
:1025D000A889B9898C9186FD0FC00FB607FCF5CF8D
:1025E000808185FFF2CFA889B9898C9185FFEDCFD5
:1025F000CE010E94BC12E7CFDF91CF910895EF92F8
:10260000FF920F931F93CF93DF93EC0181E0888FAC
:102610009B8D8C8D981305C0E889F989808185FD93
:1026200024C0F62E0B8D10E00F5F1F4F0F73112784
:10263000E02E8C8DE8120CC00FB607FCFACFE889AB
:10264000F989808185FFF5CFCE010E94BC12F1CFC0
:102650008B8DFE01E80FF11DE35AFF4FF0820B8FC7
:10266000EA89FB898081806207C0EE89FF896083E7
:10267000E889F98980818064808381E090E0DF913E
:10268000CF911F910F91FF90EF900895CF92DF921D
:10269000EF92FF921F93CF93DF93EC016A017B01CE
:1026A000122F60EC76EC8DE290E0A70196010E947B
:1026B0000319DA01C9010197A109B109B695A795D6
:1026C00097958795AC01E889F98982E08083411567
:1026D00080E15807A8F0E889F989108260E673EE76
:1026E00086E190E0A70196010E940319BA01A901B1
:1026F000415051096109710976956795579547953C
:10270000EC85FD855083EE85FF854083188EEC892E
:10271000FD891083EA89FB89808180618083EA8951
:10272000FB89808188608083EA89FB898081806859
:102730008083EA89FB8980818F7D8083DF91CF91BF
:102740001F91FF90EF90DF90CF9008951F920F920E
:102750000FB60F9211242F938F939F93EF93FF93B4
:10276000E091D302F091D4028081E091D902F091FE
:10277000DA0282FD12C090818091DC028F5F8F733C
:102780002091DD02821751F0E091DC02F0E0ED5380
:10279000FD4F958F8093DC0201C08081FF91EF9106
:1027A0009F918F912F910F900FBE0F901F901895B2
:1027B0001F920F920FB60F9211242F933F934F93B6
:1027C0005F936F937F938F939F93AF93BF93EF9399
:1027D000FF9383EC92E00E94BC12FF91EF91BF91B6
:1027E000AF919F918F917F916F915F914F913F91A9
:1027F0002F910F900FBE0F901F90189583EC92E0D1
:102800000E94801221E0892B09F420E0822F089594
:10281000E3ECF2E01382128288EE93E0A0E0B0E0F5
:1028200084839583A683B7838CE391E0918380832F
:1028300085EC90E09587848784EC90E09787868785
:1028400080EC90E0918B808B81EC90E0938B828B7D
:1028500082EC90E0958B848B86EC90E0978B868B56
:10286000118E128E138E148E089508950E94A31552
:102870000E9435140E948901CEEAD2E10E94870DA0
:102880002097E1F30E94AE12F9CFCF92DF92EF9240
:10289000FF920F931F93CF93DF936C017A018B010B
:1028A000C0E0D0E0CE15DF0589F0D8016D918D0133
:1028B000D601ED91FC910190F081E02DC6010995C2
:1028C000892B11F47E0102C02196ECCFC701DF9164
:1028D000CF911F910F91FF90EF90DF90CF900895CF
:1028E0006115710579F0FB0101900020E9F731973E
:1028F000AF01461B570BDC01ED91FC910280F38187
:10290000E02D099480E090E008950C9470140895EF
:102910008230E8F4E82FF0E0EE0FFF1FE65EFE4F96
:1029200071836083813041F0809169008C7F482BF6
:1029300040936900E89A089580916900440F551FFB
:10294000440F551F837F482B40936900E99A0895EF
:102950001F920F920FB60F9211242F933F934F9314
:102960005F936F937F938F939F93AF93BF93EF93F7
:10297000FF93E0911A01F0911B010995FF91EF91EE
:10298000BF91AF919F918F917F916F915F914F9187
:102990003F912F910F900FBE0F901F9018951F928F
:1029A0000F920FB60F9211242F933F934F935F9383
:1029B0006F937F938F939F93AF93BF93EF93FF9307
:1029C000E0911C01F0911D010995FF91EF91BF91DC
:1029D000AF919F918F917F916F915F914F913F91B7
:1029E0002F910F900FBE0F901F9018951F920F926E
:1029F0000FB60F9211242F933F938F939F93AF9312
:102A0000BF938091610390916203A0916303B091A1
:102A10006403309160032DE2230F2D3720F40196DB
:102A2000A11DB11D05C020EB230F0296A11DB11DF4
:102A3000209360038093610390936203A0936303E8
:102A4000B09364038091650390916603A09167033E
:102A5000B09168030196A11DB11D80936503909309
:102A60006603A0936703B0936803BF91AF919F91F2
:102A70008F913F912F910F900FBE0F901F9018953F
:102A80002FB7F894609161037091620380916303A2
:102A9000909164032FBF08959FB7F8944091650308
:102AA00050916603609167037091680386B5A89B97
:102AB00006C08F3F21F04F5F5F4F6F4F7F4F9FBF2B
:102AC000762F652F542F44279A01AB01280F311D13
:102AD000411D511DA5E0B0E00E942B190895CF9231
:102AE000DF92EF92FF92CF93DF936B017C010E9404
:102AF0004C15EB01C114D104E104F10489F00E94EA
:102B00009C160E944C156C1B7D0B683E734090F325
:102B100081E0C81AD108E108F108C851DC4FEACFBA
:102B2000DF91CF91FF90EF90DF90CF9008958230AA
:102B3000910540F09C01220F331F0597820F931FD0
:102B40000197F1F70895789484B5826084BD84B5C7
:102B5000816084BD85B5826085BD85B5816085BD98
:102B6000EEE6F0E0808181608083E1E8F0E01082B1
:102B7000808182608083808181608083E0E8F0E0F2
:102B8000808181608083E1EBF0E0808184608083DC
:102B9000E0EBF0E0808181608083EAE7F0E0808113
:102BA0008460808380818260808380818E7F808347
:102BB0008081806880831092C1000895833081F005
:102BC00028F4813099F08230A1F008958730A9F07F
:102BD0008830B9F08430D1F4809180008F7D03C0BB
:102BE000809180008F7780938000089584B58F77DF
:102BF00002C084B58F7D84BD08958091B0008F7729
:102C000003C08091B0008F7D8093B0000895CF9372
:102C1000DF9390E0FC01EE56FF4F2491FC01EA5552
:102C2000FF4F8491882361F190E0880F991FFC0188
:102C3000E253FF4FC591D491FC01EC53FF4FA59196
:102C4000B491611109C09FB7F894888120958223BF
:102C50008883EC912E230BC0623061F49FB7F89407
:102C60003881822F809583238883EC912E2B2C939F
:102C70009FBF06C08FB7F894E8812E2B28838FBFA3
:102C8000DF91CF9108951F93CF93DF93282F30E0EA
:102C9000F901E258FF4F8491F901EE56FF4FD491AC
:102CA000F901EA55FF4FC491CC23C9F0162F8111C9
:102CB0000E94DE15EC2FF0E0EE0FFF1FEC53FF4FEC
:102CC000A591B4918FB7F894111105C09C91ED2F87
:102CD000E095E92302C0EC91ED2BEC938FBFDF91DF
:102CE000CF911F910895CF93DF93282F30E0F90102
:102CF000E258FF4F8491F901EE56FF4FD491F9014C
:102D0000EA55FF4FC491CC2391F081110E94DE154A
:102D1000EC2FF0E0EE0FFF1FE654FF4FA591B491AA
:102D2000EC91ED2381E090E021F480E002C080E0AE
:102D300090E0DF91CF91089508955058BB27AA27BE
:102D40000E94B5160C942F180E94211838F00E948A
:102D5000281820F039F49F3F19F426F40C941E181B
:102D60000EF4E095E7FB0C941818E92F0E94401828
:102D700058F3BA17620773078407950720F079F4B0
:102D8000A6F50C9462180EF4E0950B2EBA2FA02D28
:102D90000B01B90190010C01CA01A0011124FF2708
:102DA000591B99F0593F50F4503E68F11A16F04003
:102DB000A22F232F342F4427585FF3CF4695379502
:102DC0002795A795F0405395C9F77EF41F16BA0BC7
:102DD000620B730B840BBAF09150A1F0FF0FBB1F75
:102DE000661F771F881FC2F70EC0BA0F621F731FBE
:102DF000841F48F4879577956795B795F7959E3F1B
:102E000008F0B0CF9395880F08F09927EE0F9795AB
:102E1000879508950E94F41708F481E008950E94B0
:102E200023170C942F180E94281858F00E9421187C
:102E300040F029F45F3F29F00C94181851110C94BC
:102E400063180C941E180E94401868F39923B1F37C
:102E5000552391F3951B550BBB27AA2762177307C0
:102E6000840738F09F5F5F4F220F331F441FAA1F54
:102E7000A9F335D00E2E3AF0E0E832D09150504010
:102E8000E695001CCAF72BD0FE2F29D0660F771FBE
:102E9000881FBB1F261737074807AB07B0E809F0A4
:102EA000BB0B802DBF01FF2793585F4F3AF09E3F29
:102EB000510578F00C9418180C9463185F3FE4F3F4
:102EC000983ED4F3869577956795B795F7959F5F6C
:102ED000C9F7880F911D9695879597F90895E1E0B8
:102EE000660F771F881FBB1F621773078407BA0717
:102EF00020F0621B730B840BBA0BEE1F88F7E09572
:102F000008950E9488176894B1110C94631808956D
:102F10000E94481888F09F5798F0B92F9927B75109
:102F2000B0F0E1F0660F771F881F991F1AF0BA956D
:102F3000C9F714C0B13091F00E946218B1E0089551
:102F40000C946218672F782F8827B85F39F0B93F43
:102F5000CCF3869577956795B395D9F73EF4909520
:102F60008095709561957F4F8F4F9F4F0895E8949E
:102F700009C097FB3EF490958095709561957F4FC1
:102F80008F4F9F4F9923A9F0F92F96E9BB2793956F
:102F9000F695879577956795B795F111F8CFFAF47F
:102FA000BB0F11F460FF1BC06F5F7F4F8F4F9F4FB0
:102FB00016C0882311F096E911C0772321F09EE80E
:102FC000872F762F05C0662371F096E8862F70E074
:102FD00060E02AF09A95660F771F881FDAF7880F4E
:102FE0009695879597F90895990F0008550FAA0BA4
:102FF000E0E8FEEF16161706E807F907C0F012160C
:103000001306E407F50798F0621B730B840B950B0E
:1030100039F40A2661F0232B242B252B21F4089563
:103020000A2609F4A140A6958FEF811D811D089500
:1030300097F99F6780E870E060E008959FEF80EC6B
:10304000089500240A94161617061806090608950E
:1030500000240A9412161306140605060895092E74
:103060000394000C11F4882352F0BB0F40F4BF2BE3
:1030700011F460FF04C06F5F7F4F8F4F9F4F089523
:1030800057FD9058440F551F59F05F3F71F0479519
:10309000880F97FB991F61F09F3F79F087950895FE
:1030A000121613061406551FF2CF4695F1DF08C01D
:1030B000161617061806991FF1CF8695710561053A
:1030C00008940895E894BB2766277727CB0197F9E2
:1030D00008950E94F41708F48FEF08950E94811854
:1030E0000C942F180E94211838F00E94281820F004
:1030F000952311F00C9418180C941E1811240C949C
:1031000063180E94401870F3959FC1F3950F50E02B
:10311000551F629FF001729FBB27F00DB11D639F89
:10312000AA27F00DB11DAA1F649F6627B00DA11D2F
:10313000661F829F2227B00DA11D621F739FB00DD5
:10314000A11D621F839FA00D611D221F749F332745
:10315000A00D611D231F849F600D211D822F762FDE
:103160006A2F11249F5750409AF0F1F088234AF0BB
:10317000EE0FFF1FBB1F661F771F881F9150504027
:10318000A9F79E3F510580F00C9418180C94631811
:103190005F3FE4F3983ED4F3869577956795B795AE
:1031A000F795E7959F5FC1F7FE2B880F911D9695C8
:1031B000879597F90895AA1BBB1B51E107C0AA1F69
:1031C000BB1FA617B70710F0A61BB70B881F991FC8
:1031D0005A95A9F780959095BC01CD01089597FB6C
:1031E000072E16F4009407D077FD09D00E94DB1853
:1031F00007FC05D03EF4909581959F4F08957095FA
:1032000061957F4F0895A1E21A2EAA1BBB1BFD01F9
:103210000DC0AA1FBB1FEE1FFF1FA217B307E407B5
:10322000F50720F0A21BB30BE40BF50B661F771F0D
:10323000881F991F1A9469F76095709580959095ED
:103240009B01AC01BD01CF010895EE0FFF1F05905A
:10325000F491E02D09940E943619A59F900DB49F1A
:10326000900DA49F800D911D11240895A29FB0017F
:10327000B39FC001A39F700D811D1124911DB29FAA
:10328000700D811D1124911D0895F999FECF92BDF5
:1032900081BDF89A992780B50895262FF999FECF18
:1032A0001FBA92BD81BD20BD0FB6F894FA9AF99A63
:0A32B0000FBE01960895F894FFCFB9
:1032BA00230028002D00320037003C000E000000D9
:1032CA00C841320102001C000101871487145265AB
:1032DA006164206661696C00000000009A0F6A0F41
:1032EA003E0F460F5A0F690F00000000FF124514E7
:0832FA0080129A128C12DD1201
:00000001FF
