:100000000C9464000C948C000C948C000C948C0068
:100010000C948C000C948C000C948C000C948C0030
:100020000C948C000C948C000C948C000C94A2000A
:100030000C948C000C948C000C948C000C948C0010
:100040000C94AB0E0C948C000C944D0D0C947F0D05
:100050000C948C000C948C000C948C000C948C00F0
:100060000C94F50A0C948C000000000800020100BA
:100070000003040700000000000000000102040863
:100080001020408001020408102001020408102002
:10009000040404040404040402020202020203032E
:1000A00003030303000000002300260029000000D2
:1000B0000000250028002B0000000000240027007D
:1000C0002A0025020C0AAF0D11241FBECFEFD8E085
:1000D000DEBFCDBF11E0A0E0B1E0E2EFF5E202C08B
:1000E00005900D92AE33B107D9F723E0AEE3B1E04E
:1000F00001C01D92AF31B207E1F710E0C4E6D0E0D5
:1001000004C02197FE010E94DB12C136D107C9F756
:100110000E94DD0D0C94F7120C94000010928000E8
:1001200025E02093810029E03DE33093890020936E
:10013000880022E020936F0078949093B60180931A
:10014000B50108951F920F920FB60F9211242F93AD
:100150003F938F939F932091B7013091B801809185
:10016000B5019091B60101972817390728F0109230
:10017000B8011092B70109C08091B7019091B80100
:1001800001969093B8018093B70110928500109268
:1001900084009F918F913F912F910F900FBE0F90F0
:1001A0001F9018956F927F929F92AF92BF92CF92BD
:1001B000DF92EF92FF920F931F93CF93DF93FC0197
:1001C00000E010E0C0E0D0E0E12CF12C20E030E0D5
:1001D000912C5B01A40EB51E6C0188E0C80ED11CE9
:1001E0008091B7019091B8014091B7015091B80149
:1001F000A416B50608F45AC08617970708F456C027
:10020000992089F083B1807190E082179307B9F04B
:1002100040815181DA012D913C9111972F5F3F4F21
:100220002D933C930CC0CF01DC014D915D91CD012C
:10023000DA011D921C928C159D05B1F7E3CF29B10F
:10024000207130E02E153F0551F0E280F380D70198
:100250004D915C9111974F5F5F4F4D935C9343B10C
:10026000407250E04C175D0749F0E480F580D701FB
:10027000CD91DC9111972196CD93DC93C6B1C0FB53
:10028000662460F8712C6016710649F006811781AA
:10029000D801CD91DC9111972196CD93DC939924CF
:1002A00093948301EA0179019C019ACFB1E09B12FA
:1002B00011C09F01285F3F4FA191B1918D919C91F9
:1002C000119797FD0196959587958D939C93E217CD
:1002D000F30791F7DF91CF911F910F91FF90EF906E
:1002E000DF90CF90BF90AF909F907F906F900895D8
:1002F00026E040E052EC61E070E089E792E00E9485
:10030000E80C89EB91E00E947B0962E086E00E94A4
:10031000BD0F62E087E00E94BD0F62E088E00E94AE
:10032000BD0F81E090E00E94E11290E090935D01AA
:1003300080935C0182E090E00E94E11290E0909353
:1003400059018093580183E090E00E94E11290E00F
:10035000909355018093540184E090E00E94E11253
:1003600090E0909351018093500184E190E00E94CD
:100370008E0080E090E020E030E0F901E85BFE4F85
:10038000A901405C5E4F5183408301962E5F3F4F31
:100390008430910591F790933F0180933E01089539
:1003A000CF92DF92EF92FF92CF936B017C01CA0153
:1003B000B901C9B1C6FBCC27C0F9C093020129B16C
:1003C000221F2227221F2093010130910001C31711
:1003D00099F02C1731F020E030E0A9010E94541070
:1003E00007C09B01AC0160E070E0CB010E9453109C
:1003F00021E02093940105C01092940160E070E028
:10040000CB01C09300019B01AC01C701B6010E9462
:100410005410CF91FF90EF90DF90CF9008952091EE
:100420009301422F50E08417950758F4662321F07A
:1004300060E087EA91E003C060E089E991E00C9414
:100440005F082F5F20939301089526E046E16FE057
:1004500087EA91E00E94B40726E046E160E189E97D
:1004600091E00E94B40762E070E084E691E00C94B1
:100470002D071F93CF93DF931F92CDB7DEB763365F
:1004800009F463C058F5673009F455C090F463303F
:1004900009F44DC038F4613009F461C008F045C07A
:1004A0001FE36EC0653009F464C008F042C016E670
:1004B00067C06A3209F463C048F4693009F43FC088
:1004C000E0F1603209F05CC010E05AC06136C9F159
:1004D000D0F56D3209F054C010E452C06C3609F406
:1004E00040C080F46736B9F128F4653681F188F5AB
:1004F0001EE546C0693699F180F16A3609F040C0C0
:100500001EE03EC0623799F138F4603761F168F55A
:100510006E36B1F514E534C0643769F150F16537D2
:1005200061F1693769F51EE62BC01BE529C01FE4A0
:1005300027C01DE725C017E023C01FE721C01FE625
:100540001FC017E71DC01CE71BC019E319C019E73E
:1005500017C011E715C01DE313C016E711C016E060
:100560000FC018E30DC013E70BC017E609C010E574
:1005700007C01DE605C018E703C01EE301C013E66F
:10058000682F89EB91E049830E948509612F89EBEF
:1005900091E00E943C094981612F4111606889EB1B
:1005A00091E00E943C0989EB91E00F90DF91CF919F
:1005B0001F910C94090A40E060E280E20E94390237
:1005C00040E060E281E20E94390240E060E282E2C3
:1005D0000E94390240E060E283E20C9439028F927B
:1005E0009F92AF92BF92CF92DF92EF92FF92CF9302
:1005F000DF936B017C010E943711EB01072E000C89
:10060000880B990B0E946F119B01AC01C701B601C9
:100610000E94531020E030E040E251E40E94241296
:100620004B015C0120E030E040E251ECC701B60133
:100630000E94C01018167CF140E06DE280E20E943A
:10064000390220E030E040E251E4C701B6010E94E7
:10065000C5106B017C0120E030E0A9010E941F124F
:1006600018161CF4C701B60103C0C701B6019058A3
:100670000E943E1140E081E20E943902CE016AE010
:1006800070E00E94A51297FF03C091958195910992
:1006900041E0682F25C020E030E0A901C701B60184
:1006A0000E94C01087FF30C040E06DE280E20E94EF
:1006B000390240E060E081E20E94390220E030E04F
:1006C000A901C701B6010E941F1218161CF4C70128
:1006D000B60103C0C701B60190580E943E1141E027
:1006E00082E20E94390220E030E0A901C501B40194
:1006F0000E941F1218160CF448C0C501B40190588E
:100700000E943E1140E054C020E030E040E251E45D
:10071000C701B6010E94C01087FF10C040E060E032
:1007200080E20E94390240E060E081E20E943902EA
:10073000C701B6010E943E1141E024C020E030E034
:1007400040E251E4C701B6010E941F1240E087FD5C
:100750001FC060E080E20E94390220E030E040E209
:1007600051E4C701B6010E94C5100E943E1140E04D
:1007700081E20E943902CE016AE070E00E94A51277
:1007800041E0682F82E20E943902C501B401B8CF6E
:1007900065E680E20E94390240E062E781E20E9461
:1007A000390240E062E782E20E94390240E060E202
:1007B00083E2DF91CF91FF90EF90DF90CF90BF90D9
:1007C000AF909F908F900C943902EF92FF920F930D
:1007D0001F93CF93DF93EC018A30910568F440E0DA
:1007E00060E080E20E94390240E060E081E20E9425
:1007F000390240E060E014C084369105B8F440E06E
:1008000060E080E20E94390240E060E081E20E9404
:100810003902CE016AE070E00E949112C82F40E0D8
:1008200082E20E94390240E06C2F42C0C83E83E061
:10083000D80798F440E060E080E20E943902CE01DF
:1008400064E670E00E9491127C0140E081E20E9427
:1008500039020AE010E0C7011EC0C03187E2D807A4
:1008600080F5CE0168EE73E00E9491127C0140E0B9
:1008700080E20E94390204E610E0C701B8010E943C
:10088000911240E081E20E943902CE01B8010E943B
:1008900091120AE010E0B8010E94911240E082E259
:1008A0000E943902CE01B8010E94911240E0682FE7
:1008B00083E2DF91CF911F910F91FF90EF900C9405
:1008C0003902DF91CF911F910F91FF90EF90089522
:1008D000CF92DF92EF92FF92CF936B017C01C42FF6
:1008E00042E350E060E070E084E691E00E94470758
:1008F0008823A9F0C701B601CC2339F0CF91FF902E
:10090000EF90DF90CF900C94EF020E943711CB0153
:10091000CF91FF90EF90DF90CF900C94E503CF91B3
:10092000FF90EF90DF90CF900C94DB028F929F921C
:10093000AF92BF92CF92DF92EF92FF920F93CF933D
:100940006B017C0149015A0180919401882349F08F
:1009500081E0809363010E94F50E709362016093C1
:100960006101C0916301CC2371F10E94F50E2091C9
:10097000610130916201DC01CB01821B930BA10963
:10098000B1098D3B9240A105B10598F0C701B601B0
:10099000002319F00E94EF0205C00E943711CB011D
:1009A0000E94E503C0916001CC23C9F01092600160
:1009B00016C0402FC501B4010E94680481E08093F5
:1009C0006001C0E00CC0C701B601002319F00E940D
:1009D000EF0205C00E943711CB010E94E5038C2F66
:1009E000CF910F91FF90EF90DF90CF90BF90AF909D
:1009F0009F908F900895CF93C62F682F89EB91E039
:100A00000E94850960E089EB91E00E943C096C2F0F
:100A100089EB91E00E943C0989EB91E0CF910C9425
:100A2000090A0F93CF93DF9300D000D0CDB7DEB784
:100A300060915C0170915D0180E090E00E946D1119
:100A400020E030E040E85FE30E94D0010E943E11C8
:100A50006F3F710521F018F08FEF90E00AC061152B
:100A6000710529F070935D0160935C0106C081E01F
:100A700090E090935D0180935C0160915C017091C6
:100A80005D0180E090E00E946D119B01AC018091BE
:100A90005E0190915F01BC0180E090E029833A8380
:100AA0004B835C830E946D1100E029813A814B8168
:100AB0005C810E949604882331F060915C0181E0A2
:100AC00090E00E94E91260915C0170915D018CE2FE
:100AD0000F900F900F900F90DF91CF910F910C948A
:100AE000FB040F93CF93DF9300D000D0CDB7DEB7D8
:100AF000609158017091590180E090E00E946D1161
:100B000020E030E040E85FE30E94D0010E943E1107
:100B10006F3F710521F018F08FEF90E00AC061156A
:100B2000710529F0709359016093580106C081E066
:100B300090E0909359018093580160915801709111
:100B4000590180E090E00E946D119B01AC01809101
:100B50005A0190915B01BC0180E090E029833A83C7
:100B60004B835C830E946D1100E029813A814B81A7
:100B70005C810E949604882331F06091580182E0E4
:100B800090E00E94E91260915801709159018DE244
:100B90000F900F900F900F90DF91CF910F910C94C9
:100BA000FB040F93CF93DF9300D000D0CDB7DEB717
:100BB000609154017091550180E090E00E946D11A8
:100BC00020E030E040E85FE30E94D0010E943E1147
:100BD0006F3F710521F018F08FEF90E00AC06115AA
:100BE000710529F0709355016093540106C081E0AE
:100BF00090E090935501809354016091540170915D
:100C0000550180E090E00E946D119B01AC01809144
:100C1000560190915701BC0180E090E029833A830E
:100C20004B835C830E946D1100E029813A814B81E6
:100C30005C810E949604882331F06091540183E026
:100C400090E00E94E91260915401709155018EE28A
:100C50000F900F900F900F90DF91CF910F910C9408
:100C6000FB040F93CF93DF9300D000D0CDB7DEB756
:100C7000609150017091510180E090E00E946D11EF
:100C800020E030E040E85FE30E94D0010E943E1186
:100C90006F3F710521F018F08FEF90E00AC06115E9
:100CA000710529F0709351016093500106C081E0F5
:100CB00090E09093510180935001609150017091A8
:100CC000510180E090E00E946D119B01AC01809188
:100CD000520190915301BC0180E090E029833A8356
:100CE0004B835C830E946D1100E029813A814B8126
:100CF0005C810E949604882331F06091500184E069
:100D000090E00E94E91260915001709151018FE2D0
:100D10000F900F900F900F90DF91CF910F910C9447
:100D2000FB04CF9348E050E0BC0189EB91E00E94C6
:100D3000060A89EB91E00E94E008892B31F089EBEB
:100D400091E00E94E808C82FF4CF8C2FCF9108952E
:100D500084E290E00E9491068F7008950E94F50E43
:100D6000709398016093970141E050E062E070E079
:100D700088E491E00E94D200E0914A01F0914B0199
:100D80008081918190935F0180935E01E0914E019B
:100D9000F0914F018081918190935B0180935A0182
:100DA000E0914801F0914901808191819093570130
:100DB00080935601E0914C01F0914D018081918129
:100DC00090935301809352010E94A8068B30A1F0AA
:100DD00038F48823A1F08730D1F40E9431062BC06B
:100DE0008E3039F08F3039F18D3089F40E947105E1
:100DF00022C00E9411051FC00E94D1051CC060E0E6
:100E000088EC90E00E940F020E94EF0214C040E0C4
:100E100060E083E20E94390240E06EE682E20E94D6
:100E2000390240E060E281E20E94390240E060E283
:100E300080E20E9439020E94F50E70939601609341
:100E400095012091970130919801621B730B4AE044
:100E500050E089E792E00C94950EFC011086118613
:100E60001286138615A214A216A217A210A611A606
:100E700012A613A614A615A621E026A7CB01770F6C
:100E8000AA0BBB0B848B958BA68BB78B08958F9287
:100E90009F92AF92BF92CF92DF92EF92FF920F9309
:100EA0001F93CF93DF93EC016A017B010E94F50E43
:100EB0000C891D892E893F890230110521053105D4
:100EC000D1F040F4013011052105310509F50E94EA
:100ED000010F1EC0033011052105310579F00430E2
:100EE000110521053105A1F40E94F50E20E63AEE28
:100EF00040E050E009C00E94F50E0AC00E94F50EC5
:100F000028EE33E040E050E00E94B912CA01B90176
:100F1000CC82DD82EE82FF820C851D852E853F8589
:100F20004B015C01801A910AA20AB30A8C149D0439
:100F3000AE04BF0458F06C877D878E879F878C8DA9
:100F4000811103C081E08C8F01C01C8E8C8DDF91DC
:100F5000CF911F910F91FF90EF90DF90CF90BF90B6
:100F6000AF909F908F900895FC0166834783208700
:100F700081E085870895CF92DF92FF920F931F93B0
:100F8000CF93DF93EC0161E08E810E94F90F0E9404
:100F9000F50E09851A852B853C8560177107820738
:100FA000930720F419861A861B861C862D8521112D
:100FB00011C009851A852B853C85DC01CB01801B7E
:100FC000910BA20BB30B803D9740A105B10510F426
:100FD00081E06DC01D860E94F50E69877A878B8738
:100FE0009C871C821B821A821982188261E08E8182
:100FF0000E94BD0F60E08E810E94F90F64E170E0F5
:1010000080E090E00E94260FF89461E08E810E94BB
:10101000F90F88E290E00E944E0F60E08E810E94FE
:10102000BD0F10E0F12C81E000E0C82ED12C8E81A4
:101030000E9429108C159D0539F40F5F81E090E026
:101040000E944E0F0F3F99F78E810E9429100F3F8B
:10105000B9F0143090F010FD10C09F2D9695969524
:101060009695FE01E90FF11D9081990F90832885D7
:10107000201710F491609083F3941F5F1535A1F64B
:10108000789487E28F1590F42C8130E04881898133
:1010900090E0840F911D4A81840F911D4B81840F34
:1010A000911D99272817390709F492CF80E0DF9125
:1010B000CF911F910F91FF90DF90CF900895CF9225
:1010C000DF92EF92FF920F931F93CF93DF93EC0188
:1010D000162F0E94BB07882309F455C08F818B30DF
:1010E00031F008F450C08551823098F04CC06A81CC
:1010F00070E080E090E00E946D11112309F44EC071
:1011000020E030E040E151E46B017C01C701B60111
:101110002BC00A81602F6F7770E080E090E00E9422
:101120006F1120E030E040E853E40E9424126B018C
:101130007C018B81682F70E080E090E00E946F114D
:101140009B01AC01C701B6010E94541020E030E0C1
:1011500040E251E40E94C51007FD90581123F1F0C0
:1011600020E030E040E151E40E94241220E030E031
:1011700040EA50E40E94C51020E030E040E052E434
:101180000E9454100BC063E071E089E792E00E9476
:101190002C0E40E030E020EC9FE703C0462F372FB5
:1011A000282FC42ED32EE22EF92EC701B601DF91CF
:1011B000CF911F910F91FF90EF90DF90CF90089506
:1011C0008091E90190E02091EA01821B9109089544
:1011D0009091EA018091E901981750F4E92FF0E02D
:1011E000E551FE4F208130E09F5F9093EA0102C0FD
:1011F0002FEF3FEFC9010895E091EA018091E901E5
:10120000E81730F4F0E0E551FE4F808190E008955A
:101210008FEF9FEF08950895CF92DF92EF92FF92A4
:101220000F931F93CF93DF937C01262F972F8A0173
:101230008091C501882391F0C62FD72F6E01C40E6F
:10124000D51ECC15DD0571F06991D701ED91FC91AA
:101250000190F081E02DC7010995F3CF642F822F13
:101260000E94CC0AC801DF91CF911F910F91FF908E
:10127000EF90DF90CF900895CF93DF931F92CDB77B
:10128000DEB769832091C5012223D1F02091C601E8
:10129000203240F021E030E0FC013383228380E003
:1012A00090E015C08091C701E82FF0E0E853FE4FB1
:1012B000998190838F5F8093C7018093C60105C099
:1012C00061E0CE0101960E94CC0A81E090E00F908F
:1012D000DF91CF910895FC011382128288EE93E092
:1012E000A0E0B0E084839583A683B78381E191E099
:1012F0009183808308951092EA011092E90110927F
:10130000C7011092C6010C94100A81E08093C501B8
:101310006093E8011092C7011092C60108950F93DF
:10132000062F21E04091C60168EC71E08091E80150
:101330000E94760A1092C7011092C6011092C50150
:101340000F9108954F925F926F927F92AF92BF92EA
:10135000CF92EF92FF920F931F93CF93DF935C0195
:10136000F62ED42F28013901EE2021F10E948509A3
:10137000CE2DC43008F0C3E0C150C0F0D501ED91CE
:10138000FC91B8E0CB9FC0011124A301920104C0DD
:1013900056954795379527958A95D2F7CA01B90191
:1013A0000190F081E02DC5010995E6CF60E0C5010F
:1013B0000E948F094D2FD13208F040E22C2D6BEEA8
:1013C00071E08F2D0E942E0A1092EA018093E901AC
:1013D000DF91CF911F910F91FF90EF90CF90BF9031
:1013E000AF907F906F905F904F900895CF92EF9263
:1013F0000F931F93C22EE12C00E010E098010E9491
:10140000A2091F910F91EF90CF90089521E00C94C5
:10141000F60961E00C948F0989EB91E00C946B095B
:101420001092780281E0809376021092750261E05A
:1014300082E10E94F90F61E083E10E94F90FE9EB7C
:10144000F0E080818E7F808380818D7F808388E43F
:101450008093B80085E48093BC000895413208F081
:1014600043C0909178029111FCCF91E09093780263
:10147000209376022FEF20930B0210925002240F3C
:1014800020934F029093770290917702880F892BD7
:101490008093770280917502813061F41092750219
:1014A000809177028093BB008091BC0083FDF8CFD0
:1014B00085EC01C085EE8093BC008091780281307C
:1014C000E1F380915002841710F44091500221E51D
:1014D00032E0FB01D9018A2F821B841718F48D9109
:1014E0008193F9CF842F089580E008950F934132BE
:1014F00008F04AC0909178029111FCCF32E030930D
:101500007802009376023FEF30930B021092500264
:1015100040934F02FB0161E572E0DB013A2F361B7D
:10152000341718F431913D93F9CF1092770230912E
:101530007702880F832B8093770280917502813028
:1015400061F410927502809177028093BB008091C4
:10155000BC0083FDF8CF85EC01C085EE8093BC0014
:10156000222321F0809178028230D1F380910B0206
:101570008F3F79F080910B02803241F080910B0215
:10158000803331F094E005C091E003C092E001C0E7
:1015900093E0892F0F910895613298F42091780299
:1015A000243089F460932D02FC012FE232E0D9014E
:1015B0008A2F821B861718F481918D93F9CF80E0D2
:1015C000089581E0089582E0089585ED8093BC0040
:1015D0008091BC0084FDFCCF10927802089585ECC8
:1015E0008093BC001092780208951F920F920FB65C
:1015F0000F9211242F933F934F935F936F937F9399
:101600008F939F93AF93BF93EF93FF938091B90014
:10161000887F803609F49EC078F5883209F45DC071
:1016200090F4803109F456C038F4882309F4F5C0E9
:10163000883009F44FC0F5C0883109F44EC08032BB
:1016400009F45FC0EEC0803409F46AC058F48033F6
:1016500009F457C0883309F0E4C080930B020E945C
:10166000EF0ADFC0803509F44FC0883509F45DC04A
:10167000883409F0D6C0D3C0883909F4C4C0A8F4AE
:10168000883709F467C038F4883609F463C08037B6
:1016900009F460C0C6C0883809F4B5C0803909F4BF
:1016A0005FC0803809F0BDC05BC0803B09F483C0D7
:1016B00038F4803A09F466C0883A09F47CC0B1C0B5
:1016C000803C09F4A4C0883C09F4A1C0883B09F41B
:1016D00087C0A7C08091770210C09091500280917E
:1016E0004F02981770F5E091500281E08E0F8093C1
:1016F0005002F0E0EF5AFD4F80818093BB0085ECF3
:1017000083C080930B028BC0E091500281E08E0F6A
:10171000809350028091BB00F0E0EF5AFD4F808330
:101720009091500280914F026BC0E091500281E095
:101730008E0F809350028091BB00F0E0EF5AFD4F76
:1017400080838091760281116AC081E08093750266
:1017500084EA5EC083E08093780210920C02CFCFBF
:1017600080910C02803208F04EC0E0910C0281E0C2
:101770008E0F80930C028091BB00F0E0E35FFD4F81
:101780008083BDCF0E94EF0A80910C02803230F43A
:10179000E0910C02F0E0E35FFD4F108260910C02DB
:1017A00070E0E0917102F09172028DE092E0099593
:1017B00010920C0236C084E08093780210922E02C0
:1017C00010922D02E0917302F091740209958091BC
:1017D0002D02811105C081E080932D0210922F020D
:1017E000E0912E0281E08E0F80932E02F0E0E15D09
:1017F000FD4F80818093BB0090912E0280912D023D
:10180000981708F47CCF85E88093BC000AC085EC6B
:101810008093BC001092780204C010920B020E94C8
:10182000E50AFF91EF91BF91AF919F918F917F91C9
:101830006F915F914F913F912F910F900FBE0F903D
:101840001F901895FC01918D228D892F90E0805C6E
:101850009F4F821B91098F7399270895FC01918DE9
:10186000828D981731F0828DE80FF11D858D90E003
:1018700008958FEF9FEF0895FC01918D828D981749
:1018800061F0828DDF01A80FB11D5D968C91928D64
:101890009F5F9F73928F90E008958FEF9FEF089561
:1018A00085EA9DE0892B49F080E090E0892B29F0C2
:1018B0000E94A50D81110C9400000895FC01848DF7
:1018C000DF01A80FB11DA35ABF4F2C91848D90E06A
:1018D00001968F739927848FA689B7892C93A08945
:1018E000B1898C9180648C93938D848D981306C0FC
:1018F0000288F389E02D80818F7D80830895CF93C6
:10190000DF93EC01888D8823C9F0EA89FB89808107
:1019100085FD05C0A889B9898C9186FD0FC00FB6D9
:1019200007FCF5CF808185FFF2CFA889B9898C911A
:1019300085FFEDCFCE010E945E0CE7CFDF91CF9106
:101940000895EF92FF920F931F93CF93DF93EC01D3
:1019500081E0888F9B8D8C8D981305C0E889F9896B
:10196000808185FD24C0F62E0B8D10E00F5F1F4F88
:101970000F731127E02E8C8DE8120CC00FB607FCF8
:10198000FACFE889F989808185FFF5CFCE010E94E1
:101990005E0CF1CF8B8DFE01E80FF11DE35AFF4F76
:1019A000F0820B8FEA89FB898081806207C0EE8913
:1019B000FF896083E889F98980818064808381E080
:1019C00090E0DF91CF911F910F91FF90EF900895DC
:1019D000CF92DF92EF92FF921F93CF93DF93EC01B0
:1019E0006A017B01122FE889F98982E08083411521
:1019F000514E61057105B1F060E079E08DE390E052
:101A0000A70196010E94B912DA01C9010197A10943
:101A1000B109B695A79597958795AC01411580E1D9
:101A20005807A8F0E889F989108260E874E88EE127
:101A300090E0A70196010E94B912BA01A901415094
:101A40005109610971097695679557954795EC8518
:101A5000FD855083EE85FF854083188EEC89FD89D6
:101A60001083EA89FB89808180618083EA89FB8910
:101A7000808188608083EA89FB8980818068808397
:101A8000EA89FB8980818F7D8083DF91CF911F91CF
:101A9000FF90EF90DF90CF9008951F920F920FB6B6
:101AA0000F9211242F938F939F93EF93FF93E091C5
:101AB0008902F0918A028081E0918F02F091900278
:101AC00082FD12C09081809192028F5F8F7320916E
:101AD0009302821751F0E0919202F0E0E758FD4F37
:101AE000958F8093920201C08081FF91EF919F9129
:101AF0008F912F910F900FBE0F901F9018951F92EE
:101B00000F920FB60F9211242F933F934F935F9331
:101B10006F937F938F939F93AF93BF93EF93FF93B5
:101B200089E792E00E945E0CFF91EF91BF91AF9127
:101B30009F918F917F916F915F914F913F912F91E5
:101B40000F900FBE0F901F90189589E792E00E94AA
:101B5000220C21E0892B09F420E0822F0895E9E787
:101B6000F2E01382128288EE93E0A0E0B0E084837A
:101B70009583A683B78381E291E09183808385EC8E
:101B800090E09587848784EC90E09787868780EC47
:101B900090E0918B808B81EC90E0938B828B82EC38
:101BA00090E0958B848B86EC90E0978B868B118EE2
:101BB000128E138E148E089508950E94590F0E945C
:101BC000DC0D0E947801C0E5DCE00E94AE062097A3
:101BD000E1F30E94500CF9CFCF92DF92EF92FF9287
:101BE0000F931F93CF93DF936C017A018B01C0E0B9
:101BF000D0E0CE15DF0589F0D8016D918D01D601B9
:101C0000ED91FC910190F081E02DC6010995892BA1
:101C100011F47E0102C02196ECCFC701DF91CF9174
:101C20001F910F91FF90EF90DF90CF900895611575
:101C3000710579F0FB0101900020E9F73197AF01C0
:101C4000461B570BDC01ED91FC910280F381E02DE6
:101C5000099480E090E008950C94170E6DE271E015
:101C60000C94170E8F929F92AF92BF92CF92DF92F9
:101C7000EF92FF920F931F93CF93DF93CDB7DEB711
:101C8000A1970FB6F894DEBF0FBECDBF6C01142F25
:101C9000E52FCB01022F19A2223008F40AE07E01C1
:101CA00021E2E20EF11C802E912CA12CB12C612F8F
:101CB0007E2FA50194010E94B912029F10191124D0
:101CC00081E0E81AF1081A3014F4105D01C0195CC3
:101CD000F7011083122FE32FCA01232B242B252B6E
:101CE00031F7B701C6010E94170EA1960FB6F894FE
:101CF000DEBF0FBECDBFDF91CF911F910F91FF903F
:101D0000EF90DF90CF90BF90AF909F908F9008950D
:101D10002115310541F4DC01ED91FC910190F08138
:101D2000E02D642F09940C94320E0F931F93CF93E0
:101D3000DF93EC019A01AB0160E070E00E94880E35
:101D40008C01CE010E942E0E800F911FDF91CF914A
:101D50001F910F9108951F920F920FB60F921124A9
:101D60002F933F938F939F93AF93BF9380911703CC
:101D700090911803A0911903B0911A0330911603A2
:101D800023E0230F2D3720F40196A11DB11D05C0BE
:101D900026E8230F0296A11DB11D20931603809300
:101DA000170390931803A0931903B0931A0380911B
:101DB0001B0390911C03A0911D03B0911E0301967B
:101DC000A11DB11D80931B0390931C03A0931D03C1
:101DD000B0931E03BF91AF919F918F913F912F912F
:101DE0000F900FBE0F901F9018952FB7F894609129
:101DF0001703709118038091190390911A032FBF54
:101E000008953FB7F89480911B0390911C03A09113
:101E10001D03B0911E0326B5A89B05C02F3F19F0E6
:101E20000196A11DB11D3FBFBA2FA92F982F88275A
:101E3000820F911DA11DB11DBC01CD0142E0660FB5
:101E4000771F881F991F4A95D1F70895CF92DF9287
:101E5000EF92FF92CF93DF936B017C010E94010F01
:101E6000EB01C114D104E104F10489F00E94521085
:101E70000E94010F6C1B7D0B683E734090F381E064
:101E8000C81AD108E108F108C851DC4FEACFDF9148
:101E9000CF91FF90EF90DF90CF9008958230910521
:101EA00038F0880F991F880F991F05970197F1F750
:101EB0000895789484B5826084BD84B5816084BDC2
:101EC00085B5826085BD85B5816085BDEEE6F0E0B3
:101ED000808181608083E1E8F0E01082808182600F
:101EE0008083808181608083E0E8F0E08081816090
:101EF0008083E1EBF0E0808184608083E0EBF0E0C0
:101F0000808181608083EAE7F0E080818460808363
:101F1000808182608083808181608083808180680D
:101F200080831092C1000895833081F028F48130BD
:101F300099F08230A1F008958730A9F08830B9F087
:101F40008430D1F4809180008F7D03C08091800027
:101F50008F7780938000089584B58F7702C084B511
:101F60008F7D84BD08958091B0008F7703C08091EC
:101F7000B0008F7D8093B0000895CF93DF9390E001
:101F8000FC01E458FF4F2491FC01E057FF4F84917E
:101F9000882361F190E0880F991FFC01E854FF4FFE
:101FA000C591D491FC01E255FF4FA591B491611107
:101FB00009C09FB7F8948881209582238883EC918B
:101FC0002E230BC0623061F49FB7F8943881822FC2
:101FD000809583238883EC912E2B2C939FBF06C082
:101FE0008FB7F894E8812E2B28838FBFDF91CF9194
:101FF00008951F93CF93DF93282F30E0F901E8591C
:10200000FF4F8491F901E458FF4FD491F901E05753
:10201000FF4FC491CC23C9F0162F81110E94940F59
:10202000EC2FF0E0EE0FFF1FE255FF4FA591B491AA
:102030008FB7F894111105C09C91ED2FE095E9231D
:1020400002C0EC91ED2BEC938FBFDF91CF911F91EC
:102050000895CF93DF93282F30E0F901E859FF4F1F
:102060008491F901E458FF4FD491F901E057FF4FF3
:10207000C491CC2391F081110E94940FEC2FF0E0D9
:10208000EE0FFF1FEC55FF4FA591B491EC91ED239E
:1020900081E090E021F480E002C080E090E0DF91F8
:1020A000CF91089508955058BB27AA270E946B101E
:1020B0000C94E5110E94D71138F00E94DE1120F037
:1020C00039F49F3F19F426F40C94D4110EF4E095E2
:1020D000E7FB0C94CE11E92F0E94F61158F3BA17C2
:1020E000620773078407950720F079F4A6F50C942E
:1020F00018120EF4E0950B2EBA2FA02D0B01B9018A
:1021000090010C01CA01A0011124FF27591B99F06D
:10211000593F50F4503E68F11A16F040A22F232F79
:10212000342F4427585FF3CF469537952795A795C9
:10213000F0405395C9F77EF41F16BA0B620B730B70
:10214000840BBAF09150A1F0FF0FBB1F661F771FE1
:10215000881FC2F70EC0BA0F621F731F841F48F496
:10216000879577956795B795F7959E3F08F0B0CF1F
:102170009395880F08F09927EE0F97958795089506
:102180000E94AA1108F481E008950E94D9100C94CD
:10219000E5110E94DE1158F00E94D71140F029F499
:1021A0005F3F29F00C94CE1151110C9419120C942C
:1021B000D4110E94F61168F39923B1F3552391F3DA
:1021C000951B550BBB27AA2762177307840738F0A6
:1021D0009F5F5F4F220F331F441FAA1FA9F335D003
:1021E0000E2E3AF0E0E832D091505040E695001CB7
:1021F000CAF72BD0FE2F29D0660F771F881FBB1F71
:10220000261737074807AB07B0E809F0BB0B802D4E
:10221000BF01FF2793585F4F3AF09E3F510578F07A
:102220000C94CE110C9419125F3FE4F3983ED4F352
:10223000869577956795B795F7959F5FC9F7880F4E
:10224000911D9695879597F90895E1E0660F771FA0
:10225000881FBB1F621773078407BA0720F0621B31
:10226000730B840BBA0BEE1F88F7E09508950E945C
:102270003E116894B1110C94191208950E94FE1138
:1022800088F09F5798F0B92F9927B751B0F0E1F037
:10229000660F771F881F991F1AF0BA95C9F714C0E7
:1022A000B13091F00E941812B1E008950C94181208
:1022B000672F782F8827B85F39F0B93FCCF3869520
:1022C00077956795B395D9F73EF49095809570957D
:1022D00061957F4F8F4F9F4F0895E89409C097FBFA
:1022E0003EF490958095709561957F4F8F4F9F4FED
:1022F0009923A9F0F92F96E9BB279395F695879531
:1023000077956795B795F111F8CFFAF4BB0F11F4F3
:1023100060FF1BC06F5F7F4F8F4F9F4F16C088239A
:1023200011F096E911C0772321F09EE8872F762FD0
:1023300005C0662371F096E8862F70E060E02AF011
:102340009A95660F771F881FDAF7880F96958795FD
:1023500097F90895990F0008550FAA0BE0E8FEEFD2
:1023600016161706E807F907C0F012161306E40759
:10237000F50798F0621B730B840B950B39F40A2652
:1023800061F0232B242B252B21F408950A2609F430
:10239000A140A6958FEF811D811D089597F99F6734
:1023A00080E870E060E008959FEF80EC08950024DD
:1023B0000A941616170618060906089500240A94AA
:1023C00012161306140605060895092E0394000C30
:1023D00011F4882352F0BB0F40F4BF2B11F460FFBF
:1023E00004C06F5F7F4F8F4F9F4F089557FD9058E8
:1023F000440F551F59F05F3F71F04795880F97FBC9
:10240000991F61F09F3F79F0879508951216130682
:102410001406551FF2CF4695F1DF08C016161706B1
:102420001806991FF1CF86957105610508940895E6
:10243000E894BB2766277727CB0197F908950E9478
:10244000AA1108F48FEF08950E9437120C94E51139
:102450000E94D71138F00E94DE1120F0952311F070
:102460000C94CE110C94D41111240C9419120E94C6
:10247000F61170F3959FC1F3950F50E0551F629FC1
:10248000F001729FBB27F00DB11D639FAA27F00DCD
:10249000B11DAA1F649F6627B00DA11D661F829FF4
:1024A0002227B00DA11D621F739FB00DA11D621FD9
:1024B000839FA00D611D221F749F3327A00D611DF6
:1024C000231F849F600D211D822F762F6A2F1124D8
:1024D0009F5750409AF0F1F088234AF0EE0FFF1F0B
:1024E000BB1F661F771F881F91505040A9F79E3F62
:1024F000510580F00C94CE110C9419125F3FE4F357
:10250000983ED4F3869577956795B795F795E795B7
:102510009F5FC1F7FE2B880F911D9695879597F9C0
:102520000895AA1BBB1B51E107C0AA1FBB1FA6171A
:10253000B70710F0A61BB70B881F991F5A95A9F76C
:1025400080959095BC01CD01089597FB072E16F458
:10255000009407D077FD09D00E94911207FC05D0A6
:102560003EF4909581959F4F0895709561957F4FAA
:102570000895A1E21A2EAA1BBB1BFD010DC0AA1FC4
:10258000BB1FEE1FFF1FA217B307E407F50720F0DC
:10259000A21BB30BE40BF50B661F771F881F991F57
:1025A0001A9469F760957095809590959B01AC01A0
:1025B000BD01CF010895EE0FFF1F0590F491E02DAE
:1025C0000994F999FECF92BD81BDF89A992780B5FB
:1025D0000895262FF999FECF1FBA92BD81BD20BD67
:1025E0000FB6F894FA9AF99A0FBE01960895F894E6
:0225F000FFCF1B
:1025F20001010152656164206661696C000000009E
:10260200003C090C09E008E808FC080B090000007E
:1026120000A10CEC0D220C3C0C2E0C7F0C0D0A00C0
:0E2622006E616E00696E66006F7666002E00B7
:00000001FF
