:100000000C9464000C948C000C948C000C948C0068
:100010000C948C000C948C000C948C000C948C0030
:100020000C948C000C948C000C948C000C94A2000A
:100030000C948C000C948C000C948C000C948C0010
:100040000C942D0E0C948C000C944C0D0C947E0D85
:100050000C948C000C948C000C948C000C948C00F0
:100060000C94F40A0C948C000000000800020100BB
:100070000003040700000000000000000102040863
:100080001020408001020408102001020408102002
:10009000040404040404040402020202020203032E
:1000A00003030303000000002300260029000000D2
:1000B0000000250028002B0000000000240027007D
:1000C0002A0030020B0AAE0D11241FBECFEFD8E07C
:1000D000DEBFCDBF11E0A0E0B1E0E6EFF4E202C088
:1000E00005900D92AE32B107D9F723E0AEE2B1E050
:1000F00001C01D92AD30B207E1F710E0C4E6D0E0D8
:1001000004C02197FE010E945D12C136D107C9F7D4
:100110000E94DC0D0C9479120C9400001092800067
:1001200025E02093810029E03DE33093890020936E
:10013000880022E020936F0078949093A40180932C
:10014000A30108951F920F920FB60F9211242F93BF
:100150003F938F939F932091A5013091A6018091A9
:10016000A3019091A40101972817390728F0109254
:10017000A6011092A50109C08091A5019091A60148
:1001800001969093A6018093A5011092850010928C
:1001900084009F918F913F912F910F900FBE0F90F0
:1001A0001F9018954F925F927F928F929F92AF927D
:1001B000BF92CF92DF92EF92FF920F931F93CF9354
:1001C000DF93FC017A0140E050E000E010E0412CB8
:1001D000512C20E030E0712C4B018E0C9F1C5C01F7
:1001E00088E0A80EB11C8091A5019091A601C09055
:1001F000A501D090A601C814D90408F05EC08617E6
:10020000970708F45AC0772089F083B1807190E095
:1002100082179307B9F0C080D180D6012D913C910F
:1002200011972F5F3F4F2D933C930CC0CF01DC0102
:10023000CD90DD90CD01D6011D921C928A159B05B3
:10024000B1F7E3CF29B1207130E02415350559F01D
:10025000C280D380D6014D905C90BFEF4B1A5B0AF1
:10026000D6014D925C92A3B1A0724A2E512C401639
:10027000510651F0C480D580D6010D911C91119783
:100280000F5F1F4F0D931C9316B11170C12FB0E07B
:10029000DB2FC417D50751F006811781D8014D9186
:1002A0005C9111974F5F5F4F4D935C9377247394EC
:1002B000AE01820129019C0196CFB1E07B1213C0EF
:1002C0009F01285F3F4FC191D1918881998197FD0E
:1002D000019695958795B7010E94131279836883DB
:1002E000E217F30781F7DF91CF911F910F91FF90F4
:1002F000EF90DF90CF90BF90AF909F908F907F90C6
:100300005F904F90089526E040E052EC61E070E08D
:1003100087E692E00E94E70C87EA91E00E947A0962
:1003200062E086E00E943F0F62E087E00E943F0F9C
:1003300062E088E00E943F0F81E090E00E9463123B
:1003400090E090934D0180934C0182E090E00E94F8
:10035000631290E0909349018093480183E090E01C
:100360000E94631290E0909345018093440184E0E1
:1003700090E00E94631290E09093410180934001CD
:1003800084E090E00E948E0080E090E020E030E089
:10039000F901E85CFE4FA901405D5E4F5183408347
:1003A00001962E5F3F4F8430910591F790932F0176
:1003B00080932E010895CF92DF92EF92FF92CF9318
:1003C0006B017C01CA01B901C9B1C6FBCC27C0F9D8
:1003D000C093020129B1221F2227221F209301016D
:1003E00030910001C31799F02C1731F020E030E074
:1003F000A9010E94D60F07C09B01AC0160E070E02C
:10040000CB010E94D50F21E02093860105C01092F8
:10041000860160E070E0CB01C09300019B01AC015C
:10042000C701B6010E94D60FCF91FF90EF90DF90E9
:10043000CF90089520918501422F50E084179507B1
:1004400058F4662321F060E085E991E003C060E0A4
:1004500087E891E00C945E082F5F20938501089552
:1004600026E046E16FE085E991E00E94B30726E0CF
:1004700046E160E187E891E00E94B30762E070E046
:1004800086E591E00C942C071F93CF93DF931F9286
:10049000CDB7DEB7633609F463C058F5673009F4A9
:1004A00055C090F4633009F44DC038F4613009F45C
:1004B00061C008F045C01FE36EC0653009F464C038
:1004C00008F042C016E667C06A3209F463C048F417
:1004D000693009F43FC0E0F1603209F05CC010E01F
:1004E0005AC06136C9F1D0F56D3209F054C010E43C
:1004F00052C06C3609F440C080F46736B9F128F474
:10050000653681F188F51EE546C0693699F180F1BE
:100510006A3609F040C01EE03EC0623799F138F4F7
:10052000603761F168F56E36B1F514E534C06437B3
:1005300069F150F1653761F1693769F51EE62BC045
:100540001BE529C01FE427C01DE725C017E023C015
:100550001FE721C01FE61FC017E71DC01CE71BC017
:1005600019E319C019E717C011E715C01DE313C03F
:1005700016E711C016E00FC018E30DC013E70BC05B
:1005800017E609C010E507C01DE605C018E703C05F
:100590001EE301C013E6682F87EA91E049830E94B9
:1005A0008409612F87EA91E00E943B094981612F0C
:1005B0004111606887EA91E00E943B0987EA91E077
:1005C0000F90DF91CF911F910C94080A40E060E2F8
:1005D00088E30E94440240E060E289E30E94440212
:1005E00040E060E28AE30E94440240E060E28BE384
:1005F0000C9444028F929F92AF92BF92CF92DF925F
:10060000EF92FF92CF93DF936B017C010E94B910B0
:10061000EB01072E000C880B990B0E94F1109B0137
:10062000AC01C701B6010E94D50F20E030E040E2E6
:1006300051E40E94A6114B015C0120E030E040E251
:1006400051ECC701B6010E94421018167CF140E03F
:100650006DE288E30E94440220E030E040E251E491
:10066000C701B6010E9447106B017C0120E030E019
:10067000A9010E94A11118161CF4C701B60103C0FC
:10068000C701B60190580E94C01040E089E30E9463
:100690004402CE016AE070E00E94271297FF03C077
:1006A00091958195910941E0682F25C020E030E0C7
:1006B000A901C701B6010E94421087FF30C040E087
:1006C0006DE288E30E94440240E060E089E30E941A
:1006D000440220E030E0A901C701B6010E94A11147
:1006E00018161CF4C701B60103C0C701B601905823
:1006F0000E94C01041E08AE30E94440220E030E002
:10070000A901C501B4010E94A11118160CF448C03A
:10071000C501B40190580E94C01040E054C020E0D0
:1007200030E040E251E4C701B6010E94421087FF69
:1007300010C040E060E088E30E94440240E060E0D6
:1007400089E30E944402C701B6010E94C01041E043
:1007500024C020E030E040E251E4C701B6010E942D
:10076000A11140E087FD1FC060E088E30E944402C1
:1007700020E030E040E251E4C701B6010E9447109A
:100780000E94C01040E089E30E944402CE016AE06A
:1007900070E00E94271241E0682F8AE30E94440221
:1007A000C501B401B8CF65E688E30E94440240E089
:1007B00062E789E30E94440240E062E78AE30E9424
:1007C000440240E060E28BE3DF91CF91FF90EF9035
:1007D000DF90CF90BF90AF909F908F900C94440289
:1007E000EF92FF920F931F93CF93DF93EC018A3028
:1007F000910568F440E060E088E30E94440240E034
:1008000060E089E30E94440240E060E014C0843666
:100810009105B8F440E060E088E30E94440240E0C3
:1008200060E089E30E944402CE016AE070E00E9429
:100830001312C82F40E08AE30E94440240E06C2F6C
:1008400042C0C83E83E0D80798F440E060E088E307
:100850000E944402CE0164E670E00E9413127C0103
:1008600040E089E30E9444020AE010E0C7011EC094
:10087000C03187E2D80780F5CE0168EE73E00E94B0
:1008800013127C0140E088E30E94440204E610E079
:10089000C701B8010E94131240E089E30E9444029C
:1008A000CE01B8010E9413120AE010E0B8010E94C4
:1008B000131240E08AE30E944402CE01B8010E9474
:1008C000131240E0682F8BE3DF91CF911F910F91BE
:1008D000FF90EF900C944402DF91CF911F910F9104
:1008E000FF90EF900895CF92DF92EF92FF92CF9317
:1008F0006B017C01C42F42E350E060E070E086E5CC
:1009000091E00E9446078823A9F0C701B601CC23D5
:1009100039F0CF91FF90EF90DF90CF900C94FA02D6
:100920000E94B910CB01CF91FF90EF90DF90CF9054
:100930000C94F003CF91FF90EF90DF90CF900C9448
:10094000E6024F925F926F927F928F929F92AF9248
:10095000BF92CF92DF92EF92FF920F93CF936B01F2
:100960007C0149015A0180918601882369F081E068
:10097000809355010E94770E60935101709352014C
:100980008093530190935401C0915501CC2391F170
:100990000E94770E40905101509052016090530197
:1009A00070905401DC01CB0184199509A609B7099F
:1009B0008D3B9240A105B10598F0C701B601002317
:1009C00019F00E94FA0205C00E94B910CB010E94E2
:1009D000F003C0915001CC23C9F01092500116C011
:1009E000402FC501B4010E94730481E0809350013F
:1009F000C0E00CC0C701B601002319F00E94FA0242
:100A000005C00E94B910CB010E94F0038C2FCF913A
:100A10000F91FF90EF90DF90CF90BF90AF909F909D
:100A20008F907F906F905F904F900895CF93C62FD7
:100A3000682F87EA91E00E94840960E087EA91E0EC
:100A40000E943B096C2F87EA91E00E943B0987EAEC
:100A500091E0CF910C94080A0F93CF93DF9300D0CD
:100A600000D0CDB7DEB760914C0170914D0180E0B0
:100A700090E00E94EF1020E030E040E85FE30E9449
:100A8000DB010E94C0106F3F710521F018F08FEF5D
:100A900090E00AC06115710529F070934D016093D3
:100AA0004C0106C081E090E090934D0180934C0191
:100AB00060914C0170914D0180E090E00E94EF1038
:100AC0009B01AC0180914E0190914F01BC0180E0EF
:100AD00090E029833A834B835C830E94EF1000E00F
:100AE00029813A814B815C810E94A104882331F0E5
:100AF00060914C0181E090E00E946B1260914C018A
:100B000070914D018CE20F900F900F900F90DF913C
:100B1000CF910F910C9416050F93CF93DF9300D0D4
:100B200000D0CDB7DEB7609148017091490180E0F7
:100B300090E00E94EF1020E030E040E85FE30E9488
:100B4000DB010E94C0106F3F710521F018F08FEF9C
:100B500090E00AC06115710529F070934901609316
:100B6000480106C081E090E09093490180934801DC
:100B7000609148017091490180E090E00E94EF107F
:100B80009B01AC0180914A0190914B01BC0180E036
:100B900090E029833A834B835C830E94EF1000E04E
:100BA00029813A814B815C810E94A104882331F024
:100BB0006091480182E090E00E946B1260914801D0
:100BC000709149018DE20F900F900F900F90DF917F
:100BD000CF910F910C9416050F93CF93DF9300D014
:100BE00000D0CDB7DEB7609144017091450180E03F
:100BF00090E00E94EF1020E030E040E85FE30E94C8
:100C0000DB010E94C0106F3F710521F018F08FEFDB
:100C100090E00AC06115710529F070934501609359
:100C2000440106C081E090E0909345018093440127
:100C3000609144017091450180E090E00E94EF10C6
:100C40009B01AC018091460190914701BC0180E07D
:100C500090E029833A834B835C830E94EF1000E08D
:100C600029813A814B815C810E94A104882331F063
:100C70006091440183E090E00E946B126091440116
:100C8000709145018EE20F900F900F900F90DF91C1
:100C9000CF910F910C9416050F93CF93DF9300D053
:100CA00000D0CDB7DEB7609140017091410180E086
:100CB00090E00E94EF1020E030E040E85FE30E9407
:100CC000DB010E94C0106F3F710521F018F08FEF1B
:100CD00090E00AC06115710529F07093410160939D
:100CE000400106C081E090E0909341018093400173
:100CF000609140017091410180E090E00E94EF100E
:100D00009B01AC018091420190914301BC0180E0C4
:100D100090E029833A834B835C830E94EF1000E0CC
:100D200029813A814B815C810E94A104882331F0A2
:100D30006091400184E090E00E946B12609140015C
:100D4000709141018FE20F900F900F900F90DF9103
:100D5000CF910F910C941605CF9348E050E0BC0161
:100D600087EA91E00E94050A87EA91E00E94DF0885
:100D7000892B31F087EA91E00E94E708C82FF4CF71
:100D80008C2FCF9108958CE390E00E94AC068F7079
:100D9000089541E050E062E070E088E391E00E9455
:100DA000D200E0913A01F0913B01808191819093D2
:100DB0004F0180934E01E0913E01F0913F0180810F
:100DC000918190934B0180934A01E0913801F09119
:100DD0003901808191819093470180934601E09190
:100DE0003C01F0913D01808191819093430180937A
:100DF00042010E94C3068B3089F030F4882381F0D1
:100E00008730A9F40C944C068E3031F08F3019F1F4
:100E10008D3069F40C948C050C942C050C94EC0525
:100E200060E088EC90E00E941A020C94FA0240E024
:100E300060E08BE30E94440240E06EE68AE30E9499
:100E4000440240E060E289E30E94440240E060E244
:100E500088E30C9444020895FC01108611861286E2
:100E6000138615A214A216A217A210A611A612A6E6
:100E700013A614A615A621E026A7CB01770FAA0B6F
:100E8000BB0B848B958BA68BB78B08958F929F920B
:100E9000AF92BF92CF92DF92EF92FF920F931F9388
:100EA000CF93DF93EC016A017B010E94770E0C89DE
:100EB0001D892E893F890230110521053105D1F0A8
:100EC00040F4013011052105310509F50E94830E1A
:100ED0001EC0033011052105310579F004301105DC
:100EE00021053105A1F40E94770E20E63AEE40E09C
:100EF00050E009C00E94770E0AC00E94770E28EECB
:100F000033E040E050E00E943B12CA01B901CC82BC
:100F1000DD82EE82FF820C851D852E853F854B018B
:100F20005C01801A910AA20AB30A8C149D04AE04D3
:100F3000BF0458F06C877D878E879F878C8D8111C9
:100F400003C081E08C8F01C01C8E8C8DDF91CF910E
:100F50001F910F91FF90EF90DF90CF90BF90AF90D7
:100F60009F908F900895FC0166834783208781E0DE
:100F700085870895CF92DF92FF920F931F93CF93AF
:100F8000DF93EC0161E08E810E947B0F0E94770E5F
:100F900009851A852B853C856017710782079307A1
:100FA00020F419861A861B861C862D85211111C0F6
:100FB00009851A852B853C85DC01CB01801B910BB3
:100FC000A20BB30B803D9740A105B10510F481E061
:100FD0006DC01D860E94770E69877A878B879C87F4
:100FE0001C821B821A821982188261E08E810E9403
:100FF0003F0F60E08E810E947B0F64E170E080E033
:1010000090E00E94A80EF89461E08E810E947B0F10
:1010100088E290E00E94D00E60E08E810E943F0F37
:1010200010E0F12C81E000E0C82ED12C8E810E94CE
:10103000AB0F8C159D0539F40F5F81E090E00E94A5
:10104000D00E0F3F99F78E810E94AB0F0F3FB9F082
:10105000143090F010FD10C09F2D969596959695A2
:10106000FE01E90FF11D9081990F908328852017CB
:1010700010F491609083F3941F5F1535A1F6789476
:1010800087E28F1590F42C8130E04881898190E0CF
:10109000840F911D4A81840F911D4B81840F911DF6
:1010A00099272817390709F492CF80E0DF91CF9173
:1010B0001F910F91FF90DF90CF900895CF92DF9214
:1010C000EF92FF920F931F93CF93DF93EC01162FB4
:1010D0000E94BA07882309F455C08F818B3031F004
:1010E00008F450C08551823098F04CC06A8170E09D
:1010F00080E090E00E94EF10112309F44EC020E040
:1011000030E040E151E46B017C01C701B6012BC026
:101110000A81602F6F7770E080E090E00E94F1100C
:1011200020E030E040E853E40E94A6116B017C010E
:101130008B81682F70E080E090E00E94F1109B01AD
:10114000AC01C701B6010E94D60F20E030E040E2BA
:1011500051E40E94471007FD90581123F1F020E060
:1011600030E040E151E40E94A61120E030E040EA86
:1011700050E40E94471020E030E040E052E40E943A
:10118000D60F0BC063E071E087E692E00E942B0E61
:1011900040E030E020EC9FE703C0462F372F282F98
:1011A000C42ED32EE22EF92EC701B601DF91CF91C6
:1011B0001F910F91FF90EF90DF90CF900895809155
:1011C000D70190E02091D801821B91090895909158
:1011D000D8018091D701981750F4E92FF0E0E75239
:1011E000FE4F208130E09F5F9093D80102C02FEF27
:1011F0003FEFC9010895E091D8018091D701E81728
:1012000030F4F0E0E752FE4F808190E008958FEFD8
:101210009FEF08950895CF92DF92EF92FF920F9380
:101220001F93CF93DF937C01262F972F8A01809104
:10123000B301882391F0C62FD72F6E01C40ED51E9F
:10124000CC15DD0571F06991D701ED91FC9101900C
:10125000F081E02DC7010995F3CF642F822F0E9402
:10126000CB0AC801DF91CF911F910F91FF90EF90B2
:10127000DF90CF900895CF93DF931F92CDB7DEB765
:1012800069832091B3012223D1F02091B40120324F
:1012900040F021E030E0FC013383228380E090E0E5
:1012A00015C08091B501E82FF0E0EA54FE4F998116
:1012B00090838F5F8093B5018093B40105C061E096
:1012C000CE0101960E94CB0A81E090E00F90DF9161
:1012D000CF910895FC011382128288EE93E0A0E082
:1012E000B0E084839583A683B78381E191E0918305
:1012F000808308951092D8011092D7011092B50101
:101300001092B4010C940F0A81E08093B3016093B2
:10131000D6011092B5011092B40108950F93062FD3
:1013200021E04091B40166EB71E08091D6010E940A
:10133000750A1092B5011092B4011092B3010F9189
:1013400008954F925F926F927F92AF92BF92CF9229
:10135000EF92FF920F931F93CF93DF935C01F62ED2
:10136000D42F28013901EE2021F10E948409CE2DCD
:10137000C43008F0C3E0C150C0F0D501ED91FC913C
:10138000B8E0CB9FC0011124A301920104C056957F
:101390004795379527958A95D2F7CA01B9010190EB
:1013A000F081E02DC5010995E6CF60E0C5010E94FE
:1013B0008E094D2FD13208F040E22C2D69ED71E0FD
:1013C0008F2D0E942D0A1092D8018093D701DF91B2
:1013D000CF911F910F91FF90EF90CF90BF90AF9062
:1013E0007F906F905F904F900895CF92EF920F9300
:1013F0001F93C22EE12C00E010E098010E94A10989
:101400001F910F91EF90CF90089521E00C94F50972
:1014100061E00C948E0987EA91E00C946A091092BD
:10142000660281E0809364021092630261E082E1CF
:101430000E947B0F61E083E10E947B0FE9EBF0E00B
:1014400080818E7F808380818D7F808388E48093FC
:10145000B80085E48093BC000895413208F043C091
:10146000909166029111FCCF91E0909366022093D7
:1014700064022FEF2093F90110923E02240F209373
:101480003D029093650290916502880F892B8093AD
:10149000650280916302813061F410926302809151
:1014A00065028093BB008091BC0083FDF8CF85EC82
:1014B00001C085EE8093BC00809166028130E1F32B
:1014C00080913E02841710F440913E022FE332E0F7
:1014D000FB01D9018A2F821B841718F48D91819307
:1014E000F9CF842F089580E008950F93413208F0DA
:1014F0004AC0909166029111FCCF32E030936602AF
:10150000009364023FEF3093F90110923E02409342
:101510003D02FB016FE372E0DB013A2F361B34170B
:1015200018F431913D93F9CF109265023091650224
:10153000880F832B8093650280916302813061F470
:1015400010926302809165028093BB008091BC0081
:1015500083FDF8CF85EC01C085EE8093BC0022238B
:1015600021F0809166028230D1F38091F9018F3FA2
:1015700079F08091F901803241F08091F901803356
:1015800031F094E005C091E003C092E001C093E027
:10159000892F0F910895613298F4209166022430CA
:1015A00089F460931B02FC012DE132E0D9018A2FFE
:1015B000821B861718F481918D93F9CF80E00895EE
:1015C00081E0089582E0089585ED8093BC008091CC
:1015D000BC0084FDFCCF10926602089585EC8093D8
:1015E000BC001092660208951F920F920FB60F92E0
:1015F00011242F933F934F935F936F937F938F9318
:101600009F93AF93BF93EF93FF938091B900887F2F
:10161000803609F49EC078F5883209F45DC090F4F4
:10162000803109F456C038F4882309F4F5C08830B5
:1016300009F44FC0F5C0883109F44EC0803209F476
:101640005FC0EEC0803409F46AC058F4803309F4F6
:1016500057C0883309F0E4C08093F9010E94EE0A74
:10166000DFC0803509F44FC0883509F45DC0883487
:1016700009F0D6C0D3C0883909F4C4C0A8F48837AB
:1016800009F467C038F4883609F463C0803709F478
:1016900060C0C6C0883809F4B5C0803909F45FC09D
:1016A000803809F0BDC05BC0803B09F483C038F4CA
:1016B000803A09F466C0883A09F47CC0B1C0803C25
:1016C00009F4A4C0883C09F4A1C0883B09F487C090
:1016D000A7C08091650210C090913E0280913D02AA
:1016E000981770F5E0913E0281E08E0F80933E02E4
:1016F000F0E0E15CFD4F80818093BB0085EC83C00E
:101700008093F9018BC0E0913E0281E08E0F8093BF
:101710003E028091BB00F0E0E15CFD4F8083909140
:101720003E0280913D026BC0E0913E0281E08E0F4F
:1017300080933E028091BB00F0E0E15CFD4F80832E
:101740008091640281116AC081E08093630284EA1F
:101750005EC083E0809366021092FA01CFCF809141
:10176000FA01803208F04EC0E091FA0181E08E0F5C
:101770008093FA018091BB00F0E0E550FE4F80833A
:10178000BDCF0E94EE0A8091FA01803230F4E091E0
:10179000FA01F0E0E550FE4F10826091FA0170E02E
:1017A000E0915F02F09160028BEF91E00995109259
:1017B000FA0136C084E08093660210921C021092F7
:1017C0001B02E0916102F0916202099580911B0277
:1017D000811105C081E080931B0210921D02E091EF
:1017E0001C0281E08E0F80931C02F0E0E35EFD4F4F
:1017F00080818093BB0090911C0280911B029817FE
:1018000008F47CCF85E88093BC000AC085EC809307
:10181000BC001092660204C01092F9010E94E40A12
:10182000FF91EF91BF91AF919F918F917F916F91B8
:101830005F914F913F912F910F900FBE0F901F908E
:101840001895FC01918D228D892F90E0805C9F4F2F
:10185000821B91098F7399270895FC01918D828DC8
:10186000981731F0828DE80FF11D858D90E0089575
:101870008FEF9FEF0895FC01918D828D981761F095
:10188000828DDF01A80FB11D5D968C91928D9F5FB7
:101890009F73928F90E008958FEF9FEF089584EAF1
:1018A0009DE0892B49F080E090E0892B29F00E948F
:1018B000A40D81110C9400000895FC01848DDF01BA
:1018C000A80FB11DA35ABF4F2C91848D90E00196B3
:1018D0008F739927848FA689B7892C93A089B189A2
:1018E0008C9180648C93938D848D981306C00288AC
:1018F000F389E02D80818F7D80830895CF93DF93DE
:10190000EC01888D8823C9F0EA89FB89808185FDF7
:1019100005C0A889B9898C9186FD0FC00FB607FC58
:10192000F5CF808185FFF2CFA889B9898C9185FF99
:10193000EDCFCE010E945D0CE7CFDF91CF910895EE
:10194000EF92FF920F931F93CF93DF93EC0181E00F
:10195000888F9B8D8C8D981305C0E889F9898081CB
:1019600085FD24C0F62E0B8D10E00F5F1F4F0F7307
:101970001127E02E8C8DE8120CC00FB607FCFACFB1
:10198000E889F989808185FFF5CFCE010E945D0C41
:10199000F1CF8B8DFE01E80FF11DE35AFF4FF0826E
:1019A0000B8FEA89FB898081806207C0EE89FF89FD
:1019B0006083E889F98980818064808381E090E098
:1019C000DF91CF911F910F91FF90EF900895CF92EB
:1019D000DF92EF92FF921F93CF93DF93EC016A01A6
:1019E0007B01122FE889F98982E080834115514EED
:1019F00061057105B1F060E079E08DE390E0A70149
:101A000096010E943B12DA01C9010197A109B109AF
:101A1000B695A79597958795AC01411580E1580734
:101A2000A8F0E889F989108260E874E88EE190E016
:101A3000A70196010E943B12BA01A9014150510928
:101A4000610971097695679557954795EC85FD85F0
:101A50005083EE85FF854083188EEC89FD891083C5
:101A6000EA89FB89808180618083EA89FB898081A2
:101A700088608083EA89FB89808180688083EA8925
:101A8000FB8980818F7D8083DF91CF911F91FF90B3
:101A9000EF90DF90CF9008951F920F920FB60F92A4
:101AA00011242F938F939F93EF93FF93E0917702ED
:101AB000F09178028081E0917D02F0917E0282FDBA
:101AC00012C09081809180028F5F8F73209181027C
:101AD000821751F0E0918002F0E0E959FD4F958FB7
:101AE0008093800201C08081FF91EF919F918F913F
:101AF0002F910F900FBE0F901F9018951F920F926D
:101B00000FB60F9211242F933F934F935F936F93D0
:101B10007F938F939F93AF93BF93EF93FF9387E64A
:101B200092E00E945D0CFF91EF91BF91AF919F9168
:101B30008F917F916F915F914F913F912F910F9076
:101B40000FBE0F901F90189587E692E00E94210C1F
:101B500021E0892B09F420E0822F0895E7E6F2E0E6
:101B60001382128288EE93E0A0E0B0E08483958334
:101B7000A683B78381E291E09183808385EC90E036
:101B80009587848784EC90E09787868780EC90E047
:101B9000918B808B81EC90E0938B828B82EC90E038
:101BA000958B848B86EC90E0978B868B118E128EB2
:101BB000138E148E089508950E94DB0E0E94DB0D93
:101BC0000E948301CFE4DCE00E94C9062097E1F384
:101BD0000E944F0CF9CFCF92DF92EF92FF920F93BA
:101BE0001F93CF93DF936C017A018B01C0E0D0E0AB
:101BF000CE15DF0589F0D8016D918D01D601ED91EB
:101C0000FC910190F081E02DC6010995892B11F41A
:101C10007E0102C02196ECCFC701DF91CF911F91C9
:101C20000F91FF90EF90DF90CF90089561157105AF
:101C300079F0FB0101900020E9F73197AF01461BD5
:101C4000570BDC01ED91FC910280F381E02D0994AA
:101C500080E090E008950C94160E1F920F920FB63C
:101C60000F9211242F933F938F939F93AF93BF9322
:101C70008091050390910603A0910703B09108039A
:101C80003091040323E0230F2D3720F40196A11D8A
:101C9000B11D05C026E8230F0296A11DB11D20939A
:101CA00004038093050390930603A0930703B09366
:101CB00008038091090390910A03A0910B03B0914E
:101CC0000C030196A11DB11D8093090390930A0393
:101CD000A0930B03B0930C03BF91AF919F918F9191
:101CE0003F912F910F900FBE0F901F9018952FB717
:101CF000F894609105037091060380910703909119
:101D000008032FBF08953FB7F8948091090390917D
:101D10000A03A0910B03B0910C0326B5A89B05C044
:101D20002F3F19F00196A11DB11D3FBFBA2FA92F5A
:101D3000982F8827820F911DA11DB11DBC01CD01D7
:101D400042E0660F771F881F991F4A95D1F70895C3
:101D5000CF92DF92EF92FF92CF93DF936B017C01E2
:101D60000E94830EEB01C114D104E104F10489F057
:101D70000E94D40F0E94830E6C1B7D0B683E734043
:101D800090F381E0C81AD108E108F108C851DC4F8E
:101D9000EACFDF91CF91FF90EF90DF90CF90089541
:101DA0008230910538F0880F991F880F991F059789
:101DB0000197F1F70895789484B5826084BD84B565
:101DC000816084BD85B5826085BD85B5816085BD36
:101DD000EEE6F0E0808181608083E1E8F0E010824F
:101DE000808182608083808181608083E0E8F0E090
:101DF000808181608083E1EBF0E08081846080837A
:101E0000E0EBF0E0808181608083EAE7F0E08081B0
:101E10008460808380818260808380818160808310
:101E20008081806880831092C1000895833081F0A2
:101E300028F4813099F08230A1F008958730A9F01C
:101E40008830B9F08430D1F4809180008F7D03C058
:101E5000809180008F7780938000089584B58F777C
:101E600002C084B58F7D84BD08958091B0008F77C6
:101E700003C08091B0008F7D8093B0000895CF9310
:101E8000DF9390E0FC01E458FF4F2491FC01E05700
:101E9000FF4F8491882361F190E0880F991FFC0126
:101EA000E854FF4FC591D491FC01E255FF4FA59135
:101EB000B491611109C09FB7F8948881209582235D
:101EC0008883EC912E230BC0623061F49FB7F894A5
:101ED0003881822F809583238883EC912E2B2C933D
:101EE0009FBF06C08FB7F894E8812E2B28838FBF41
:101EF000DF91CF9108951F93CF93DF93282F30E088
:101F0000F901E859FF4F8491F901E458FF4FD4914A
:101F1000F901E057FF4FC491CC23C9F0162F81116E
:101F20000E94160FEC2FF0E0EE0FFF1FE255FF4F5F
:101F3000A591B4918FB7F894111105C09C91ED2F24
:101F4000E095E92302C0EC91ED2BEC938FBFDF917C
:101F5000CF911F910895CF93DF93282F30E0F9019F
:101F6000E859FF4F8491F901E458FF4FD491F901EA
:101F7000E057FF4FC491CC2391F081110E94160FBE
:101F8000EC2FF0E0EE0FFF1FEC55FF4FA591B49141
:101F9000EC91ED2381E090E021F480E002C080E04C
:101FA00090E0DF91CF91089508955058BB27AA275C
:101FB0000E94ED0F0C9467110E94591138F00E9495
:101FC000601120F039F49F3F19F426F40C94561157
:101FD0000EF4E095E7FB0C945011E92F0E94781164
:101FE00058F3BA17620773078407950720F079F44E
:101FF000A6F50C949A110EF4E0950B2EBA2FA02D95
:102000000B01B90190010C01CA01A0011124FF27A5
:10201000591B99F0593F50F4503E68F11A16F040A0
:10202000A22F232F342F4427585FF3CF469537959F
:102030002795A795F0405395C9F77EF41F16BA0B64
:10204000620B730B840BBAF09150A1F0FF0FBB1F12
:10205000661F771F881FC2F70EC0BA0F621F731F5B
:10206000841F48F4879577956795B795F7959E3FB8
:1020700008F0B0CF9395880F08F09927EE0F979549
:10208000879508950E942C1108F481E008950E941C
:102090005B100C9467110E94601158F00E94591156
:1020A00040F029F45F3F29F00C94501151110C9429
:1020B0009B110C9456110E94781168F39923B1F387
:1020C000552391F3951B550BBB27AA27621773075E
:1020D000840738F09F5F5F4F220F331F441FAA1FF2
:1020E000A9F335D00E2E3AF0E0E832D091505040AE
:1020F000E695001CCAF72BD0FE2F29D0660F771F5C
:10210000881FBB1F261737074807AB07B0E809F041
:10211000BB0B802DBF01FF2793585F4F3AF09E3FC6
:10212000510578F00C9450110C949B115F3FE4F32F
:10213000983ED4F3869577956795B795F7959F5F09
:10214000C9F7880F911D9695879597F90895E1E055
:10215000660F771F881FBB1F621773078407BA07B4
:1021600020F0621B730B840BBA0BEE1F88F7E0950F
:1021700008950E94C0106894B1110C949B110895A9
:102180000E94801188F09F5798F0B92F9927B75176
:10219000B0F0E1F0660F771F881F991F1AF0BA950B
:1021A000C9F714C0B13091F00E949A11B1E00895BE
:1021B0000C949A11672F782F8827B85F39F0B93FB0
:1021C000CCF3869577956795B395D9F73EF49095BE
:1021D0008095709561957F4F8F4F9F4F0895E8943C
:1021E00009C097FB3EF490958095709561957F4F5F
:1021F0008F4F9F4F9923A9F0F92F96E9BB2793950D
:10220000F695879577956795B795F111F8CFFAF41C
:10221000BB0F11F460FF1BC06F5F7F4F8F4F9F4F4D
:1022200016C0882311F096E911C0772321F09EE8AB
:10223000872F762F05C0662371F096E8862F70E011
:1022400060E02AF09A95660F771F881FDAF7880FEB
:102250009695879597F90895990F0008550FAA0B41
:10226000E0E8FEEF16161706E807F907C0F01216A9
:102270001306E407F50798F0621B730B840B950BAC
:1022800039F40A2661F0232B242B252B21F4089501
:102290000A2609F4A140A6958FEF811D811D08959E
:1022A00097F99F6780E870E060E008959FEF80EC09
:1022B000089500240A9416161706180609060895AC
:1022C00000240A9412161306140605060895092E12
:1022D0000394000C11F4882352F0BB0F40F4BF2B81
:1022E00011F460FF04C06F5F7F4F8F4F9F4F0895C1
:1022F00057FD9058440F551F59F05F3F71F04795B7
:10230000880F97FB991F61F09F3F79F0879508959B
:10231000121613061406551FF2CF4695F1DF08C0BA
:10232000161617061806991FF1CF869571056105D7
:1023300008940895E894BB2766277727CB0197F97F
:1023400008950E942C1108F48FEF08950E94B9118E
:102350000C9467110E94591138F00E94601120F00E
:10236000952311F00C9450110C94561111240C94D7
:102370009B110E94781170F3959FC1F3950F50E067
:10238000551F629FF001729FBB27F00DB11D639F27
:10239000AA27F00DB11DAA1F649F6627B00DA11DCD
:1023A000661F829F2227B00DA11D621F739FB00D73
:1023B000A11D621F839FA00D611D221F749F3327E3
:1023C000A00D611D231F849F600D211D822F762F7C
:1023D0006A2F11249F5750409AF0F1F088234AF059
:1023E000EE0FFF1FBB1F661F771F881F91505040C5
:1023F000A9F79E3F510580F00C9450110C949B114D
:102400005F3FE4F3983ED4F3869577956795B7954B
:10241000F795E7959F5FC1F7FE2B880F911D969565
:10242000879597F90895AA1BBB1B51E107C0AA1F06
:10243000BB1FA617B70710F0A61BB70B881F991F65
:102440005A95A9F780959095BC01CD01089597FB09
:10245000072E16F4009407D077FD09D00E941312BE
:1024600007FC05D03EF4909581959F4F0895709597
:1024700061957F4F0895A1E21A2EAA1BBB1BFD0197
:102480000DC0AA1FBB1FEE1FFF1FA217B307E40753
:10249000F50720F0A21BB30BE40BF50B661F771FAB
:1024A000881F991F1A9469F760957095809590958B
:1024B0009B01AC01BD01CF010895EE0FFF1F0590F8
:1024C000F491E02D0994F999FECF92BD81BDF89A5F
:1024D000992780B50895262FF999FECF1FBA92BD8E
:1024E00081BD20BD0FB6F894FA9AF99A0FBE0196F5
:0624F0000895F894FFCFEF
:1024F60001010152656164206661696C000000009B
:10250600003B090B09DF08E708FB080A0900000081
:0E25160000A00CEB0D210C3B0C2D0C7E0C00DC
:00000001FF
