:100000000C946E000C94AA130C94D1130C949600CB
:100010000C9496000C9496000C9496000C94960008
:100020000C9496000C9496000C9496000C94B200DC
:100030000C9496000C9496000C9496000C949600E8
:100040000C94F8130C9496000C94A8120C94DA12E9
:100050000C9496000C9496000C9496000C949600C8
:100060000C9455100C949600E40CDE0CE60CD80CA5
:10007000DA0CDC0CD60CD40CD20CD00C000000082E
:10008000000201000003040700000000000000005F
:10009000010204081020408001020408102001021F
:1000A00004081020040404040404040402020202EC
:1000B00002020303030303030000000023002600E1
:1000C000290000000000250028002B00000000008F
:1000D000240027002A007C036C0F0A1311241FBE82
:1000E000CFEFD8E0DEBFCDBF11E0A0E0B1E0EEEB96
:1000F000F0E302C005900D92A434B107D9F723E0D4
:10010000A4E4B1E001C01D92A536B207E1F710E00A
:10011000CEE6D0E004C02197FE010E942718CB361E
:10012000D107C9F70E9438130C945D180C94000095
:1001300081E08093140108950C944F181092800070
:1001400025E02093810026EC3DE230938900209346
:10015000880022E020936F0078949093FC018093B4
:10016000FB0108951F920F920FB60F9211242F9347
:100170003F938F939F932091FD013091FE018091D9
:10018000FB019091FC0101972817390728F0109284
:10019000FE011092FD0109C08091FD019091FE01C8
:1001A00001969093FE018093FD01109285001092BC
:1001B00084009F918F913F912F910F900FBE0F90D0
:1001C0001F9018956F927F929F92AF92BF92CF929D
:1001D000DF92EF92FF920F931F93CF93DF93FC0177
:1001E00000E010E0C0E0D0E0E12CF12C21E030E0B4
:1001F000912C5B01A40EB51E6C0188E0C80ED11CC9
:100200008091FD019091FE014091FD015091FE0110
:100210004A155B0508F05AC08617970708F456C0C0
:10022000992089F083B1807190E082179307B9F02B
:1002300040815181DA012D913C9111972F5F3F4F01
:100240002D933C930CC0CF01DC014D915D91CD010C
:10025000DA011D921C928C159D05B1F7E3CF29B1EF
:10026000207130E02E153F0551F0E280F380D70178
:100270004D915C9111974F5F5F4F4D935C9343B1EC
:10028000407250E04C175D0749F0E480F580D701DB
:10029000CD91DC9111972196CD93DC93C6B1C0FB33
:1002A000662460F8712C6016710649F0068117818A
:1002B000D801CD91DC9111972196CD93DC939924AF
:1002C00093948301EA0179019C019ACFB1E09B12DA
:1002D00011C09F01285F3F4FA191B1918D919C91D9
:1002E000119797FD0196959587958D939C93E217AD
:1002F000F30791F7DF91CF911F910F91FF90EF904E
:10030000DF90CF90BF90AF909F907F906F900895B7
:100310000F931F93CF93DF9326E040E052EC61E010
:1003200070E08FEB92E00E9448128FEF91E00E9404
:10033000DB0E62E086E00E94091562E087E00E9421
:10034000091562E081E10E94091561E083E00E94E5
:10035000091561E085E00E94091541E050E068E977
:1003600070E080E00E948A1381E090E00E944718CC
:1003700090E090939C0180939B0182E090E00E942A
:10038000471890E0909398018093970183E090E064
:100390000E94471890E0909394018093930184E029
:1003A00090E00E94471890E09093900180938F0115
:1003B00006E411E0C0E0D0E0CE0104960E944718A8
:1003C00090E0F801819391938F012196C630D10579
:1003D00099F78AE090E00E949E008FE791E0909369
:1003E00088018093870181E891E090938A0180934E
:1003F000890183E891E090938C0180938B0185E8DB
:1004000091E090938E0180938D01DF91CF911F91A8
:100410000F9108950F931F938091680181111CC063
:100420000E944214009160011091610120916201CB
:1004300030916301DC01CB01801B910BA20BB30B4C
:10044000893B9B40A105B10520F081E080936601C6
:100450000FC0109266010CC0109266010E944214F7
:1004600060936001709361018093620190936301D6
:100470008091670181111CC00E94421400915C01AF
:1004800010915D0120915E0130915F01DC01CB0193
:10049000801B910BA20BB30B893B9B40A105B105BF
:1004A00020F081E0809365010FC0109265010CC0BF
:1004B000109265010E94421460935C0170935D018B
:1004C00080935E0190935F0180916401811104C06B
:1004D000109266011092650180917C01811102C029
:1004E0001092660180917A01811102C0109265011B
:1004F00080917B01811102C0109266018091790187
:10050000811102C01092650180917701811102C0B2
:100510001092660180917601811102C010926501EE
:1005200080917801811104C01092660110926501DA
:1005300080917501811102C0109266018091740151
:10054000811102C01092650180916601882311F02B
:100550005B9A01C05B9880916501882311F05D9AD8
:1005600001C05D981F910F91089583B1817091E052
:1005700089278093680183B186958170982790932D
:1005800067010895CF92DF92EF92FF92CF936B01B4
:100590007C01CA01B901C9B1C6FBCC27C0F9C0931F
:1005A000DE0129B1221F2227221F2093DD01C11164
:1005B00017C030911501332399F0222331F020E048
:1005C00030E0A9010E94A01507C09B01AC0160E0CA
:1005D00070E0CB010E949F1521E02093DC0105C053
:1005E0001092DC0160E070E0CB01C09315019B012B
:1005F000AC01C701B6010E94A015CF91FF90EF900A
:10060000DF90CF9008952091DA013091DB018217BD
:10061000930728F460E08DEE91E00C94BF0D2F5FFE
:100620003F4F3093DB012093DA0108952091D801E8
:100630003091D9018217930728F460E08FED91E0A3
:100640000C94BF0D2F5F3F4F3093D9012093D801F9
:100650000895409112015091130164E070E087E821
:1006600091E00E94E2002091120130911301E7E82D
:10067000F1E0A081B1816D917C914CE3469FC00176
:10068000479F900D1124B9010E94F11770939E01AC
:1006900060939D01A481B5816D917C91469FC001BD
:1006A000479F900D1124B9010E94F11770939A0190
:1006B00060939901A281B3816D917C91469FC001A5
:1006C000479F900D1124B9010E94F1177093960174
:1006D000609395010680F781E02D60817181469FCE
:1006E000C001479F900D1124B9010E94F11770932A
:1006F000920160939101089526E046E16FE08DEE4E
:1007000091E00E94140D26E046E160E18FED91E05A
:100710000E94140D62E070E089EA91E00C94FA0CFA
:100720001F93CF93DF931F92CDB7DEB7633609F4E3
:1007300063C058F5673009F455C090F4633009F48C
:100740004DC038F4613009F461C008F045C010ECC8
:100750006EC0653009F464C008F042C019E967C092
:100760006A3209F463C048F4693009F43FC0E0F12B
:10077000603209F05CC01FEF5AC06136C9F1D0F594
:100780006D3209F054C01FEB52C06C3609F440C002
:1007900080F46736B9F128F4653681F188F511EAFD
:1007A00046C0693699F180F16A3609F040C011EF10
:1007B0003EC0623799F138F4603761F168F56E3602
:1007C000B1F51BEA34C0643769F150F1653761F166
:1007D000693769F511E92BC014EA29C010EB27C06D
:1007E00012E825C018EF23C010E821C010E91FC08F
:1007F00018E81DC013E81BC016EC19C016E817C096
:100800001EE815C012EC13C016E711C019EF0FC097
:1008100017EC0DC01CE80BC018E909C01FEA07C09F
:1008200012E905C017E803C011EC01C01CE9682FEC
:100830008FEF91E049830E94E50E612F8FEF91E0E9
:100840000E949C0E4981612F442311F06F7701C0F3
:1008500060688FEF91E00E949C0E8FEF91E00F9007
:10086000DF91CF911F910C94690F40E060E288E323
:100870000E94900340E060E289E30E94900340E020
:1008800060E28AE30E94900340E060E28BE30C9414
:1008900090038F929F92AF92BF92CF92DF92EF928E
:1008A000FF92CF93DF936B017C010E948316EB01D3
:1008B000072E000C880B990B0E94BB169B01AC0104
:1008C000C701B6010E949F1520E030E040E251E4EC
:1008D0000E9470174B015C0120E030E040E251ECD7
:1008E000C701B6010E940C1618167CF140E06DE2BB
:1008F00088E30E94900320E030E040E251E4C70129
:10090000B6010E9411166B017C0120E030E0A901C4
:100910000E946B1718161CF4C701B60103C0C7016B
:10092000B60190580E948A1640E089E30E94900325
:10093000CE016AE070E00E94F11797FF03C0919525
:100940008195910941E0682F25C020E030E0A901A0
:10095000C701B6010E940C1687FF30C040E06DE26F
:1009600088E30E94900340E060E089E30E949003E6
:1009700020E030E0A901C701B6010E946B171816EC
:100980001CF4C701B60103C0C701B60190580E940C
:100990008A1641E08AE30E94900320E030E0A9013A
:1009A000C501B4010E946B1718160CF448C0C501AC
:1009B000B40190580E948A1640E054C020E030E014
:1009C00040E251E4C701B6010E940C1687FF10C037
:1009D00040E060E088E30E94900340E060E089E34B
:1009E0000E949003C701B6010E948A1641E024C00C
:1009F00020E030E040E251E4C701B6010E946B17ED
:100A000040E087FD1FC060E088E30E94900320E083
:100A100030E040E251E4C701B6010E9411160E9485
:100A20008A1640E089E30E949003CE016AE070E0FC
:100A30000E94F11741E0682F8AE30E949003C501EC
:100A4000B401B8CF65E688E30E94900340E062E716
:100A500089E30E94900340E062E78AE30E949003EA
:100A600040E060E28BE3DF91CF91FF90EF90DF9069
:100A7000CF90BF90AF909F908F900C949003EF9287
:100A8000FF920F931F93CF93DF93EC018A30910570
:100A900068F440E060E088E30E94900340E060E09A
:100AA00089E30E94900340E060E014C08436910521
:100AB000B8F440E060E088E30E94900340E060E02A
:100AC00089E30E949003CE016AE070E00E94DD1786
:100AD000C82F40E08AE30E94900340E06C2F42C0A0
:100AE000C83E83E0D80798F440E060E088E30E94C5
:100AF0009003CE0164E670E00E94DD177C0140E0C7
:100B000089E30E9490030AE010E0C7011EC0C031D3
:100B100087E2D80780F5CE0168EE73E00E94DD170A
:100B20007C0140E088E30E94900304E610E0C701E6
:100B3000B8010E94DD1740E089E30E949003CE01D6
:100B4000B8010E94DD170AE010E0B8010E94DD172D
:100B500040E08AE30E949003CE01B8010E94DD17B5
:100B600040E0682F8BE3DF91CF911F910F91FF90B1
:100B7000EF900C949003DF91CF911F910F91FF9014
:100B8000EF9008952091A1013091A201253B3105FC
:100B90005CF4411106C00E948316CB010E943F0500
:100BA00005C00E94490402C00E9435048091A10141
:100BB0009091A20101968D3D91052CF49093A20194
:100BC0008093A10108951092A2011092A1010895AD
:100BD0004F925F926F927F928F929F92AF92BF924D
:100BE000CF92DF92EF92FF920F931F93CF936B01FF
:100BF0007C0149015A018091DC01882369F081E080
:100C00008093A8010E9442146093A4017093A501EF
:100C10008093A6019093A701C091A801CC2309F469
:100C200043C00E9442144090A4015090A5016090DE
:100C3000A6017090A701DC01CB0184199509A609D2
:100C4000B709813D9740A105B10508F101151105CE
:100C500029F4C701B6010E9483160FC001301105A7
:100C600029F4C701B6010E9449040AC002301105E7
:100C700039F4C701B6010E948A16CB010E943F05D4
:100C8000C091A301CC2371F01092A30127C041E0D1
:100C9000012B09F440E0C501B4010E94C20581E0C6
:100CA0008093A301C0E01AC00115110529F4C70102
:100CB000B6010E9483160FC00130110529F4C70147
:100CC000B6010E9449040AC00230110559F7C70154
:100CD000B6010E948A16CB010E943F058C2FCF914E
:100CE0001F910F91FF90EF90DF90CF90BF90AF904A
:100CF0009F908F907F906F905F904F900895EF92AC
:100D0000FF920F931F93CF93DF93EC018A309105ED
:100D100068F440E065E688E30E94900340E060E00C
:100D200089E30E94900340E060E014C0843691059E
:100D3000B8F440E065E688E30E94900340E060E09C
:100D400089E30E949003CE016AE070E00E94DD1703
:100D5000C82F40E08AE30E94900340E06C2F23C03C
:100D6000C83E83E0D80740F540E065E688E30E948E
:100D70009003CE0164E670E00E94DD177C0140E044
:100D800089E30E9490030AE010E0C701B8010E94C5
:100D9000DD1740E08AE30E949003CE01B8010E9473
:100DA000DD1740E0682F8BE3DF91CF911F910F910A
:100DB000FF90EF900C949003DF91CF911F910F91D2
:100DC000FF90EF900895EF92FF920F931F93CF93B0
:100DD000DF9310925B0110925A0180917C01811186
:100DE00006C081E090E090935B0180935A0180916E
:100DF0007A01811109C080915A0190915B01826052
:100E000090935B0180935A0180917B01811109C00D
:100E100080915A0190915B01846090935B01809373
:100E20005A0180917901811109C080915A019091F4
:100E30005B01886090935B0180935A0180917701F8
:100E4000811109C080915A0190915B01806190935A
:100E50005B0180935A0180917601811109C08091D4
:100E60005A0190915B01806290935B0180935A01DB
:100E700080917801811109C080915A0190915B01A4
:100E8000806490935B0180935A0180917501811178
:100E900009C080915A0190915B01806890935B0139
:100EA00080935A0180917401811109C080915A0187
:100EB00090915B01916090935B0180935A018091C6
:100EC0005A0190915B01892B21F480E090E00E940F
:100ED0007F0608E411E080E090E0EE24E394F12C3A
:100EE00020915A0130915B01082E02C0359527955B
:100EF0000A94E2F7EC012196F80120FF1BC0F18271
:100F0000E0828091460190914701883E93406CF4C5
:100F1000CE010E947F068091460190914701019683
:100F20009093470180934601ECCF109247011092B5
:100F3000460102C011821082CE010E5F1F4F299719
:100F400079F6DF91CF911F910F91FF90EF90089567
:100F5000CF93C62F682F8FEF91E00E94E50E60E0DF
:100F60008FEF91E00E949C0E6C2F8FEF91E00E941A
:100F70009C0E8FEF91E0CF910C94690F40E06EE6EC
:100F80008BE30E94900340E065E68AE30E949003B1
:100F900040E060E789E30E94900340E060E088E37E
:100FA0000E94900360E070E08CE20E94A80760E07D
:100FB00070E08EE20E94A80760E070E08DE20E947F
:100FC000A80760E070E08FE20E94A8071092660117
:100FD0001092650108950F931F93CF93DF9300D074
:100FE00000D0CDB7DEB7339B02C081E001C082E004
:100FF00080931101809144019091450118161906C2
:101000002CF0109245011092440108C0059734F06D
:1010100085E090E090934501809344018091110117
:10102000823031F56091440170914501072E000C2A
:10103000880B990B0E94BB1620E030E040E85FE38C
:101040000E94C2020E94831670934501609344017E
:10105000660F771FFB01E050FF4F60817181072E03
:10106000000C880B990B0E94BB160E9449048CC08F
:10107000813009F089C08091440190914501880F29
:10108000991F8C010A5B1E4FF80160817181072E48
:10109000000C880B990B0E94BB1620E030E040E06A
:1010A00050E40E94C2020E948316F801718360839B
:1010B000E0914401F0914501EE0FFF1FEA5BFE4F06
:1010C00060817181072E000C880B990B0E94BB1662
:1010D00025E732E04AE15DE30E9470179B01AC0115
:1010E0008091950190919601BC0180E090E0298368
:1010F0003A834B835C830E94B91602E010E0298199
:101100003A814B815C810E94E805882369F08091D7
:10111000440190914501FC01EE0FFF1FEA5BFE4F79
:10112000608104960E949C00E0914401F091450189
:10113000EE0FFF1FEA5BFE4F608171818CE20E941F
:10114000A807E0914401F0914501EE0FFF1FEA5B13
:10115000FE4F608171818EE20E94A807E0914401F8
:10116000F0914501EE0FFF1FEA5BFE4F80819181F8
:101170008F3F91051CF08FEF90E004C04D9724F451
:101180008CE190E0918380830F900F900F900F90EF
:10119000DF91CF911F910F910C9429030F931F930F
:1011A000CF93DF938091690190916A0120910001B2
:1011B000309101012817390764F060914601709160
:1011C00047018CE20E94A807609146017091470197
:1011D00012C020910A0130910B018217930794F0FD
:1011E00060915001709151018CE20E94A8076091BA
:1011F0005001709151018EE2DF91CF911F910F91BB
:101200000C94A807CCE0D1E006E411E080916901DC
:1012100090916A0122972A813B81821793078CF46F
:10122000288139818217930764F0F80162857385FC
:101230008CE20E94A807F801628573858EE20E9405
:10124000A80702501109F1E0C030DF07F9F6DF917D
:10125000CF911F910F9108958F929F92AF92BF925D
:10126000CF92DF92EF92FF920F931F93CF93339B16
:1012700002C081E001C082E08093110160917101A0
:10128000709172018DE20E94A80760916F017091C8
:1012900070018FE20E94A8070E94CE0860911001A1
:1012A000862F90E0C297880F991F20919B01309163
:1012B0009C01280F391F30937201209371012091F6
:1012C000970130919801820F931F90937001809342
:1012D0006F01C0911101C13021F0C23009F451C039
:1012E000A1C070E080E090E00E94B91620E030E0FC
:1012F00040E85FE30E94C2020E948A1660931001D8
:1013000070E080E090E00E94B91600E010E09B01E0
:10131000AC010E94E80580911001853620F084E63A
:101320008093100104C0811102C0C093100180910C
:10133000710190917201883291051CF488E290E06D
:1013400006C08F3F910539F034F08FEF90E0909315
:1013500072018093710180916F01909170018832C8
:1013600091051CF488E290E007C08F3F910509F0D9
:101370000CF458C08FEF90E09093700180936F0150
:1013800051C060910C0170910D0180910E019091FE
:101390000F0120E030E040E05FE30E94C2029B01C9
:1013A000AC0160930C0170930D0180930E0190933A
:1013B0000F0160916B0170916C0180916D019091B2
:1013C0006E0101E010E00E94E805C0900C01D09091
:1013D0000D01E0900E01F0900F0120E030E04CE0B4
:1013E00052E4C701B6010E946B1718162CF480E076
:1013F00090E0ACE0B2E40EC020E030E040E951E41F
:10140000C701B6010E940C1687FF0CC080E090E077
:10141000A0E9B1E480930C0190930D01A0930E011B
:10142000B0930F01C0906B01D0906C01E0906D0102
:10143000F0906E0180900C0190900D01A0900E0133
:10144000B0900F012DEC3CEC4CE45EE3C501B4011F
:101450000E94A0159B01AC01C701B6010E946B1749
:1014600018161CF481E0809364012DEC3CEC4CE4F4
:101470005EE3C501B4010E949F159B01AC01C70149
:10148000B6010E940C1687FD1092640180916401E0
:10149000882311F0429A01C04298CF911F910F9179
:1014A000FF90EF90DF90CF90BF90AF909F908F9084
:1014B0000C940A020F931F93CF93DF9300D000D0B8
:1014C000CDB7DEB760919B0170919C0180E090E008
:1014D0000E94B91620E030E040E050E40E94C202D1
:1014E0000E948A166F3F710521F018F08FEF90E08F
:1014F0000AC06D31710528F070939C0160939B01C7
:1015000006C08CE190E090939C0180939B016091D8
:101510009B0170919C0180E090E00E94B91625E744
:1015200032E04AE15DE30E9470179B01AC018091BB
:101530009D0190919E01BC0180E090E029833A8357
:101540004B835C830E94B91602E010E029813A8146
:101550004B815C810E94E805882331F060919B01FA
:1015600081E090E00E949C0060919B0170919C0141
:101570008DE20E94A8070F900F900F900F90DF91BF
:10158000CF911F910F910C9429030F931F93CF9329
:10159000DF9300D000D0CDB7DEB760919701709196
:1015A000980180E090E00E94B91620E030E040E031
:1015B00050E40E94C2020E948A166F3F710518F023
:1015C0008FEF90E00AC06D31710528F0709398019B
:1015D0006093970106C08CE190E09093980180930E
:1015E0009701609197017091980180E090E00E94CE
:1015F000B91625E732E04AE15DE30E9470179B01CE
:10160000AC018091990190919A01BC0180E090E039
:1016100029833A834B835C830E94B91602E010E071
:1016200029813A814B815C810E94E805882331F051
:101630006091970182E090E00E949C006091970188
:10164000709198018FE20E94A8070F900F900F9061
:101650000F90DF91CF911F910F910C9429030F935D
:101660001F93CF93DF9300D000D0CDB7DEB760914A
:1016700093017091940180E090E00E94B91620E0FF
:1016800030E040E050E40E94C2020E948A166F3FA0
:10169000710518F08FEF90E00AC06D31710528F0E8
:1016A000709394016093930106C08CE190E0909355
:1016B000940180939301609193017091940180E073
:1016C00090E00E94B91625E732E04AE15DE30E940E
:1016D00070179B01AC018091950190919601BC011E
:1016E00080E090E029833A834B835C830E94B916A3
:1016F00002E010E029813A814B815C810E94E8057B
:10170000882331F06091930183E090E00E949C0077
:1017100060919301709194018CE20E94A8070F9050
:101720000F900F900F90DF91CF911F910F910C941C
:1017300029030F931F93CF93DF9300D000D0CDB731
:10174000DEB760918F017091900180E090E00E947F
:10175000B91620E030E040E050E40E94C2020E944E
:101760008A166F3F710518F08FEF90E00AC06D3157
:10177000710528F07093900160938F0106C08CE191
:1017800090E09093900180938F0160918F01709110
:10179000900180E090E00E94B91625E732E04AE12E
:1017A0005DE30E9470179B01AC01809191019091C3
:1017B0009201BC0180E090E029833A834B835C83F3
:1017C0000E94B91602E010E029813A814B815C81C8
:1017D0000E94E805882331F060918F0184E090E059
:1017E0000E949C0060918F01709190018EE20E9496
:1017F000A8070F900F900F900F90DF91CF911F913E
:101800000F910C942903CF9348E050E0BC018FEF77
:1018100091E00E94660F8FEF91E00E94400E892BAD
:1018200031F08FEF91E00E94480EC82FF4CF8C2F3B
:10183000CF9108958CE390E00E94030C8F7008957F
:10184000CF938DE390E00E94030C817080937E0122
:101850008DE390E00E94030C8695817080937D015A
:101860008DE390E00E94030C82FB882780F980932F
:1018700078018DE390E00E94030C83FB882780F9B8
:10188000809377018DE390E00E94030C8295817034
:10189000809376018DE390E00E94030C85FB8827FE
:1018A00080F9809375018DE390E00E94030C86FB24
:1018B000882780F9809374018DE390E00E94030CE7
:1018C000881F8827881F809373018CE390E00E9413
:1018D000030CC1E0829581708C2780937C018CE39E
:1018E00090E00E94030C85FB882780F98C27809369
:1018F0007B018CE390E00E94030C86FB882780F933
:10190000C827C0937A018CE390E00E94030C809575
:10191000881F8827881F80937901CF91089580912F
:1019200014018823E9F00E94200C0E941A0C90E018
:101930009093A00180939F0180917301811106C053
:1019400080E190E09093A00180939F011092140198
:101950008CE390E00E94030C8DE390E00E94030C66
:101960008EE591E00E94030360936B0170936C011C
:1019700080936D0190936E0183E290E090936A01F1
:10198000809369010E94B502E0919F01F091A0014E
:101990003797EA30F105D0F4EC5CFF4F0C94271830
:1019A0000C94BE070C942C090C945A0A0C94C50A8A
:1019B0000C94E3060C942F0B0C94990B82E390E0AB
:1019C0000E9416030C9449040C94EB0740E060E07D
:1019D0008BE30E94900340E06EE68AE30E9490034E
:1019E00040E060E289E30E94900340E060E288E327
:1019F0000C949003FC01108611861286138615A2A2
:101A000014A216A217A210A611A612A613A614A617
:101A100015A621E026A7CB01770FAA0BBB0B848B61
:101A2000958BA68BB78B0895FC016683478320872F
:101A300081E085870895CF92DF92FF920F931F93E5
:101A4000CF93DF93EC0161E08E810E9445150E94E7
:101A5000421409851A852B853C856017710782071A
:101A6000930720F419861A861B861C862D85211162
:101A700011C009851A852B853C85DC01CB01801BB3
:101A8000910BA20BB30B803D9740A105B10510F45B
:101A900081E06DC01D860E94421469877A878B871A
:101AA0009C871C821B821A821982188261E08E81B7
:101AB0000E94091560E08E810E94451564E170E086
:101AC00080E090E00E947114F89461E08E810E94A1
:101AD000451588E290E00E94991460E08E810E9492
:101AE000091510E0F12C81E000E0C82ED12C8E8188
:101AF0000E9475158C159D0539F40F5F81E090E00B
:101B00000E9499140F3F99F78E810E9475150F3F1F
:101B1000B9F0143090F010FD10C09F2D9695969559
:101B20009695FE01E90FF11D9081990F908328850C
:101B3000201710F491609083F3941F5F1535A1F680
:101B4000789487E28F1590F42C8130E04881898168
:101B500090E0840F911D4A81840F911D4B81840F69
:101B6000911D99272817390709F492CF80E0DF915A
:101B7000CF911F910F91FF90DF90CF900895CF925A
:101B8000DF92EF92FF920F931F93CF93DF93EC01BD
:101B9000162F0E941B0D882309F455C08F818B30AE
:101BA00031F008F450C08551823098F04CC06A8101
:101BB00070E080E090E00E94B916112309F44EC055
:101BC00020E030E040E151E46B017C01C701B60147
:101BD0002BC00A81602F6F7770E080E090E00E9458
:101BE000BB1620E030E040E853E40E9470176B0120
:101BF0007C018B81682F70E080E090E00E94BB1632
:101C00009B01AC01C701B6010E94A01520E030E0A5
:101C100040E251E40E94111607FD90581123F1F0A3
:101C200020E030E040E151E40E94701720E030E015
:101C300040EA50E40E94111620E030E040E052E417
:101C40000E94A0150BC06AE171E08FEB92E00E9448
:101C5000871340E030E020EC9FE703C0462F372F8A
:101C6000282FC42ED32EE22EF92EC701B601DF9104
:101C7000CF911F910F91FF90EF90DF90CF9008953B
:101C800080912F0290E020913002821B91090895EB
:101C90009091300280912F02981750F4E92FF0E0D4
:101CA000EF5CFD4F208130E09F5F9093300202C0D7
:101CB0002FEF3FEFC9010895E091300280912F028C
:101CC000E81730F4F0E0EF5CFD4F808190E008957C
:101CD0008FEF9FEF08950895CF92DF92EF92FF92DA
:101CE0000F931F93CF93DF937C01262F972F8A01A9
:101CF00080910B02882391F0C62FD72F6E01C40E5E
:101D0000D51ECC15DD0571F06991D701ED91FC91DF
:101D10000190F081E02DC7010995F3CF642F822F48
:101D20000E942C10C801DF91CF911F910F91FF905D
:101D3000EF90DF90CF900895CF93DF931F92CDB7B0
:101D4000DEB7698320910B022223D1F020910C028F
:101D5000203240F021E030E0FC013383228380E038
:101D600090E015C080910D02E82FF0E0E25FFD4F9A
:101D7000998190838F5F80930D0280930C0205C040
:101D800061E0CE0101960E942C1081E090E00F905E
:101D9000DF91CF910895FC011382128288EE93E0C7
:101DA000A0E0B0E084839583A683B78388E291E0C6
:101DB0009183808308951092300210922F02109226
:101DC0000D0210920C020C94700F81E080930B02B4
:101DD00060932E0210920D0210920C0208950F9340
:101DE000062F21E040910C026EE072E080912E02FD
:101DF0000E94D60F10920D0210920C0210920B024C
:101E00000F9108954F925F926F927F92AF92BF921F
:101E1000CF92EF92FF920F931F93CF93DF935C01CA
:101E2000F62ED42F28013901EE2021F10E94E50E73
:101E3000CE2DC43008F0C3E0C150C0F0D501ED9103
:101E4000FC91B8E0CB9FC0011124A301920104C012
:101E500056954795379527958A95D2F7CA01B901C6
:101E60000190F081E02DC5010995E6CF60E0C50144
:101E70000E94EF0E4D2FD13208F040E22C2D61E38D
:101E800072E08F2D0E948E0F1092300280932F02ED
:101E9000DF91CF911F910F91FF90EF90CF90BF9066
:101EA000AF907F906F905F904F900895CF92EF9298
:101EB0000F931F93C22EE12C00E010E098010E94C6
:101EC000020F1F910F91EF90CF90089521E00C9495
:101ED000560F61E00C94EF0E8FEF91E00C94CB0E57
:101EE0001092BE0281E08093BC021092BB0261E0BE
:101EF00082E10E94451561E083E10E944515E9EB0E
:101F0000F0E080818E7F808380818D7F808384E379
:101F10008093B80085E48093BC000895413208F0B6
:101F200043C09091BE029111FCCF91E09093BE020C
:101F30002093BC022FEF2093510210929602240F9F
:101F4000209395029093BD029091BD02880F892B3A
:101F50008093BD028091BB02813061F41092BB027C
:101F60008091BD028093BB008091BC0083FDF8CFBF
:101F700085EC01C085EE8093BC008091BE0281306B
:101F8000E1F380919602841710F44091960227E9BC
:101F900032E0FB01D9018A2F821B841718F48D913E
:101FA0008193F9CF842F089580E008950F934132F3
:101FB00008F04AC09091BE029111FCCF32E03093FC
:101FC000BE020093BC023FEF309351021092960282
:101FD00040939502FB0167E972E0DB013A2F361B63
:101FE000341718F431913D93F9CF1092BD0230911E
:101FF000BD02880F832B8093BD028091BB0281308C
:1020000061F41092BB028091BD028093BB0080916D
:10201000BC0083FDF8CF85EC01C085EE8093BC0049
:10202000222321F08091BE028230D1F380915102AF
:102030008F3F79F080915102803241F080915102BE
:10204000803331F094E005C091E003C092E001C01C
:1020500093E0892F0F910895613298F42091BE0288
:10206000243089F460937302FC0125E732E0D90142
:102070008A2F821B861718F481918D93F9CF80E007
:10208000089581E0089582E0089585ED8093BC0075
:102090008091BC0084FDFCCF1092BE02089585ECB7
:1020A0008093BC001092BE0208951F920F920FB64B
:1020B0000F9211242F933F934F935F936F937F93CE
:1020C0008F939F93AF93BF93EF93FF938091B9004A
:1020D000887F803609F49EC078F5883209F45DC0A7
:1020E00090F4803109F456C038F4882309F4F5C01F
:1020F000883009F44FC0F5C0883109F44EC08032F1
:1021000009F45FC0EEC0803409F46AC058F480332B
:1021100009F457C0883309F0E4C0809351020E944B
:102120004F10DFC0803509F44FC0883509F45DC019
:10213000883409F0D6C0D3C0883909F4C4C0A8F4E3
:10214000883709F467C038F4883609F463C08037EB
:1021500009F460C0C6C0883809F4B5C0803909F4F4
:102160005FC0803809F0BDC05BC0803B09F483C00C
:1021700038F4803A09F466C0883A09F47CC0B1C0EA
:10218000803C09F4A4C0883C09F4A1C0883B09F450
:1021900087C0A7C08091BD0210C090919602809127
:1021A0009502981770F5E091960281E08E0F80936A
:1021B0009602F0E0E956FD4F80818093BB0085ECEC
:1021C00083C0809351028BC0E091960281E08E0F14
:1021D000809396028091BB00F0E0E956FD4F80832A
:1021E00090919602809195026BC0E091960281E0F9
:1021F0008E0F809396028091BB00F0E0E956FD4F70
:1022000080838091BC0281116AC081E08093BB020F
:1022100084EA5EC083E08093BE0210925202CFCF68
:1022200080915202803208F04EC0E091520281E06B
:102230008E0F809352028091BB00F0E0ED5AFD4F6B
:102240008083BDCF0E944F1080915202803230F4C3
:10225000E0915202F0E0ED5AFD4F1082609152027F
:1022600070E0E091B702F091B80283E592E0099541
:102270001092520236C084E08093BE021092740223
:1022800010927302E091B902F091BA02099580911F
:102290007302811105C081E0809373021092750270
:1022A000E091740281E08E0F80937402F0E0EB58AD
:1022B000FD4F80818093BB009091740280917302E6
:1022C000981708F47CCF85E88093BC000AC085ECA1
:1022D0008093BC001092BE0204C0109251020E9472
:1022E0004510FF91EF91BF91AF919F918F917F9199
:1022F0006F915F914F913F912F910F900FBE0F9073
:102300001F901895FC01918D228D892F90E0805CA3
:102310009F4F821B91098F7399270895FC01918D1E
:10232000828D981731F0828DE80FF11D858D90E038
:1023300008958FEF9FEF0895FC01918D828D98177E
:1023400061F0828DDF01A80FB11D5D968C91928D99
:102350009F5F9F73928F90E008958FEF9FEF089596
:1023600080E093E1892B49F080E090E0892B29F00F
:102370000E94001381110C9400000895FC01848DCB
:10238000DF01A80FB11DA35ABF4F2C91848D90E09F
:1023900001968F739927848FA689B7892C93A0897A
:1023A000B1898C9180648C93938D848D981306C031
:1023B0000288F389E02D80818F7D80830895CF93FB
:1023C000DF93EC01888D8823C9F0EA89FB8980813D
:1023D00085FD05C0A889B9898C9186FD0FC00FB60F
:1023E00007FCF5CF808185FFF2CFA889B9898C9150
:1023F00085FFEDCFCE010E94BE11E7CFDF91CF91D7
:102400000895EF92FF920F931F93CF93DF93EC0108
:1024100081E0888F9B8D8C8D981305C0E889F989A0
:10242000808185FD24C0F62E0B8D10E00F5F1F4FBD
:102430000F731127E02E8C8DE8120CC00FB607FC2D
:10244000FACFE889F989808185FFF5CFCE010E9416
:10245000BE11F1CF8B8DFE01E80FF11DE35AFF4F46
:10246000F0820B8FEA89FB898081806207C0EE8948
:10247000FF896083E889F98980818064808381E0B5
:1024800090E0DF91CF911F910F91FF90EF90089511
:10249000CF92DF92EF92FF921F93CF93DF93EC01E5
:1024A0006A017B01122F60EC76EC8DE290E0A701CF
:1024B00096010E940518DA01C9010197A109B10925
:1024C000B695A79597958795AC01E889F98982E03B
:1024D0008083411580E15807A8F0E889F9891082C6
:1024E00060E673EE86E190E0A70196010E94051870
:1024F000BA01A901415051096109710976956795A1
:1025000057954795EC85FD855083EE85FF85408383
:10251000188EEC89FD891083EA89FB8980818061AE
:102520008083EA89FB89808188608083EA89FB89CE
:10253000808180688083EA89FB8980818F7D8083A8
:10254000DF91CF911F91FF90EF90DF90CF90089592
:102550001F920F920FB60F9211242F938F939F9378
:10256000EF93FF93E091CF02F091D0028081E09150
:10257000D502F091D60282FD12C090818091D802DE
:102580008F5F8F732091D902821751F0E091D802AA
:10259000F0E0E154FD4F958F8093D80201C0808117
:1025A000FF91EF919F918F912F910F900FBE0F9000
:1025B0001F9018951F920F920FB60F9211242F9310
:1025C0003F934F935F936F937F938F939F93AF93BB
:1025D000BF93EF93FF938FEB92E00E94BE11FF91A8
:1025E000EF91BF91AF919F918F917F916F915F918B
:1025F0004F913F912F910F900FBE0F901F90189504
:102600008FEB92E00E94821121E0892B09F420E0F7
:10261000822F0895EFEBF2E01382128288EE93E0AE
:10262000A0E0B0E084839583A683B78388E391E03C
:102630009183808385EC90E09587848784EC90E09B
:102640009787868780EC90E0918B808B81EC90E07F
:10265000938B828B82EC90E0958B848B86EC90E060
:10266000978B868B118E128E138E148E089508957B
:102670000E94A5140E9437130E948801C0EBD1E18B
:102680000E948F0C2097E1F30E94B011F9CFCF92F6
:10269000DF92EF92FF920F931F93CF93DF936C0122
:1026A0007A018B01C0E0D0E0CE15DF0589F0D801BA
:1026B0006D918D01D601ED91FC910190F081E02D9D
:1026C000C6010995892B11F47E0102C02196ECCF39
:1026D000C701DF91CF911F910F91FF90EF90DF9095
:1026E000CF9008956115710579F0FB0101900020EC
:1026F000E9F73197AF01461B570BDC01ED91FC91D7
:102700000280F381E02D099480E090E008950C941C
:10271000721308958230E8F4E82FF0E0EE0FFF1F07
:10272000EA5EFE4F71836083813041F080916900E1
:102730008C7F482B40936900E89A08958091690046
:10274000440F551F440F551F837F482B409369004A
:10275000E99A08951F920F920FB60F9211242F93AA
:102760003F934F935F936F937F938F939F93AF9319
:10277000BF93EF93FF93E0911601F0911701099534
:10278000FF91EF91BF91AF919F918F917F916F9149
:102790005F914F913F912F910F900FBE0F901F901F
:1027A00018951F920F920FB60F9211242F933F93FB
:1027B0004F935F936F937F938F939F93AF93BF9349
:1027C000EF93FF93E0911801F09119010995FF91A2
:1027D000EF91BF91AF919F918F917F916F915F9199
:1027E0004F913F912F910F900FBE0F901F90189512
:1027F0001F920F920FB60F9211242F933F938F9336
:102800009F93AF93BF9380915D0390915E03A091DE
:102810005F03B091600330915C032DE2230F2D37ED
:1028200020F40196A11DB11D05C020EB230F0296D7
:10283000A11DB11D20935C0380935D0390935E0303
:10284000A0935F03B0936003809161039091620352
:10285000A0916303B09164030196A11DB11D809303
:10286000610390936203A0936303B0936403BF91E9
:10287000AF919F918F913F912F910F900FBE0F902D
:102880001F9018952FB7F89460915D0370915E03C7
:1028900080915F03909160032FBF08959FB7F894D4
:1028A00040916103509162036091630370916403EE
:1028B00086B5A89B06C08F3F21F04F5F5F4F6F4FDB
:1028C0007F4F9FBF762F652F542F44279A01AB016E
:1028D000280F311D411D511DA5E0B0E00E942D18AB
:1028E0000895CF92DF92EF92FF92CF93DF936B0127
:1028F0007C010E944E14EB01C114D104E104F104E7
:1029000089F00E949E150E944E146C1B7D0B683E40
:10291000734090F381E0C81AD108E108F108C8516A
:10292000DC4FEACFDF91CF91FF90EF90DF90CF9017
:1029300008958230910540F09C01220F331F0597C6
:10294000820F931F0197F1F70895789484B5826000
:1029500084BD84B5816084BD85B5826085BD85B543
:10296000816085BDEEE6F0E0808181608083E1E8F2
:10297000F0E010828081826080838081816080832A
:10298000E0E8F0E0808181608083E1EBF0E080812D
:1029900084608083E0EBF0E0808181608083EAE7FF
:1029A000F0E0808184608083808182608083808188
:1029B0008E7F80838081806880831092C10008951B
:1029C000833081F028F4813099F08230A1F00895AD
:1029D0008730A9F08830B9F08430D1F4809180003C
:1029E0008F7D03C0809180008F7780938000089551
:1029F00084B58F7702C084B58F7D84BD08958091A2
:102A0000B0008F7703C08091B0008F7D8093B000BD
:102A10000895CF93DF9390E0FC01E057FF4F24919E
:102A2000FC01EC55FF4F8491882361F190E0880F01
:102A3000991FFC01E453FF4FC591D491FC01EE5363
:102A4000FF4FA591B491611109C09FB7F894888197
:102A5000209582238883EC912E230BC0623061F491
:102A60009FB7F8943881822F809583238883EC91D7
:102A70002E2B2C939FBF06C08FB7F894E8812E2B86
:102A800028838FBFDF91CF9108951F93CF93DF935A
:102A9000282F30E0F901E458FF4F8491F901E05705
:102AA000FF4FD491F901EC55FF4FC491CC23C9F0ED
:102AB000162F81110E94E014EC2FF0E0EE0FFF1FA3
:102AC000EE53FF4FA591B4918FB7F894111105C043
:102AD0009C91ED2FE095E92302C0EC91ED2BEC9356
:102AE0008FBFDF91CF911F910895CF93DF93282F50
:102AF00030E0F901E458FF4F8491F901E057FF4FAE
:102B0000D491F901EC55FF4FC491CC2391F0811180
:102B10000E94E014EC2FF0E0EE0FFF1FE854FF4F8F
:102B2000A591B491EC91ED2381E090E021F480E057
:102B300002C080E090E0DF91CF9108950895505851
:102B4000BB27AA270E94B7150C9431170E942317A0
:102B500038F00E942A1720F039F49F3F19F426F428
:102B60000C9420170EF4E095E7FB0C941A17E92F4C
:102B70000E94421758F3BA17620773078407950734
:102B800020F079F4A6F50C9464170EF4E0950B2E62
:102B9000BA2FA02D0B01B90190010C01CA01A001AF
:102BA0001124FF27591B99F0593F50F4503E68F10A
:102BB0001A16F040A22F232F342F4427585FF3CF4B
:102BC000469537952795A795F0405395C9F77EF41C
:102BD0001F16BA0B620B730B840BBAF09150A1F065
:102BE000FF0FBB1F661F771F881FC2F70EC0BA0FEB
:102BF000621F731F841F48F4879577956795B79573
:102C0000F7959E3F08F0B0CF9395880F08F099276D
:102C1000EE0F9795879508950E94F61608F481E0C7
:102C200008950E9425160C9431170E942A1758F017
:102C30000E94231740F029F45F3F29F00C941A17E3
:102C400051110C9465170C9420170E94421768F3D9
:102C50009923B1F3552391F3951B550BBB27AA2755
:102C600062177307840738F09F5F5F4F220F331F8F
:102C7000441FAA1FA9F335D00E2E3AF0E0E832D057
:102C800091505040E695001CCAF72BD0FE2F29D05A
:102C9000660F771F881FBB1F261737074807AB072C
:102CA000B0E809F0BB0B802DBF01FF2793585F4FA1
:102CB0003AF09E3F510578F00C941A170C94651762
:102CC0005F3FE4F3983ED4F3869577956795B79583
:102CD000F7959F5FC9F7880F911D9695879597F98E
:102CE0000895E1E0660F771F881FBB1F6217730707
:102CF0008407BA0720F0621B730B840BBA0BEE1F1C
:102D000088F7E09508950E948A166894B1110C9492
:102D1000651708950E944A1788F09F5798F0B92FB9
:102D20009927B751B0F0E1F0660F771F881F991F00
:102D30001AF0BA95C9F714C0B13091F00E94641727
:102D4000B1E008950C946417672F782F8827B85F37
:102D500039F0B93FCCF3869577956795B395D9F758
:102D60003EF490958095709561957F4F8F4F9F4F62
:102D70000895E89409C097FB3EF49095809570956E
:102D800061957F4F8F4F9F4F9923A9F0F92F96E9B7
:102D9000BB279395F695879577956795B795F1112C
:102DA000F8CFFAF4BB0F11F460FF1BC06F5F7F4FC9
:102DB0008F4F9F4F16C0882311F096E911C07723DB
:102DC00021F09EE8872F762F05C0662371F096E8E4
:102DD000862F70E060E02AF09A95660F771F881FB3
:102DE000DAF7880F9695879597F90895990F000857
:102DF000550FAA0BE0E8FEEF16161706E807F907CD
:102E0000C0F012161306E407F50798F0621B730B67
:102E1000840B950B39F40A2661F0232B242B252BE8
:102E200021F408950A2609F4A140A6958FEF811D8B
:102E3000811D089597F99F6780E870E060E008952C
:102E40009FEF80EC089500240A94161617061806C2
:102E50000906089500240A9412161306140605069E
:102E60000895092E0394000C11F4882352F0BB0F2F
:102E700040F4BF2B11F460FF04C06F5F7F4F8F4F92
:102E80009F4F089557FD9058440F551F59F05F3FCD
:102E900071F04795880F97FB991F61F09F3F79F07C
:102EA00087950895121613061406551FF2CF4695FE
:102EB000F1DF08C0161617061806991FF1CF869580
:102EC0007105610508940895E894BB276627772764
:102ED000CB0197F908950E94F61608F48FEF089534
:102EE0000E9483170C9431170E94231738F00E9418
:102EF0002A1720F0952311F00C941A170C94201720
:102F000011240C9465170E94421770F3959FC1F32A
:102F1000950F50E0551F629FF001729FBB27F00D87
:102F2000B11D639FAA27F00DB11DAA1F649F6627DC
:102F3000B00DA11D661F829F2227B00DA11D621F2B
:102F4000739FB00DA11D621F839FA00D611D221FE5
:102F5000749F3327A00D611D231F849F600D211DC9
:102F6000822F762F6A2F11249F5750409AF0F1F04C
:102F700088234AF0EE0FFF1FBB1F661F771F881FB5
:102F800091505040A9F79E3F510580F00C941A17BC
:102F90000C9465175F3FE4F3983ED4F386957795DC
:102FA0006795B795F795E7959F5FC1F7FE2B880F5B
:102FB000911D9695879597F90895AA1BBB1B51E122
:102FC00007C0AA1FBB1FA617B70710F0A61BB70B99
:102FD000881F991F5A95A9F780959095BC01CD013E
:102FE000089597FB072E16F4009407D077FD09D0BB
:102FF0000E94DD1707FC05D03EF4909581959F4F08
:103000000895709561957F4F0895A1E21A2EAA1B2D
:10301000BB1BFD010DC0AA1FBB1FEE1FFF1FA21788
:10302000B307E407F50720F0A21BB30BE40BF50B85
:10303000661F771F881F991F1A9469F7609570950E
:10304000809590959B01AC01BD01CF010895EE0FD5
:10305000FF1F0590F491E02D09940E943818A59F58
:10306000900DB49F900DA49F800D911D1124089583
:10307000A29FB001B39FC001A39F700D811D1124B9
:10308000911DB29F700D811D1124911D0895F99914
:10309000FECF92BD81BDF89A992780B50895262F5D
:1030A000F999FECF1FBA92BD81BD20BD0FB6F8942D
:0E30B000FA9AF99A0FBE01960895F894FFCF90
:1030BE00230028002D00320037003C000000C841DC
:1030CE003201020001018913891352656164206681
:1030DE0061696C00000000009C0E6C0E400E480EE4
:1030EE005C0E6B0E000000000112471382119C1142
:0430FE008E11DF113F
:00000001FF
