:100000000C946C000C9494000C9494000C94940048
:100010000C9494000C9494000C9494000C94940010
:100020000C9494000C9494000C9494000C94AA00EA
:100030000C9494000C9494000C9494000C949400F0
:100040000C9412120C9494000C9431110C946311C2
:100050000C9494000C9494000C9494000C949400D0
:100060000C94D90E0C949400F60AFD0AF00AF20AD8
:10007000F40AEE0AEC0AEA0A000000080002010095
:100080000003040700000000000000000102040853
:1000900010204080010204081020010204081020F2
:1000A000040404040404040402020202020203031E
:1000B00003030303000000002300260029000000C2
:1000C0000000250028002B0000000000240027006D
:1000D0002A007703F00D931111241FBECFEFD8E053
:1000E000DEBFCDBF11E0A0E0B1E0E0ECFCE202C079
:1000F00005900D92A433B107D9F723E0A4E3B1E052
:1001000001C01D92A135B207E1F710E0CCE6D0E0C6
:1001100004C02197FE010E944216C936D107C9F7D3
:100120000E94C1110C945E160C9400001092800085
:1001300025E02093810029E03DE33093890020935E
:10014000880022E020936F0078949093E8018093D8
:10015000E70108951F920F920FB60F9211242F936B
:100160003F938F939F932091E9013091EA01809111
:10017000E7019091E80101972817390728F01092BC
:10018000EA011092E90109C08091E9019091EA0128
:1001900001969093EA018093E901109285001092F4
:1001A00084009F918F913F912F910F900FBE0F90E0
:1001B0001F9018954F925F927F928F929F92AF926D
:1001C000BF92CF92DF92EF92FF920F931F93CF9344
:1001D000DF93FC017A0140E050E000E010E0412CA8
:1001E000512C21E030E0712C4B018E0C9F1C5C01E6
:1001F00088E0A80EB11C8091E9019091EA01C090BD
:10020000E901D090EA01C814D90408F05EC086174D
:10021000970708F45AC0772089F083B1807190E085
:1002200082179307B9F0C080D180D6012D913C91FF
:1002300011972F5F3F4F2D933C930CC0CF01DC01F2
:10024000CD90DD90CD01D6011D921C928A159B05A3
:10025000B1F7E3CF29B1207130E02415350559F00D
:10026000C280D380D6014D905C90BFEF4B1A5B0AE1
:10027000D6014D925C92A3B1A0724A2E512C401629
:10028000510651F0C480D580D6010D911C91119773
:100290000F5F1F4F0D931C9316B11170C12FB0E06B
:1002A000DB2FC417D50751F006811781D8014D9176
:1002B0005C9111974F5F5F4F4D935C9377247394DC
:1002C000AE01820129019C0196CFB1E07B1213C0DF
:1002D0009F01285F3F4FC191D1918881998197FDFE
:1002E000019695958795B7010E94F81579836883E3
:1002F000E217F30781F7DF91CF911F910F91FF90E4
:10030000EF90DF90CF90BF90AF909F908F907F90B5
:100310005F904F90089526E040E052EC61E070E07D
:100320008BEA92E00E94CC108BEE91E00E945F0D70
:1003300062E086E00E94241362E087E00E942413BA
:1003400062E088E00E94241362E089E00E942413A6
:1003500062E081E10E94241361E083E00E942413A3
:1003600061E085E00E94241361E08AE00E9424138A
:1003700061E08BE00E94241361E08DE00E94241371
:1003800061E080E10E94241381E090E00E94481621
:1003900090E0909391018093900182E090E00E9420
:1003A000481690E090938D0180938C0183E090E05B
:1003B0000E94481690E0909389018093880184E020
:1003C00090E00E94481690E090938501809384010C
:1003D00085E090E00E94960080E090E020E030E030
:1003E000F901E458FE4FA9014C585E4F51834083F8
:1003F00001962E5F3F4F8430910591F790937301E2
:100400008093720108950F931F9380915E01811173
:1004100003C081E080935A0180915D01811103C086
:1004200081E08093590180915A01882319F18091CC
:10043000710181111FC00E945C1200915401109142
:1004400055012091560130915701DC01CB01801BF1
:10045000910BA20BB30B8D3D9540A105B10520F08A
:1004600081E080935A0106C080915C01811102C035
:1004700010925A0180915901882319F180917001DD
:1004800081111FC00E945C12009150011091510116
:100490002091520130915301DC01CB01801B910B63
:1004A000A20BB30B8D3D9540A105B10520F081E075
:1004B0008093590106C080915B01811102C01092A6
:1004C000590180915801811104C010925A01109273
:1004D000590190915E01911110925A0120915D0194
:1004E00021111092590120917101211104C0911123
:1004F00002C081110AC00E945C1260935401709383
:10050000550180935601909357018091700181119C
:1005100008C080915D01811104C080915801811152
:100520000AC00E945C126093500170935101809345
:1005300052019093530180915A01882321F091E058
:1005400090935C0102C010925C0190915901992333
:1005500021F091E090935B0102C010925B0188232F
:1005600011F05B9A01C05B9880915901882311F0CA
:100570005D9A01C05D981F910F910895CF92DF920F
:10058000EF92FF92CF936B017C01CA01B901C9B10F
:10059000C6FBCC27C0F9C093080129B1221F22272E
:1005A000221F2093070130910601C31799F02C17E1
:1005B00031F020E030E0A9010E94BB1307C09B018D
:1005C000AC0160E070E0CB010E94BA1321E02093FF
:1005D000CA0105C01092CA0160E070E0CB01C0936F
:1005E00006019B01AC01C701B6010E94BB13CF916C
:1005F000FF90EF90DF90CF9008952091C901422F96
:1006000050E08417950758F4662321F060E089EDE7
:1006100091E003C060E08BEC91E00C94430C2F5F01
:100620002093C901089527E030E090E0AC01022E4C
:1006300002C0559547950A94E2F740FF02C02B9AF5
:1006400001C02B982D9A2D982150310978F70895E3
:100650008091380190913901926090933901809393
:100660003801809136019091370192609093370163
:10067000809336018091340190913501926090937E
:100680003501809334012A9880913401909135018D
:1006900024E0959587952A95E1F70E941303209110
:1006A00034013091350144E0220F331F4A95E1F7C0
:1006B000809136019091370156E0959587955A952E
:1006C000E1F7822B0E94130380913601909137014C
:1006D000880F991F880F991F90913901892B0E94CB
:1006E0001303809138010E9413032A9A089526E08B
:1006F00046E16FE089ED91E00E94980B26E046E12B
:1007000060E18BEC91E00E94980B62E070E08AE976
:1007100091E00C94110B1F93CF93DF931F92CDB7F1
:10072000DEB7633609F463C058F5673009F455C085
:1007300090F4633009F44DC038F4613009F461C0BD
:1007400008F045C010EC6EC0653009F464C008F0D4
:1007500042C019E967C06A3209F463C048F46930DD
:1007600009F43FC0E0F1603209F05CC01FEF5AC0ED
:100770006136C9F1D0F56D3209F054C01FEB52C09B
:100780006C3609F440C080F46736B9F128F4653658
:1007900081F188F511EA46C0693699F180F16A362F
:1007A00009F040C011EF3EC0623799F138F460376C
:1007B00061F168F56E36B1F51BEA34C0643769F152
:1007C00050F1653761F1693769F511E92BC014EA19
:1007D00029C010EB27C012E825C018EF23C010E88D
:1007E00021C010E91FC018E81DC013E81BC016EC9B
:1007F00019C016E817C01EE815C012EC13C016E7A2
:1008000011C019EF0FC017EC0DC01CE80BC018E9A0
:1008100009C01FEA07C012E905C017E803C011ECC0
:1008200001C01CE9682F8BEE91E049830E94690D9D
:10083000612F8BEE91E00E94200D4981612F4423AE
:1008400011F06F7701C060688BEE91E00E94200D7F
:100850008BEE91E00F90DF91CF911F910C94ED0DF5
:1008600040E060E288E30E948B0340E060E289E3BD
:100870000E948B0340E060E28AE30E948B0340E029
:1008800060E28BE30C948B038F929F92AF92BF92A6
:10089000CF92DF92EF92FF92CF93DF936B017C01B7
:1008A0000E949E14EB01072E000C880B990B0E94EE
:1008B000D6149B01AC01C701B6010E94BA1320E017
:1008C00030E040E251E40E948B154B015C0120E0D6
:1008D00030E040E251ECC701B6010E94271418161F
:1008E0007CF140E06DE288E30E948B0320E030E081
:1008F00040E251E4C701B6010E942C146B017C0157
:1009000020E030E0A9010E94861518161CF4C701EA
:10091000B60103C0C701B60190580E94A51440E07B
:1009200089E30E948B03CE016AE070E00E940C16FE
:1009300097FF03C091958195910941E0682F25C0EB
:1009400020E030E0A901C701B6010E94271487FF0B
:1009500030C040E06DE288E30E948B0340E060E03D
:1009600089E30E948B0320E030E0A901C701B601B2
:100970000E94861518161CF4C701B60103C0C701F2
:10098000B60190580E94A51441E08AE30E948B03AF
:1009900020E030E0A901C501B4010E9486151816B7
:1009A0000CF448C0C501B40190580E94A51440E061
:1009B00054C020E030E040E251E4C701B6010E949B
:1009C000271487FF10C040E060E088E30E948B039B
:1009D00040E060E089E30E948B03C701B6010E94FA
:1009E000A51441E024C020E030E040E251E4C7011A
:1009F000B6010E94861540E087FD1FC060E088E3D5
:100A00000E948B0320E030E040E251E4C701B601D0
:100A10000E942C140E94A51440E089E30E948B03DD
:100A2000CE016AE070E00E940C1641E0682F8AE374
:100A30000E948B03C501B401B8CF65E688E30E942C
:100A40008B0340E062E789E30E948B0340E062E7AA
:100A50008AE30E948B0340E060E28BE3DF91CF9159
:100A6000FF90EF90DF90CF90BF90AF909F908F90CE
:100A70000C948B03EF92FF920F931F93CF93DF930E
:100A8000EC018A30910568F440E060E088E30E9460
:100A90008B0340E060E089E30E948B0340E060E06C
:100AA00014C084369105B8F440E060E088E30E9409
:100AB0008B0340E060E089E30E948B03CE016AE093
:100AC00070E00E94F815C82F40E08AE30E948B0373
:100AD00040E06C2F42C0C83E83E0D80798F440E065
:100AE00060E088E30E948B03CE0164E670E00E9420
:100AF000F8157C0140E089E30E948B030AE010E0D6
:100B0000C7011EC0C03187E2D80780F5CE0168EE6C
:100B100073E00E94F8157C0140E088E30E948B039B
:100B200004E610E0C701B8010E94F81540E089E32F
:100B30000E948B03CE01B8010E94F8150AE010E074
:100B4000B8010E94F81540E08AE30E948B03CE01B1
:100B5000B8010E94F81540E0682F8BE3DF91CF9138
:100B60001F910F91FF90EF900C948B03DF91CF9129
:100B70001F910F91FF90EF900895CF92DF92EF9227
:100B8000FF92CF936B017C01C42F42E350E060E001
:100B900070E08AE991E00E942B0B8823A9F0C7013D
:100BA000B601CC2339F0CF91FF90EF90DF90CF903A
:100BB0000C9444040E949E14CB01CF91FF90EF90BF
:100BC000DF90CF900C943A05CF91FF90EF90DF909B
:100BD000CF900C9430044F925F926F927F928F92DD
:100BE0009F92AF92BF92CF92DF92EF92FF920F93BC
:100BF000CF936B017C0149015A018091CA0188237E
:100C000069F081E0809399010E945C1260939501E4
:100C1000709396018093970190939801C0919901E8
:100C2000CC2391F10E945C12409095015090960166
:100C30006090970170909801DC01CB0184199509AF
:100C4000A609B7098D3B9240A105B10598F0C701EF
:100C5000B601002319F00E94440405C00E949E14AE
:100C6000CB010E943A05C0919401CC23C9F01092A7
:100C7000940116C0402FC501B4010E94BD0581E05A
:100C800080939401C0E00CC0C701B601002319F0A5
:100C90000E94440405C00E949E14CB010E943A05A4
:100CA0008C2FCF910F91FF90EF90DF90CF90BF905E
:100CB000AF909F908F907F906F905F904F9008952E
:100CC000CF92DF92EF92FF920F93CF93339B02C0AC
:100CD00081E001C082E0809305016091650170911F
:100CE00066018EE20E9428036091630170916401A5
:100CF0008FE20E94280360918801709189018CE243
:100D00000E94280360918401709185018DE20E9408
:100D1000280360910401862F90E0C297880F991FE5
:100D20002091900130919101280F391F3093660175
:100D30002093650120918C0130918D01820F931FCA
:100D40009093640180936301C0910501C13021F04B
:100D5000C23009F450C09FC070E080E090E00E9473
:100D6000D41420E030E040E85FE30E94BE020E941D
:100D7000A5146093040170E080E090E00E94D41418
:100D800000E09B01AC010E94EB05809104018536D7
:100D900020F084E68093040104C0811102C0C09356
:100DA000040180916501909166018C3391051CF4DA
:100DB0008CE390E006C08F3F910539F034F08FEF5F
:100DC00090E090936601809365018091630190911A
:100DD00064018C3391051CF48CE390E007C08F3FD5
:100DE000910509F00CF457C08FEF90E090936401E7
:100DF0008093630150C06091000170910101809166
:100E000002019091030120E030E040E05FE30E94A6
:100E1000BE029B01AC0160930001709301018093BD
:100E200002019093030160915F01709160018091D4
:100E300061019091620101E00E94EB05C090000108
:100E4000D0900101E0900201F090030120E030E039
:100E50004CE052E4C701B6010E94861518162CF426
:100E600080E090E0ACE0B2E40EC020E030E044E985
:100E700051E4C701B6010E94271487FF0CC080E02F
:100E800090E0A0E9B1E48093000190930101A09368
:100E90000201B093030120910001309101014091C2
:100EA00002015091030160915F0170916001809196
:100EB0006101909162010E94BA1320E030E0A90123
:100EC0000E948615181624F481E08093580102C010
:100ED0001092580180915801882311F0429A01C064
:100EE0004298CF910F91FF90EF90DF90CF900C94AC
:100EF00003020F93CF93DF9300D000D0CDB7DEB7BE
:100F0000609190017091910180E090E00E94D41472
:100F100020E030E040E85FE30E94BE020E94A5149A
:100F20006F3F710521F018F08FEF90E00AC0611556
:100F3000710529F0709391016093900106C081E0E2
:100F400090E0909391018093900160919001709155
:100F5000910180E090E00E94D4149B01AC0180914B
:100F6000920190919301BC0180E090E029833A8343
:100F70004B835C830E94D41400E029813A814B8129
:100F80005C810E94EB05882331F06091900181E043
:100F900090E00E94501660919001709191018EE254
:100FA0000F900F900F900F90DF91CF910F910C94B5
:100FB00028030F93CF93DF9300D000D0CDB7DEB7D7
:100FC00060918C0170918D0180E090E00E94D414BA
:100FD00020E030E040E85FE30E94BE020E94A514DA
:100FE0006F3F710521F018F08FEF90E00AC0611596
:100FF000710529F070938D0160938C0106C081E02A
:1010000090E090938D0180938C0160918C017091A0
:101010008D0180E090E00E94D4149B01AC0180918E
:101020008E0190918F01BC0180E090E029833A838A
:101030004B835C830E94D41400E029813A814B8168
:101040005C810E94EB05882331F060918C0182E085
:1010500090E00E94501660918C0170918D018FE29A
:101060000F900F900F900F90DF91CF910F910C94F4
:1010700028030F93CF93DF9300D000D0CDB7DEB716
:10108000609188017091890180E090E00E94D41401
:1010900020E030E040E85FE30E94BE020E94A51419
:1010A0006F3F710521F018F08FEF90E00AC06115D5
:1010B000710529F0709389016093880106C081E071
:1010C00090E09093890180938801609188017091EC
:1010D000890180E090E00E94D4149B01AC018091D2
:1010E0008A0190918B01BC0180E090E029833A83D2
:1010F0004B835C830E94D41400E029813A814B81A8
:101100005C810E94EB05882331F06091880183E0C7
:1011100090E00E94501660918801709189018CE2E4
:101120000F900F900F900F90DF91CF910F910C9433
:1011300028030F93CF93DF9300D000D0CDB7DEB755
:10114000609184017091850180E090E00E94D41448
:1011500020E030E040E85FE30E94BE020E94A51458
:101160006F3F710521F018F08FEF90E00AC0611514
:10117000710529F0709385016093840106C081E0B8
:1011800090E0909385018093840160918401709137
:10119000850180E090E00E94D4149B01AC01809115
:1011A000860190918701BC0180E090E029833A8319
:1011B0004B835C830E94D41400E029813A814B81E7
:1011C0005C810E94EB05882331F06091840184E00A
:1011D00090E00E94501660918401709185018DE22B
:1011E0000F900F900F900F90DF91CF910F910C9473
:1011F0002803EF92FF920F931F93CF93DF93EC019D
:101200008A30910568F440E065E688E30E948B032C
:1012100040E060E089E30E948B0340E060E014C09E
:1012200084369105B8F440E065E688E30E948B03BC
:1012300040E060E089E30E948B03CE016AE070E049
:101240000E94F815C82F40E08AE30E948B0340E01B
:101250006C2F23C0C83E83E0D80740F540E065E628
:1012600088E30E948B03CE0164E670E00E94F815CB
:101270007C0140E089E30E948B030AE010E0C70193
:10128000B8010E94F81540E08AE30E948B03CE016A
:10129000B8010E94F81540E0682F8BE3DF91CF91F1
:1012A0001F910F91FF90EF900C948B03DF91CF91E2
:1012B0001F910F91FF90EF900895EF92FF920F937F
:1012C0001F93CF93DF9310924F0110924E018091A4
:1012D0006F01811106C081E090E090934F018093EF
:1012E0004E0180916D01811109C080914E01909154
:1012F0004F01826090934F0180934E0180916E0167
:10130000811109C080914E0190914F0184609093AA
:101310004F0180934E0180916C01811109C0809131
:101320004E0190914F01886090934F0180934E0140
:1013300080916A01811109C080914E0190914F0105
:10134000806190934F0180934E01809169018111DA
:1013500009C080914E0190914F01806290934F019E
:1013600080934E0180916B01811109C080914E01E3
:1013700090914F01806490934F0180934E01809132
:101380006801811109C080914E0190914F018068E0
:1013900090934F0180934E0180916701811109C0A4
:1013A00080914E0190914F01916090934F018093F5
:1013B0004E0180E090E00E94F9080CE311E0C0E0EB
:1013C000D0E0EE24E394F12C80914E0190914F01F6
:1013D0000C2E02C0959587950A94E2F7F80180FFDC
:1013E0001BC0F182E08280913A0190913B01843FE1
:1013F00091406CF4CE010E94F90880913A019091DD
:101400003B01019690933B0180933A01ECCF1092FF
:101410003B0110923A0102C01182108221960E5FA8
:101420001F4FC930D10581F6DF91CF911F910F91E8
:10143000FF90EF900895CF9348E050E0BC018BEE11
:1014400091E00E94EA0D8BEE91E00E94C40C892B82
:1014500031F08BEE91E00E94CC0CC82FF4CF8C2F92
:10146000CF9108958CE390E00E941B0A8770089545
:101470008DE390E00E941B0A8170809371018DE3DF
:1014800090E00E941B0A86958170809370018DE325
:1014900090E00E941B0A82FB882780F980936B01F1
:1014A0008DE390E00E941B0A83FB882780F98093DC
:1014B0006A018DE390E00E941B0A829581708093FF
:1014C00069018DE390E00E941B0A85FB882780F963
:1014D000809368018DE390E00E941B0A86FB8827B9
:1014E00080F9809367018CE390E00E941B0A82954B
:1014F000817080936F018CE390E00E941B0A85FB52
:10150000882780F980936E018CE390E00E941B0A8B
:1015100086FB882780F980936D018CE390E00E9420
:101520001B0A881F8827881F80936C0183B18170F4
:1015300080935E0183B18695817080935D010895EB
:101540000E94380A61E084E690E00E94FD02609308
:101550005F0170936001809361019093620141E0AB
:1015600050E063E070E08CE791E00E94DA00E091E7
:101570007C01F0917D018081918190939301809312
:101580009201E0918001F09181018081918190939D
:101590008F0180938E01E0917E01F0917F01808127
:1015A000918190938B0180938A01E0918201F09167
:1015B00083018081918190938701809386010E94AD
:1015C000320A90E088309105C0F4FC01EC5CFF4FDA
:1015D0000C9442160C9460060C9479070C94D9076D
:1015E0000C945D090C9439080C94990860E088EC1F
:1015F00090E00E94FD020C94440440E060E08BE324
:101600000E948B0340E06EE68AE30E948B0340E079
:1016100060E289E30E948B0340E060E288E30C947F
:101620008B03FC01108611861286138615A214A264
:1016300016A217A210A611A612A613A614A615A6E6
:1016400021E026A7CB01770FAA0BBB0B848B958BD0
:10165000A68BB78B08958F929F92AF92BF92CF9235
:10166000DF92EF92FF920F931F93CF93DF93EC01E2
:101670006A017B010E945C120C891D892E893F89B9
:101680000230110521053105D1F040F4013011057A
:101690002105310509F50E9468121EC003301105AD
:1016A0002105310579F00430110521053105A1F43A
:1016B0000E945C1220E63AEE40E050E009C00E9431
:1016C0005C120AC00E945C1228EE33E040E050E059
:1016D0000E942016CA01B901CC82DD82EE82FF820F
:1016E0000C851D852E853F854B015C01801A910A72
:1016F000A20AB30A8C149D04AE04BF0458F06C8790
:101700007D878E879F878C8D811103C081E08C8FB0
:1017100001C01C8E8C8DDF91CF911F910F91FF9096
:10172000EF90DF90CF90BF90AF909F908F900895F3
:10173000FC0166834783208781E085870895CF92E7
:10174000DF92FF920F931F93CF93DF93EC0161E041
:101750008E810E9460130E945C1209851A852B8578
:101760003C85601771078207930720F419861A8653
:101770001B861C862D85211111C009851A852B8594
:101780003C85DC01CB01801B910BA20BB30B803D90
:101790009740A105B10510F481E06DC01D860E943F
:1017A0005C1269877A878B879C871C821B821A82CE
:1017B0001982188261E08E810E94241360E08E817C
:1017C0000E94601364E170E080E090E00E948D125E
:1017D000F89461E08E810E94601388E290E00E949C
:1017E000B51260E08E810E94241310E0F12C81E09C
:1017F00000E0C82ED12C8E810E9490138C159D057F
:1018000039F40F5F81E090E00E94B5120F3F99F725
:101810008E810E9490130F3FB9F0143090F010FDAC
:1018200010C09F2D969596959695FE01E90FF11D96
:101830009081990F90832885201710F491609083F0
:10184000F3941F5F1535A1F6789487E28F1590F415
:101850002C8130E04881898190E0840F911D4A817C
:10186000840F911D4B81840F911D992728173907EB
:1018700009F492CF80E0DF91CF911F910F91FF90FB
:10188000DF90CF900895CF92DF92EF92FF920F9367
:101890001F93CF93DF93EC01162F0E949F0B882399
:1018A00009F455C08F818B3031F008F450C0855158
:1018B000823098F04CC06A8170E080E090E00E9435
:1018C000D414112309F44EC020E030E040E151E48B
:1018D0006B017C01C701B6012BC00A81602F6F77B5
:1018E00070E080E090E00E94D61420E030E040E814
:1018F00053E40E948B156B017C018B81682F70E093
:1019000080E090E00E94D6149B01AC01C701B601B3
:101910000E94BB1320E030E040E251E40E942C140E
:1019200007FD90581123F1F020E030E040E151E450
:101930000E948B1520E030E040EA50E40E942C1415
:1019400020E030E040E052E40E94BB130BC069E0AD
:1019500071E08BEA92E00E94101240E030E020EC4F
:101960009FE703C0462F372F282FC42ED32EE22EF9
:10197000F92EC701B601DF91CF911F910F91FF9012
:10198000EF90DF90CF90089580911B0290E020911E
:101990001C02821B9109089590911C0280911B02E8
:1019A000981750F4E92FF0E0E35EFD4F208130E01E
:1019B0009F5F90931C0202C02FEF3FEFC901089573
:1019C000E0911C0280911B02E81730F4F0E0E35E26
:1019D000FD4F808190E008958FEF9FEF0895089567
:1019E000CF92DF92EF92FF920F931F93CF93DF93EB
:1019F0007C01262F972F8A018091F701882391F08F
:101A0000C62FD72F6E01C40ED51ECC15DD0571F083
:101A10006991D701ED91FC910190F081E02DC70112
:101A20000995F3CF642F822F0E94B00EC801DF9179
:101A3000CF911F910F91FF90EF90DF90CF9008957D
:101A4000CF93DF931F92CDB7DEB769832091F70163
:101A50002223D1F02091F801203240F021E030E043
:101A6000FC013383228380E090E015C08091F9016E
:101A7000E82FF0E0E650FE4F998190838F5F8093CE
:101A8000F9018093F80105C061E0CE0101960E9442
:101A9000B00E81E090E00F90DF91CF910895FC01AE
:101AA0001382128288EE93E0A0E0B0E084839583F5
:101AB000A683B78387E191E0918380830895109294
:101AC0001C0210921B021092F9011092F8010C9462
:101AD000F40D81E08093F70160931A021092F901EE
:101AE0001092F80108950F93062F21E04091F8011C
:101AF0006AEF71E080911A020E945A0E1092F90169
:101B00001092F8011092F7010F9108954F925F9291
:101B10006F927F92AF92BF92CF92EF92FF920F930C
:101B20001F93CF93DF935C01F62ED42F2801390148
:101B3000EE2021F10E94690DCE2DC43008F0C3E0E3
:101B4000C150C0F0D501ED91FC91B8E0CB9FC00130
:101B50001124A301920104C0569547953795279506
:101B60008A95D2F7CA01B9010190F081E02DC50133
:101B70000995E6CF60E0C5010E94730D4D2FD1326B
:101B800008F040E22C2D6DE172E08F2D0E94120EC4
:101B900010921C0280931B02DF91CF911F910F9135
:101BA000FF90EF90CF90BF90AF907F906F905F903D
:101BB0004F900895CF92EF920F931F93C22EE12C76
:101BC00000E010E098010E94860D1F910F91EF90A8
:101BD000CF90089521E00C94DA0D61E00C94730D20
:101BE0008BEE91E00C944F0D1092AA0281E080934D
:101BF000A8021092A70261E082E10E94601361E0F6
:101C000083E10E946013E9EBF0E080818E7F8083A6
:101C100080818D7F808388E48093B80085E4809301
:101C2000BC000895413208F043C09091AA0291117E
:101C3000FCCF91E09093AA022093A8022FEF20936B
:101C40003D0210928202240F209381029093A902F8
:101C50009091A902880F892B8093A9028091A702F5
:101C6000813061F41092A7028091A9028093BB0099
:101C70008091BC0083FDF8CF85EC01C085EE809398
:101C8000BC008091AA028130E1F380918202841726
:101C900010F44091820223E832E0FB01D9018A2F3F
:101CA000821B841718F48D918193F9CF842F0895A6
:101CB00080E008950F93413208F04AC09091AA0243
:101CC0009111FCCF32E03093AA020093A8023FEFBB
:101CD00030933D021092820240938102FB0163E83F
:101CE00072E0DB013A2F361B341718F431913D9323
:101CF000F9CF1092A9023091A902880F832B80930B
:101D0000A9028091A702813061F41092A70280910C
:101D1000A9028093BB008091BC0083FDF8CF85ECC5
:101D200001C085EE8093BC00222321F08091AA029D
:101D30008230D1F380913D028F3F79F080913D0256
:101D4000803241F080913D02803331F094E005C053
:101D500091E003C092E001C093E0892F0F910895B4
:101D6000613298F42091AA02243089F460935F02D2
:101D7000FC0121E632E0D9018A2F821B861718F474
:101D800081918D93F9CF80E0089581E0089582E0FC
:101D9000089585ED8093BC008091BC0084FDFCCF4C
:101DA0001092AA02089585EC8093BC001092AA02BA
:101DB00008951F920F920FB60F9211242F933F9305
:101DC0004F935F936F937F938F939F93AF93BF9343
:101DD000EF93FF938091B900887F803609F49EC00D
:101DE00078F5883209F45DC090F4803109F456C06A
:101DF00038F4882309F4F5C0883009F44FC0F5C0E1
:101E0000883109F44EC0803209F45FC0EEC08034DE
:101E100009F46AC058F4803309F457C0883309F0D4
:101E2000E4C080933D020E94D30EDFC0803509F4E8
:101E30004FC0883509F45DC0883409F0D6C0D3C0DE
:101E4000883909F4C4C0A8F4883709F467C038F4A5
:101E5000883609F463C0803709F460C0C6C088388A
:101E600009F4B5C0803909F45FC0803809F0BDC0FD
:101E70005BC0803B09F483C038F4803A09F466C043
:101E8000883A09F47CC0B1C0803C09F4A4C0883C05
:101E900009F4A1C0883B09F487C0A7C08091A902BA
:101EA00010C09091820280918102981770F5E091A4
:101EB000820281E08E0F80938202F0E0ED57FD4FA9
:101EC00080818093BB0085EC83C080933D028BC0F2
:101ED000E091820281E08E0F809382028091BB00AC
:101EE000F0E0ED57FD4F8083909182028091810256
:101EF0006BC0E091820281E08E0F8093820280911C
:101F0000BB00F0E0ED57FD4F80838091A802811166
:101F10006AC081E08093A70284EA5EC083E0809378
:101F2000AA0210923E02CFCF80913E02803208F08A
:101F30004EC0E0913E0281E08E0F80933E02809180
:101F4000BB00F0E0E15CFD4F8083BDCF0E94D30E6B
:101F500080913E02803230F4E0913E02F0E0E15C9C
:101F6000FD4F108260913E0270E0E091A302F0917B
:101F7000A4028FE392E0099510923E0236C084E0FD
:101F80008093AA021092600210925F02E091A50273
:101F9000F091A602099580915F02811105C081E050
:101FA00080935F0210926102E091600281E08E0FE7
:101FB00080936002F0E0EF59FD4F80818093BB0079
:101FC0009091600280915F02981708F47CCF85E8B9
:101FD0008093BC000AC085EC8093BC001092AA02DA
:101FE00004C010923D020E94C90EFF91EF91BF9173
:101FF000AF919F918F917F916F915F914F913F91A1
:102000002F910F900FBE0F901F901895FC01918D8E
:10201000228D892F90E0805C9F4F821B91098F73E6
:1020200099270895FC01918D828D981731F0828D4A
:10203000E80FF11D858D90E008958FEF9FEF0895D3
:10204000FC01918D828D981761F0828DDF01A80FC0
:10205000B11D5D968C91928D9F5F9F73928F90E0E2
:1020600008958FEF9FEF089589E891E1892B49F05A
:1020700080E090E0892B29F00E94891181110C9455
:1020800000000895FC01848DDF01A80FB11DA35A43
:10209000BF4F2C91848D90E001968F739927848F88
:1020A000A689B7892C93A089B1898C9180648C937F
:1020B000938D848D981306C00288F389E02D80816A
:1020C0008F7D80830895CF93DF93EC01888D8823E3
:1020D000C9F0EA89FB89808185FD05C0A889B98995
:1020E0008C9186FD0FC00FB607FCF5CF808185FF70
:1020F000F2CFA889B9898C9185FFEDCFCE010E94DE
:102100004210E7CFDF91CF910895EF92FF920F93A6
:102110001F93CF93DF93EC0181E0888F9B8D8C8D93
:10212000981305C0E889F989808185FD24C0F62EC1
:102130000B8D10E00F5F1F4F0F731127E02E8C8D5A
:10214000E8120CC00FB607FCFACFE889F989808144
:1021500085FFF5CFCE010E944210F1CF8B8DFE019D
:10216000E80FF11DE35AFF4FF0820B8FEA89FB89DC
:102170008081806207C0EE89FF896083E889F989E0
:1021800080818064808381E090E0DF91CF911F9116
:102190000F91FF90EF900895CF92DF92EF92FF9210
:1021A0001F93CF93DF93EC016A017B01122FE88923
:1021B000F98982E080834115514E61057105B1F0C6
:1021C00060E079E08DE390E0A70196010E9420167F
:1021D000DA01C9010197A109B109B695A7959795AB
:1021E0008795AC01411580E15807A8F0E889F98985
:1021F000108260E874E88EE190E0A70196010E94E9
:102200002016BA01A9014150510961097109769559
:10221000679557954795EC85FD855083EE85FF853D
:102220004083188EEC89FD891083EA89FB898081BF
:1022300080618083EA89FB89808188608083EA8964
:10224000FB89808180688083EA89FB8980818F7D1A
:102250008083DF91CF911F91FF90EF90DF90CF901F
:1022600008951F920F920FB60F9211242F938F9300
:102270009F93EF93FF93E091BB02F091BC028081AA
:10228000E091C102F091C20282FD12C09081809162
:10229000C4028F5F8F732091C502821751F0E091C5
:1022A000C402F0E0E555FD4F958F8093C40201C054
:1022B0008081FF91EF919F918F912F910F900FBE91
:1022C0000F901F9018951F920F920FB60F92112426
:1022D0002F933F934F935F936F937F938F939F932E
:1022E000AF93BF93EF93FF938BEA92E00E9442106B
:1022F000FF91EF91BF91AF919F918F917F916F91DE
:102300005F914F913F912F910F900FBE0F901F90B3
:1023100018958BEA92E00E94061021E0892B09F4BF
:1023200020E0822F0895EBEAF2E01382128288EE19
:1023300093E0A0E0B0E084839583A683B78387E22F
:1023400091E09183808385EC90E09587848784EC8D
:1023500090E09787868780EC90E0918B808B81EC72
:1023600090E0938B828B82EC90E0958B848B86EC53
:1023700090E0978B868B118E128E138E148E08959B
:1023800008950E94C0120E94C0110E948B01C4E3F4
:10239000D0E10E94A00A2097E1F30E943410F9CF07
:1023A000CF92DF92EF92FF920F931F93CF93DF9321
:1023B0006C017A018B01C0E0D0E0CE15DF0589F019
:1023C000D8016D918D01D601ED91FC910190F081C4
:1023D000E02DC6010995892B11F47E0102C02196DA
:1023E000ECCFC701DF91CF911F910F91FF90EF903C
:1023F000DF90CF9008956115710579F0FB01019090
:102400000020E9F73197AF01461B570BDC01ED9136
:10241000FC910280F381E02D099480E090E0089522
:102420000C94FB111F920F920FB60F9211242F9351
:102430003F938F939F93AF93BF9380914903909164
:102440004A03A0914B03B0914C033091480323E021
:10245000230F2D3720F40196A11DB11D05C026E8DC
:10246000230F0296A11DB11D2093480380934903B9
:1024700090934A03A0934B03B0934C0380914D0378
:1024800090914E03A0914F03B09150030196A11D6E
:10249000B11D80934D0390934E03A0934F03B093CF
:1024A0005003BF91AF919F918F913F912F910F90CA
:1024B0000FBE0F901F9018952FB7F89460914903A5
:1024C00070914A0380914B0390914C032FBF089564
:1024D0003FB7F89480914D0390914E03A0914F0324
:1024E000B091500326B5A89B05C02F3F19F0019667
:1024F000A11DB11D3FBFBA2FA92F982F8827820F8A
:10250000911DA11DB11DBC01CD0142E0660F771FD9
:10251000881F991F4A95D1F70895CF92DF92EF92C5
:10252000FF92CF93DF936B017C010E946812EB0155
:10253000C114D104E104F10489F00E94B9130E948E
:1025400068126C1B7D0B683E734090F381E0C81AE3
:10255000D108E108F108C851DC4FEACFDF91CF91F3
:10256000FF90EF90DF90CF9008958230910538F082
:10257000880F991F880F991F05970197F1F7089504
:10258000789484B5826084BD84B5816084BD85B54E
:10259000826085BD85B5816085BDEEE6F0E0808115
:1025A00081608083E1E8F0E0108280818260808336
:1025B000808181608083E0E8F0E0808181608083B9
:1025C000E1EBF0E0808184608083E0EBF0E08081EB
:1025D00081608083EAE7F0E080818460808380818D
:1025E0008260808380818160808380818068808335
:1025F0001092C1000895833081F028F4813099F061
:102600008230A1F008958730A9F08830B9F0843085
:10261000D1F4809180008F7D03C0809180008F77FE
:1026200080938000089584B58F7702C084B58F7D34
:1026300084BD08958091B0008F7703C08091B00071
:102640008F7D8093B0000895CF93DF9390E0FC01DD
:10265000E457FF4F2491FC01E056FF4F84918823FB
:1026600061F190E0880F991FFC01E853FF4FC5917D
:10267000D491FC01E254FF4FA591B491611109C0BE
:102680009FB7F8948881209582238883EC912E232C
:102690000BC0623061F49FB7F8943881822F809527
:1026A00083238883EC912E2B2C939FBF06C08FB77A
:1026B000F894E8812E2B28838FBFDF91CF91089566
:1026C0001F93CF93DF93282F30E0F901E858FF4F95
:1026D0008491F901E457FF4FD491F901E056FF4F7F
:1026E000C491CC23C9F0162F81110E94FB12EC2F4C
:1026F000F0E0EE0FFF1FE254FF4FA591B4918FB7AA
:10270000F894111105C09C91ED2FE095E92302C0CA
:10271000EC91ED2BEC938FBFDF91CF911F9108953A
:10272000CF93DF93282F30E0F901E858FF4F8491D1
:10273000F901E457FF4FD491F901E056FF4FC491DE
:10274000CC2391F081110E94FB12EC2FF0E0EE0FF0
:10275000FF1FEC54FF4FA591B491EC91ED2381E064
:1027600090E021F480E002C080E090E0DF91CF9122
:10277000089508955058BB27AA270E94D2130C949D
:102780004C150E943E1538F00E94451520F039F492
:102790009F3F19F426F40C943B150EF4E095E7FBEB
:1027A0000C943515E92F0E945D1558F3BA1762078E
:1027B00073078407950720F079F4A6F50C947F152C
:1027C0000EF4E0950B2EBA2FA02D0B01B90190014C
:1027D0000C01CA01A0011124FF27591B99F0593F90
:1027E00050F4503E68F11A16F040A22F232F342FD8
:1027F0004427585FF3CF469537952795A795F04026
:102800005395C9F77EF41F16BA0B620B730B840B3A
:10281000BAF09150A1F0FF0FBB1F661F771F881FF2
:10282000C2F70EC0BA0F621F731F841F48F487954A
:1028300077956795B795F7959E3F08F0B0CF93953C
:10284000880F08F09927EE0F9795879508950E94B5
:10285000111508F481E008950E9440140C944C1561
:102860000E94451558F00E943E1540F029F45F3F44
:1028700029F00C94351551110C9480150C943B15CE
:102880000E945D1568F39923B1F3552391F3951BCD
:10289000550BBB27AA2762177307840738F09F5F81
:1028A0005F4F220F331F441FAA1FA9F335D00E2EEE
:1028B0003AF0E0E832D091505040E695001CCAF75B
:1028C0002BD0FE2F29D0660F771F881FBB1F26171E
:1028D00037074807AB07B0E809F0BB0B802DBF01F5
:1028E000FF2793585F4F3AF09E3F510578F00C94C4
:1028F00035150C9480155F3FE4F3983ED4F386952C
:1029000077956795B795F7959F5FC9F7880F911DE4
:102910009695879597F90895E1E0660F771F881FD0
:10292000BB1F621773078407BA0720F0621B730B83
:10293000840BBA0BEE1F88F7E09508950E94A5144A
:102940006894B1110C94801508950E94651588F063
:102950009F5798F0B92F9927B751B0F0E1F0660F63
:10296000771F881F991F1AF0BA95C9F714C0B130A4
:1029700091F00E947F15B1E008950C947F15672FA8
:10298000782F8827B85F39F0B93FCCF386957795D3
:102990006795B395D9F73EF49095809570956195BC
:1029A0007F4F8F4F9F4F0895E89409C097FB3EF4E7
:1029B00090958095709561957F4F8F4F9F4F99238C
:1029C000A9F0F92F96E9BB279395F695879577950A
:1029D0006795B795F111F8CFFAF4BB0F11F460FFCA
:1029E0001BC06F5F7F4F8F4F9F4F16C0882311F022
:1029F00096E911C0772321F09EE8872F762F05C036
:102A0000662371F096E8862F70E060E02AF09A95D0
:102A1000660F771F881FDAF7880F9695879597F9C5
:102A20000895990F0008550FAA0BE0E8FEEF16165F
:102A30001706E807F907C0F012161306E407F507B2
:102A400098F0621B730B840B950B39F40A2661F026
:102A5000232B242B252B21F408950A2609F4A140C9
:102A6000A6958FEF811D811D089597F99F6780E8D6
:102A700070E060E008959FEF80EC089500240A94D0
:102A80001616170618060906089500240A94121649
:102A90001306140605060895092E0394000C11F47C
:102AA000882352F0BB0F40F4BF2B11F460FF04C029
:102AB0006F5F7F4F8F4F9F4F089557FD9058440F82
:102AC000551F59F05F3F71F04795880F97FB991F8D
:102AD00061F09F3F79F0879508951216130614064A
:102AE000551FF2CF4695F1DF08C0161617061806D7
:102AF000991FF1CF86957105610508940895E894B2
:102B0000BB2766277727CB0197F908950E941115F7
:102B100008F48FEF08950E949E150C944C150E94A6
:102B20003E1538F00E94451520F0952311F00C94C5
:102B300035150C943B1511240C9480150E945D15DD
:102B400070F3959FC1F3950F50E0551F629FF00100
:102B5000729FBB27F00DB11D639FAA27F00DB11D19
:102B6000AA1F649F6627B00DA11D661F829F2227A2
:102B7000B00DA11D621F739FB00DA11D621F839F29
:102B8000A00D611D221F749F3327A00D611D231FFF
:102B9000849F600D211D822F762F6A2F11249F574D
:102BA00050409AF0F1F088234AF0EE0FFF1FBB1F50
:102BB000661F771F881F91505040A9F79E3F51050F
:102BC00080F00C9435150C9480155F3FE4F3983E2B
:102BD000D4F3869577956795B795F795E7959F5FB9
:102BE000C1F7FE2B880F911D9695879597F908954B
:102BF000AA1BBB1B51E107C0AA1FBB1FA617B70723
:102C000010F0A61BB70B881F991F5A95A9F780953E
:102C10009095BC01CD01089597FB072E16F4009402
:102C200007D077FD09D00E94F81507FC05D03EF4C7
:102C3000909581959F4F0895709561957F4F089568
:102C4000A1E21A2EAA1BBB1BFD010DC0AA1FBB1FB0
:102C5000EE1FFF1FA217B307E407F50720F0A21B22
:102C6000B30BE40BF50B661F771F881F991F1A948F
:102C700069F760957095809590959B01AC01BD01B9
:102C8000CF010895EE0FFF1F0590F491E02D0994F8
:102C9000F999FECF92BD81BDF89A992780B5089524
:102CA000262FF999FECF1FBA92BD81BD20BD0FB668
:102CB000F894FA9AF99A0FBE01960895F894FFCF06
:102CC0000000C84132010101015265616420666162
:102CD000696C0000000000200DF00CC40CCC0CE06E
:102CE0000CEF0C000000008510D01106102010120F
:042CF000106310005D
:00000001FF
