:100000000C945F000C9487000C9487000C9487007C
:100010000C9487000C9487000C9487000C94870044
:100020000C9487000C9487000C9487000C94870034
:100030000C9487000C9487000C9487000C94870024
:100040000C94D0090C9487000C943A070C946C071C
:100050000C9487000C9487000C9487000C94870004
:100060000C94E2040C9487000000000800020100D8
:100070000003040700000000000000000102040863
:100080001020408001020408102001020408102002
:10009000040404040404040402020202020203032E
:1000A0000303030300000000250028002B000000CC
:1000B0000000240027002A004A0141049C07112463
:1000C0001FBECFEFD8E0DEBFCDBF11E0A0E0B1E0B2
:1000D000E6E1FBE102C005900D92A034B107D9F72B
:1000E00023E0A0E4B1E001C01D92AC31B207E1F71A
:1000F00010E0CFE5D0E004C02197FE010E94830DFF
:10010000CC35D107C9F70E94CA070C94890D0C940D
:10011000000026E040E052EC61E070E086E792E00B
:100120000E94D50686EB91E00E94170462E086E00B
:100130000E948A0A62E087E00E948A0A62E088E000
:100140000C948A0A8F929F92AF92BF92CF92DF92C5
:10015000EF92FF92CF936B017C0149015A0180918C
:100160000501833489F08434E1F0823439F583B1B8
:1001700090E00090060102C0959587950A94E2F7F9
:1001800081708093090120C086B190E00090060143
:1001900002C0959587950A94E2F7817080930901D2
:1001A00015C089B190E00090060102C09595879531
:1001B0000A94E2F78170809309010AC0833431F018
:1001C000843431F0823481F483B103C086B101C03C
:1001D00089B190E00090040102C0959587950A943A
:1001E000E2F7817080930801C091090180910701B5
:1001F000C817A1F0809108018C1741F020E030E091
:10020000A901C501B4010E94F70A0BC0A501940120
:1002100060E070E0CB010E94F60A03C060E070E08D
:10022000CB01C09307019B01AC01C701B6010E943D
:10023000F70ACF91FF90EF90DF90CF90BF90AF90F3
:100240009F908F900895CF93C82F0E941A0A7093A1
:100250009F0160939E012C2F30E04091A2015091AC
:10026000A3012417350749F07093A1016093A00101
:100270003093A3012093A2010AC02091A0013091E4
:10028000A101621B730B6139714008F401C08C2F0E
:10029000CF91089526E046E168E088EA91E00E9467
:1002A000750362E070E08FE691E00E945B0362E01C
:1002B00070E080E491E00C945B031F93CF93DF9395
:1002C0001F92CDB7DEB7633609F463C058F56730C7
:1002D00009F455C090F4633009F44DC038F461302E
:1002E00009F461C008F045C01FE36EC0653009F431
:1002F00064C008F042C016E667C06A3209F463C001
:1003000048F4693009F43FC0E0F1603209F05CC0A4
:1003100010E05AC06136C9F1D0F56D3209F054C011
:1003200010E452C06C3609F440C080F46736B9F16D
:1003300028F4653681F188F51EE546C0693699F1E5
:1003400080F16A3609F040C01EE03EC0623799F184
:1003500038F4603761F168F56E36B1F514E534C0F4
:10036000643769F150F1653761F1693769F51EE667
:100370002BC01BE529C01FE427C01DE725C017E0DF
:1003800023C01FE721C01FE61FC017E71DC01CE7E1
:100390001BC019E319C019E717C011E715C01DE309
:1003A00013C016E711C016E00FC018E30DC013E725
:1003B0000BC017E609C010E507C01DE605C018E729
:1003C00003C01EE301C013E6682F86EB91E049836A
:1003D0000E942104612F86EB91E00E94D80349819D
:1003E000612F4111606886EB91E00E94D80386EB93
:1003F00091E00F90DF91CF911F910C943E048F926A
:100400009F92AF92BF92CF92DF92EF92FF92CF93E3
:10041000DF936B017C010E94DA0BEB01072E000CCD
:10042000880B990B0E94120C9B01AC01C701B6010D
:100430000E94F60A20E030E040E251E40E94C70C3E
:100440004B015C0120E030E040E251ECC701B60115
:100450000E94630B87FF2FC040E06DE280E20E94A4
:100460005D0120E030E040E251E4C701B6010E94A6
:10047000680B6B017C0120E030E0A9010E94C20CF6
:1004800018161CF4C701B60103C0C701B601905885
:100490000E94E10B40E081E20E945D01CE016AE032
:1004A00070E00E944D0D97FF03C0919581959109D1
:1004B00041E0682F25C020E030E0A901C701B60166
:1004C0000E94630B87FF30C040E06DE280E20E9433
:1004D0005D0140E060E081E20E945D0120E030E0EB
:1004E000A901C701B6010E94C20C18161CF4C7016D
:1004F000B60103C0C701B60190580E94E10B41E06C
:1005000082E20E945D0120E030E0A901C501B40152
:100510000E94C20C18160CF448C0C501B4019058D2
:100520000E94E10B40E054C020E030E040E251E4A2
:10053000C701B6010E94630B87FF10C040E060E076
:1005400080E20E945D0140E060E081E20E945D0186
:10055000C701B6010E94E10B41E024C020E030E079
:1005600040E251E4C701B6010E94C20C40E087FDA1
:100570001FC060E080E20E945D0120E030E040E2C8
:1005800051E4C701B6010E94680B0E94E10B40E0F4
:1005900081E20E945D01CE016AE070E00E944D0D93
:1005A00041E0682F82E20E945D01C501B401B8CF2D
:1005B00065E680E20E945D0140E062E781E20E9420
:1005C0005D0140E062E782E20E945D0140E060E29E
:1005D00083E2DF91CF91FF90EF90DF90CF90BF90BB
:1005E000AF909F908F900C945D010E941A0A7093B7
:1005F000A7016093A60160910001709101018091B3
:1006000002019091030120E030E040E85FE30E94A6
:10061000A200609300017093010180930201909306
:1006200003016091A0017091A1014AE050E086E7CA
:1006300092E00E94D3086AE071E086E792E00E94AF
:10064000190860919E0170919F014AE050E086E791
:1006500092E00E94D3086AE071E086E792E00E948F
:1006600019084091000150910101609102017091BF
:10067000030122E030E086E792E00E94BE0960912B
:1006800000017091010180910201909103010E948B
:10069000E10B862F0E942301682F70E080E090E03C
:1006A0000E94100C0E94FF010E941A0A7093A5017B
:1006B0006093A4010895FC011086118612861386AA
:1006C00015A214A216A217A210A611A612A613A66E
:1006D00014A615A621E026A7CB01770FAA0BBB0B0A
:1006E000848B958BA68BB78B0895FC01668347831B
:1006F000208781E0858708958091E60190E0209130
:10070000E701821B910908959091E7018091E6012C
:10071000981750F4E92FF0E0E851FE4F208130E0C7
:100720009F5F9093E70102C02FEF3FEFC90108954B
:10073000E091E7018091E601E81730F4F0E0E8513C
:10074000FE4F808190E008958FEF9FEF0895089508
:10075000CF92DF92EF92FF920F931F93CF93DF938D
:100760007C01262F972F8A018091C201882391F066
:10077000C62FD72F6E01C40ED51ECC15DD0571F026
:100780006991D701ED91FC910190F081E02DC701B5
:100790000995F3CF642F822F0E94B904C801DF911D
:1007A000CF911F910F91FF90EF90DF90CF90089520
:1007B000CF93DF931F92CDB7DEB769832091C2013B
:1007C0002223D1F02091C301203240F021E030E01B
:1007D000FC013383228380E090E015C08091C40146
:1007E000E82FF0E0EB53FE4F998190838F5F809369
:1007F000C4018093C30105C061E0CE0101960E944F
:10080000B90481E090E00F90DF91CF910895FC0151
:100810001382128288EE93E0A0E0B0E08483958397
:10082000A683B78382E191E091838083089510923B
:10083000E7011092E6011092C4011092C3010C94DA
:10084000450481E08093C2016093E5011092C401E8
:100850001092C30108950F93062F21E04091C30128
:1008600065EC71E08091E5010E9463041092C4017F
:100870001092C3011092C2010F91089561E00C948F
:100880002B0486EB91E00C9407041092750281E032
:10089000809373021092720261E082E10E94C60AA4
:1008A00061E083E10E94C60AE9EBF0E080818E7F7F
:1008B000808380818D7F808388E48093B80085E485
:1008C0008093BC0008950F93413208F04AC0909184
:1008D00075029111FCCF32E03093750200937302E0
:1008E0003FEF3093080210924D0240934C02FB01FF
:1008F0006EE472E0DB013A2F361B341718F43191A5
:100900003D93F9CF1092740230917402880F832BBB
:100910008093740280917202813061F410927202AD
:10092000809174028093BB008091BC0083FDF8CF5E
:1009300085EC01C085EE8093BC00222321F08091DC
:1009400075028230D1F3809108028F3F79F0809157
:100950000802803241F080910802803331F094E047
:1009600005C091E003C092E001C093E0892F0F9190
:100970000895613298F420917502243089F46093CF
:100980002A02FC012CE232E0D9018A2F821B861751
:1009900018F481918D93F9CF80E0089581E0089556
:1009A00082E0089585ED8093BC008091BC0084FDB9
:1009B000FCCF10927502089585EC8093BC001092D4
:1009C000750208951F920F920FB60F9211242F9364
:1009D0003F934F935F936F937F938F939F93AF93C7
:1009E000BF93EF93FF938091B900887F803609F41D
:1009F0009EC078F5883209F45DC090F4803109F426
:100A000056C038F4882309F4F5C0883009F44FC083
:100A1000F5C0883109F44EC0803209F45FC0EEC0E1
:100A2000803409F46AC058F4803309F457C088331D
:100A300009F0E4C0809308020E94DC04DFC0803526
:100A400009F44FC0883509F45DC0883409F0D6C078
:100A5000D3C0883909F4C4C0A8F4883709F467C042
:100A600038F4883609F463C0803709F460C0C6C022
:100A7000883809F4B5C0803909F45FC0803809F0BE
:100A8000BDC05BC0803B09F483C038F4803A09F4F0
:100A900066C0883A09F47CC0B1C0803C09F4A4C0A7
:100AA000883C09F4A1C0883B09F487C0A7C08091A5
:100AB000740210C090914D0280914C02981770F50D
:100AC000E0914D0281E08E0F80934D02F0E0E25BF9
:100AD000FD4F80818093BB0085EC83C0809308022A
:100AE0008BC0E0914D0281E08E0F80934D0280918A
:100AF000BB00F0E0E25BFD4F808390914D0280915E
:100B00004C026BC0E0914D0281E08E0F80934D024C
:100B10008091BB00F0E0E25BFD4F80838091730227
:100B200081116AC081E08093720284EA5EC083E032
:100B30008093750210920902CFCF80910902803212
:100B400008F04EC0E091090281E08E0F8093090207
:100B50008091BB00F0E0E65FFD4F8083BDCF0E9437
:100B6000DC0480910902803230F4E0910902F0E067
:100B7000E65FFD4F10826091090270E0E0916E0225
:100B8000F0916F028AE092E009951092090236C056
:100B900084E08093750210922B0210922A02E09159
:100BA0007002F0917102099580912A02811105C0AD
:100BB00081E080932A0210922C02E0912B0281E0C6
:100BC0008E0F80932B02F0E0E45DFD4F80818093D7
:100BD000BB0090912B0280912A02981708F47CCFD9
:100BE00085E88093BC000AC085EC8093BC0010921D
:100BF000750204C0109208020E94D204FF91EF9186
:100C0000BF91AF919F918F917F916F915F914F9124
:100C10003F912F910F900FBE0F901F901895FC01E0
:100C2000918D228D892F90E0805C9F4F821B9109CE
:100C30008F7399270895FC01918D828D981731F05B
:100C4000828DE80FF11D858D90E008958FEF9FEF65
:100C50000895FC01918D828D981761F0828DDF01DE
:100C6000A80FB11D5D968C91928D9F5F9F73928F9F
:100C700090E008958FEF9FEF089582E997E0892B28
:100C800049F080E090E0892B29F00E9492078111C1
:100C90000C9400000895FC01848DDF01A80FB11DA4
:100CA000A35ABF4F2C91848D90E001968F739927A2
:100CB000848FA689B7892C93A089B1898C9180648F
:100CC0008C93938D848D981306C00288F389E02D50
:100CD00080818F7D80830895CF93DF93EC01888D91
:100CE0008823C9F0EA89FB89808185FD05C0A88930
:100CF000B9898C9186FD0FC00FB607FCF5CF8081B6
:100D000085FFF2CFA889B9898C9185FFEDCFCE01FF
:100D10000E944B06E7CFDF91CF910895EF92FF92AB
:100D20000F931F93CF93DF93EC0181E0888F9B8D0E
:100D30008C8D981305C0E889F989808185FD24C0D0
:100D4000F62E0B8D10E00F5F1F4F0F731127E02E53
:100D50008C8DE8120CC00FB607FCFACFE889F98930
:100D6000808185FFF5CFCE010E944B06F1CF8B8DA0
:100D7000FE01E80FF11DE35AFF4FF0820B8FEA8965
:100D8000FB898081806207C0EE89FF896083E889E2
:100D9000F98980818064808381E090E0DF91CF9148
:100DA0001F910F91FF90EF900895CF92DF92EF92F5
:100DB000FF921F93CF93DF93EC016A017B01122F07
:100DC000E889F98982E080834115514E61057105FA
:100DD000B1F060E079E08DE390E0A70196010E9418
:100DE000610DDA01C9010197A109B109B695A7956D
:100DF00097958795AC01411580E15807A8F0E889DF
:100E0000F989108260E874E88EE190E0A70196010C
:100E10000E94610DBA01A90141505109610971098E
:100E20007695679557954795EC85FD855083EE85BA
:100E3000FF854083188EEC89FD891083EA89FB8940
:100E4000808180618083EA89FB89808188608083DA
:100E5000EA89FB89808180688083EA89FB898081B7
:100E60008F7D8083DF91CF911F91FF90EF90DF9076
:100E7000CF9008951F920F920FB60F9211242F93C7
:100E80008F939F93EF93FF93E0918602F0918702F7
:100E90008081E0918C02F0918D0282FD12C09081E0
:100EA00080918F028F5F8F7320919002821751F093
:100EB000E0918F02F0E0EA58FD4F958F80938F020A
:100EC00001C08081FF91EF919F918F912F910F90A1
:100ED0000FBE0F901F9018951F920F920FB60F9292
:100EE00011242F933F934F935F936F937F938F932F
:100EF0009F93AF93BF93EF93FF9386E792E00E9497
:100F00004B06FF91EF91BF91AF919F918F917F9190
:100F10006F915F914F913F912F910F900FBE0F9066
:100F20001F90189586E792E00E940F0621E0892B1A
:100F300009F420E0822F0895E6E7F2E0138212829E
:100F400088EE93E0A0E0B0E084839583A683B78326
:100F500082E291E09183808385EC90E0958784879D
:100F600084EC90E09787868780EC90E0918B808B73
:100F700081EC90E0938B828B82EC90E0958B848B5C
:100F800086EC90E0978B868B118E128E138E148ECA
:100F9000089508950E94260A0E94C9070E948900A8
:100FA000CDE3D6E00E94F5022097E1F30E943D06D2
:100FB000F9CFCF92DF92EF92FF920F931F93CF93CF
:100FC000DF936C017A018B01C0E0D0E0CE15DF0524
:100FD00089F0D8016D918D01D601ED91FC910190C0
:100FE000F081E02DC6010995892B11F47E0102C024
:100FF0002196ECCFC701DF91CF911F910F91FF9008
:10100000EF90DF90CF9008956115710579F0FB01A5
:1010100001900020E9F73197AF01461B570BDC0127
:10102000ED91FC910280F381E02D099480E090E045
:1010300008950C940408DC01ED91FC910190F0817D
:10104000E02D09946EE271E00C9404088F929F9257
:10105000AF92BF92CF92DF92EF92FF920F931F93C6
:10106000CF93DF93CDB7DEB7A1970FB6F894DEBF6D
:101070000FBECDBF6C01142FE52FCB01022F19A29B
:10108000223008F40AE07E0121E2E20EF11C802EFB
:10109000912CA12CB12C612F7E2FA50194010E94CF
:1010A000610D029F1019112481E0E81AF1081A302D
:1010B00014F4105D01C0195CF7011083122FE32FA7
:1010C000CA01232B242B252B31F7B701C6010E941F
:1010D0000408A1960FB6F894DEBF0FBECDBFDF9116
:1010E000CF911F910F91FF90EF90DF90CF90BF9025
:1010F000AF909F908F900895CF92DF92EF92FF92E2
:101100000F931F93CF93DF93EC016A017B012115AD
:10111000310579F4E881F9810190F081E02D642FA7
:10112000DF91CF911F910F91FF90EF90DF90CF90C3
:1011300009942A303105E9F477FF1AC06DE20E9464
:101140001B088C0144275527BA014C195D096E090B
:101150007F092AE0CE010E942608800F911FDF91AF
:10116000CF911F910F91FF90EF90DF90CF90089556
:101170002AE0B701A601CE01DF91CF911F910F9117
:10118000FF90EF90DF90CF900C9426082115310549
:1011900041F4DC01ED91FC910190F081E02D642F90
:1011A00009940C9426089A01AB0160E070E00C945D
:1011B000C6084F925F926F927F928F929F92AF92EA
:1011C000BF92CF92DF92EF92FF92CF93DF93EC0129
:1011D0006A017B01B22E9A01AB01C701B6010E94E0
:1011E000340D882319F061E371E027C0260137012F
:1011F000E89477F82FEF3FEF4FE75FE7C301B201C5
:101200000E94340D81110DC02FEF3FEF4FE75FE7D4
:10121000C301B2010E94630B18161CF465E371E070
:101220000CC02FEF3FEF4FE75FE4C701B6010E940C
:10123000C20C18169CF469E371E0CE01DF91CF91E6
:10124000FF90EF90DF90CF90BF90AF909F908F90E6
:101250007F906F905F904F900C9404082FEF3FEFBA
:101260004FE75FECC701B6010E94630B87FDE3CF38
:1012700020E030E0A901C701B6010E94630B87FF9F
:101280000AC06DE2CE010E941B084C01F7FAF094EF
:10129000F7F8F09402C0812C912CA12C60E070E052
:1012A00080E09FE3AB1441F020E030E040E251E405
:1012B0000E94680BA394F6CF9B01AC01C701B60155
:1012C0000E94F70A2B013C010E94E10B6B017C019B
:1012D0000E94100C9B01AC01C301B2010E94F60AEE
:1012E0002B013C012AE0B701A601CE010E9426088D
:1012F0007C01E80CF91CBB2039F06DE371E0CE01F4
:101300000E940408E80EF91EDB2CDD2039F120E0F4
:1013100030E040E251E4C301B2010E94C70C2B014E
:101320003C010E94DA0B4B01770FAA08BB082AE0A8
:1013300030E0B501A401CE010E947C08E80EF91E40
:10134000C501B4010E94120C9B01AC01C301B201A2
:101350000E94F60A2B013C01DA94D7CFC701DF9136
:10136000CF91FF90EF90DF90CF90BF90AF909F9084
:101370008F907F906F905F904F9008950F931F9381
:10138000CF93DF93EC010E94D9088C01CE010E941B
:101390002208800F911FDF91CF911F910F91089527
:1013A0001F920F920FB60F9211242F933F938F939A
:1013B0009F93AF93BF938091140390911503A091D5
:1013C0001603B09117033091130323E0230F2D3739
:1013D00020F40196A11DB11D05C026E8230F029639
:1013E000A11DB11D20931303809314039093150343
:1013F000A0931603B09317038091180390911903DB
:10140000A0911A03B0911B030196A11DB11D8093F9
:10141000180390931903A0931A03B0931B03BF9171
:10142000AF919F918F913F912F910F900FBE0F9091
:101430001F9018952FB7F8946091140370911503BD
:1014400080911603909117032FBF0895789484B567
:10145000826084BD84B5816084BD85B5826085BDB0
:1014600085B5816085BDEEE6F0E080818160808396
:10147000E1E8F0E010828081826080838081816079
:101480008083E0E8F0E0808181608083E1EBF0E040
:10149000808184608083E0EBF0E0808181608083E4
:1014A000EAE7F0E0808184608083808182608083CD
:1014B0008081816080838081806880831092C100F8
:1014C0000895833081F028F4813099F08230A1F0C2
:1014D00008958730A9F08830B9F08430D1F4809134
:1014E00080008F7D03C0809180008F778093800083
:1014F000089584B58F7702C084B58F7D84BD08952B
:101500008091B0008F7703C08091B0008F7D809371
:10151000B0000895CF93DF9390E0FC01E458FF4FB3
:101520002491FC01E057FF4F8491882361F190E002
:10153000880F991FFC01E255FF4FC591D491FC0122
:10154000EC55FF4FA591B491611109C09FB7F89474
:101550008881209582238883EC912E230BC06230F2
:1015600061F49FB7F8943881822F80958323888314
:10157000EC912E2B2C939FBF06C08FB7F894E88177
:101580002E2B28838FBFDF91CF9108951F93CF9388
:10159000DF93282F30E0F901E859FF4F8491F901DA
:1015A000E458FF4FD491F901E057FF4FC491CC2389
:1015B000C9F0162F81110E94610AEC2FF0E0EE0FA6
:1015C000FF1FEC55FF4FA591B4918FB7F8941111FF
:1015D00005C09C91ED2FE095E92302C0EC91ED2B25
:1015E000EC938FBFDF91CF911F9108955058BB2787
:1015F000AA270E940E0B0C94880C0E947A0C38F0DB
:101600000E94810C20F039F49F3F19F426F40C94C9
:10161000770C0EF4E095E7FB0C94710CE92F0E9417
:10162000990C58F3BA17620773078407950720F0DF
:1016300079F4A6F50C94BB0C0EF4E0950B2EBA2FA2
:10164000A02D0B01B90190010C01CA01A0011124C8
:10165000FF27591B99F0593F50F4503E68F11A1674
:10166000F040A22F232F342F4427585FF3CF469505
:1016700037952795A795F0405395C9F77EF41F1627
:10168000BA0B620B730B840BBAF09150A1F0FF0FF1
:10169000BB1F661F771F881FC2F70EC0BA0F621FDD
:1016A000731F841F48F4879577956795B795F795CD
:1016B0009E3F08F0B0CF9395880F08F09927EE0F62
:1016C0009795879508950E944D0C08F481E0089540
:1016D0000E947C0B0C94880C0E94810C58F00E9494
:1016E0007A0C40F029F45F3F29F00C94710C5111F1
:1016F0000C94BC0C0C94770C0E94990C68F3992301
:10170000B1F3552391F3951B550BBB27AA276217FD
:101710007307840738F09F5F5F4F220F331F441F0A
:10172000AA1FA9F335D00E2E3AF0E0E832D091503E
:101730005040E695001CCAF72BD0FE2F29D0660F2B
:10174000771F881FBB1F261737074807AB07B0E86E
:1017500009F0BB0B802DBF01FF2793585F4F3AF074
:101760009E3F510578F00C94710C0C94BC0C5F3FBB
:10177000E4F3983ED4F3869577956795B795F795FA
:101780009F5FC9F7880F911D9695879597F90895E2
:10179000E1E0660F771F881FBB1F6217730784077E
:1017A000BA0720F0621B730B840BBA0BEE1F88F78D
:1017B000E09508950E94E10B6894B1110C94BC0C63
:1017C00008950E94A10C88F09F5798F0B92F99278F
:1017D000B751B0F0E1F0660F771F881F991F1AF01C
:1017E000BA95C9F714C0B13091F00E94BB0CB1E0BA
:1017F00008950C94BB0C672F782F8827B85F39F0B9
:10180000B93FCCF3869577956795B395D9F73EF4B4
:1018100090958095709561957F4F8F4F9F4F08955C
:10182000E89409C097FB3EF490958095709561957A
:101830007F4F8F4F9F4F9923A9F0F92F96E9BB2730
:101840009395F695879577956795B795F111F8CFAC
:10185000FAF4BB0F11F460FF1BC06F5F7F4F8F4F17
:101860009F4F16C0882311F096E911C0772321F00D
:101870009EE8872F762F05C0662371F096E8862FA5
:1018800070E060E02AF09A95660F771F881FDAF7FC
:10189000880F9695879597F90895990F0008550F29
:1018A000AA0BE0E8FEEF16161706E807F907C0F0E6
:1018B00012161306E407F50798F0621B730B840BEE
:1018C000950B39F40A2661F0232B242B252B21F4C8
:1018D00008950A2609F4A140A6958FEF811D811D68
:1018E000089597F99F6780E870E060E008959FEFA2
:1018F00080EC089500240A941616170618060906A7
:10190000089500240A941216130614060506089575
:10191000092E0394000C11F4882352F0BB0F40F4FD
:10192000BF2B11F460FF04C06F5F7F4F8F4F9F4F3D
:10193000089557FD9058440F551F59F05F3F71F0BF
:101940004795880F97FB991F61F09F3F79F0879526
:101950000895121613061406551FF2CF4695F1DFAF
:1019600008C0161617061806991FF1CF869571053F
:10197000610508940895E894BB2766277727CB0173
:1019800097F908950E944D0C08F48FEF08950E9476
:10199000DA0C0C94880C0E947A0C38F00E94810CAE
:1019A00020F0952311F00C94710C0C94770C1124F9
:1019B0000C94BC0C0E94990C70F3959FC1F3950F89
:1019C00050E0551F629FF001729FBB27F00DB11DC3
:1019D000639FAA27F00DB11DAA1F649F6627B00D53
:1019E000A11D661F829F2227B00DA11D621F739F3C
:1019F000B00DA11D621F839FA00D611D221F749F4A
:101A00003327A00D611D231F849F600D211D822F90
:101A1000762F6A2F11249F5750409AF0F1F08823B7
:101A20004AF0EE0FFF1FBB1F661F771F881F9150E4
:101A30005040A9F79E3F510580F00C94710C0C9416
:101A4000BC0C5F3FE4F3983ED4F386957795679599
:101A5000B795F795E7959F5FC1F7FE2B880F911D0E
:101A60009695879597F908950E944D0C880B990BD0
:101A70000895AA1BBB1B51E107C0AA1FBB1FA617D5
:101A8000B70710F0A61BB70B881F991F5A95A9F727
:101A900080959095BC01CD01089597FB072E16F413
:101AA000009407D077FD09D00E94390D07FC05D0BE
:101AB0003EF4909581959F4F0895709561957F4F65
:101AC0000895A1E21A2EAA1BBB1BFD010DC0AA1F7F
:101AD000BB1FEE1FFF1FA217B307E407F50720F097
:101AE000A21BB30BE40BF50B661F771F881F991F12
:101AF0001A9469F760957095809590959B01AC015B
:101B0000BD01CF010895EE0FFF1F0590F491E02D68
:061B10000994F894FFCFD8
:101B16000000A0410744060101012D2D2D00000003
:101B26000000D803A8037C0384039803A7030000DE
:101B360000008E06D9070F0629061B066C060D0A3D
:101B4600006E616E00696E66006F7666002E00009C
:00000001FF
