:100000000C9474000C949C000C949C000C949C0028
:100010000C949C000C949C000C949C000C949C00F0
:100020000C949C000C949C000C949C000C94B200CA
:100030000C949C000C949C000C949C000C949C00D0
:100040000C9470110C949C000C948F100C94C110A3
:100050000C949C000C949C000C949C000C949C00B0
:100060000C94370E0C949C00540A5B0A5B0A5B0AE2
:100070005B0A5B0A5B0A520A5B0A5B0A5B0A500A6C
:100080004E0A4C0A4A0A480A000000080002010011
:100090000003040700000000000000000102040843
:1000A00010204080010204081020010204081020E2
:1000B000040404040404040402020202020203030E
:1000C00003030303000000002300260029000000B2
:1000D0000000250028002B0000000000240027005D
:1000E0002A000B034E0DF11011241FBECFEFD8E0F4
:1000F000DEBFCDBF11E0A0E0B1E0ECE7FBE202C063
:1001000005900D92A433B107D9F723E0A4E3B1E041
:1001100001C01D92A533B207E1F710E0C4E7D0E0BB
:1001200004C02197FE010E94A015C137D107C9F76D
:100130000E941F110C94BC150C94000010928000BA
:1001400025E02093810029E03DE33093890020934E
:10015000880022E020936F0078949093CC018093E4
:10016000CB0108951F920F920FB60F9211242F9377
:100170003F938F939F932091CD013091CE01809139
:10018000CB019091CC0101972817390728F01092E4
:10019000CE011092CD0109C08091CD019091CE0188
:1001A00001969093CE018093CD011092850010921C
:1001B00084009F918F913F912F910F900FBE0F90D0
:1001C0001F9018954F925F927F928F929F92AF925D
:1001D000BF92CF92DF92EF92FF920F931F93CF9334
:1001E000DF93FC017A0140E050E000E010E0412C98
:1001F000512C20E030E0712C4B018E0C9F1C5C01D7
:1002000088E0A80EB11C8091CD019091CE01C090E4
:10021000CD01D090CE01C814D90408F05EC0861775
:10022000970708F45AC0772089F083B1807190E075
:1002300082179307B9F0C080D180D6012D913C91EF
:1002400011972F5F3F4F2D933C930CC0CF01DC01E2
:10025000CD90DD90CD01D6011D921C928A159B0593
:10026000B1F7E3CF29B1207130E02415350559F0FD
:10027000C280D380D6014D905C90BFEF4B1A5B0AD1
:10028000D6014D925C92A3B1A0724A2E512C401619
:10029000510651F0C480D580D6010D911C91119763
:1002A0000F5F1F4F0D931C9316B11170C12FB0E05B
:1002B000DB2FC417D50751F006811781D8014D9166
:1002C0005C9111974F5F5F4F4D935C9377247394CC
:1002D000AE01820129019C0196CFB1E07B1213C0CF
:1002E0009F01285F3F4FC191D1918881998197FDEE
:1002F000019695958795B7010E9456157983688375
:10030000E217F30781F7DF91CF911F910F91FF90D3
:10031000EF90DF90CF90BF90AF909F908F907F90A5
:100320005F904F90089526E040E052EC61E070E06D
:100330008FE892E00E942A108FEC91E00E94BD0CA1
:1003400062E086E00E94821262E087E00E948212F0
:1003500062E088E00E94821262E089E00E948212DC
:1003600062E081E10E94821261E083E00E948212D9
:1003700061E085E00E94821281E090E00E94A61573
:1003800090E0909375018093740182E090E00E9468
:10039000A61590E0909371018093700183E090E046
:1003A0000E94A61590E090936D0180936C0184E00B
:1003B00090E00E94A61590E09093690180936801F7
:1003C00084E190E00E949E0080E090E020E030E038
:1003D000F901E05AFE4FA901485A5E4F518340830C
:1003E00001962E5F3F4F8430910591F7909357010E
:1003F0008093560108950F931F93809142018111BC
:1004000003C081E080933E0180914101811103C0CE
:1004100081E080933D0180913E01882319F1809114
:10042000550181111FC00E94BA110091380110912D
:10043000390120913A0130913B01DC01CB01801B55
:10044000910BA20BB30B85319540A105B10520F0AE
:1004500081E080933E0106C080914001811102C07D
:1004600010923E0180913D01882319F18091540141
:1004700081111FC00E94BA11009134011091350101
:100480002091360130913701DC01CB01801B910BAB
:10049000A20BB30B85319540A105B10520F081E099
:1004A00080933D0106C080913F01811102C01092EE
:1004B0003D0180913C01811104C010923E011092D7
:1004C0003D0190914201911110923E012091410114
:1004D000211110923D0120915501211104C091116B
:1004E00002C081110AC00E94BA1160933801709352
:1004F000390180933A0190933B018091540181111D
:1005000008C080914101811104C080913C0181119A
:100510000AC00E94BA116093340170933501809330
:1005200036019093370180913E01882321F091E0BC
:100530009093400102C01092400190913D01992397
:1005400021F091E090933F0102C010923F01882377
:1005500011F05B9A01C05B9880913D01882311F0F6
:100560005D9A01C05D981F910F910895CF92DF921F
:10057000EF92FF92CF936B017C01CA01B901C9B11F
:10058000C6FBCC27C0F9C093080129B1221F22273E
:10059000221F2093070130910601C31799F02C17F1
:1005A00031F020E030E0A9010E94191307C09B013F
:1005B000AC0160E070E0CB010E94181321E02093B1
:1005C000AE0105C01092AE0160E070E0CB01C093B7
:1005D00006019B01AC01C701B6010E941913CF911E
:1005E000FF90EF90DF90CF9008952091AD01422FC2
:1005F00050E08417950758F4662321F060E08DEBF6
:1006000091E003C060E08FEA91E00C94A10B2F5FB2
:100610002093AD01089526E046E16FE08DEB91E077
:100620000E94F60A26E046E160E18FEA91E00E942E
:10063000F60A62E070E08EE791E00C946F0A1F9377
:10064000CF93DF931F92CDB7DEB7633609F463C053
:1006500058F5673009F455C090F4633009F44DC083
:1006600038F4613009F461C008F045C010EC6EC088
:10067000653009F464C008F042C019E967C06A3205
:1006800009F463C048F4693009F43FC0E0F1603216
:1006900009F05CC01FEF5AC06136C9F1D0F56D3268
:1006A00009F054C01FEB52C06C3609F440C080F40E
:1006B0006736B9F128F4653681F188F511EA46C04C
:1006C000693699F180F16A3609F040C011EF3EC0F9
:1006D000623799F138F4603761F168F56E36B1F53B
:1006E0001BEA34C0643769F150F1653761F169374D
:1006F00069F511E92BC014EA29C010EB27C012E8F4
:1007000025C018EF23C010E821C010E91FC018E869
:100710001DC013E81BC016EC19C016E817C01EE870
:1007200015C012EC13C016E711C019EF0FC017EC7B
:100730000DC01CE80BC018E909C01FEA07C012E988
:1007400005C017E803C011EC01C01CE9682F8FEC4D
:1007500091E049830E94C70C612F8FEC91E00E94C9
:100760007E0C4981612F442311F06F7701C06068CE
:100770008FEC91E00E947E0C8FEC91E00F90DF9166
:10078000CF911F910C944B0D40E060E288E30E94F2
:100790001F0340E060E289E30E941F0340E060E243
:1007A0008AE30E941F0340E060E28BE30C941F0386
:1007B0008F929F92AF92BF92CF92DF92EF92FF9271
:1007C000CF93DF936B017C010E94FC13EB01072E9A
:1007D000000C880B990B0E9434149B01AC01C701DB
:1007E000B6010E94181320E030E040E251E40E947C
:1007F000E9144B015C0120E030E040E251ECC7011C
:10080000B6010E94851318167CF140E06DE288E382
:100810000E941F0320E030E040E251E4C701B6012E
:100820000E948A136B017C0120E030E0A9010E9444
:10083000E41418161CF4C701B60103C0C701B601C1
:1008400090580E94031440E089E30E941F03CE01E8
:100850006AE070E00E946A1597FF03C09195819548
:10086000910941E0682F25C020E030E0A901C701CF
:10087000B6010E94851387FF30C040E06DE288E337
:100880000E941F0340E060E089E30E941F0320E014
:1008900030E0A901C701B6010E94E41418161CF447
:1008A000C701B60103C0C701B60190580E940314E6
:1008B00041E08AE30E941F0320E030E0A901C50166
:1008C000B4010E94E41418160CF448C0C501B40128
:1008D00090580E94031440E054C020E030E040E211
:1008E00051E4C701B6010E94851387FF10C040E0A4
:1008F00060E088E30E941F0340E060E089E30E941B
:100900001F03C701B6010E94031441E024C020E088
:1009100030E040E251E4C701B6010E94E41440E037
:1009200087FD1FC060E088E30E941F0320E030E0E5
:1009300040E251E4C701B6010E948A130E940314E9
:1009400040E089E30E941F03CE016AE070E00E944C
:100950006A1541E0682F8AE30E941F03C501B401B4
:10096000B8CF65E688E30E941F0340E062E789E3B1
:100970000E941F0340E062E78AE30E941F0340E0F9
:1009800060E28BE3DF91CF91FF90EF90DF90CF900B
:10099000BF90AF909F908F900C941F03EF92FF92A7
:1009A0000F931F93CF93DF93EC018A30910568F486
:1009B00040E060E088E30E941F0340E060E089E3DC
:1009C0000E941F0340E060E014C084369105B8F433
:1009D00040E060E088E30E941F0340E060E089E3BC
:1009E0000E941F03CE016AE070E00E945615C82FD6
:1009F00040E08AE30E941F0340E06C2F42C0C83EE3
:100A000083E0D80798F440E060E088E30E941F0389
:100A1000CE0164E670E00E9456157C0140E089E357
:100A20000E941F030AE010E0C7011EC0C03187E228
:100A3000D80780F5CE0168EE73E00E9456157C0160
:100A400040E088E30E941F0304E610E0C701B801FC
:100A50000E94561540E089E30E941F03CE01B801B1
:100A60000E9456150AE010E0B8010E94561540E0B9
:100A70008AE30E941F03CE01B8010E94561540E090
:100A8000682F8BE3DF91CF911F910F91FF90EF9033
:100A90000C941F03DF91CF911F910F91FF90EF9066
:100AA0000895CF92DF92EF92FF92CF936B017C017A
:100AB000C42F42E350E060E070E08EE791E00E94D6
:100AC000890A8823A9F0C701B601CC2339F0CF9158
:100AD000FF90EF90DF90CF900C94D8030E94FC130E
:100AE000CB01CF91FF90EF90DF90CF900C94CE048C
:100AF000CF91FF90EF90DF90CF900C94C4034F9272
:100B00005F926F927F928F929F92AF92BF92CF929D
:100B1000DF92EF92FF920F93CF936B017C0149011B
:100B20005A018091AE01882369F081E080937D01B4
:100B30000E94BA116093790170937A0180937B01CE
:100B400090937C01C0917D01CC2391F10E94BA1158
:100B50004090790150907A0160907B0170907C0107
:100B6000DC01CB0184199509A609B7098D3B924098
:100B7000A105B10598F0C701B601002319F00E9444
:100B8000D80305C00E94FC13CB010E94CE04C09183
:100B90007801CC23C9F01092780116C0402FC5010E
:100BA000B4010E94510581E080937801C0E00CC03F
:100BB000C701B601002319F00E94D80305C00E94A6
:100BC000FC13CB010E94CE048C2FCF910F91FF908C
:100BD000EF90DF90CF90BF90AF909F908F907F90DD
:100BE0006F905F904F900895EF92FF920F931F9335
:100BF000CF93DF93EC018A30910568F440E065E61D
:100C000088E30E941F0340E060E089E30E941F0325
:100C100040E060E014C084369105B8F440E065E639
:100C200088E30E941F0340E060E089E30E941F0305
:100C3000CE016AE070E00E945615C82F40E08AE3BA
:100C40000E941F0340E06C2F23C0C83E83E0D807FA
:100C500040F540E065E688E30E941F03CE0164E6AC
:100C600070E00E9456157C0140E089E30E941F035A
:100C70000AE010E0C701B8010E94561540E08AE37F
:100C80000E941F03CE01B8010E94561540E0682F54
:100C90008BE3DF91CF911F910F91FF90EF900C9418
:100CA0001F03DF91CF911F910F91FF90EF90089557
:100CB0000F931F93CF93DF93C09153018091510104
:100CC000882321F081E0C827D0E002C0C2E0D0E054
:100CD00000915201011102C0C3E0D0E01091500117
:100CE000111102C0C4E0D0E080914E01811102C018
:100CF000C5E0D0E080914D01811102C0C6E0D0E096
:100D000080914F01811102C0C7E0D0E020914C01D9
:100D1000211102C0C8E0D0E090914B01911102C0B6
:100D2000C9E0D0E081E08027281710F4CAE0D0E0C5
:100D300081E08127981710F4CBE0D0E08091550135
:100D4000081710F4CCE0D0E080915401181710F48B
:100D5000CDE0D0E020E030E04CE052E4609143018F
:100D60007091440180914501909146010E94E414E4
:100D7000181644F4013010F4CEE0D0E0113010F435
:100D8000CFE0D0E0CE01DF91CF911F910F910C9475
:100D9000F405CF93C62F682F8FEC91E00E94C70C0B
:100DA00060E08FEC91E00E947E0C6C2F8FEC91E064
:100DB0000E947E0C8FEC91E0CF910C944B0DCF9262
:100DC000DF92EF92FF920F93CF93339B02C081E0AB
:100DD00001C082E0809305016091490170914A0150
:100DE0008CE20E94C90660914701709148018DE232
:100DF0000E94C90660916C0170916D018EE20E94A3
:100E0000C90660916801709169018FE20E94C9066C
:100E100060910401262F30E080917401909175015A
:100E2000C297820F931F90934A018093490180914A
:100E3000700190917101C297280F391F30934801BA
:100E400020934701C0910501C13021F0C23009F45F
:100E500050C09FC070E080E090E00E94321420E01B
:100E600030E040E85FE30E94B6020E940314609302
:100E7000040170E080E090E00E94321400E09B01E9
:100E8000AC010E947F0580910401853620F084E644
:100E90008093040104C0811102C0C09304018091B9
:100EA000490190914A01863491051CF486E490E052
:100EB00006C08F3F910539F034F08FEF90E09093AA
:100EC0004A018093490180914701909148018634FD
:100ED00091051CF486E490E007C08F3F910509F06E
:100EE0000CF457C08FEF90E0909348018093470136
:100EF00050C06091000170910101809102019091B8
:100F0000030120E030E040E05FE30E94B6029B0175
:100F1000AC016093000170930101809302019093F2
:100F200003016091430170914401809145019091CA
:100F3000460101E00E947F05C0900001D0900101B0
:100F4000E0900201F090030120E030E04CE052E438
:100F5000C701B6010E94E41418162CF480E090E05A
:100F6000ACE0B2E40EC020E030E044E951E4C70157
:100F7000B6010E94851387FF0CC080E090E0A0E9D5
:100F8000B1E48093000190930101A0930201B0931A
:100F90000301209100013091010140910201509123
:100FA000030160914301709144018091450190914A
:100FB00046010E94181320E030E0A9010E94E414C9
:100FC000181624F481E080933C0102C010923C0189
:100FD00028B190913C0130E4939FC0011124822BF1
:100FE00088B9CF910F91FF90EF90DF90CF900C9444
:100FF000FB010F93CF93DF9300D000D0CDB7DEB7C6
:10100000609174017091750180E090E00E9432144B
:1010100020E030E040E85FE30E94B6020E94031443
:101020006F3F710521F018F08FEF90E00AC0611555
:10103000710529F0709375016093740106C081E019
:1010400090E09093750180937401609174017091A8
:10105000750180E090E00E9432149B01AC01809108
:10106000760190917701BC0180E090E029833A837A
:101070004B835C830E94321400E029813A814B81CA
:101080005C810E947F05882331F06091740181E0CA
:1010900090E00E94AE1560917401709175018CE230
:1010A0000F900F900F900F90DF91CF910F910C94B4
:1010B000C9060F93CF93DF9300D000D0CDB7DEB732
:1010C000609170017091710180E090E00E94321493
:1010D00020E030E040E85FE30E94B6020E94031483
:1010E0006F3F710521F018F08FEF90E00AC0611595
:1010F000710529F0709371016093700106C081E061
:1011000090E09093710180937001609170017091F3
:10111000710180E090E00E9432149B01AC0180914B
:10112000720190917301BC0180E090E029833A83C1
:101130004B835C830E94321400E029813A814B8109
:101140005C810E947F05882331F06091700182E00C
:1011500090E00E94AE1560917001709171018DE276
:101160000F900F900F900F90DF91CF910F910C94F3
:10117000C9060F93CF93DF9300D000D0CDB7DEB771
:1011800060916C0170916D0180E090E00E943214DA
:1011900020E030E040E85FE30E94B6020E940314C2
:1011A0006F3F710521F018F08FEF90E00AC06115D4
:1011B000710529F070936D0160936C0106C081E0A8
:1011C00090E090936D0180936C0160916C0170913F
:1011D0006D0180E090E00E9432149B01AC0180918F
:1011E0006E0190916F01BC0180E090E029833A8309
:1011F0004B835C830E94321400E029813A814B8149
:101200005C810E947F05882331F060916C0183E04E
:1012100090E00E94AE1560916C0170916D018EE2BC
:101220000F900F900F900F90DF91CF910F910C9432
:10123000C9060F93CF93DF9300D000D0CDB7DEB7B0
:10124000609168017091690180E090E00E94321421
:1012500020E030E040E85FE30E94B6020E94031401
:101260006F3F710521F018F08FEF90E00AC0611513
:10127000710529F0709369016093680106C081E0EF
:1012800090E090936901809368016091680170918A
:10129000690180E090E00E9432149B01AC018091D2
:1012A0006A0190916B01BC0180E090E029833A8350
:1012B0004B835C830E94321400E029813A814B8188
:1012C0005C810E947F05882331F06091680184E091
:1012D00090E00E94AE1560916801709169018FE203
:1012E0000F900F900F900F90DF91CF910F910C9472
:1012F000C906CF9348E050E0BC018FEC91E00E941A
:10130000480D8FEC91E00E94220C892B31F08FEC7C
:1013100091E00E942A0CC82FF4CF8C2FCF91089512
:101320008CE390E00E9479098F7008958DE390E03E
:101330000E9479098170809355018DE390E00E94AD
:10134000790986958170809354018DE390E00E9425
:10135000790982FB882780F980934F018DE390E023
:101360000E94790983FB882780F980934E018DE3E1
:1013700090E00E9479098295817080934D018DE300
:1013800090E00E94790985FB882780F980934C01C1
:101390008DE390E00E94790986FB882780F980938D
:1013A0004B018CE390E00E947909829581708093D3
:1013B00053018CE390E00E94790985FB882780F92E
:1013C000809352018CE390E00E94790986FB882784
:1013D00080F9809351018CE390E00E947909881F85
:1013E0008827881F8093500183B1817080934201C8
:1013F00083B1869581708093410108950E9496097A
:1014000061E084E690E00E94F502609343017093EE
:101410004401809345019093460141E050E065E02E
:1014200070E080E691E00E94E200E0916201F091BC
:101430006301808191819093770180937601E0919F
:101440006601F0916701808191819093730180938F
:101450007201E0916001F09161018081918190932E
:101460006F0180936E01E0916401F09165018081CC
:10147000918190936B0180936A010E94900990E0A2
:1014800080319105C0F4FC01EC5CFF4F0C94A01579
:101490000C94DF060C94F9070C9459080C94580628
:1014A0000C94B9080C94190960E088EC90E00E9453
:1014B000F5020C94D80340E060E08BE30E941F0328
:1014C00040E06EE68AE30E941F0340E060E289E3A9
:1014D0000E941F0340E060E288E30C941F03FC01BC
:1014E000108611861286138615A214A216A217A2C0
:1014F00010A611A612A613A614A615A621E026A7CB
:10150000CB01770FAA0BBB0B848B958BA68BB78B6C
:1015100008958F929F92AF92BF92CF92DF92EF92F7
:10152000FF920F931F93CF93DF93EC016A017B012E
:101530000E94BA110C891D892E893F89023011053C
:1015400021053105D1F040F40130110521053105A7
:1015500009F50E94C6111EC0033011052105310591
:1015600079F00430110521053105A1F40E94BA116A
:1015700020E63AEE40E050E009C00E94BA110AC0ED
:101580000E94BA1128EE33E040E050E00E947E1540
:10159000CA01B901CC82DD82EE82FF820C851D85F5
:1015A0002E853F854B015C01801A910AA20AB30A7D
:1015B0008C149D04AE04BF0458F06C877D878E8721
:1015C0009F878C8D811103C081E08C8F01C01C8EA0
:1015D0008C8DDF91CF911F910F91FF90EF90DF9055
:1015E000CF90BF90AF909F908F900895FC0166833D
:1015F0004783208781E085870895CF92DF92FF920D
:101600000F931F93CF93DF93EC0161E08E810E94D3
:10161000BE120E94BA1109851A852B853C85601778
:1016200071078207930720F419861A861B861C8689
:101630002D85211111C009851A852B853C85DC017A
:10164000CB01801B910BA20BB30B803D9740A105F2
:10165000B10510F481E06DC01D860E94BA11698742
:101660007A878B879C871C821B821A821982188238
:1016700061E08E810E94821260E08E810E94BE1223
:1016800064E170E080E090E00E94EB11F89461E08A
:101690008E810E94BE1288E290E00E94131260E0E8
:1016A0008E810E94821210E0F12C81E000E0C82EB1
:1016B000D12C8E810E94EE128C159D0539F40F5F9E
:1016C00081E090E00E9413120F3F99F78E810E94F3
:1016D000EE120F3FB9F0143090F010FD10C09F2DA6
:1016E000969596959695FE01E90FF11D9081990FBB
:1016F00090832885201710F491609083F3941F5FE6
:101700001535A1F6789487E28F1590F42C8130E09E
:101710004881898190E0840F911D4A81840F911D39
:101720004B81840F911D99272817390709F492CF0F
:1017300080E0DF91CF911F910F91FF90DF90CF90CC
:101740000895CF92DF92EF92FF920F931F93CF9362
:10175000DF93EC01162F0E94FD0A882309F455C07F
:101760008F818B3031F008F450C08551823098F071
:101770004CC06A8170E080E090E00E943214112336
:1017800009F44EC020E030E040E151E46B017C01FF
:10179000C701B6012BC00A81602F6F7770E080E02F
:1017A00090E00E94341420E030E040E853E40E94CE
:1017B000E9146B017C018B81682F70E080E090E080
:1017C0000E9434149B01AC01C701B6010E94191399
:1017D00020E030E040E251E40E948A1307FD905877
:1017E0001123F1F020E030E040E151E40E94E914DF
:1017F00020E030E040EA50E40E948A1320E030E02C
:1018000040E052E40E9419130BC069E071E08FE8D8
:1018100092E00E946E1140E030E020EC9FE703C0B0
:10182000462F372F282FC42ED32EE22EF92EC70194
:10183000B601DF91CF911F910F91FF90EF90DF9054
:10184000CF9008958091FF0190E020910002821BCB
:1018500091090895909100028091FF01981750F42A
:10186000E92FF0E0EF5FFD4F208130E09F5F909324
:10187000000202C02FEF3FEFC9010895E09100027E
:101880008091FF01E81730F4F0E0EF5FFD4F8081B9
:1018900090E008958FEF9FEF08950895CF92DF9223
:1018A000EF92FF920F931F93CF93DF937C01262F2C
:1018B000972F8A018091DB01882391F0C62FD72FC3
:1018C0006E01C40ED51ECC15DD0571F06991D701EE
:1018D000ED91FC910190F081E02DC7010995F3CFC6
:1018E000642F822F0E940E0EC801DF91CF911F91AD
:1018F0000F91FF90EF90DF90CF900895CF93DF93FB
:101900001F92CDB7DEB769832091DB012223D1F08E
:101910002091DC01203240F021E030E0FC013383F3
:10192000228380E090E015C08091DD01E82FF0E097
:10193000E252FE4F998190838F5F8093DD01809307
:10194000DC0105C061E0CE0101960E940E0E81E02F
:1019500090E00F90DF91CF910895FC0113821282E5
:1019600088EE93E0A0E0B0E084839583A683B783FC
:1019700087E191E091838083089510920002109294
:10198000FF011092DD011092DC010C94520D81E0F8
:101990008093DB016093FE011092DD011092DC0167
:1019A00008950F93062F21E04091DC016EED71E068
:1019B0008091FE010E94B80D1092DD011092DC01B1
:1019C0001092DB010F9108954F925F926F927F9278
:1019D000AF92BF92CF92EF92FF920F931F93CF934C
:1019E000DF935C01F62ED42F28013901EE2021F17E
:1019F0000E94C70CCE2DC43008F0C3E0C150C0F027
:101A0000D501ED91FC91B8E0CB9FC0011124A30159
:101A1000920104C056954795379527958A95D2F738
:101A2000CA01B9010190F081E02DC5010995E6CF09
:101A300060E0C5010E94D10C4D2FD13208F040E288
:101A40002C2D61E072E08F2D0E94700D109200022B
:101A50008093FF01DF91CF911F910F91FF90EF9045
:101A6000CF90BF90AF907F906F905F904F90089510
:101A7000CF92EF920F931F93C22EE12C00E010E063
:101A800098010E94E40C1F910F91EF90CF90089560
:101A900021E00C94380D61E00C94D10C8FEC91E0B6
:101AA0000C94AD0C10928E0281E080938C02109207
:101AB0008B0261E082E10E94BE1261E083E10E943C
:101AC000BE12E9EBF0E080818E7F808380818D7F84
:101AD000808388E48093B80085E48093BC000895F7
:101AE000413208F043C090918E029111FCCF91E0F9
:101AF00090938E0220938C022FEF2093210210925C
:101B00006602240F2093650290938D0290918D02BE
:101B1000880F892B80938D0280918B02813061F434
:101B200010928B0280918D028093BB008091BC004B
:101B300083FDF8CF85EC01C085EE8093BC008091D9
:101B40008E028130E1F380916602841710F4409197
:101B5000660227E632E0FB01D9018A2F821B841737
:101B600018F48D918193F9CF842F089580E0089522
:101B70000F93413208F04AC090918E029111FCCF30
:101B800032E030938E0200938C023FEF30932102BB
:101B90001092660240936502FB0167E672E0DB018A
:101BA0003A2F361B341718F431913D93F9CF109228
:101BB0008D0230918D02880F832B80938D0280914E
:101BC0008B02813061F410928B0280918D028093A0
:101BD000BB008091BC0083FDF8CF85EC01C085EE91
:101BE0008093BC00222321F080918E028230D1F3B9
:101BF000809121028F3F79F080912102803241F063
:101C000080912102803331F094E005C091E003C05F
:101C100092E001C093E0892F0F910895613298F40A
:101C200020918E02243089F460934302FC0125E464
:101C300032E0D9018A2F821B861718F481918D9387
:101C4000F9CF80E0089581E0089582E0089585ED60
:101C50008093BC008091BC0084FDFCCF10928E026A
:101C6000089585EC8093BC0010928E0208951F9217
:101C70000F920FB60F9211242F933F934F935F93C0
:101C80006F937F938F939F93AF93BF93EF93FF9344
:101C90008091B900887F803609F49EC078F588323B
:101CA00009F45DC090F4803109F456C038F48823FB
:101CB00009F4F5C0883009F44FC0F5C0883109F443
:101CC0004EC0803209F45FC0EEC0803409F46AC0AF
:101CD00058F4803309F457C0883309F0E4C0809386
:101CE00021020E94310EDFC0803509F44FC08835D3
:101CF00009F45DC0883409F0D6C0D3C0883909F42E
:101D0000C4C0A8F4883709F467C038F4883609F4E9
:101D100063C0803709F460C0C6C0883809F4B5C014
:101D2000803909F45FC0803809F0BDC05BC0803BDA
:101D300009F483C038F4803A09F466C0883A09F49B
:101D40007CC0B1C0803C09F4A4C0883C09F4A1C0A7
:101D5000883B09F487C0A7C080918D0210C0909184
:101D6000660280916502981770F5E091660281E045
:101D70008E0F80936602F0E0E959FD4F80818093D9
:101D8000BB0085EC83C0809321028BC0E09166028A
:101D900081E08E0F809366028091BB00F0E0E959EC
:101DA000FD4F808390916602809165026BC0E09147
:101DB000660281E08E0F809366028091BB00F0E0A6
:101DC000E959FD4F808380918C0281116AC081E0C6
:101DD00080938B0284EA5EC083E080938E0210922F
:101DE0002202CFCF80912202803208F04EC0E091D3
:101DF000220281E08E0F809322028091BB00F0E0EE
:101E0000ED5DFD4F8083BDCF0E94310E8091220297
:101E1000803230F4E0912202F0E0ED5DFD4F10825F
:101E20006091220270E0E0918702F091880283E2E3
:101E300092E009951092220236C084E080938E02CF
:101E40001092440210924302E0918902F0918A02BA
:101E5000099580914302811105C081E0809343027E
:101E600010924502E091440281E08E0F809344027B
:101E7000F0E0EB5BFD4F80818093BB0090914402CA
:101E800080914302981708F47CCF85E88093BC00CA
:101E90000AC085EC8093BC0010928E0204C01092A0
:101EA00021020E94270EFF91EF91BF91AF919F9168
:101EB0008F917F916F915F914F913F912F910F90F3
:101EC0000FBE0F901F901895FC01918D228D892FC8
:101ED00090E0805C9F4F821B91098F739927089532
:101EE000FC01918D828D981731F0828DE80FF11DE4
:101EF000858D90E008958FEF9FEF0895FC01918DFF
:101F0000828D981761F0828DDF01A80FB11D5D965B
:101F10008C91928D9F5F9F73928F90E008958FEFC9
:101F20009FEF089587EE90E1892B49F080E090E0E3
:101F3000892B29F00E94E71081110C94000008956C
:101F4000FC01848DDF01A80FB11DA35ABF4F2C9156
:101F5000848D90E001968F739927848FA689B78925
:101F60002C93A089B1898C9180648C93938D848DFE
:101F7000981306C00288F389E02D80818F7D8083CD
:101F80000895CF93DF93EC01888D8823C9F0EA8907
:101F9000FB89808185FD05C0A889B9898C9186FD62
:101FA0000FC00FB607FCF5CF808185FFF2CFA8895F
:101FB000B9898C9185FFEDCFCE010E94A00FE7CFAC
:101FC000DF91CF910895EF92FF920F931F93CF93DC
:101FD000DF93EC0181E0888F9B8D8C8D981305C079
:101FE000E889F989808185FD24C0F62E0B8D10E0EB
:101FF0000F5F1F4F0F731127E02E8C8DE8120CC05E
:102000000FB607FCFACFE889F989808185FFF5CF03
:10201000CE010E94A00FF1CF8B8DFE01E80FF11DC4
:10202000E35AFF4FF0820B8FEA89FB89808180623F
:1020300007C0EE89FF896083E889F989808180641F
:10204000808381E090E0DF91CF911F910F91FF900D
:10205000EF900895CF92DF92EF92FF921F93CF936C
:10206000DF93EC016A017B01122FE889F98982E094
:1020700080834115514E61057105B1F060E079E052
:102080008DE390E0A70196010E947E15DA01C90157
:102090000197A109B109B695A79597958795AC01C8
:1020A000411580E15807A8F0E889F989108260E8B5
:1020B00074E88EE190E0A70196010E947E15BA01B6
:1020C000A9014150510961097109769567955795A4
:1020D0004795EC85FD855083EE85FF854083188EFE
:1020E000EC89FD891083EA89FB8980818061808386
:1020F000EA89FB89808188608083EA89FB89808105
:1021000080688083EA89FB8980818F7D8083DF916D
:10211000CF911F91FF90EF90DF90CF9008951F9285
:102120000F920FB60F9211242F938F939F93EF93DB
:10213000FF93E0919F02F091A0028081E091A502BF
:10214000F091A60282FD12C090818091A8028F5F5B
:102150008F732091A902821751F0E091A802F0E05C
:10216000E157FD4F958F8093A80201C08081FF91B8
:10217000EF919F918F912F910F900FBE0F901F9015
:1021800018951F920F920FB60F9211242F933F9321
:102190004F935F936F937F938F939F93AF93BF936F
:1021A000EF93FF938FE892E00E94A00FFF91EF91D1
:1021B000BF91AF919F918F917F916F915F914F915F
:1021C0003F912F910F900FBE0F901F9018958FE8A1
:1021D00092E00E94640F21E0892B09F420E0822F15
:1021E0000895EFE8F2E01382128288EE93E0A0E017
:1021F000B0E084839583A683B78387E291E09183DF
:10220000808385EC90E09587848784EC90E09787C5
:10221000868780EC90E0918B808B81EC90E0938BB3
:10222000828B82EC90E0958B848B86EC90E0978B90
:10223000868B118E128E138E148E089508950E942F
:102240001E120E941E110E949301C2E9DFE00E944B
:10225000FE092097E1F30E94920FF9CFCF92DF920F
:10226000EF92FF920F931F93CF93DF936C017A014C
:102270008B01C0E0D0E0CE15DF0589F0D8016D916B
:102280008D01D601ED91FC910190F081E02DC60108
:102290000995892B11F47E0102C02196ECCFC7016C
:1022A000DF91CF911F910F91FF90EF90DF90CF9032
:1022B00008956115710579F0FB0101900020E9F79F
:1022C0003197AF01461B570BDC01ED91FC91028069
:1022D000F381E02D099480E090E008950C94591169
:1022E0001F920F920FB60F9211242F933F938F934B
:1022F0009F93AF93BF9380912D0390912E03A09154
:102300002F03B091300330912C0323E0230F2D379E
:1023100020F40196A11DB11D05C026E8230F0296E9
:10232000A11DB11D20932C0380932D0390932E03A8
:10233000A0932F03B0933003809131039091320327
:10234000A0913303B09134030196A11DB11D809378
:10235000310390933203A0933303B0933403BF91BE
:10236000AF919F918F913F912F910F900FBE0F9042
:102370001F9018952FB7F89460912D0370912E033C
:1023800080912F03909130032FBF08953FB7F894A9
:102390008091310390913203A0913303B0913403C3
:1023A00026B5A89B05C02F3F19F00196A11DB11DB0
:1023B0003FBFBA2FA92F982F8827820F911DA11DEB
:1023C000B11DBC01CD0142E0660F771F881F991F28
:1023D0004A95D1F70895CF92DF92EF92FF92CF9373
:1023E000DF936B017C010E94C611EB01C114D10483
:1023F000E104F10489F00E9417130E94C6116C1BBE
:102400007D0B683E734090F381E0C81AD108E10863
:10241000F108C851DC4FEACFDF91CF91FF90EF90E8
:10242000DF90CF9008958230910538F0880F991F82
:10243000880F991F05970197F1F70895789484B54F
:10244000826084BD84B5816084BD85B5826085BDB0
:1024500085B5816085BDEEE6F0E080818160808396
:10246000E1E8F0E010828081826080838081816079
:102470008083E0E8F0E0808181608083E1EBF0E040
:10248000808184608083E0EBF0E0808181608083E4
:10249000EAE7F0E0808184608083808182608083CD
:1024A0008081816080838081806880831092C100F8
:1024B0000895833081F028F4813099F08230A1F0C2
:1024C00008958730A9F08830B9F08430D1F4809134
:1024D00080008F7D03C0809180008F778093800083
:1024E000089584B58F7702C084B58F7D84BD08952B
:1024F0008091B0008F7703C08091B0008F7D809372
:10250000B0000895CF93DF9390E0FC01E456FF4FB5
:102510002491FC01E055FF4F8491882361F190E004
:10252000880F991FFC01E852FF4FC591D491FC011F
:10253000E253FF4FA591B491611109C09FB7F89480
:102540008881209582238883EC912E230BC06230F2
:1025500061F49FB7F8943881822F80958323888314
:10256000EC912E2B2C939FBF06C08FB7F894E88177
:102570002E2B28838FBFDF91CF9108951F93CF9388
:10258000DF93282F30E0F901E857FF4F8491F901DC
:10259000E456FF4FD491F901E055FF4FC491CC238D
:1025A000C9F0162F81110E945912EC2FF0E0EE0FA6
:1025B000FF1FE253FF4FA591B4918FB7F89411110B
:1025C00005C09C91ED2FE095E92302C0EC91ED2B25
:1025D000EC938FBFDF91CF911F910895CF93DF933D
:1025E000282F30E0F901E857FF4F8491F901E456B4
:1025F000FF4FD491F901E055FF4FC491CC2391F0E6
:1026000081110E945912EC2FF0E0EE0FFF1FEC53E6
:10261000FF4FA591B491EC91ED2381E090E021F47E
:1026200080E002C080E090E0DF91CF9108950895AE
:102630005058BB27AA270E9430130C94AA140E945A
:102640009C1438F00E94A31420F039F49F3F19F431
:1026500026F40C9499140EF4E095E7FB0C94931473
:10266000E92F0E94BB1458F3BA1762077307840757
:10267000950720F079F4A6F50C94DD140EF4E0959E
:102680000B2EBA2FA02D0B01B90190010C01CA012C
:10269000A0011124FF27591B99F0593F50F4503ED7
:1026A00068F11A16F040A22F232F342F4427585FC9
:1026B000F3CF469537952795A795F0405395C9F7E1
:1026C0007EF41F16BA0B620B730B840BBAF0915099
:1026D000A1F0FF0FBB1F661F771F881FC2F70EC038
:1026E000BA0F621F731F841F48F48795779567950B
:1026F000B795F7959E3F08F0B0CF9395880F08F0F7
:102700009927EE0F9795879508950E946F1408F406
:1027100081E008950E949E130C94AA140E94A314B1
:1027200058F00E949C1440F029F45F3F29F00C946B
:10273000931451110C94DE140C9499140E94BB1440
:1027400068F39923B1F3552391F3951B550BBB27E0
:10275000AA2762177307840738F09F5F5F4F220F25
:10276000331F441FAA1FA9F335D00E2E3AF0E0E81C
:1027700032D091505040E695001CCAF72BD0FE2F66
:1027800029D0660F771F881FBB1F261737074807FA
:10279000AB07B0E809F0BB0B802DBF01FF279358B2
:1027A0005F4F3AF09E3F510578F00C9493140C94CF
:1027B000DE145F3FE4F3983ED4F3869577956795F2
:1027C000B795F7959F5FC9F7880F911D96958795E7
:1027D00097F90895E1E0660F771F881FBB1F621706
:1027E00073078407BA0720F0621B730B840BBA0BC4
:1027F000EE1F88F7E09508950E9403146894B111C4
:102800000C94DE1408950E94C31488F09F5798F02A
:10281000B92F9927B751B0F0E1F0660F771F881FE5
:10282000991F1AF0BA95C9F714C0B13091F00E94FF
:10283000DD14B1E008950C94DD14672F782F8827FC
:10284000B85F39F0B93FCCF3869577956795B39526
:10285000D9F73EF490958095709561957F4F8F4F95
:102860009F4F0895E89409C097FB3EF4909580959A
:10287000709561957F4F8F4F9F4F9923A9F0F92F46
:1028800096E9BB279395F695879577956795B795C4
:10289000F111F8CFFAF4BB0F11F460FF1BC06F5FAA
:1028A0007F4F8F4F9F4F16C0882311F096E911C0BC
:1028B000772321F09EE8872F762F05C0662371F0DD
:1028C00096E8862F70E060E02AF09A95660F771FF1
:1028D000881FDAF7880F9695879597F90895990FCD
:1028E0000008550FAA0BE0E8FEEF16161706E807DA
:1028F000F907C0F012161306E407F50798F0621BFB
:10290000730B840B950B39F40A2661F0232B242BCF
:10291000252B21F408950A2609F4A140A6958FEFEE
:10292000811D811D089597F99F6780E870E060E040
:1029300008959FEF80EC089500240A941616170658
:1029400018060906089500240A94121613061406A0
:1029500005060895092E0394000C11F4882352F003
:10296000BB0F40F4BF2B11F460FF04C06F5F7F4FBB
:102970008F4F9F4F089557FD9058440F551F59F0A2
:102980005F3F71F04795880F97FB991F61F09F3F5C
:1029900079F087950895121613061406551FF2CF85
:1029A0004695F1DF08C0161617061806991FF1CFD5
:1029B00086957105610508940895E894BB276627FC
:1029C0007727CB0197F908950E946F1408F48FEFD1
:1029D00008950E94FC140C94AA140E949C1438F0D0
:1029E0000E94A31420F0952311F00C9493140C94DE
:1029F000991411240C94DE140E94BB1470F3959F5B
:102A0000C1F3950F50E0551F629FF001729FBB27E5
:102A1000F00DB11D639FAA27F00DB11DAA1F649F81
:102A20006627B00DA11D661F829F2227B00DA11D34
:102A3000621F739FB00DA11D621F839FA00D611DBA
:102A4000221F749F3327A00D611D231F849F600DDB
:102A5000211D822F762F6A2F11249F5750409AF004
:102A6000F1F088234AF0EE0FFF1FBB1F661F771F90
:102A7000881F91505040A9F79E3F510580F00C945B
:102A800093140C94DE145F3FE4F3983ED4F38695E0
:102A900077956795B795F795E7959F5FC1F7FE2BFB
:102AA000880F911D9695879597F90895AA1BBB1BD2
:102AB00051E107C0AA1FBB1FA617B70710F0A61B3E
:102AC000B70B881F991F5A95A9F780959095BC015F
:102AD000CD01089597FB072E16F4009407D077FDDB
:102AE00009D00E94561507FC05D03EF490958195BB
:102AF0009F4F0895709561957F4F0895A1E21A2E1A
:102B0000AA1BBB1BFD010DC0AA1FBB1FEE1FFF1F91
:102B1000A217B307E407F50720F0A21BB30BE40BE1
:102B2000F50B661F771F881F991F1A9469F7609528
:102B30007095809590959B01AC01BD01CF010895E2
:102B4000EE0FFF1F0590F491E02D0994F999FECF47
:102B500092BD81BDF89A992780B50895262FF999DD
:102B6000FECF1FBA92BD81BD20BD0FB6F894FA9A70
:0C2B7000F99A0FBE01960895F894FFCF6B
:102B7C000000C841320101010152656164206661A7
:102B8C00696C00000000007E0C4E0C220C2A0C3EDE
:102B9C000C4D0C00000000E30F2E11640F7E0F7023
:042BAC000FC10F0046
:00000001FF
