:100000000C9464000C948C000C948C000C948C0068
:100010000C948C000C948C000C948C000C948C0030
:100020000C948C000C948C000C948C000C94A2000A
:100030000C948C000C948C000C948C000C948C0010
:100040000C94620E0C948C000C94810D0C94B30DE6
:100050000C948C000C948C000C948C000C948C00F0
:100060000C94290B0C948C00000000080002010085
:100070000003040700000000000000000102040863
:100080001020408001020408102001020408102002
:10009000040404040404040402020202020203032E
:1000A00003030303000000002300260029000000D2
:1000B0000000250028002B0000000000240027007D
:1000C0002A003002400AE30D11241FBECFEFD8E012
:1000D000DEBFCDBF11E0A0E0B1E0E0E6F5E202C096
:1000E00005900D92AE32B107D9F723E0AEE2B1E050
:1000F00001C01D92A331B207E1F710E0C4E6D0E0E1
:1001000004C02197FE010E949212C136D107C9F79F
:100110000E94110E0C94AE120C94000010928000FC
:1001200025E02093810029E03DE33093890020936E
:10013000880022E020936F0078949093AA01809326
:10014000A90108951F920F920FB60F9211242F93B9
:100150003F938F939F932091AB013091AC0180919D
:10016000A9019091AA0101972817390728F0109248
:10017000AC011092AB0109C08091AB019091AC0130
:1001800001969093AC018093AB0110928500109280
:1001900084009F918F913F912F910F900FBE0F90F0
:1001A0001F9018954F925F927F928F929F92AF927D
:1001B000BF92CF92DF92EF92FF920F931F93CF9354
:1001C000DF93FC017A0140E050E000E010E0412CB8
:1001D000512C20E030E0712C4B018E0C9F1C5C01F7
:1001E00088E0A80EB11C8091AB019091AC01C09049
:1001F000AB01D090AC01C814D90408F05EC08617DA
:10020000970708F45AC0772089F083B1807190E095
:1002100082179307B9F0C080D180D6012D913C910F
:1002200011972F5F3F4F2D933C930CC0CF01DC0102
:10023000CD90DD90CD01D6011D921C928A159B05B3
:10024000B1F7E3CF29B1207130E02415350559F01D
:10025000C280D380D6014D905C90BFEF4B1A5B0AF1
:10026000D6014D925C92A3B1A0724A2E512C401639
:10027000510651F0C480D580D6010D911C91119783
:100280000F5F1F4F0D931C9316B11170C12FB0E07B
:10029000DB2FC417D50751F006811781D8014D9186
:1002A0005C9111974F5F5F4F4D935C9377247394EC
:1002B000AE01820129019C0196CFB1E07B1213C0EF
:1002C0009F01285F3F4FC191D1918881998197FD0E
:1002D000019695958795B7010E94481279836883A6
:1002E000E217F30781F7DF91CF911F910F91FF90F4
:1002F000EF90DF90CF90BF90AF909F908F907F90C6
:100300005F904F90089526E040E052EC61E070E08D
:100310008DE692E00E941C0D8DEA91E00E94AF09EB
:1003200062E086E00E94740F62E087E00E94740F32
:1003300062E088E00E94740F81E090E00E949812D1
:1003400090E0909353018093520182E090E00E94EC
:10035000981290E090934F0180934E0183E090E0DB
:100360000E94981290E090934B0180934A0184E0A0
:1003700090E00E94981290E090934701809346018C
:1003800084E090E00E948E0080E090E020E030E089
:10039000F901E25CFE4FA9014A5C5E4F5183408344
:1003A00001962E5F3F4F8430910591F79093350170
:1003B000809334010895CF92DF92EF92FF92CF9312
:1003C0006B017C01CA01B901C9B1C6FBCC27C0F9D8
:1003D000C093020129B1221F2227221F209301016D
:1003E00030910001C31799F02C1731F020E030E074
:1003F000A9010E940B1007C09B01AC0160E070E0F6
:10040000CB010E940A1021E020938C0105C01092BC
:100410008C0160E070E0CB01C09300019B01AC0156
:10042000C701B6010E940B10CF91FF90EF90DF90B3
:10043000CF90089520918B01422F50E084179507AB
:1004400058F4662321F060E08BE991E003C060E09E
:100450008DE891E00C9493082F5F20938B01089511
:1004600026E046E16FE08BE991E00E94E80726E094
:1004700046E160E18DE891E00E94E80762E070E00B
:100480008CE591E00C9461071F93CF93DF931F924B
:10049000CDB7DEB7633609F463C058F5673009F4A9
:1004A00055C090F4633009F44DC038F4613009F45C
:1004B00061C008F045C01FE36EC0653009F464C038
:1004C00008F042C016E667C06A3209F463C048F417
:1004D000693009F43FC0E0F1603209F05CC010E01F
:1004E0005AC06136C9F1D0F56D3209F054C010E43C
:1004F00052C06C3609F440C080F46736B9F128F474
:10050000653681F188F51EE546C0693699F180F1BE
:100510006A3609F040C01EE03EC0623799F138F4F7
:10052000603761F168F56E36B1F514E534C06437B3
:1005300069F150F1653761F1693769F51EE62BC045
:100540001BE529C01FE427C01DE725C017E023C015
:100550001FE721C01FE61FC017E71DC01CE71BC017
:1005600019E319C019E717C011E715C01DE313C03F
:1005700016E711C016E00FC018E30DC013E70BC05B
:1005800017E609C010E507C01DE605C018E703C05F
:100590001EE301C013E6682F8DEA91E049830E94B3
:1005A000B909612F8DEA91E00E9470094981612F9C
:1005B000411160688DEA91E00E9470098DEA91E036
:1005C0000F90DF91CF911F910C943D0A40E060E2C3
:1005D00088E30E94440240E060E289E30E94440212
:1005E00040E060E28AE30E94440240E060E28BE384
:1005F0000C9444028F929F92AF92BF92CF92DF925F
:10060000EF92FF92CF93DF936B017C010E94EE107B
:10061000EB01072E000C880B990B0E9426119B0101
:10062000AC01C701B6010E940A1020E030E040E2B0
:1006300051E40E94DB114B015C0120E030E040E21C
:1006400051ECC701B6010E94771018167CF140E00A
:100650006DE288E30E94440220E030E040E251E491
:10066000C701B6010E947C106B017C0120E030E0E4
:10067000A9010E94D61118161CF4C701B60103C0C7
:10068000C701B60190580E94F51040E089E30E942E
:100690004402CE016AE070E00E945C1297FF03C042
:1006A00091958195910941E0682F25C020E030E0C7
:1006B000A901C701B6010E94771087FF30C040E052
:1006C0006DE288E30E94440240E060E089E30E941A
:1006D000440220E030E0A901C701B6010E94D61112
:1006E00018161CF4C701B60103C0C701B601905823
:1006F0000E94F51041E08AE30E94440220E030E0CD
:10070000A901C501B4010E94D61118160CF448C005
:10071000C501B40190580E94F51040E054C020E09B
:1007200030E040E251E4C701B6010E94771087FF34
:1007300010C040E060E088E30E94440240E060E0D6
:1007400089E30E944402C701B6010E94F51041E00E
:1007500024C020E030E040E251E4C701B6010E942D
:10076000D61140E087FD1FC060E088E30E9444028C
:1007700020E030E040E251E4C701B6010E947C1065
:100780000E94F51040E089E30E944402CE016AE035
:1007900070E00E945C1241E0682F8AE30E944402EC
:1007A000C501B401B8CF65E688E30E94440240E089
:1007B00062E789E30E94440240E062E78AE30E9424
:1007C000440240E060E28BE3DF91CF91FF90EF9035
:1007D000DF90CF90BF90AF909F908F900C94440289
:1007E000EF92FF920F931F93CF93DF93EC018A3028
:1007F000910568F440E060E088E30E94440240E034
:1008000060E089E30E94440240E060E014C0843666
:100810009105B8F440E060E088E30E94440240E0C3
:1008200060E089E30E944402CE016AE070E00E9429
:100830004812C82F40E08AE30E94440240E06C2F37
:1008400042C0C83E83E0D80798F440E060E088E307
:100850000E944402CE0164E670E00E9448127C01CE
:1008600040E089E30E9444020AE010E0C7011EC094
:10087000C03187E2D80780F5CE0168EE73E00E94B0
:1008800048127C0140E088E30E94440204E610E044
:10089000C701B8010E94481240E089E30E94440267
:1008A000CE01B8010E9448120AE010E0B8010E948F
:1008B000481240E08AE30E944402CE01B8010E943F
:1008C000481240E0682F8BE3DF91CF911F910F9189
:1008D000FF90EF900C944402DF91CF911F910F9104
:1008E000FF90EF900895CF92DF92EF92FF92CF9317
:1008F0006B017C01C42F42E350E060E070E08CE5C6
:1009000091E00E947B078823A9F0C701B601CC23A0
:1009100039F0CF91FF90EF90DF90CF900C94FA02D6
:100920000E94EE10CB01CF91FF90EF90DF90CF901F
:100930000C94F003CF91FF90EF90DF90CF900C9448
:10094000E6024F925F926F927F928F929F92AF9248
:10095000BF92CF92DF92EF92FF920F93CF936B01F2
:100960007C0149015A0180918C01882369F081E062
:1009700080935B010E94AC0E609357017093580105
:100980008093590190935A01C0915B01CC2391F15E
:100990000E94AC0E40905701509058016090590150
:1009A00070905A01DC01CB0184199509A609B70999
:1009B0008D3B9240A105B10598F0C701B601002317
:1009C00019F00E94FA0205C00E94EE10CB010E94AD
:1009D000F003C0915601CC23C9F01092560116C005
:1009E000402FC501B4010E94730481E08093560139
:1009F000C0E00CC0C701B601002319F00E94FA0242
:100A000005C00E94EE10CB010E94F0038C2FCF9105
:100A10000F91FF90EF90DF90CF90BF90AF909F909D
:100A20008F907F906F905F904F900895CF93C62FD7
:100A3000682F8DEA91E00E94B90960E08DEA91E0AB
:100A40000E9470096C2F8DEA91E00E9470098DEA76
:100A500091E0CF910C943D0A0F93CF93DF9300D098
:100A600000D0CDB7DEB7609152017091530180E0A4
:100A700090E00E94241120E030E040E85FE30E9413
:100A8000DB010E94F5106F3F710521F018F08FEF28
:100A900090E00AC06115710529F0709353016093CD
:100AA000520106C081E090E090935301809352017F
:100AB000609152017091530180E090E00E942411F6
:100AC0009B01AC018091540190915501BC0180E0E3
:100AD00090E029833A834B835C830E94241100E0D9
:100AE00029813A814B815C810E94A104882331F0E5
:100AF0006091520181E090E00E94A0126091520149
:100B0000709153018CE20F900F900F900F90DF9136
:100B1000CF910F910C9416050F93CF93DF9300D0D4
:100B200000D0CDB7DEB760914E0170914F0180E0EB
:100B300090E00E94241120E030E040E85FE30E9452
:100B4000DB010E94F5106F3F710521F018F08FEF67
:100B500090E00AC06115710529F070934F01609310
:100B60004E0106C081E090E090934F0180934E01CA
:100B700060914E0170914F0180E090E00E9424113D
:100B80009B01AC018091500190915101BC0180E02A
:100B900090E029833A834B835C830E94241100E018
:100BA00029813A814B815C810E94A104882331F024
:100BB00060914E0182E090E00E94A01260914E018F
:100BC00070914F018DE20F900F900F900F90DF9179
:100BD000CF910F910C9416050F93CF93DF9300D014
:100BE00000D0CDB7DEB760914A0170914B0180E033
:100BF00090E00E94241120E030E040E85FE30E9492
:100C0000DB010E94F5106F3F710521F018F08FEFA6
:100C100090E00AC06115710529F070934B01609353
:100C20004A0106C081E090E090934B0180934A0115
:100C300060914A0170914B0180E090E00E94241184
:100C40009B01AC0180914C0190914D01BC0180E071
:100C500090E029833A834B835C830E94241100E057
:100C600029813A814B815C810E94A104882331F063
:100C700060914A0183E090E00E94A01260914A01D5
:100C800070914B018EE20F900F900F900F90DF91BB
:100C9000CF910F910C9416050F93CF93DF9300D053
:100CA00000D0CDB7DEB7609146017091470180E07A
:100CB00090E00E94241120E030E040E85FE30E94D1
:100CC000DB010E94F5106F3F710521F018F08FEFE6
:100CD00090E00AC06115710529F070934701609397
:100CE000460106C081E090E0909347018093460161
:100CF000609146017091470180E090E00E942411CC
:100D00009B01AC018091480190914901BC0180E0B8
:100D100090E029833A834B835C830E94241100E096
:100D200029813A814B815C810E94A104882331F0A2
:100D30006091460184E090E00E94A012609146011B
:100D4000709147018FE20F900F900F900F90DF91FD
:100D5000CF910F910C941605CF9348E050E0BC0161
:100D60008DEA91E00E943A0A8DEA91E00E9414090E
:100D7000892B31F08DEA91E00E941C09C82FF4CF35
:100D80008C2FCF9108958CE390E00E94AC068F7079
:100D900008958DE390E00E94AC068170809333014A
:100DA0008DE390E00E94AC068695817080933201BD
:100DB0008CE390E00E94AC068295817080933101B3
:100DC0008CE390E00E94AC0685FB882780F9809335
:100DD00030018CE390E00E94AC0686FB882780F906
:100DE00080932F018CE390E00E94AC06881F882737
:100DF000881F80932E0108950E94C90641E050E0AB
:100E000062E070E08EE391E00E94D200E091400148
:100E1000F09141018081918190935501809354011B
:100E2000E0914401F09145018081918190935101BD
:100E300080935001E0913E01F0913F0180819181CA
:100E400090934D0180934C01E0914201F091430158
:100E50008081918190934901809348010E94C3064B
:100E60008B3089F030F4882381F08730A9F40C941A
:100E70004C068E3031F08F3019F18D3069F40C94BE
:100E80008C050C942C050C94EC0560E088EC90E04B
:100E90000E941A020C94FA0240E060E08BE30E9488
:100EA000440240E06EE68AE30E94440240E060E2D1
:100EB00089E30E94440240E060E288E30C9444022B
:100EC0000895FC01108611861286138615A214A2BD
:100ED00016A217A210A611A612A613A614A615A64E
:100EE00021E026A7CB01770FAA0BBB0B848B958B38
:100EF000A68BB78B08958F929F92AF92BF92CF929D
:100F0000DF92EF92FF920F931F93CF93DF93EC0149
:100F10006A017B010E94AC0E0C891D892E893F89D4
:100F20000230110521053105D1F040F401301105E1
:100F30002105310509F50E94B80E1EC003301105C8
:100F40002105310579F00430110521053105A1F4A1
:100F50000E94AC0E20E63AEE40E050E009C00E944C
:100F6000AC0E0AC00E94AC0E28EE33E040E050E028
:100F70000E947012CA01B901CC82DD82EE82FF822A
:100F80000C851D852E853F854B015C01801A910AD9
:100F9000A20AB30A8C149D04AE04BF0458F06C87F7
:100FA0007D878E879F878C8D811103C081E08C8F18
:100FB00001C01C8E8C8DDF91CF911F910F91FF90FE
:100FC000EF90DF90CF90BF90AF909F908F9008955B
:100FD000FC0166834783208781E085870895CF924F
:100FE000DF92FF920F931F93CF93DF93EC0161E0A9
:100FF0008E810E94B00F0E94AC0E09851A852B8548
:101000003C85601771078207930720F419861A86BA
:101010001B861C862D85211111C009851A852B85FB
:101020003C85DC01CB01801B910BA20BB30B803DF7
:101030009740A105B10510F481E06DC01D860E94A6
:10104000AC0E69877A878B879C871C821B821A82E9
:101050001982188261E08E810E94740F60E08E8197
:101060000E94B00F64E170E080E090E00E94DD0E2D
:10107000F89461E08E810E94B00F88E290E00E94B7
:10108000050F60E08E810E94740F10E0F12C81E06A
:1010900000E0C82ED12C8E810E94E00F8C159D059A
:1010A00039F40F5F81E090E00E94050F0F3F99F740
:1010B0008E810E94E00F0F3FB9F0143090F010FDC8
:1010C00010C09F2D969596959695FE01E90FF11DFE
:1010D0009081990F90832885201710F49160908358
:1010E000F3941F5F1535A1F6789487E28F1590F47D
:1010F0002C8130E04881898190E0840F911D4A81E4
:10110000840F911D4B81840F911D99272817390752
:1011100009F492CF80E0DF91CF911F910F91FF9062
:10112000DF90CF900895CF92DF92EF92FF920F93CE
:101130001F93CF93DF93EC01162F0E94EF078823B4
:1011400009F455C08F818B3031F008F450C08551BF
:10115000823098F04CC06A8170E080E090E00E949C
:101160002411112309F44EC020E030E040E151E4A5
:101170006B017C01C701B6012BC00A81602F6F771C
:1011800070E080E090E00E94261120E030E040E82E
:1011900053E40E94DB116B017C018B81682F70E0AE
:1011A00080E090E00E9426119B01AC01C701B601CE
:1011B0000E940B1020E030E040E251E40E947C10DD
:1011C00007FD90581123F1F020E030E040E151E4B8
:1011D0000E94DB1120E030E040EA50E40E947C10E5
:1011E00020E030E040E052E40E940B100BC063E0CE
:1011F00071E08DE692E00E94600E40E030E020EC6D
:101200009FE703C0462F372F282FC42ED32EE22E60
:10121000F92EC701B601DF91CF911F910F91FF9079
:10122000EF90DF90CF9008958091DD0190E02091C4
:10123000DE01821B910908959091DE018091DD010C
:10124000981750F4E92FF0E0E152FE4F208130E092
:101250009F5F9093DE0102C02FEF3FEFC901089519
:10126000E091DE018091DD01E81730F4F0E0E15219
:10127000FE4F808190E008958FEF9FEF08950895CD
:10128000CF92DF92EF92FF920F931F93CF93DF9352
:101290007C01262F972F8A018091B901882391F034
:1012A000C62FD72F6E01C40ED51ECC15DD0571F0EB
:1012B0006991D701ED91FC910190F081E02DC7017A
:1012C0000995F3CF642F822F0E94000BC801DF9194
:1012D000CF911F910F91FF90EF90DF90CF900895E5
:1012E000CF93DF931F92CDB7DEB769832091B90109
:1012F0002223D1F02091BA01203240F021E030E0E9
:10130000FC013383228380E090E015C08091BB0113
:10131000E82FF0E0E454FE4F998190838F5F809333
:10132000BB018093BA0105C061E0CE0101960E9425
:10133000000B81E090E00F90DF91CF910895FC01C8
:101340001382128288EE93E0A0E0B0E0848395835C
:10135000A683B78381E191E0918380830895109201
:10136000DE011092DD011092BB011092BA010C94C3
:10137000440A81E08093B9016093DC011092BB01C3
:101380001092BA0108950F93062F21E04091BA01FF
:101390006CEB71E08091DC010E94AA0A1092BB0103
:1013A0001092BA011092B9010F9108954F925F9275
:1013B0006F927F92AF92BF92CF92EF92FF920F9374
:1013C0001F93CF93DF935C01F62ED42F28013901B0
:1013D000EE2021F10E94B909CE2DC43008F0C3E0FF
:1013E000C150C0F0D501ED91FC91B8E0CB9FC00198
:1013F0001124A301920104C056954795379527956E
:101400008A95D2F7CA01B9010190F081E02DC5019A
:101410000995E6CF60E0C5010E94C3094D2FD13286
:1014200008F040E22C2D6FED71E08F2D0E94620AD2
:101430001092DE018093DD01DF91CF911F910F911A
:10144000FF90EF90CF90BF90AF907F906F905F90A4
:101450004F900895CF92EF920F931F93C22EE12CDD
:1014600000E010E098010E94D6091F910F91EF90C3
:10147000CF90089521E00C942A0A61E00C94C309EE
:101480008DEA91E00C949F0910926C0281E08093A8
:101490006A021092690261E082E10E94B00F61E08D
:1014A00083E10E94B00FE9EBF0E080818E7F8083C2
:1014B00080818D7F808388E48093B80085E4809369
:1014C000BC000895413208F043C090916C02911124
:1014D000FCCF91E090936C0220936A022FEF20934F
:1014E000FF0110924402240F2093430290936B0259
:1014F00090916B02880F892B80936B028091690217
:10150000813061F41092690280916B028093BB007C
:101510008091BC0083FDF8CF85EC01C085EE8093FF
:10152000BC0080916C028130E1F380914402841709
:1015300010F44091440225E432E0FB01D9018A2FE6
:10154000821B841718F48D918193F9CF842F08950D
:1015500080E008950F93413208F04AC090916C02E8
:101560009111FCCF32E030936C0200936A023FEF9E
:101570003093FF011092440240934302FB0165E463
:1015800072E0DB013A2F361B341718F431913D938A
:10159000F9CF10926B0230916B02880F832B8093EE
:1015A0006B0280916902813061F41092690280912E
:1015B0006B028093BB008091BC0083FDF8CF85EC6B
:1015C00001C085EE8093BC00222321F080916C0243
:1015D0008230D1F38091FF018F3F79F08091FF013C
:1015E000803241F08091FF01803331F094E005C0FA
:1015F00091E003C092E001C093E0892F0F9108951C
:10160000613298F420916C02243089F460932102B5
:10161000FC0123E232E0D9018A2F821B861718F4DD
:1016200081918D93F9CF80E0089581E0089582E063
:10163000089585ED8093BC008091BC0084FDFCCFB3
:1016400010926C02089585EC8093BC0010926C029D
:1016500008951F920F920FB60F9211242F933F936C
:101660004F935F936F937F938F939F93AF93BF93AA
:10167000EF93FF938091B900887F803609F49EC074
:1016800078F5883209F45DC090F4803109F456C0D1
:1016900038F4882309F4F5C0883009F44FC0F5C048
:1016A000883109F44EC0803209F45FC0EEC0803446
:1016B00009F46AC058F4803309F457C0883309F03C
:1016C000E4C08093FF010E94230BDFC0803509F442
:1016D0004FC0883509F45DC0883409F0D6C0D3C046
:1016E000883909F4C4C0A8F4883709F467C038F40D
:1016F000883609F463C0803709F460C0C6C08838F2
:1017000009F4B5C0803909F45FC0803809F0BDC064
:101710005BC0803B09F483C038F4803A09F466C0AA
:10172000883A09F47CC0B1C0803C09F4A4C0883C6C
:1017300009F4A1C0883B09F487C0A7C080916B025F
:1017400010C09091440280914302981770F5E09187
:10175000440281E08E0F80934402F0E0EB5BFD4F8A
:1017600080818093BB0085EC83C08093FF018BC098
:10177000E091440281E08E0F809344028091BB008F
:10178000F0E0EB5BFD4F8083909144028091430237
:101790006BC0E091440281E08E0F809344028091FF
:1017A000BB00F0E0EB5BFD4F808380916A0281110A
:1017B0006AC081E08093690284EA5EC083E080931E
:1017C0006C0210920002CFCF80910002803208F0AC
:1017D0004EC0E091000281E08E0F80930002809164
:1017E000BB00F0E0EF5FFD4F8083BDCF0E94230B75
:1017F00080910002803230F4E0910002F0E0EF5F6F
:10180000FD4F10826091000270E0E0916502F0915E
:10181000660281E092E009951092000236C084E0F1
:1018200080936C021092220210922102E0916702D2
:10183000F0916802099580912102811105C081E033
:101840008093210210922302E091220281E08E0F08
:1018500080932202F0E0ED5DFD4F80818093BB001C
:101860009091220280912102981708F47CCF85E89C
:101870008093BC000AC085EC8093BC0010926C027F
:1018800004C01092FF010E94190BFF91EF91BF91CC
:10189000AF919F918F917F916F915F914F913F9108
:1018A0002F910F900FBE0F901F901895FC01918DF6
:1018B000228D892F90E0805C9F4F821B91098F734E
:1018C00099270895FC01918D828D981731F0828DB2
:1018D000E80FF11D858D90E008958FEF9FEF08953B
:1018E000FC01918D828D981761F0828DDF01A80F28
:1018F000B11D5D968C91928D9F5F9F73928F90E04A
:1019000008958FEF9FEF089589ED9DE0892B49F0B1
:1019100080E090E0892B29F00E94D90D81110C9470
:1019200000000895FC01848DDF01A80FB11DA35AAA
:10193000BF4F2C91848D90E001968F739927848FEF
:10194000A689B7892C93A089B1898C9180648C93E6
:10195000938D848D981306C00288F389E02D8081D1
:101960008F7D80830895CF93DF93EC01888D88234A
:10197000C9F0EA89FB89808185FD05C0A889B989FC
:101980008C9186FD0FC00FB607FCF5CF808185FFD7
:10199000F2CFA889B9898C9185FFEDCFCE010E9445
:1019A000920CE7CFDF91CF910895EF92FF920F93C2
:1019B0001F93CF93DF93EC0181E0888F9B8D8C8DFB
:1019C000981305C0E889F989808185FD24C0F62E29
:1019D0000B8D10E00F5F1F4F0F731127E02E8C8DC2
:1019E000E8120CC00FB607FCFACFE889F9898081AC
:1019F00085FFF5CFCE010E94920CF1CF8B8DFE01B9
:101A0000E80FF11DE35AFF4FF0820B8FEA89FB8943
:101A10008081806207C0EE89FF896083E889F98947
:101A200080818064808381E090E0DF91CF911F917D
:101A30000F91FF90EF900895CF92DF92EF92FF9277
:101A40001F93CF93DF93EC016A017B01122FE8898A
:101A5000F98982E080834115514E61057105B1F02D
:101A600060E079E08DE390E0A70196010E9470129A
:101A7000DA01C9010197A109B109B695A795979512
:101A80008795AC01411580E15807A8F0E889F989EC
:101A9000108260E874E88EE190E0A70196010E9450
:101AA0007012BA01A9014150510961097109769575
:101AB000679557954795EC85FD855083EE85FF85A5
:101AC0004083188EEC89FD891083EA89FB89808127
:101AD00080618083EA89FB89808188608083EA89CC
:101AE000FB89808180688083EA89FB8980818F7D82
:101AF0008083DF91CF911F91FF90EF90DF90CF9087
:101B000008951F920F920FB60F9211242F938F9367
:101B10009F93EF93FF93E0917D02F0917E0280818D
:101B2000E0918302F091840282FD12C09081809145
:101B300086028F5F8F7320918702821751F0E091A8
:101B40008602F0E0E359FD4F958F8093860201C035
:101B50008081FF91EF919F918F912F910F900FBEF8
:101B60000F901F9018951F920F920FB60F9211248D
:101B70002F933F934F935F936F937F938F939F9395
:101B8000AF93BF93EF93FF938DE692E00E94920C88
:101B9000FF91EF91BF91AF919F918F917F916F9145
:101BA0005F914F913F912F910F900FBE0F901F901B
:101BB00018958DE692E00E94560C21E0892B09F4DD
:101BC00020E0822F0895EDE6F2E01382128288EE83
:101BD00093E0A0E0B0E084839583A683B78381E29D
:101BE00091E09183808385EC90E09587848784ECF5
:101BF00090E09787868780EC90E0918B808B81ECDA
:101C000090E0938B828B82EC90E0958B848B86ECBA
:101C100090E0978B868B118E128E138E148E089502
:101C200008950E94100F0E94100E0E948301C4E8C4
:101C3000DCE00E94FC062097E1F30E94840CF9CFBF
:101C4000CF92DF92EF92FF920F931F93CF93DF9388
:101C50006C017A018B01C0E0D0E0CE15DF0589F080
:101C6000D8016D918D01D601ED91FC910190F0812B
:101C7000E02DC6010995892B11F47E0102C0219641
:101C8000ECCFC701DF91CF911F910F91FF90EF90A3
:101C9000DF90CF9008956115710579F0FB010190F7
:101CA0000020E9F73197AF01461B570BDC01ED919E
:101CB000FC910280F381E02D099480E090E008958A
:101CC0000C944B0E1F920F920FB60F9211242F936C
:101CD0003F938F939F93AF93BF9380910B0390910A
:101CE0000C03A0910D03B0910E0330910A0323E081
:101CF000230F2D3720F40196A11DB11D05C026E844
:101D0000230F0296A11DB11D20930A0380930B039C
:101D100090930C03A0930D03B0930E0380910F03D7
:101D200090911003A0911103B09112030196A11D8F
:101D3000B11D80930F0390931003A0931103B093F0
:101D40001203BF91AF919F918F913F912F910F906F
:101D50000FBE0F901F9018952FB7F89460910B034A
:101D600070910C0380910D0390910E032FBF089585
:101D70003FB7F89480910F0390911003A091110345
:101D8000B091120326B5A89B05C02F3F19F001960C
:101D9000A11DB11D3FBFBA2FA92F982F8827820FF1
:101DA000911DA11DB11DBC01CD0142E0660F771F41
:101DB000881F991F4A95D1F70895CF92DF92EF922D
:101DC000FF92CF93DF936B017C010E94B80EEB0171
:101DD000C114D104E104F10489F00E9409100E94A9
:101DE000B80E6C1B7D0B683E734090F381E0C81AFF
:101DF000D108E108F108C851DC4FEACFDF91CF915B
:101E0000FF90EF90DF90CF9008958230910538F0E9
:101E1000880F991F880F991F05970197F1F708956B
:101E2000789484B5826084BD84B5816084BD85B5B5
:101E3000826085BD85B5816085BDEEE6F0E080817C
:101E400081608083E1E8F0E010828081826080839D
:101E5000808181608083E0E8F0E080818160808320
:101E6000E1EBF0E0808184608083E0EBF0E0808152
:101E700081608083EAE7F0E08081846080838081F4
:101E8000826080838081816080838081806880839C
:101E90001092C1000895833081F028F4813099F0C8
:101EA0008230A1F008958730A9F08830B9F08430ED
:101EB000D1F4809180008F7D03C0809180008F7766
:101EC00080938000089584B58F7702C084B58F7D9C
:101ED00084BD08958091B0008F7703C08091B000D9
:101EE0008F7D8093B0000895CF93DF9390E0FC0145
:101EF000E458FF4F2491FC01E057FF4F8491882361
:101F000061F190E0880F991FFC01E854FF4FC591E3
:101F1000D491FC01E255FF4FA591B491611109C024
:101F20009FB7F8948881209582238883EC912E2393
:101F30000BC0623061F49FB7F8943881822F80958E
:101F400083238883EC912E2B2C939FBF06C08FB7E1
:101F5000F894E8812E2B28838FBFDF91CF910895CD
:101F60001F93CF93DF93282F30E0F901E859FF4FFB
:101F70008491F901E458FF4FD491F901E057FF4FE4
:101F8000C491CC23C9F0162F81110E944B0FEC2F66
:101F9000F0E0EE0FFF1FE255FF4FA591B4918FB710
:101FA000F894111105C09C91ED2FE095E92302C032
:101FB000EC91ED2BEC938FBFDF91CF911F910895A2
:101FC000CF93DF93282F30E0F901E859FF4F849138
:101FD000F901E458FF4FD491F901E057FF4FC49144
:101FE000CC2391F081110E944B0FEC2FF0E0EE0F0B
:101FF000FF1FEC55FF4FA591B491EC91ED2381E0CB
:1020000090E021F480E002C080E090E0DF91CF9189
:10201000089508955058BB27AA270E9422100C94B7
:102020009C110E948E1138F00E94951120F039F415
:102030009F3F19F426F40C948B110EF4E095E7FB06
:102040000C948511E92F0E94AD1158F3BA1762075D
:1020500073078407950720F079F4A6F50C94CF1147
:102060000EF4E0950B2EBA2FA02D0B01B9019001B3
:102070000C01CA01A0011124FF27591B99F0593FF7
:1020800050F4503E68F11A16F040A22F232F342F3F
:102090004427585FF3CF469537952795A795F0408D
:1020A0005395C9F77EF41F16BA0B620B730B840BA2
:1020B000BAF09150A1F0FF0FBB1F661F771F881F5A
:1020C000C2F70EC0BA0F621F731F841F48F48795B2
:1020D00077956795B795F7959E3F08F0B0CF9395A4
:1020E000880F08F09927EE0F9795879508950E941D
:1020F000611108F481E008950E9490100C949C11E5
:102100000E94951158F00E948E1140F029F45F3F13
:1021100029F00C94851151110C94D0110C948B1151
:102120000E94AD1168F39923B1F3552391F3951BE8
:10213000550BBB27AA2762177307840738F09F5FE8
:102140005F4F220F331F441FAA1FA9F335D00E2E55
:102150003AF0E0E832D091505040E695001CCAF7C2
:102160002BD0FE2F29D0660F771F881FBB1F261785
:1021700037074807AB07B0E809F0BB0B802DBF015C
:10218000FF2793585F4F3AF09E3F510578F00C942B
:1021900085110C94D0115F3FE4F3983ED4F38695FB
:1021A00077956795B795F7959F5FC9F7880F911D4C
:1021B0009695879597F90895E1E0660F771F881F38
:1021C000BB1F621773078407BA0720F0621B730BEB
:1021D000840BBA0BEE1F88F7E09508950E94F51066
:1021E0006894B1110C94D01108950E94B51188F033
:1021F0009F5798F0B92F9927B751B0F0E1F0660FCB
:10220000771F881F991F1AF0BA95C9F714C0B1300B
:1022100091F00E94CF11B1E008950C94CF11672F77
:10222000782F8827B85F39F0B93FCCF3869577953A
:102230006795B395D9F73EF4909580957095619523
:102240007F4F8F4F9F4F0895E89409C097FB3EF44E
:1022500090958095709561957F4F8F4F9F4F9923F3
:10226000A9F0F92F96E9BB279395F6958795779571
:102270006795B795F111F8CFFAF4BB0F11F460FF31
:102280001BC06F5F7F4F8F4F9F4F16C0882311F089
:1022900096E911C0772321F09EE8872F762F05C09D
:1022A000662371F096E8862F70E060E02AF09A9538
:1022B000660F771F881FDAF7880F9695879597F92D
:1022C0000895990F0008550FAA0BE0E8FEEF1616C7
:1022D0001706E807F907C0F012161306E407F5071A
:1022E00098F0621B730B840B950B39F40A2661F08E
:1022F000232B242B252B21F408950A2609F4A14031
:10230000A6958FEF811D811D089597F99F6780E83D
:1023100070E060E008959FEF80EC089500240A9437
:102320001616170618060906089500240A941216B0
:102330001306140605060895092E0394000C11F4E3
:10234000882352F0BB0F40F4BF2B11F460FF04C090
:102350006F5F7F4F8F4F9F4F089557FD9058440FE9
:10236000551F59F05F3F71F04795880F97FB991FF4
:1023700061F09F3F79F087950895121613061406B1
:10238000551FF2CF4695F1DF08C01616170618063E
:10239000991FF1CF86957105610508940895E89419
:1023A000BB2766277727CB0197F908950E94611113
:1023B00008F48FEF08950E94EE110C949C110E9476
:1023C0008E1138F00E94951120F0952311F00C9495
:1023D00085110C948B1111240C94D0110E94AD1115
:1023E00070F3959FC1F3950F50E0551F629FF00168
:1023F000729FBB27F00DB11D639FAA27F00DB11D81
:10240000AA1F649F6627B00DA11D661F829F222709
:10241000B00DA11D621F739FB00DA11D621F839F90
:10242000A00D611D221F749F3327A00D611D231F66
:10243000849F600D211D822F762F6A2F11249F57B4
:1024400050409AF0F1F088234AF0EE0FFF1FBB1FB7
:10245000661F771F881F91505040A9F79E3F510576
:1024600080F00C9485110C94D0115F3FE4F3983EFA
:10247000D4F3869577956795B795F795E7959F5F20
:10248000C1F7FE2B880F911D9695879597F90895B2
:10249000AA1BBB1B51E107C0AA1FBB1FA617B7078A
:1024A00010F0A61BB70B881F991F5A95A9F78095A6
:1024B0009095BC01CD01089597FB072E16F400946A
:1024C00007D077FD09D00E94481207FC05D03EF4E2
:1024D000909581959F4F0895709561957F4F0895D0
:1024E000A1E21A2EAA1BBB1BFD010DC0AA1FBB1F18
:1024F000EE1FFF1FA217B307E407F50720F0A21B8A
:10250000B30BE40BF50B661F771F881F991F1A94F6
:1025100069F760957095809590959B01AC01BD0120
:10252000CF010895EE0FFF1F0590F491E02D09945F
:10253000F999FECF92BD81BDF89A992780B508958B
:10254000262FF999FECF1FBA92BD81BD20BD0FB6CF
:10255000F894FA9AF99A0FBE01960895F894FFCF6D
:1025600001010152656164206661696C0000000030
:10257000007009400914091C0930093F09000000D6
:0E25800000D50C200E560C700C620CB30C0033
:00000001FF
