:100000000C946D000C9495000C9495000C94950044
:100010000C9495000C9495000C9495000C9495000C
:100020000C9495000C9495000C9495000C94AD00E4
:100030000C9495000C9495000C9495000C949500EC
:100040000C9426150C9495000C94A3120C94D512C4
:100050000C9495000C9495000C9495000C949500CC
:100060000C944B100C9495005E0C560C610C4D0CCE
:10007000500C530C4A0C470C440C000000080002C2
:10008000010000030407000000000000000001025E
:100090000408102040800102040810200102040816
:1000A00010200404040404040404020202020202F4
:1000B00003030303030300000000230026002900BC
:1000C00000000000250028002B0000000000240094
:1000D00027002A005C03620F051311241FBECFEF17
:1000E000D8E0DEBFCDBF11E0A0E0B1E0E2EFF2E387
:1000F00002C005900D92A235B107D9F723E0A2E521
:10010000B1E001C01D92AB36B207E1F710E0CDE6D9
:10011000D0E004C02197FE010E945B19CA36D107C6
:10012000C9F70E9433130C9477190C9400000C94B7
:1001300069191092800025E02093810029E03DE3B9
:10014000309389002093880022E020936F007894F8
:10015000909302028093010208951F920F920FB6AE
:100160000F9211242F933F938F939F93209103021B
:1001700030910402809101029091020201972817A8
:10018000390728F0109204021092030209C08091EE
:10019000030290910402019690930402809303025B
:1001A00010928500109284009F918F913F912F9122
:1001B0000F900FBE0F901F9018954F925F927F92F5
:1001C0008F929F92AF92BF92CF92DF92EF92FF9267
:1001D0000F931F93CF93DF93FC017A0140E050E02F
:1001E00000E010E0412C512C21E030E0712C4B015B
:1001F0008E0C9F1C5C0188E0A80EB11C809103024C
:1002000090910402C0900302D0900402C814D90453
:1002100008F05EC08617970708F45AC0772089F067
:1002200083B1807190E082179307B9F0C080D180CC
:10023000D6012D913C9111972F5F3F4F2D933C9309
:100240000CC0CF01DC01CD90DD90CD01D6011D9217
:100250001C928A159B05B1F7E3CF29B1207130E0DC
:100260002415350559F0C280D380D6014D905C909D
:10027000BFEF4B1A5B0AD6014D925C92A3B1A072FC
:100280004A2E512C4016510651F0C480D580D6011B
:100290000D911C9111970F5F1F4F0D931C9316B179
:1002A0001170C12FB0E0DB2FC417D50751F00681C4
:1002B0001781D8014D915C9111974F5F5F4F4D931E
:1002C0005C9377247394AE01820129019C0196CF3F
:1002D000B1E07B1213C09F01285F3F4FC191D191C4
:1002E0008881998197FD019695958795B7010E9420
:1002F000111979836883E217F30781F7DF91CF91B2
:100300001F910F91FF90EF90DF90CF90BF90AF9033
:100310009F908F907F905F904F9008950F931F93C1
:10032000CF93DF9326E040E052EC61E070E085EC93
:1003300092E00E943E1285E092E00E94D10E62E0BF
:1003400086E00E94381662E087E00E94381662E07C
:1003500088E00E94381662E089E00E94381662E068
:1003600081E10E94381661E083E00E94381661E066
:1003700085E00E94381681E090E00E94611990E0CB
:100380009093AB018093AA0182E090E00E946119F2
:1003900090E09093A7018093A60183E090E00E94F3
:1003A000611990E09093A3018093A20184E090E012
:1003B0000E94611990E090939F0180939E0104E553
:1003C00011E0C0E0D0E0CE0104960E94611990E0F7
:1003D000F801819391938F012196C630D10599F749
:1003E00085E090E00E9499008EE891E0909397015B
:1003F0008093960180E991E0909399018093980110
:1004000082E991E090939B0180939A0184E991E0C5
:1004100090939D0180939C01DF91CF911F910F914B
:1004200008950F931F9380917801811103C081E09B
:100430008093740180917701811103C081E08093E2
:10044000730180917401882319F180918D018111CC
:100450001FC00E94701500916E0110916F012091D4
:10046000700130917101DC01CB01801B910BA20B5B
:10047000B30B893B9B40A105B10520F081E080933F
:10048000740106C080917601811102C0109274013E
:1004900080917301882319F180918C0181111FC013
:1004A0000E94701500916A0110916B0120916C01FE
:1004B00030916D01DC01CB01801B910BA20BB30BC2
:1004C000893B9B40A105B10520F081E08093730139
:1004D00006C080917501811102C010927301809154
:1004E0007201811104C010927401109273019091F5
:1004F00078019111109274012091770121111092CD
:1005000073014091790150917A0120910C01309151
:100510000D014217530724F41092740110927301D5
:1005200020918D01211104C0911102C081110AC0D6
:100530000E94701560936E0170936F01809370013B
:100540009093710180918C01811108C08091770195
:10055000811104C08091720181110AC00E9470153E
:1005600060936A0170936B0180936C0190936D01AD
:1005700080917401882321F091E09093760102C06C
:100580001092760190917301992321F091E090935C
:10059000750102C010927501882311F05B9A01C0A9
:1005A0005B9880917301882311F05D9A01C05D987A
:1005B0001F910F910895CF92DF92EF92FF92CF9308
:1005C0006B017C01CA01B901C9B1C6FBCC27C0F9D6
:1005D000C093160129B1221F2227221F2093150143
:1005E00030911401C31799F02C1731F020E030E05E
:1005F000A9010E94CF1607C09B01AC0160E070E02A
:10060000CB010E94CE1621E02093E40105C0109298
:10061000E40160E070E0CB01C09314019B01AC01E8
:10062000C701B6010E94CF16CF91FF90EF90DF90E7
:10063000CF9008952091E301422F50E08417950751
:1006400058F4662321F060E083EF91E003C060E09E
:1006500085EE91E00C94B50D2F5F2093E301089592
:1006600041E050E062E070E086E991E00E94DD0048
:10067000E6E9F1E0A081B1818D919C919093AD016B
:100680008093AC01A481B5818D919C919093A90137
:100690008093A801A281B3818D919C919093A50133
:1006A0008093A4010680F781E02D80819181909351
:1006B000A1018093A001089526E046E16FE083EF59
:1006C00091E00E940A0D26E046E160E185EE91E0AE
:1006D0000E940A0D62E070E084EB91E00C94830CC0
:1006E0001F93CF93DF931F92CDB7DEB7633609F424
:1006F00063C058F5673009F455C090F4633009F4CD
:100700004DC038F4613009F461C008F045C010EC08
:100710006EC0653009F464C008F042C019E967C0D2
:100720006A3209F463C048F4693009F43FC0E0F16B
:10073000603209F05CC01FEF5AC06136C9F1D0F5D4
:100740006D3209F054C01FEB52C06C3609F440C042
:1007500080F46736B9F128F4653681F188F511EA3D
:1007600046C0693699F180F16A3609F040C011EF50
:100770003EC0623799F138F4603761F168F56E3642
:10078000B1F51BEA34C0643769F150F1653761F1A6
:10079000693769F511E92BC014EA29C010EB27C0AD
:1007A00012E825C018EF23C010E821C010E91FC0CF
:1007B00018E81DC013E81BC016EC19C016E817C0D6
:1007C0001EE815C012EC13C016E711C019EF0FC0D8
:1007D00017EC0DC01CE80BC018E909C01FEA07C0E0
:1007E00012E905C017E803C011EC01C01CE9682F2D
:1007F00085E092E049830E94DB0E612F85E092E064
:100800000E94920E4981612F442311F06F7701C03D
:10081000606885E092E00E94920E85E092E00F9081
:10082000DF91CF911F910C945F0F40E060E288E36D
:100830000E94700340E060E289E30E94700340E0A0
:1008400060E28AE30E94700340E060E28BE30C9474
:1008500070038F929F92AF92BF92CF92DF92EF92EE
:10086000FF92CF93DF936B017C010E94B217EB01E3
:10087000072E000C880B990B0E94EA179B01AC0114
:10088000C701B6010E94CE1620E030E040E251E4FC
:100890000E949F184B015C0120E030E040E251ECE7
:1008A000C701B6010E943B1718167CF140E06DE2CB
:1008B00088E30E94700320E030E040E251E4C70189
:1008C000B6010E9440176B017C0120E030E0A901D5
:1008D0000E949A1818161CF4C701B60103C0C7017C
:1008E000B60190580E94B91740E089E30E94700356
:1008F000CE016AE070E00E94251997FF03C0919530
:100900008195910941E0682F25C020E030E0A901E0
:10091000C701B6010E943B1787FF30C040E06DE27F
:1009200088E30E94700340E060E089E30E94700366
:1009300020E030E0A901C701B6010E949A181816FC
:100940001CF4C701B60103C0C701B60190580E944C
:10095000B91741E08AE30E94700320E030E0A9016A
:10096000C501B4010E949A1818160CF448C0C501BC
:10097000B40190580E94B91740E054C020E030E024
:1009800040E251E4C701B6010E943B1787FF10C047
:1009900040E060E088E30E94700340E060E089E3AB
:1009A0000E947003C701B6010E94B91741E024C03C
:1009B00020E030E040E251E4C701B6010E949A18FD
:1009C00040E087FD1FC060E088E30E94700320E0E4
:1009D00030E040E251E4C701B6010E9440170E9496
:1009E000B91740E089E30E947003CE016AE070E02D
:1009F0000E94251941E0682F8AE30E947003C50117
:100A0000B401B8CF65E688E30E94700340E062E776
:100A100089E30E94700340E062E78AE30E9470036A
:100A200040E060E28BE3DF91CF91FF90EF90DF90A9
:100A3000CF90BF90AF909F908F900C947003EF92E7
:100A4000FF920F931F93CF93DF93EC018A309105B0
:100A500068F440E060E088E30E94700340E060E0FA
:100A600089E30E94700340E060E014C08436910581
:100A7000B8F440E060E088E30E94700340E060E08A
:100A800089E30E947003CE016AE070E00E941119B0
:100A9000C82F40E08AE30E94700340E06C2F42C000
:100AA000C83E83E0D80798F440E060E088E30E9405
:100AB0007003CE0164E670E00E9411197C0140E0F1
:100AC00089E30E9470030AE010E0C7011EC0C03134
:100AD00087E2D80780F5CE0168EE73E00E94111915
:100AE0007C0140E088E30E94700304E610E0C70147
:100AF000B8010E94111940E089E30E947003CE0101
:100B0000B8010E9411190AE010E0B8010E94111901
:100B100040E08AE30E947003CE01B8010E941119DF
:100B200040E0682F8BE3DF91CF911F910F91FF90F1
:100B3000EF900C947003DF91CF911F910F91FF9074
:100B4000EF900895CF92DF92EF92FF92CF936B01D7
:100B50007C01C42F42E350E060E070E084EB91E060
:100B60000E949D0C8823A9F0C701B601C1110AC0DB
:100B70000E94B217CB01CF91FF90EF90DF90CF9002
:100B80000C941F05CF91FF90EF90DF90CF900C94C5
:100B90002904CF91FF90EF90DF90CF900C94150433
:100BA0004F925F926F927F928F929F92AF92BF927D
:100BB000CF92DF92EF92FF920F931F93CF936B012F
:100BC0007C0149015A018091E401882369F081E0A8
:100BD0008093B3010E9470156093AF017093B001D0
:100BE0008093B1019093B201C091B301CC2309F479
:100BF00043C00E9470154090AF015090B0016090CA
:100C0000B1017090B201DC01CB0184199509A609EC
:100C1000B7098D3B9240A105B10508F101151105F9
:100C200029F4C701B6010E94B2170FC001301105A7
:100C300029F4C701B6010E9429040AC00230110537
:100C400039F4C701B6010E94B917CB010E941F05F4
:100C5000C091AE01CC2371F01092AE0127C041E0EB
:100C6000012B09F440E0C501B4010E94A20581E016
:100C70008093AE01C0E01AC00115110529F4C70127
:100C8000B6010E94B2170FC00130110529F4C70147
:100C9000B6010E9429040AC00230110559F7C701A4
:100CA000B6010E94B917CB010E941F058C2FCF916E
:100CB0001F910F91FF90EF90DF90CF90BF90AF907A
:100CC0009F908F907F906F905F904F900895EF92DC
:100CD000FF920F931F93CF93DF93EC018A3091051E
:100CE00068F440E065E688E30E94700340E060E05D
:100CF00089E30E94700340E060E014C084369105EF
:100D0000B8F440E065E688E30E94700340E060E0EC
:100D100089E30E947003CE016AE070E00E9411191D
:100D2000C82F40E08AE30E94700340E06C2F23C08C
:100D3000C83E83E0D80740F540E065E688E30E94BE
:100D40007003CE0164E670E00E9411197C0140E05E
:100D500089E30E9470030AE010E0C701B8010E9415
:100D6000111940E08AE30E947003CE01B8010E948D
:100D7000111940E0682F8BE3DF91CF911F910F9104
:100D8000FF90EF900C947003DF91CF911F910F9122
:100D9000FF90EF900895EF92FF920F931F93CF93E0
:100DA000DF93109269011092680180918B0181118B
:100DB00006C081E090E09093690180936801809182
:100DC0008901811109C08091680190916901826057
:100DD000909369018093680180918A01811109C013
:100DE000809168019091690184609093690180937A
:100DF000680180918801811109C0809168019091FA
:100E000069018860909369018093680180918601EF
:100E1000811109C08091680190916901806190936E
:100E200069018093680180918501811109C08091D9
:100E300068019091690180629093690180936801D3
:100E400080918701811109C08091680190916901A9
:100E5000806490936901809368018091840181117D
:100E600009C080916801909169018068909369013F
:100E70008093680180918301811109C0809168018C
:100E8000909169019160909369018093680180E07D
:100E900090E00E94670606E511E0C0E0D0E0EE2495
:100EA000E394F12C80916801909169010C2E02C0AD
:100EB000959587950A94E2F7F80180FF1BC0F182AF
:100EC000E0828091540190915501843F91406CF4EF
:100ED000CE010E94670680915401909155010196C0
:100EE0009093550180935401ECCF109255011092CC
:100EF000540102C01182108221960E5F1F4FC9302B
:100F0000D10581F6DF91CF911F910F91FF90EF9066
:100F10000895CF93C62F682F85E092E00E94DB0EE4
:100F200060E085E092E00E94920E6C2F85E092E0F6
:100F30000E94920E85E092E0CF910C945F0F0F9388
:100F40001F93CF93DF9300D000D0CDB7DEB7339B94
:100F500002C081E001C082E08093130180915201C0
:100F600090915301181619062CF01092530110920B
:100F7000520108C0059734F085E090E0909353014A
:100F80008093520180911301813031F560915201BB
:100F900070915301072E000C880B990B0E94EA17E1
:100FA00020E030E040E85FE30E94DB020E94B217DD
:100FB0007093530160935201660F771FFB01E0505D
:100FC000FF4F60817181072E000C880B990B0E94E6
:100FD000EA170E9429048CC0823009F089C08091F0
:100FE000520190915301880F991F8C010C5A1E4F8A
:100FF000F80160817181072E000C880B990B0E940B
:10100000EA1720E030E040E050E40E94DB020E945A
:10101000B217F80171836083E0915201F09153019E
:10102000EE0FFF1FEC5AFE4F60817181072E000CFE
:10103000880B990B0E94EA172EE230E940E25DE34B
:101040000E949F189B01AC018091A0019091A10189
:10105000BC0180E090E029833A834B835C830E944B
:10106000E81702E010E029813A814B815C810E94FF
:10107000D005882339F18091520190915301FC01F0
:10108000EE0FFF1FEC5AFE4F608104960E949700FE
:10109000E0915201F0915301EE0FFF1FEC5AFE4F09
:1010A000608171818CE20E948907E0915201F09188
:1010B0005301EE0FFF1FEC5AFE4F608171818DE2EC
:1010C0000E948907E0915201F0915301EE0FFF1F3A
:1010D000EC5AFE4F808191818F3F91051CF08FEF7C
:1010E00090E004C04D9724F48CE190E091838083DC
:1010F0000F900F900F900F90DF91CF911F910F9154
:101100000C9430030F931F93CF93DF938091790159
:1011100090917A012091000130910101281739073F
:1011200064F060915401709155018CE20E9489072E
:10113000609154017091550112C020910A013091C3
:101140000B018217930794F060915E0170915F012B
:101150008CE20E94890760915E0170915F018DE2CF
:10116000DF91CF911F910F910C948907CCE0D1E0D2
:1011700004E511E08091790190917A0122972A810A
:101180003B81821793078CF428813981821793075A
:1011900064F0F801628573858CE20E948907F8018A
:1011A000628573858DE20E94890702501109F1E082
:1011B000C030DF07F9F6DF91CF911F910F910895AD
:1011C000CF92DF92EF92FF920F931F93CF93339BB7
:1011D00002C081E001C082E080931301609181012F
:1011E000709182018EE20E94890760917F01709167
:1011F00080018FE20E9489070E948208609112019B
:10120000262F30E08091AA019091AB01C297820F06
:10121000931F90938201809381018091A601909108
:10122000A701C297280F391F3093800120937F01B7
:10123000C0911301C13021F0C23009F451C0A1C0E6
:1012400070E080E090E00E94E81720E030E040E8A5
:101250005FE30E94DB020E94B9176093120170E005
:1012600080E090E00E94E81700E010E09B01AC01F4
:101270000E94D00580911201853620F084E680938B
:10128000120104C0811102C0C0931201809181013A
:1012900090918201823391051CF482E390E006C0B4
:1012A0008F3F910539F034F08FEF90E090938201F9
:1012B0008093810180917F0190918001823391051B
:1012C0001CF482E390E007C08F3F910509F00CF415
:1012D00058C08FEF90E09093800180937F0151C0C0
:1012E00060910E0170910F01809110019091110198
:1012F00020E030E040E05FE30E94DB029B01AC01B4
:1013000060930E0170930F0180931001909311016F
:1013100060917B0170917C0180917D0190917E01B3
:1013200001E010E00E94D005C0900E01D0900F01A6
:10133000E0901001F090110120E030E04CE052E428
:10134000C701B6010E949A1818162CF480E090E0AC
:10135000ACE0B2E40EC020E030E044E951E4C70163
:10136000B6010E943B1787FF0CC080E090E0A0E927
:10137000B1E480930E0190930F01A0931001B093FC
:10138000110120910E0130910F01409110015091F7
:10139000110160917B0170917C0180917D019091A0
:1013A0007E010E94CE1620E030E0A9010E949A182A
:1013B000181624F481E08093720102C01092720129
:1013C00080917201882311F0429A01C04298CF9116
:1013D0001F910F91FF90EF90DF90CF900C9411022E
:1013E0000F931F93CF93DF9300D000D0CDB7DEB71C
:1013F0006091AA017091AB0180E090E00E94E81733
:1014000020E030E040E050E40E94DB020E94B91787
:101410006F3F710521F018F08FEF90E00AC06D3139
:10142000710528F07093AB016093AA0106C08CE1AE
:1014300090E09093AB018093AA016091AA01709112
:10144000AB0180E090E00E94E8172EE230E940E234
:101450005DE30E949F189B01AC018091AC019091CB
:10146000AD01BC0180E090E029833A834B835C832B
:101470000E94E81702E010E029813A814B815C81EB
:101480000E94D005882331F06091AA0181E090E0AC
:101490000E9497006091AA017091AB018EE20E94B8
:1014A00089070F900F900F900F90DF91CF911F91B0
:1014B0000F910C9430030F931F93CF93DF9300D0C1
:1014C00000D0CDB7DEB76091A6017091A70180E092
:1014D00090E00E94E81720E030E040E050E40E94F5
:1014E000DB020E94B9176F3F710518F08FEF90E093
:1014F0000AC06D31710528F07093A7016093A601B1
:1015000006C08CE190E09093A7018093A6016091C2
:10151000A6017091A70180E090E00E94E8172EE2FA
:1015200030E940E25DE30E949F189B01AC0180918D
:10153000A8019091A901BC0180E090E029833A8341
:101540004B835C830E94E81702E010E029813A8116
:101550004B815C810E94D005882331F06091A60107
:1015600082E090E00E9497006091A6017091A7012F
:101570008FE20E9489070F900F900F900F90DF91DC
:10158000CF911F910F910C9430030F931F93CF9322
:10159000DF9300D000D0CDB7DEB76091A20170918B
:1015A000A30180E090E00E94E81720E030E040E0F6
:1015B00050E40E94DB020E94B9176F3F710518F0DA
:1015C0008FEF90E00AC06D31710528F07093A30190
:1015D0006093A20106C08CE190E09093A3018093F8
:1015E000A2016091A2017091A30180E090E00E94AD
:1015F000E8172EE230E940E25DE30E949F189B016C
:10160000AC018091A4019091A501BC0180E090E023
:1016100029833A834B835C830E94E81702E010E041
:1016200029813A814B815C810E94D005882331F069
:101630006091A20183E090E00E9497006091A20176
:101640007091A3018CE20E9489070F900F900F9078
:101650000F90DF91CF911F910F910C9430030F9356
:101660001F93CF93DF9300D000D0CDB7DEB760914A
:101670009E0170919F0180E090E00E94E81720E0B9
:1016800030E040E050E40E94DB020E94B9176F3F57
:10169000710518F08FEF90E00AC06D31710528F0E8
:1016A00070939F0160939E0106C08CE190E090933F
:1016B0009F0180939E0160919E0170919F0180E047
:1016C00090E00E94E8172EE230E940E25DE30E94DC
:1016D0009F189B01AC018091A0019091A101BC01D8
:1016E00080E090E029833A834B835C830E94E81773
:1016F00002E010E029813A814B815C810E94D00593
:10170000882331F060919E0184E090E00E94970070
:1017100060919E0170919F018DE20E9489070F9058
:101720000F900F900F90DF91CF911F910F910C941C
:101730003003CF9348E050E0BC0185E092E00E9486
:101740005C0F85E092E00E94360E892B31F085E037
:1017500092E00E943E0EC82FF4CF8C2FCF910895B7
:101760008CE390E00E94990B8F7008958DE390E0D8
:101770000E94990B817080938D018DE390E00E940F
:10178000990B8695817080938C018DE390E00E9487
:10179000990B82FB882780F9809387018DE390E085
:1017A0000E94990B83FB882780F9809386018DE343
:1017B00090E00E94990B82958170809385018DE362
:1017C00090E00E94990B85FB882780F98093840123
:1017D0008DE390E00E94990B86FB882780F9809327
:1017E00083018CE390E00E94990B82958170809335
:1017F0008B018CE390E00E94990B85FB882780F990
:1018000080938A018CE390E00E94990B86FB8827E5
:1018100080F9809389018CE390E00E94990B881FE6
:101820008827881F8093880183B181708093780115
:1018300083B1869581708093770108950E94B60BDD
:1018400061E084E690E00E941A0360937B0170934C
:101850007C0180937D0190937E0160E086E990E0B9
:101860000E941A030E94B21770937A016093790163
:101870000E94B00B90E0FC013797E930F10508F5C4
:10188000EC5CFF4F0C945B190E94E0082EC00E9494
:10189000F0092BC00E945B0A28C00E94CB0625C01D
:1018A0000E94C50A22C00E942F0B1FC060E082E385
:1018B00090E00E941A030E94290417C00E949F070B
:1018C00014C040E060E08BE30E94700340E06EE6ED
:1018D0008AE30E94700340E060E289E30E947003A3
:1018E00040E060E288E30E94700340917B015091E8
:1018F0007C0160917D0170917E0122E030E085ECF9
:1019000092E00C941415FC01108611861286138641
:1019100015A214A216A217A210A611A612A613A60B
:1019200014A615A621E026A7CB01770FAA0BBB0BA7
:10193000848B958BA68BB78B08958F929F92AF92D5
:10194000BF92CF92DF92EF92FF920F931F93CF93AC
:10195000DF93EC016A017B010E9470150C891D89DF
:101960002E893F890230110521053105D1F040F45F
:10197000013011052105310509F50E947C151EC0B5
:10198000033011052105310579F0043011052105D9
:101990003105A1F40E94701520E63AEE40E050E0D7
:1019A00009C00E9470150AC00E94701528EE33E02D
:1019B00040E050E00E943919CA01B901CC82DD82B1
:1019C000EE82FF820C851D852E853F854B015C01D3
:1019D000801A910AA20AB30A8C149D04AE04BF04B3
:1019E00058F06C877D878E879F878C8D811103C00F
:1019F00081E08C8F01C01C8E8C8DDF91CF911F9167
:101A00000F91FF90EF90DF90CF90BF90AF909F909D
:101A10008F900895FC0166834783208781E0858746
:101A20000895CF92DF92FF920F931F93CF93DF938E
:101A3000EC0161E08E810E9474160E947015098588
:101A40001A852B853C85601771078207930720F460
:101A500019861A861B861C862D85211111C00985C1
:101A60001A852B853C85DC01CB01801B910BA20BD9
:101A7000B30B803D9740A105B10510F481E06DC026
:101A80001D860E94701569877A878B879C871C82C8
:101A90001B821A821982188261E08E810E94381698
:101AA00060E08E810E94741664E170E080E090E056
:101AB0000E94A115F89461E08E810E94741688E25C
:101AC00090E00E94C91560E08E810E94381610E0F7
:101AD000F12C81E000E0C82ED12C8E810E94A4164A
:101AE0008C159D0539F40F5F81E090E00E94C915C7
:101AF0000F3F99F78E810E94A4160F3FB9F0143062
:101B000090F010FD10C09F2D969596959695FE012C
:101B1000E90FF11D9081990F90832885201710F40B
:101B200091609083F3941F5F1535A1F6789487E256
:101B30008F1590F42C8130E04881898190E0840FEA
:101B4000911D4A81840F911D4B81840F911D99270E
:101B50002817390709F492CF80E0DF91CF911F91C8
:101B60000F91FF90DF90CF900895CF92DF92EF9288
:101B7000FF920F931F93CF93DF93EC01162F0E94D8
:101B8000110D882309F455C08F818B3031F008F492
:101B900050C08551823098F04CC06A8170E080E07E
:101BA00090E00E94E817112309F44EC020E030E0D5
:101BB00040E151E46B017C01C701B6012BC00A81F1
:101BC000602F6F7770E080E090E00E94EA1720E0DD
:101BD00030E040E853E40E949F186B017C018B8148
:101BE000682F70E080E090E00E94EA179B01AC0152
:101BF000C701B6010E94CF1620E030E040E251E478
:101C00000E94401707FD90581123F1F020E030E0CA
:101C100040E151E40E949F1820E030E040EA50E4A7
:101C20000E94401720E030E040E052E40E94CF16CE
:101C30000BC067E171E085EC92E00E94821340E006
:101C400030E020EC9FE703C0462F372F282FC42E0B
:101C5000D32EE22EF92EC701B601DF91CF911F914D
:101C60000F91FF90EF90DF90CF9008958091350213
:101C700090E020913602821B9109089590913602DE
:101C800080913502981750F4E92FF0E0E95CFD4FA0
:101C9000208130E09F5F9093360202C02FEF3FEF2C
:101CA000C9010895E091360280913502E81730F4B9
:101CB000F0E0E95CFD4F808190E008958FEF9FEFA9
:101CC00008950895CF92DF92EF92FF920F931F93A2
:101CD000CF93DF937C01262F972F8A0180911102E9
:101CE000882391F0C62FD72F6E01C40ED51ECC15B8
:101CF000DD0571F06991D701ED91FC910190F081C2
:101D0000E02DC7010995F3CF642F822F0E94221086
:101D1000C801DF91CF911F910F91FF90EF90DF905D
:101D2000CF900895CF93DF931F92CDB7DEB769832D
:101D3000209111022223D1F020911202203240F092
:101D400021E030E0FC013383228380E090E015C085
:101D500080911302E82FF0E0EC5EFD4F99819083B3
:101D60008F5F809313028093120205C061E0CE0161
:101D700001960E94221081E090E00F90DF91CF91B8
:101D80000895FC011382128288EE93E0A0E0B0E097
:101D900084839583A683B78385E291E091838083D2
:101DA000089510923602109235021092130210928A
:101DB00012020C94660F81E080931102609334024A
:101DC000109213021092120208950F93062F21E031
:101DD0004091120264E172E0809134020E94CC0FC3
:101DE0001092130210921202109211020F91089594
:101DF0004F925F926F927F92AF92BF92CF92EF928B
:101E0000FF920F931F93CF93DF935C01F62ED42F95
:101E100028013901EE2021F10E94DB0ECE2DC430C5
:101E200008F0C3E0C150C0F0D501ED91FC91B8E0DD
:101E3000CB9FC0011124A301920104C05695479580
:101E4000379527958A95D2F7CA01B9010190F0819B
:101E5000E02DC5010995E6CF60E0C5010E94E50EC1
:101E60004D2FD13208F040E22C2D67E372E08F2D28
:101E70000E94840F1092360280933502DF91CF9139
:101E80001F910F91FF90EF90CF90BF90AF907F90F8
:101E90006F905F904F900895CF92EF920F931F93A2
:101EA000C22EE12C00E010E098010E94F80E1F9174
:101EB0000F91EF90CF90089521E00C944C0F61E0CA
:101EC0000C94E50E85E092E00C94C10E1092C402D1
:101ED00081E08093C2021092C10261E082E10E941F
:101EE000741661E083E10E947416E9EBF0E08081F2
:101EF0008E7F808380818D7F808388E48093B8008B
:101F000085E48093BC000895413208F043C090916D
:101F1000C4029111FCCF91E09093C4022093C202BD
:101F20002FEF2093570210929C02240F20939B02C4
:101F30009093C3029091C302880F892B8093C302B0
:101F40008091C102813061F41092C1028091C3027C
:101F50008093BB008091BC0083FDF8CF85EC01C06D
:101F600085EE8093BC008091C4028130E1F38091C2
:101F70009C02841710F440919C022DE932E0FB0191
:101F8000D9018A2F821B841718F48D918193F9CF80
:101F9000842F089580E008950F93413208F04AC0DD
:101FA0009091C4029111FCCF32E03093C4020093AF
:101FB000C2023FEF3093570210929C0240939B0263
:101FC000FB016DE972E0DB013A2F361B341718F480
:101FD00031913D93F9CF1092C3023091C302880F23
:101FE000832B8093C3028091C102813061F41092EF
:101FF000C1028091C3028093BB008091BC0083FD2D
:10200000F8CF85EC01C085EE8093BC00222321F03F
:102010008091C4028230D1F3809157028F3F79F0D2
:1020200080915702803241F080915702803331F025
:1020300094E005C091E003C092E001C093E0892FD5
:102040000F910895613298F42091C402243089F4EC
:1020500060937902FC012BE732E0D9018A2F821BC1
:10206000861718F481918D93F9CF80E0089581E06F
:10207000089582E0089585ED8093BC008091BC00B6
:1020800084FDFCCF1092C402089585EC8093BC00BF
:102090001092C40208951F920F920FB60F9211244E
:1020A0002F933F934F935F936F937F938F939F9360
:1020B000AF93BF93EF93FF938091B900887F8036F1
:1020C00009F49EC078F5883209F45DC090F480313F
:1020D00009F456C038F4882309F4F5C0883009F4AF
:1020E0004FC0F5C0883109F44EC0803209F45FC09A
:1020F000EEC0803409F46AC058F4803309F457C044
:10210000883309F0E4C0809357020E944510DFC075
:10211000803509F44FC0883509F45DC0883409F072
:10212000D6C0D3C0883909F4C4C0A8F4883709F4EC
:1021300067C038F4883609F463C0803709F460C09A
:10214000C6C0883809F4B5C0803909F45FC080384A
:1021500009F0BDC05BC0803B09F483C038F4803A0D
:1021600009F466C0883A09F47CC0B1C0803C09F427
:10217000A4C0883C09F4A1C0883B09F487C0A7C06B
:102180008091C30210C090919C0280919B0298178D
:1021900070F5E0919C0281E08E0F80939C02F0E04C
:1021A000E356FD4F80818093BB0085EC83C0809314
:1021B00057028BC0E0919C0281E08E0F80939C02BD
:1021C0008091BB00F0E0E356FD4F808390919C022C
:1021D00080919B026BC0E0919C0281E08E0F809306
:1021E0009C028091BB00F0E0E356FD4F808380911C
:1021F000C20281116AC081E08093C10284EA5EC09C
:1022000083E08093C40210925802CFCF809158028D
:10221000803208F04EC0E091580281E08E0F80932A
:1022200058028091BB00F0E0E75AFD4F8083BDCF9C
:102230000E94451080915802803230F4E09158029B
:10224000F0E0E75AFD4F10826091580270E0E09193
:10225000BD02F091BE0289E592E009951092580204
:1022600036C084E08093C40210927A021092790200
:10227000E091BF02F091C00209958091790281112D
:1022800005C081E08093790210927B02E0917A028E
:1022900081E08E0F80937A02F0E0E558FD4F808157
:1022A0008093BB0090917A0280917902981708F48C
:1022B0007CCF85E88093BC000AC085EC8093BC008D
:1022C0001092C40204C0109257020E943B10FF916A
:1022D000EF91BF91AF919F918F917F916F915F919E
:1022E0004F913F912F910F900FBE0F901F90189517
:1022F000FC01918D228D892F90E0805C9F4F821B85
:1023000091098F7399270895FC01918D828D9817FB
:1023100031F0828DE80FF11D858D90E008958FEFEB
:102320009FEF0895FC01918D828D981761F0828D49
:10233000DF01A80FB11D5D968C91928D9F5F9F73F9
:10234000928F90E008958FEF9FEF08958BEF92E1C9
:10235000892B49F080E090E0892B29F00E94FB1244
:1023600081110C9400000895FC01848DDF01A80FF9
:10237000B11DA35ABF4F2C91848D90E001968F73AD
:102380009927848FA689B7892C93A089B1898C91CC
:1023900080648C93938D848D981306C00288F38992
:1023A000E02D80818F7D80830895CF93DF93EC01B2
:1023B000888D8823C9F0EA89FB89808185FD05C065
:1023C000A889B9898C9186FD0FC00FB607FCF5CF9F
:1023D000808185FFF2CFA889B9898C9185FFEDCFE7
:1023E000CE010E94B411E7CFDF91CF910895EF9213
:1023F000FF920F931F93CF93DF93EC0181E0888FBF
:102400009B8D8C8D981305C0E889F989808185FDA5
:1024100024C0F62E0B8D10E00F5F1F4F0F73112796
:10242000E02E8C8DE8120CC00FB607FCFACFE889BD
:10243000F989808185FFF5CFCE010E94B411F1CFDB
:102440008B8DFE01E80FF11DE35AFF4FF0820B8FD9
:10245000EA89FB898081806207C0EE89FF896083F9
:10246000E889F98980818064808381E090E0DF9150
:10247000CF911F910F91FF90EF900895CF92DF922F
:10248000EF92FF921F93CF93DF93EC016A017B01E0
:10249000122FE889F98982E080834115514E610548
:1024A0007105B1F060E079E08DE390E0A70196015D
:1024B0000E943919DA01C9010197A109B109B6953C
:1024C000A79597958795AC01411580E15807A8F02D
:1024D000E889F989108260E874E88EE190E0A7014C
:1024E00096010E943919BA01A901415051096109A7
:1024F00071097695679557954795EC85FD855083CD
:10250000EE85FF854083188EEC89FD891083EA896A
:10251000FB89808180618083EA89FB898081886072
:102520008083EA89FB89808180688083EA89FB89CE
:1025300080818F7D8083DF91CF911F91FF90EF90FD
:10254000DF90CF9008951F920F920FB60F92112433
:102550002F938F939F93EF93FF93E091D502F09188
:10256000D6028081E091DB02F091DC0282FD12C094
:1025700090818091DE028F5F8F732091DF0282173E
:1025800051F0E091DE02F0E0EB53FD4F958F809328
:10259000DE0201C08081FF91EF919F918F912F9179
:1025A0000F900FBE0F901F9018951F920F920FB6AD
:1025B0000F9211242F933F934F935F936F937F93C9
:1025C0008F939F93AF93BF93EF93FF9385EC92E02C
:1025D0000E94B411FF91EF91BF91AF919F918F91A4
:1025E0007F916F915F914F913F912F910F900FBE0F
:1025F0000F901F90189585EC92E00E94781121E0D1
:10260000892B09F420E0822F0895E5ECF2E0138293
:10261000128288EE93E0A0E0B0E084839583A683E5
:10262000B78385E391E09183808385EC90E0958783
:10263000848784EC90E09787868780EC90E0918B8C
:10264000808B81EC90E0938B828B82EC90E0958B79
:10265000848B86EC90E0978B868B118E128E138E76
:10266000148E089508950E94D4150E9432130E947A
:102670008E01C6EAD1E10E941E0C2097E1F30E9470
:10268000A611F9CFCF92DF92EF92FF920F931F9393
:10269000CF93DF936C017A018B01C0E0D0E0CE15BF
:1026A000DF0589F0D8016D918D01D601ED91FC9186
:1026B0000190F081E02DC6010995892B11F47E016E
:1026C00002C02196ECCFC701DF91CF911F910F91EE
:1026D000FF90EF90DF90CF9008956115710579F02C
:1026E000FB0101900020E9F73197AF01461B570B22
:1026F000DC01ED91FC910280F381E02D099480E0F2
:1027000090E008950C946D13DC01ED91FC91019023
:10271000F081E02D099461E471E00C946D138F92C7
:102720009F92AF92BF92CF92DF92EF92FF920F9360
:102730001F93CF93DF93CDB7DEB7A1970FB6F89471
:10274000DEBF0FBECDBF6C01142FE52FCB01022FD2
:1027500019A2223008F40AE07E0121E2E20EF11C07
:10276000802E912CA12CB12C612F7E2FA5019401DC
:102770000E943919029F1019112481E0E81AF1080A
:102780001A3014F4105D01C0195CF7011083122F88
:10279000E32FCA01232B242B252B31F7B701C601C8
:1027A0000E946D13A1960FB6F894DEBF0FBECDBF89
:1027B000DF91CF911F910F91FF90EF90DF90CF901D
:1027C000BF90AF909F908F900895CF92DF92EF923D
:1027D000FF920F931F93CF93DF93EC016A017B016C
:1027E0002115310579F4E881F9810190F081E02D1E
:1027F000642FDF91CF911F910F91FF90EF90DF90A9
:10280000CF9009942A303105E9F477FF1AC06DE2C0
:102810000E9484138C0144275527BA014C195D0985
:102820006E097F092AE0CE010E948F13800F911F4D
:10283000DF91CF911F910F91FF90EF90DF90CF909C
:1028400008952AE0B701A601CE01DF91CF911F9133
:102850000F91FF90EF90DF90CF900C948F134F92D9
:102860005F926F927F928F929F92AF92BF92CF9220
:10287000DF92EF92FF92CF93DF93EC016A017B012D
:10288000B22E9A01AB01C701B6010E940C19882330
:1028900019F064E471E027C026013701E89477F865
:1028A0002FEF3FEF4FE75FE7C301B2010E940C1922
:1028B00081110DC02FEF3FEF4FE75FE7C301B2017A
:1028C0000E943B1718161CF468E471E00CC02FEF4F
:1028D0003FEF4FE75FE4C701B6010E949A18181650
:1028E0009CF46CE471E0CE01DF91CF91FF90EF900A
:1028F000DF90CF90BF90AF909F908F907F906F9020
:102900005F904F900C946D132FEF3FEF4FE75FEC0C
:10291000C701B6010E943B1787FDE3CF20E030E0FE
:10292000A901C701B6010E943B1787FF0AC06DE2EB
:10293000CE010E9484134C01F7FAF094F7F8F0945A
:1029400002C0812C912CA12C60E070E080E09FE31C
:10295000AB1441F020E030E040E251E40E94401727
:10296000A394F6CF9B01AC01C701B6010E94CF161C
:102970002B013C010E94B9176B017C010E94E817F2
:102980009B01AC01C301B2010E94CE162B013C0198
:102990002AE0B701A601CE010E948F137C01E80C4A
:1029A000F91CBB2039F060E571E0CE010E946D1387
:1029B000E80EF91EDB2CDD2039F120E030E040E2AA
:1029C00051E4C301B2010E949F182B013C010E94F7
:1029D000B2174B01770FAA08BB082AE030E0B50117
:1029E000A401CE010E94E513E80EF91EC501B40151
:1029F0000E94EA179B01AC01C301B2010E94CE16EE
:102A00002B013C01DA94D7CFC701DF91CF91FF9022
:102A1000EF90DF90CF90BF90AF909F908F907F907E
:102A20006F905F904F9008950F931F93CF93DF9314
:102A3000EC010E942F148C01CE010E948B13800F99
:102A4000911FDF91CF911F910F9108951F920F92C7
:102A50000FB60F9211242F933F938F939F93AF93B1
:102A6000BF938091630390916403A0916503B0913B
:102A700066033091620323E0230F2D3720F4019683
:102A8000A11DB11D05C026E8230F0296A11DB11D91
:102A9000209362038093630390936403A093650380
:102AA000B09366038091670390916803A0916903D6
:102AB000B0916A030196A11DB11D809367039093A5
:102AC0006803A0936903B0936A03BF91AF919F918C
:102AD0008F913F912F910F900FBE0F901F901895DF
:102AE0002FB7F8946091630370916403809165033C
:102AF000909166032FBF08953FB7F89480916703C4
:102B000090916803A0916903B0916A0326B5A89BD0
:102B100005C02F3F19F00196A11DB11D3FBFBA2F6F
:102B2000A92F982F8827820F911DA11DB11DBC01CF
:102B3000CD0142E0660F771F881F991F4A95D1F794
:102B40000895CF92DF92EF92FF92CF93DF936B01C4
:102B50007C010E947C15EB01C114D104E104F10455
:102B600089F00E94CD160E947C156C1B7D0B683E7F
:102B7000734090F381E0C81AD108E108F108C85108
:102B8000DC4FEACFDF91CF91FF90EF90DF90CF90B5
:102B900008958230910538F0880F991F880F991F8A
:102BA00005970197F1F70895789484B5826084BD04
:102BB00084B5816084BD85B5826085BD85B5816041
:102BC00085BDEEE6F0E0808181608083E1E8F0E0A1
:102BD0001082808182608083808181608083E0E8D0
:102BE000F0E0808181608083E1EBF0E080818460AF
:102BF0008083E0EBF0E0808181608083EAE7F0E0B1
:102C00008081846080838081826080838081816014
:102C100080838081806880831092C1000895833012
:102C200081F028F4813099F08230A1F00895873046
:102C3000A9F08830B9F08430D1F4809180008F7D84
:102C400003C0809180008F7780938000089584B5C1
:102C50008F7702C084B58F7D84BD08958091B000C8
:102C60008F7703C08091B0008F7D8093B00008956E
:102C7000CF93DF9390E0FC01E257FF4F2491FC01DA
:102C8000EE55FF4F8491882361F190E0880F991FE2
:102C9000FC01E653FF4FC591D491FC01E054FF4F76
:102CA000A591B491611109C09FB7F89488812095CE
:102CB00082238883EC912E230BC0623061F49FB78E
:102CC000F8943881822F809583238883EC912E2B72
:102CD0002C939FBF06C08FB7F894E8812E2B2883D2
:102CE0008FBFDF91CF9108951F93CF93DF93282F4C
:102CF00030E0F901E658FF4F8491F901E257FF4FA8
:102D0000D491F901EE55FF4FC491CC23C9F0162F91
:102D100081110E940F16EC2FF0E0EE0FFF1FE05420
:102D2000FF4FA591B4918FB7F894111105C09C91F4
:102D3000ED2FE095E92302C0EC91ED2BEC938FBFD2
:102D4000DF91CF911F910895CF93DF93282F30E02B
:102D5000F901E658FF4F8491F901E257FF4FD491F2
:102D6000F901EE55FF4FC491CC2391F081110E94DF
:102D70000F16EC2FF0E0EE0FFF1FEA54FF4FA59166
:102D8000B491EC91ED2381E090E021F480E002C069
:102D900080E090E0DF91CF91089508955058BB27CF
:102DA000AA270E94E6160C9460180E94521838F068
:102DB0000E94591820F039F49F3F19F426F40C941E
:102DC0004F180EF4E095E7FB0C944918E92F0E9488
:102DD000711858F3BA17620773078407950720F034
:102DE00079F4A6F50C9493180EF4E0950B2EBA2FF7
:102DF000A02D0B01B90190010C01CA01A001112401
:102E0000FF27591B99F0593F50F4503E68F11A16AC
:102E1000F040A22F232F342F4427585FF3CF46953D
:102E200037952795A795F0405395C9F77EF41F165F
:102E3000BA0B620B730B840BBAF09150A1F0FF0F29
:102E4000BB1F661F771F881FC2F70EC0BA0F621F15
:102E5000731F841F48F4879577956795B795F79505
:102E60009E3F08F0B0CF9395880F08F09927EE0F9A
:102E70009795879508950E94251808F481E0089594
:102E80000E9454170C9460180E94591858F00E9420
:102E9000521840F029F45F3F29F00C944918511161
:102EA0000C9494180C944F180E94711868F399238D
:102EB000B1F3552391F3951B550BBB27AA27621736
:102EC0007307840738F09F5F5F4F220F331F441F43
:102ED000AA1FA9F335D00E2E3AF0E0E832D0915077
:102EE0005040E695001CCAF72BD0FE2F29D0660F64
:102EF000771F881FBB1F261737074807AB07B0E8A7
:102F000009F0BB0B802DBF01FF2793585F4F3AF0AC
:102F10009E3F510578F00C9449180C9494185F3F2B
:102F2000E4F3983ED4F3869577956795B795F79532
:102F30009F5FC9F7880F911D9695879597F908951A
:102F4000E1E0660F771F881FBB1F621773078407B6
:102F5000BA0720F0621B730B840BBA0BEE1F88F7C5
:102F6000E09508950E94B9176894B1110C949418D3
:102F700008950E94791888F09F5798F0B92F9927E3
:102F8000B751B0F0E1F0660F771F881F991F1AF054
:102F9000BA95C9F714C0B13091F00E949318B1E00E
:102FA00008950C949318672F782F8827B85F39F00D
:102FB000B93FCCF3869577956795B395D9F73EF4ED
:102FC00090958095709561957F4F8F4F9F4F089595
:102FD000E89409C097FB3EF49095809570956195B3
:102FE0007F4F8F4F9F4F9923A9F0F92F96E9BB2769
:102FF0009395F695879577956795B795F111F8CFE5
:10300000FAF4BB0F11F460FF1BC06F5F7F4F8F4F4F
:103010009F4F16C0882311F096E911C0772321F045
:103020009EE8872F762F05C0662371F096E8862FDD
:1030300070E060E02AF09A95660F771F881FDAF734
:10304000880F9695879597F90895990F0008550F61
:10305000AA0BE0E8FEEF16161706E807F907C0F01E
:1030600012161306E407F50798F0621B730B840B26
:10307000950B39F40A2661F0232B242B252B21F400
:1030800008950A2609F4A140A6958FEF811D811DA0
:10309000089597F99F6780E870E060E008959FEFDA
:1030A00080EC089500240A941616170618060906DF
:1030B000089500240A9412161306140605060895AE
:1030C000092E0394000C11F4882352F0BB0F40F436
:1030D000BF2B11F460FF04C06F5F7F4F8F4F9F4F76
:1030E000089557FD9058440F551F59F05F3F71F0F8
:1030F0004795880F97FB991F61F09F3F79F087955F
:103100000895121613061406551FF2CF4695F1DFE7
:1031100008C0161617061806991FF1CF8695710577
:10312000610508940895E894BB2766277727CB01AB
:1031300097F908950E94251808F48FEF08950E94CA
:10314000B2180C9460180E94521838F00E94591856
:1031500020F0952311F00C9449180C944F18112469
:103160000C9494180E94711870F3959FC1F3950FF9
:1031700050E0551F629FF001729FBB27F00DB11DFB
:10318000639FAA27F00DB11DAA1F649F6627B00D8B
:10319000A11D661F829F2227B00DA11D621F739F74
:1031A000B00DA11D621F839FA00D611D221F749F82
:1031B0003327A00D611D231F849F600D211D822FC9
:1031C000762F6A2F11249F5750409AF0F1F08823F0
:1031D0004AF0EE0FFF1FBB1F661F771F881F91501D
:1031E0005040A9F79E3F510580F00C9449180C946B
:1031F00094185F3FE4F3983ED4F3869577956795EE
:10320000B795F795E7959F5FC1F7FE2B880F911D46
:103210009695879597F908950E942518880B990B24
:103220000895AA1BBB1B51E107C0AA1FBB1FA6170D
:10323000B70710F0A61BB70B881F991F5A95A9F75F
:1032400080959095BC01CD01089597FB072E16F44B
:10325000009407D077FD09D00E94111907FC05D012
:103260003EF4909581959F4F0895709561957F4F9D
:103270000895A1E21A2EAA1BBB1BFD010DC0AA1FB7
:10328000BB1FEE1FFF1FA217B307E407F50720F0CF
:10329000A21BB30BE40BF50B661F771F881F991F4A
:1032A0001A9469F760957095809590959B01AC0193
:1032B000BD01CF010895EE0FFF1F0590F491E02DA1
:1032C0000994F999FECF92BD81BDF89A992780B5EE
:1032D0000895262FF999FECF1FBA92BD81BD20BD5A
:1032E0000FB6F894FA9AF99A0FBE01960895F894D9
:0232F000FFCF0E
:1032F200230028002D00320037003C000E000000A1
:10330200C841320101010152656164206661696C44
:103312000000000000920E620E360E3E0E520E614A
:103322000E00000000F7114213781192118411D59A
:10333200110D0A006E616E00696E66006F7666009E
:023342002E005B
:00000001FF
