:100000000C945F000C943B090C9462090C948700DB
:100010000C9487000C9487000C9487000C94870044
:100020000C9487000C9487000C9487000C94A1001A
:100030000C9487000C9487000C9487000C94870024
:100040000C9489090C9487000C9479070C94AB07E5
:100050000C9487000C9487000C9487000C94870004
:100060000C9421050C948700000000080002010098
:100070000003040700000000000000000102040863
:100080001020408001020408102001020408102002
:10009000040404040404040402020202020203032E
:1000A0000303030300000000250028002B000000CC
:1000B0000000240027002A001E028004DB07112410
:1000C0001FBECFEFD8E0DEBFCDBF11E0A0E0B1E0B2
:1000D000E4E3F8E102C005900D92AA33B107D9F725
:1000E00023E0AAE3B1E001C01D92A031B207E1F71D
:1000F00010E0CFE5D0E004C02197FE010E940A0C79
:10010000CC35D107C9F70E9409080C94180C0C943F
:10011000000081E08093020108951092800025E0A4
:100120002093810029E03DE33093890020938800EB
:1001300022E020936F0078949093A7018093A6010A
:1001400008951F920F920FB60F9211242F933F9391
:100150008F939F932091A8013091A9018091A601CE
:100160009091A70101972817390728F01092A9014B
:100170001092A80109C08091A8019091A90101964F
:100180009093A9018093A801109285001092840099
:100190009F918F913F912F910F900FBE0F901F90C5
:1001A00018950F931F93CF93DF9326E040E052EC16
:1001B00061E070E08AE692E00E9414078AEA91E02A
:1001C0000E94560462E086E00E94370A62E087E0FF
:1001D0000E94370A62E081E10E94370A61E083E011
:1001E0000E94370A61E085E00E94370A41E050E052
:1001F00069E870E080E00E941B0961E08AE00E94EB
:10020000370A61E08BE00E94370A61E08DE00E94CE
:10021000370A81E090E00E94100C90E09093570123
:100220008093560182E090E00E94100C90E0909341
:1002300055018093540183E090E00E94100C90E0FF
:10024000909353018093520184E090E00E94100C3F
:1002500090E090935101809350010AE311E0C0E0D7
:10026000D0E0CE0104960E94100C90E0F80181933A
:1002700091938F012196C630D10599F786E090E0E1
:100280000E948D0080E491E09093490180934801A1
:1002900082E491E090934B0180934A0184E491E0E1
:1002A00090934D0180934C0186E491E090934F012F
:1002B00080934E01DF91CF911F910F910895CF92BE
:1002C000DF92EF92FF92CF936B017C01CA01B901DB
:1002D000C9B1C6FBCC27C0F9C093890129B1221F3F
:1002E0002227221F20938801C11117C030910301DA
:1002F000332399F0222331F020E030E0A9010E945D
:10030000A40A07C09B01AC0160E070E0CB010E9431
:10031000A30A21E02093870105C01092870160E0C5
:1003200070E0CB01C09303019B01AC01C701B60192
:100330000E94A40ACF91FF90EF90DF90CF90089594
:1003400027E030E090E0AC01022E02C055954795C1
:100350000A94E2F740FF02C02B9A01C02B982D9A15
:100360002D982150310978F708958C3239F4660FB1
:10037000771F70933F0160933E0111C08D3239F4B5
:10038000660F771F70933D0160933C0108C08E3269
:1003900031F4660F771F70933B0160933A018091AF
:1003A0003E0190913F01926090933F0180933E0106
:1003B00080913C0190913D01926090933D0180932A
:1003C0003C0180913A0190913B01926090933B01F6
:1003D00080933A012A9880913A0190913B0124E060
:1003E000959587952A95E1F70E94A00120913A0101
:1003F00030913B0144E0220F331F4A95E1F7809191
:100400003C0190913D0156E0959587955A95E1F70D
:10041000822B0E94A00180913C0190913D01880FA8
:10042000991F880F991F90913F01892B0E94A0016D
:1004300080913E010E94A0012A9A089526E046E19B
:100440006FE088E991E00E94B40326E046E160E1B4
:100450008AE891E00E94B40362E070E088E591E0F0
:100460000C949A031F93CF93DF931F92CDB7DEB7FF
:10047000633609F463C058F5673009F455C090F449
:10048000633009F44DC038F4613009F461C008F0FC
:1004900045C010EC6EC0653009F464C008F042C07D
:1004A00019E967C06A3209F463C048F4693009F495
:1004B0003FC0E0F1603209F05CC01FEF5AC0613606
:1004C000C9F1D0F56D3209F054C01FEB52C06C3643
:1004D00009F440C080F46736B9F128F4653681F13B
:1004E00088F511EA46C0693699F180F16A3609F05B
:1004F00040C011EF3EC0623799F138F4603761F1C6
:1005000068F56E36B1F51BEA34C0643769F150F115
:10051000653761F1693769F511E92BC014EA29C023
:1005200010EB27C012E825C018EF23C010E821C047
:1005300010E91FC018E81DC013E81BC016EC19C055
:1005400016E817C01EE815C012EC13C016E711C05C
:1005500019EF0FC017EC0DC01CE80BC018E909C05B
:100560001FEA07C012E905C017E803C011EC01C07B
:100570001CE9682F8AEA91E049830E946004612F98
:100580008AEA91E00E9417044981612F442311F007
:100590006F7701C060688AEA91E00E9417048AEAD6
:1005A00091E00F90DF91CF911F910C947D04EF9219
:1005B000FF920F931F93CF93DF93EC018A30910545
:1005C00068F440E060E088E30E94320240E060E0CE
:1005D00089E30E94320240E060E014C08436910555
:1005E000B8F440E060E088E30E94320240E060E05E
:1005F00089E30E943202CE016AE070E00E94D40BCF
:10060000C82F40E08AE30E94320240E06C2F42C0D3
:10061000C83E83E0D80798F440E060E088E30E9499
:100620003202CE0164E670E00E94D40B7C0140E00F
:1006300089E30E9432020AE010E0C7011EC0C03107
:1006400087E2D80780F5CE0168EE73E00E94D40BF4
:100650007C0140E088E30E94320204E610E0C7011A
:10066000B8010E94D40B40E089E30E943202CE011F
:10067000B8010E94D40B0AE010E0B8010E94D40B2C
:1006800040E08AE30E943202CE01B8010E94D40BFE
:1006900040E0682F8BE3DF91CF911F910F91FF9086
:1006A000EF900C943202DF91CF911F910F91FF9048
:1006B000EF9008956091000170910101072E000CE8
:1006C000880B990B0E94480B20E030E040E85FE384
:1006D0000E945F010E94100B709301016093000162
:1006E0008CE20E94B50160910001709101018DE2E0
:1006F0000E94B50160910001709101018EE20E949B
:10070000B50160910001709101018FE20E94B50175
:100710008091000190910101880F991F0E94D702DA
:1007200060910001709101014AE050E08AE692E098
:100730000C940309FC01108611861286138615A2FB
:1007400014A216A217A210A611A612A613A614A6EA
:1007500015A621E026A7CB01770FAA0BBB0B848B34
:10076000958BA68BB78B0895FC0166834783208702
:1007700081E0858708958091DA0190E02091DB0186
:10078000821B910908959091DB018091DA019817FD
:1007900050F4E92FF0E0E452FE4F208130E09F5FFB
:1007A0009093DB0102C02FEF3FEFC9010895E09164
:1007B000DB018091DA01E81730F4F0E0E452FE4FFB
:1007C000808190E008958FEF9FEF08950895CF9274
:1007D000DF92EF92FF920F931F93CF93DF937C01F1
:1007E000262F972F8A018091B601882391F0C62F7A
:1007F000D72F6E01C40ED51ECC15DD0571F06991A1
:10080000D701ED91FC910190F081E02DC701099590
:10081000F3CF642F822F0E94F804C801DF91CF919B
:100820001F910F91FF90EF90DF90CF900895CF939D
:10083000DF931F92CDB7DEB769832091B6012223E3
:10084000D1F02091B701203240F021E030E0FC01EE
:100850003383228380E090E015C08091B801E82FB7
:10086000F0E0E754FE4F998190838F5F8093B80149
:100870008093B70105C061E0CE0101960E94F804A3
:1008800081E090E00F90DF91CF910895FC011382F9
:10089000128288EE93E0A0E0B0E084839583A68383
:1008A000B7838CE091E09183808308951092DB01FF
:1008B0001092DA011092B8011092B7010C948404DE
:1008C00081E08093B6016093D9011092B801109233
:1008D000B70108950F93062F21E04091B70169EB0E
:1008E00071E08091D9010E94A2041092B801109287
:1008F000B7011092B6010F91089561E00C946A045B
:100900008AEA91E00C9446041092690281E0809397
:1009100067021092660261E082E10E94730A61E060
:1009200083E10E94730AE9EBF0E080818E7F80838F
:1009300080818D7F808388E48093B80085E48093F4
:10094000BC0008950F93413208F04AC090916902AB
:100950009111FCCF32E030936902009367023FEFC0
:100960003093FC011092410240934002FB0162E48B
:1009700072E0DB013A2F361B341718F431913D93A6
:10098000F9CF1092680230916802880F832B809310
:10099000680280916602813061F410926602809153
:1009A00068028093BB008091BC0083FDF8CF85EC8A
:1009B00001C085EE8093BC00222321F08091690262
:1009C0008230D1F38091FC018F3F79F08091FC015E
:1009D000803241F08091FC01803331F094E005C019
:1009E00091E003C092E001C093E0892F0F91089538
:1009F000613298F420916902243089F460931E02D8
:100A0000FC0120E232E0D9018A2F821B861718F4FC
:100A100081918D93F9CF80E0089581E0089582E07F
:100A2000089585ED8093BC008091BC0084FDFCCFCF
:100A300010926902089585EC8093BC0010926902BF
:100A400008951F920F920FB60F9211242F933F9388
:100A50004F935F936F937F938F939F93AF93BF93C6
:100A6000EF93FF938091B900887F803609F49EC090
:100A700078F5883209F45DC090F4803109F456C0ED
:100A800038F4882309F4F5C0883009F44FC0F5C064
:100A9000883109F44EC0803209F45FC0EEC0803462
:100AA00009F46AC058F4803309F457C0883309F058
:100AB000E4C08093FC010E941B05DFC0803509F46F
:100AC0004FC0883509F45DC0883409F0D6C0D3C062
:100AD000883909F4C4C0A8F4883709F467C038F429
:100AE000883609F463C0803709F460C0C6C088380E
:100AF00009F4B5C0803909F45FC0803809F0BDC081
:100B00005BC0803B09F483C038F4803A09F466C0C6
:100B1000883A09F47CC0B1C0803C09F4A4C0883C88
:100B200009F4A1C0883B09F487C0A7C0809168027E
:100B300010C09091410280914002981770F5E091A9
:100B4000410281E08E0F80934102F0E0EE5BFD4FA9
:100B500080818093BB0085EC83C08093FC018BC0B7
:100B6000E091410281E08E0F809341028091BB00B1
:100B7000F0E0EE5BFD4F8083909141028091400256
:100B80006BC0E091410281E08E0F80934102809121
:100B9000BB00F0E0EE5BFD4F808380916702811126
:100BA0006AC081E08093660284EA5EC083E080933D
:100BB00069021092FD01CFCF8091FD01803208F0D3
:100BC0004EC0E091FD0181E08E0F8093FD01809188
:100BD000BB00F0E0E250FE4F8083BDCF0E941B05BA
:100BE0008091FD01803230F4E091FD01F0E0E250AF
:100BF000FE4F10826091FD0170E0E0916202F09181
:100C000063028EEF91E009951092FD0136C084E0F9
:100C10008093690210921F0210921E02E0916402FA
:100C2000F0916502099580911E02811105C081E055
:100C300080931E0210922002E0911F0281E08E0F2D
:100C400080931F02F0E0E05EFD4F80818093BB0047
:100C500090911F0280911E02981708F47CCF85E8BE
:100C60008093BC000AC085EC8093BC00109269029E
:100C700004C01092FC010E941105FF91EF91BF91F9
:100C8000AF919F918F917F916F915F914F913F9124
:100C90002F910F900FBE0F901F901895FC01918D12
:100CA000228D892F90E0805C9F4F821B91098F736A
:100CB00099270895FC01918D828D981731F0828DCE
:100CC000E80FF11D858D90E008958FEF9FEF089557
:100CD000FC01918D828D981761F0828DDF01A80F44
:100CE000B11D5D968C91928D9F5F9F73928F90E066
:100CF00008958FEF9FEF089581ED97E0892B49F0DC
:100D000080E090E0892B29F00E94D10781110C949A
:100D100000000895FC01848DDF01A80FB11DA35AC6
:100D2000BF4F2C91848D90E001968F739927848F0B
:100D3000A689B7892C93A089B1898C9180648C9302
:100D4000938D848D981306C00288F389E02D8081ED
:100D50008F7D80830895CF93DF93EC01888D882366
:100D6000C9F0EA89FB89808185FD05C0A889B98918
:100D70008C9186FD0FC00FB607FCF5CF808185FFF3
:100D8000F2CFA889B9898C9185FFEDCFCE010E9461
:100D90008A06E7CFDF91CF910895EF92FF920F93EC
:100DA0001F93CF93DF93EC0181E0888F9B8D8C8D17
:100DB000981305C0E889F989808185FD24C0F62E45
:100DC0000B8D10E00F5F1F4F0F731127E02E8C8DDE
:100DD000E8120CC00FB607FCFACFE889F9898081C8
:100DE00085FFF5CFCE010E948A06F1CF8B8DFE01E3
:100DF000E80FF11DE35AFF4FF0820B8FEA89FB8960
:100E00008081806207C0EE89FF896083E889F98963
:100E100080818064808381E090E0DF91CF911F9199
:100E20000F91FF90EF900895CF92DF92EF92FF9293
:100E30001F93CF93DF93EC016A017B01122FE889A6
:100E4000F98982E080834115514E61057105B1F049
:100E500060E079E08DE390E0A70196010E94E80B45
:100E6000DA01C9010197A109B109B695A79597952E
:100E70008795AC01411580E15807A8F0E889F98908
:100E8000108260E874E88EE190E0A70196010E946C
:100E9000E80BBA01A9014150510961097109769520
:100EA000679557954795EC85FD855083EE85FF85C1
:100EB0004083188EEC89FD891083EA89FB89808143
:100EC00080618083EA89FB89808188608083EA89E8
:100ED000FB89808180688083EA89FB8980818F7D9E
:100EE0008083DF91CF911F91FF90EF90DF90CF90A3
:100EF00008951F920F920FB60F9211242F938F9384
:100F00009F93EF93FF93E0917A02F0917B028081AF
:100F1000E0918002F091810282FD12C09081809167
:100F200083028F5F8F7320918402821751F0E091CA
:100F30008302F0E0E659FD4F958F8093830201C054
:100F40008081FF91EF919F918F912F910F900FBE14
:100F50000F901F9018951F920F920FB60F921124A9
:100F60002F933F934F935F936F937F938F939F93B1
:100F7000AF93BF93EF93FF938AE692E00E948A06B5
:100F8000FF91EF91BF91AF919F918F917F916F9161
:100F90005F914F913F912F910F900FBE0F901F9037
:100FA00018958AE692E00E944E0621E0892B09F40A
:100FB00020E0822F0895EAE6F2E01382128288EEA2
:100FC00093E0A0E0B0E084839583A683B7838CE1AF
:100FD00091E09183808385EC90E09587848784EC11
:100FE00090E09787868780EC90E0918B808B81ECF6
:100FF00090E0938B828B82EC90E0958B848B86ECD7
:1010000090E0978B868B118E128E138E148E08951E
:1010100008950E94D3090E9408080E94D100CCE7DD
:10102000D6E00E945A032097E1F30E947C06F9CF94
:10103000CF92DF92EF92FF920F931F93CF93DF93A4
:101040006C017A018B01C0E0D0E0CE15DF0589F09C
:10105000D8016D918D01D601ED91FC910190F08147
:10106000E02DC6010995892B11F47E0102C021965D
:10107000ECCFC701DF91CF911F910F91FF90EF90BF
:10108000DF90CF9008956115710579F0FB01019013
:101090000020E9F73197AF01461B570BDC01ED91BA
:1010A000FC910280F381E02D099480E090E00895A6
:1010B000DC01ED91FC910190F081E02D099468E252
:1010C00071E00C9443088F929F92AF92BF92CF929F
:1010D000DF92EF92FF920F931F93CF93DF93CDB7E1
:1010E000DEB7A1970FB6F894DEBF0FBECDBF6C017F
:1010F000142FE52FCB01022F19A2223008F40AE0A9
:101100007E0121E2E20EF11C802E912CA12CB12C4B
:10111000612F7E2FA50194010E94E80B029F1019F8
:10112000112481E0E81AF1081A3014F4105D01C0AE
:10113000195CF7011083122FE32FCA01232B242BF4
:10114000252B31F7B701C6010E944308A1960FB6BF
:10115000F894DEBF0FBECDBFDF91CF911F910F91ED
:10116000FF90EF90DF90CF90BF90AF909F908F90C7
:101170000895CF92DF92EF92FF920F931F93CF9338
:10118000DF93EC016A017B012115310579F4E881D7
:10119000F9810190F081E02D642FDF91CF911F91B3
:1011A0000F91FF90EF90DF90CF9009942A30310596
:1011B000E9F477FF1AC06DE20E9458088C014427B9
:1011C0005527BA014C195D096E097F092AE0CE0145
:1011D0000E946308800F911FDF91CF911F910F91A3
:1011E000FF90EF90DF90CF9008952AE0B701A6011D
:1011F000CE01DF91CF911F910F91FF90EF90DF9083
:10120000CF900C9463080F931F93CF93DF93EC015F
:101210009A01AB01770F660B770B0E94B9088C011E
:10122000CE010E945F08800F911FDF91CF911F9127
:101230000F91089508958230E8F4E82FF0E0EE0F62
:10124000FF1FEC5FFE4F71836083813041F080911E
:1012500069008C7F482B40936900E89A089580913B
:101260006900440F551F440F551F837F482B40933F
:101270006900E99A08951F920F920FB60F921124F8
:101280002F933F934F935F936F937F938F939F938E
:10129000AF93BF93EF93FF93E0910401F0910501A9
:1012A0000995FF91EF91BF91AF919F918F917F91A0
:1012B0006F915F914F913F912F910F900FBE0F90C3
:1012C0001F9018951F920F920FB60F9211242F9313
:1012D0003F934F935F936F937F938F939F93AF93BE
:1012E000BF93EF93FF93E0910601F09107010995F9
:1012F000FF91EF91BF91AF919F918F917F916F91EE
:101300005F914F913F912F910F900FBE0F901F90C3
:1013100018951F920F920FB60F9211242F933F939F
:101320008F939F93AF93BF9380910803909109038C
:10133000A0910A03B0910B033091070323E0230F20
:101340002D3720F40196A11DB11D05C026E8230FFD
:101350000296A11DB11D209307038093080390936B
:101360000903A0930A03B0930B0380910C0390919F
:101370000D03A0910E03B0910F030196A11DB11DA5
:1013800080930C0390930D03A0930E03B0930F036F
:10139000BF91AF919F918F913F912F910F900FBE71
:1013A0000F901F901895789484B5826084BD84B5A1
:1013B000816084BD85B5826085BD85B5816085BD50
:1013C000EEE6F0E0808181608083E1E8F0E0108269
:1013D000808182608083808181608083E0E8F0E0AA
:1013E000808181608083E1EBF0E080818460808394
:1013F000E0EBF0E0808181608083EAE7F0E08081CB
:10140000846080838081826080838081816080832A
:101410008081806880831092C1000895833081F0BC
:1014200028F4813099F08230A1F008958730A9F036
:101430008830B9F08430D1F4809180008F7D03C072
:10144000809180008F7780938000089584B58F7796
:1014500002C084B58F7D84BD08958091B0008F77E0
:1014600003C08091B0008F7D8093B0000895CF932A
:10147000DF9390E0FC01E458FF4F2491FC01E0571A
:10148000FF4F8491882361F190E0880F991FFC0140
:10149000E255FF4FC591D491FC01EC55FF4FA5914A
:1014A000B491611109C09FB7F89488812095822377
:1014B0008883EC912E230BC0623061F49FB7F894BF
:1014C0003881822F809583238883EC912E2B2C9357
:1014D0009FBF06C08FB7F894E8812E2B28838FBF5B
:1014E000DF91CF9108951F93CF93DF93282F30E0A2
:1014F000F901E859FF4F8491F901E458FF4FD49165
:10150000F901E057FF4FC491CC23C9F0162F811188
:101510000E940E0AEC2FF0E0EE0FFF1FEC55FF4F7C
:10152000A591B4918FB7F894111105C09C91ED2F3E
:10153000E095E92302C0EC91ED2BEC938FBFDF9196
:10154000CF911F9108955058BB27AA270E94BB0A2C
:101550000C949A0B0E948C0B38F00E94930B20F095
:1015600039F49F3F19F426F40C94890B0EF4E0959E
:10157000E7FB0C94830BE92F0E94AB0B58F3BA17CF
:10158000620773078407950720F079F4A6F50C9499
:10159000CD0B0EF4E0950B2EBA2FA02D0B01B90147
:1015A00090010C01CA01A0011124FF27591B99F0D9
:1015B000593F50F4503E68F11A16F040A22F232FE5
:1015C000342F4427585FF3CF469537952795A79535
:1015D000F0405395C9F77EF41F16BA0B620B730BDC
:1015E000840BBAF09150A1F0FF0FBB1F661F771F4D
:1015F000881FC2F70EC0BA0F621F731F841F48F402
:10160000879577956795B795F7959E3F08F0B0CF8A
:101610009395880F08F09927EE0F97958795089571
:101620000E94170B6894B1110C94CE0B08950E9480
:10163000B30B88F09F5798F0B92F9927B751B0F0A6
:10164000E1F0660F771F881F991F1AF0BA95C9F746
:1016500014C0B13091F00E94CD0BB1E008950C940C
:10166000CD0B672F782F8827B85F39F0B93FCCF3BF
:10167000869577956795B395D9F73EF490958095C3
:10168000709561957F4F8F4F9F4F0895E89409C0E3
:1016900097FB3EF490958095709561957F4F8F4FA5
:1016A0009F4F9923A9F0F92F96E9BB279395F695BB
:1016B000879577956795B795F111F8CFFAF4BB0F39
:1016C00011F460FF1BC06F5F7F4F8F4F9F4F16C09D
:1016D000882311F096E911C0772321F09EE8872F27
:1016E000762F05C0662371F096E8862F70E060E0E3
:1016F0002AF09A95660F771F881FDAF7880F96955C
:10170000879597F9089597F99F6780E870E060E002
:1017100008959FEF80EC089500240A94161617068A
:1017200018060906089500240A94121613061406D2
:1017300005060895092E0394000C11F4882352F035
:10174000BB0F40F4BF2B11F460FF04C06F5F7F4FED
:101750008F4F9F4F089557FD9058440F551F59F0D4
:101760005F3F71F04795880F97FB991F61F09F3F8E
:1017700079F087950895121613061406551FF2CFB7
:101780004695F1DF08C0161617061806991FF1CF07
:1017900086957105610508940895E894BB2766272E
:1017A0007727CB0197F90895AA1BBB1B51E107C00E
:1017B000AA1FBB1FA617B70710F0A61BB70B881FE1
:1017C000991F5A95A9F780959095BC01CD01089570
:1017D000A1E21A2EAA1BBB1BFD010DC0AA1FBB1F35
:1017E000EE1FFF1FA217B307E407F50720F0A21BA7
:1017F000B30BE40BF50B661F771F881F991F1A9414
:1018000069F760957095809590959B01AC01BD013D
:10181000CF010895EE0FFF1F0590F491E02D09947C
:10182000F999FECF92BD81BDF89A992780B50895A8
:04183000F894FFCF5A
:101834000A0001011A091A09000000001704E7034D
:10184400BB03C303D703E60300000000CD0618085A
:101854004E0668065A06AB060D0A006E616E0069F4
:0A1864006E66006F7666002E00002D
:00000001FF
