:100000000C946C000C9494000C9494000C94940048
:100010000C9494000C9494000C9494000C94940010
:100020000C9494000C9494000C9494000C94AA00EA
:100030000C9494000C9494000C9494000C949400F0
:100040000C9436130C9494000C948C110C94BE11E7
:100050000C9494000C9494000C9494000C949400D0
:100060000C94340F0C949400510B580B4B0B4D0B0C
:100070004F0B490B470B450B000000080002010025
:100080000003040700000000000000000102040853
:1000900010204080010204081020010204081020F2
:1000A000040404040404040402020202020203031E
:1000B00003030303000000002300260029000000C2
:1000C0000000250028002B0000000000240027006D
:1000D0002A00D2034B0EEE1111241FBECFEFD8E041
:1000E000DEBFCDBF11E0A0E0B1E0E8E0FFE202C07A
:1000F00005900D92A635B107D9F723E0A6E5B1E04A
:1001000001C01D92A337B207E1F710E0CCE6D0E0C2
:1001100004C02197FE010E946617C936D107C9F7AE
:100120000E941C120C9482170C9400001092800004
:1001300025E02093810029E03DE33093890020935E
:10014000880022E020936F00789490930A028093B5
:10015000090208951F920F920FB60F9211242F9348
:100160003F938F939F9320910B0230910C028091CB
:10017000090290910A0201972817390728F0109276
:100180000C0210920B0209C080910B0290910C029C
:10019000019690930C0280930B02109285001092AE
:1001A00084009F918F913F912F910F900FBE0F90E0
:1001B0001F9018954F925F927F928F929F92AF926D
:1001C000BF92CF92DF92EF92FF920F931F93CF9344
:1001D000DF93FC017A0140E050E000E010E0412CA8
:1001E000512C21E030E0712C4B018E0C9F1C5C01E6
:1001F00088E0A80EB11C80910B0290910C02C09077
:100200000B02D0900C02C814D90408F05EC0861707
:10021000970708F45AC0772089F083B1807190E085
:1002200082179307B9F0C080D180D6012D913C91FF
:1002300011972F5F3F4F2D933C930CC0CF01DC01F2
:10024000CD90DD90CD01D6011D921C928A159B05A3
:10025000B1F7E3CF29B1207130E02415350559F00D
:10026000C280D380D6014D905C90BFEF4B1A5B0AE1
:10027000D6014D925C92A3B1A0724A2E512C401629
:10028000510651F0C480D580D6010D911C91119773
:100290000F5F1F4F0D931C9316B11170C12FB0E06B
:1002A000DB2FC417D50751F006811781D8014D9176
:1002B0005C9111974F5F5F4F4D935C9377247394DC
:1002C000AE01820129019C0196CFB1E07B1213C0DF
:1002D0009F01285F3F4FC191D1918881998197FDFE
:1002E000019695958795B7010E941C1779836883BD
:1002F000E217F30781F7DF91CF911F910F91FF90E4
:10030000EF90DF90CF90BF90AF909F908F907F90B5
:100310005F904F90089526E040E052EC61E070E07D
:100320008DEC92E00E9427118DE092E00E94BA0DC0
:1003300062E086E00E94481462E087E00E94481470
:1003400062E088E00E94481462E089E00E9448145C
:1003500062E081E10E94481461E083E00E94481459
:1003600061E085E00E94481461E08AE00E94481440
:1003700061E08BE00E94481461E08DE00E94481427
:1003800061E080E10E94481481E090E00E946C17D7
:1003900090E09093B3018093B20182E090E00E94DC
:1003A0006C1790E09093AF018093AE0183E090E0F2
:1003B0000E946C1790E09093AB018093AA0184E0B7
:1003C00090E00E946C1790E09093A7018093A601A3
:1003D00085E090E00E94960080E090E020E030E030
:1003E000F901E256FE4FA9014A565E4F5183408300
:1003F00001962E5F3F4F8430910591F790939501C0
:100400008093940108950F931F938091800181112F
:1004100003C081E080937C0180917F01811103C042
:1004200081E080937B0180917C01882319F1809188
:10043000930181111FC00E948013009176011091D9
:1004400077012091780130917901DC01CB01801B8B
:10045000910BA20BB30B8D3D9540A105B10520F08A
:1004600081E080937C0106C080917E01811102C0F1
:1004700010927C0180917B01882319F18091920177
:1004800081111FC00E9480130091720110917301AD
:100490002091740130917501DC01CB01801B910B1F
:1004A000A20BB30B8D3D9540A105B10520F081E075
:1004B00080937B0106C080917D01811102C0109262
:1004C0007B0180917A01811104C010927C0110920D
:1004D0007B0190918001911110927C0120917F010C
:1004E000211110927B0120919301211104C09111DF
:1004F00002C081110AC00E9480136093760170933C
:100500007701809378019093790180919201811114
:1005100008C080917F01811104C080917A0181110E
:100520000AC00E94801360937201709373018093DC
:1005300074019093750180917C01882321F091E0F2
:1005400090937E0102C010927E0190917B019923CD
:1005500021F091E090937D0102C010927D018823EB
:1005600011F05B9A01C05B9880917B01882311F0A8
:100570005D9A01C05D981F910F910895CF92DF920F
:10058000EF92FF92CF936B017C01CA01B901C9B10F
:10059000C6FBCC27C0F9C093080129B1221F22272E
:1005A000221F2093070130910601C31799F02C17E1
:1005B00031F020E030E0A9010E94DF1407C09B0168
:1005C000AC0160E070E0CB010E94DE1421E02093DA
:1005D000EC0105C01092EC0160E070E0CB01C0932B
:1005E00006019B01AC01C701B6010E94DF14CF9147
:1005F000FF90EF90DF90CF9008952091EB01422F74
:1006000050E08417950758F4662321F060E08BEFE3
:1006100091E003C060E08DEE91E00C949E0C2F5FA2
:100620002093EB01089527E030E090E0AC01022E2A
:1006300002C0559547950A94E2F740FF02C02B9AF5
:1006400001C02B982D9A2D982150310978F70895E3
:100650008C3239F4660F771F70935B0160935A01F7
:1006600011C08E3239F4660F771F70935901609371
:10067000580108C08F3231F4660F771F709357010D
:100680006093560180915A0190915B019260909322
:100690005B0180935A0180915801909159019260B9
:1006A0009093590180935801809156019091570180
:1006B000926090935701809356012A988091560139
:1006C0009091570134E0959587953A95E1F70E940E
:1006D0001303209156013091570144E0220F331F3C
:1006E0004A95E1F7809158019091590156E095950E
:1006F00087955A95E1F7822B0E9413038091580148
:1007000090915901880F991F880F991F90915B0153
:10071000892B0E94130380915A010E9413032A9A85
:1007200069E071E08DEC92E00E946B1260915A01D9
:1007300070915B0177FF02C06F5F7F4F7595679582
:100740004AE050E08DEC92E00E9418136FE071E0F7
:100750008DEC92E00E946B126091580170915901EA
:1007600077FF02C06F5F7F4F759567954AE050E055
:100770008DEC92E00E94181365E171E08DEC92E03F
:100780000E946B12609156017091570177FF02C071
:100790006F5F7F4F759567954AE050E08DEC92E072
:1007A0000C941F1326E046E16FE08BEF91E00E946E
:1007B000F30B26E046E160E18DEE91E00E94F30B41
:1007C00062E070E08CEB91E00C946C0B1F93CF9384
:1007D000DF931F92CDB7DEB7633609F463C058F5D7
:1007E000673009F455C090F4633009F44DC038F413
:1007F000613009F461C008F045C010EC6EC065308E
:1008000009F464C008F042C019E967C06A3209F40B
:1008100063C048F4693009F43FC0E0F1603209F088
:100820005CC01FEF5AC06136C9F1D0F56D3209F0D6
:1008300054C01FEB52C06C3609F440C080F46736D8
:10084000B9F128F4653681F188F511EA46C06936B8
:1008500099F180F16A3609F040C011EF3EC062376D
:1008600099F138F4603761F168F56E36B1F51BEA3D
:1008700034C0643769F150F1653761F1693769F562
:1008800011E92BC014EA29C010EB27C012E825C0DB
:1008900018EF23C010E821C010E91FC018E81DC0E0
:1008A00013E81BC016EC19C016E817C01EE815C0E7
:1008B00012EC13C016E711C019EF0FC017EC0DC0F2
:1008C0001CE80BC018E909C01FEA07C012E905C0FF
:1008D00017E803C011EC01C01CE9682F8DE092E01D
:1008E00049830E94C40D612F8DE092E00E947B0D30
:1008F0004981612F442311F06F7701C060688DE05A
:1009000092E00E947B0D8DE092E00F90DF91CF91FD
:100910001F910C94480E40E060E288E30E94E603D9
:1009200040E060E289E30E94E60340E060E28AE39F
:100930000E94E60340E060E28BE30C94E6038F92B2
:100940009F92AF92BF92CF92DF92EF92FF92CF939E
:10095000DF936B017C010E94C215EB01072E000C96
:10096000880B990B0E94FA159B01AC01C701B601D7
:100970000E94DE1420E030E040E251E40E94AF1615
:100980004B015C0120E030E040E251ECC701B601D0
:100990000E944B1518167CF140E06DE288E30E943E
:1009A000E60320E030E040E251E4C701B6010E94D6
:1009B00050156B017C0120E030E0A9010E94AA16CD
:1009C00018161CF4C701B60103C0C701B601905840
:1009D0000E94C91540E089E30E94E603CE016AE067
:1009E00070E00E94301797FF03C09195819591099F
:1009F00041E0682F25C020E030E0A901C701B60121
:100A00000E944B1587FF30C040E06DE288E30E94F2
:100A1000E60340E060E089E30E94E60320E030E086
:100A2000A901C701B6010E94AA1618161CF4C70135
:100A3000B60103C0C701B60190580E94C91541E034
:100A40008AE30E94E60320E030E0A901C501B40179
:100A50000E94AA1618160CF448C0C501B40190589B
:100A60000E94C91540E054C020E030E040E251E46B
:100A7000C701B6010E944B1587FF10C040E060E03F
:100A800088E30E94E60340E060E089E30E94E60319
:100A9000C701B6010E94C91541E024C020E030E042
:100AA00040E251E4C701B6010E94AA1640E087FD6A
:100AB0001FC060E088E30E94E60320E030E040E2EF
:100AC00051E4C701B6010E9450150E94C91540E0CB
:100AD00089E30E94E603CE016AE070E00E943017CD
:100AE00041E0682F8AE30E94E603C501B401B8CF54
:100AF00065E688E30E94E60340E062E789E30E943E
:100B0000E60340E062E78AE30E94E60340E060E239
:100B10008BE3DF91CF91FF90EF90DF90CF90BF906C
:100B2000AF909F908F900C94E603EF92FF920F93FB
:100B30001F93CF93DF93EC018A30910568F440E076
:100B400060E088E30E94E60340E060E089E30E9401
:100B5000E60340E060E014C084369105B8F440E05C
:100B600060E088E30E94E60340E060E089E30E94E1
:100B7000E603CE016AE070E00E941C17C82F40E037
:100B80008AE30E94E60340E06C2F42C0C83E83E047
:100B9000D80798F440E060E088E30E94E603CE01C5
:100BA00064E670E00E941C177C0140E089E30E942B
:100BB000E6030AE010E0C7011EC0C03187E2D80793
:100BC00080F5CE0168EE73E00E941C177C0140E0C6
:100BD00088E30E94E60304E610E0C701B8010E9422
:100BE0001C1740E089E30E94E603CE01B8010E9491
:100BF0001C170AE010E0B8010E941C1740E08AE3CD
:100C00000E94E603CE01B8010E941C1740E0682F45
:100C10008BE3DF91CF911F910F91FF90EF900C9498
:100C2000E603DF91CF911F910F91FF90EF90089510
:100C3000CF92DF92EF92FF92CF936B017C01C42F92
:100C400042E350E060E070E08CEB91E00E94860BA4
:100C50008823A9F0C701B601CC2339F0CF91FF90CA
:100C6000EF90DF90CF900C949F040E94C215CB01AF
:100C7000CF91FF90EF90DF90CF900C949505CF919E
:100C8000FF90EF90DF90CF900C948B044F925F9287
:100C90006F927F928F929F92AF92BF92CF92DF928C
:100CA000EF92FF920F93CF936B017C0149015A01A0
:100CB0008091EC01882369F081E08093BB010E9460
:100CC00080136093B7017093B8018093B90190933A
:100CD000BA01C091BB01CC2391F10E9480134090D6
:100CE000B7015090B8016090B9017090BA01DC0171
:100CF000CB0184199509A609B7098D3B9240A1053E
:100D0000B10598F0C701B601002319F00E949F04B5
:100D100005C00E94C215CB010E949505C091B60185
:100D2000CC23C9F01092B60116C0402FC501B40102
:100D30000E94180681E08093B601C0E00CC0C70194
:100D4000B601002319F00E949F0405C00E94C2153D
:100D5000CB010E9495058C2FCF910F91FF90EF90C2
:100D6000DF90CF90BF90AF909F908F907F906F90CB
:100D70005F904F900895CF92DF92EF92FF920F9382
:100D8000CF93339B02C081E001C082E080930501D4
:100D900060918701709188018CE20E942803609124
:100DA0008501709186018DE20E9428036091AA015D
:100DB0007091AB018EE20E9428036091A6017091B0
:100DC000A7018FE20E94280360910401862F90E022
:100DD000C297880F991F2091B2013091B301280F5B
:100DE000391F30938801209387012091AE01309103
:100DF000AF01820F931F9093860180938501C0916C
:100E00000501C13021F0C23009F450C09FC070E02C
:100E100080E090E00E94F81520E030E040E85FE3D9
:100E20000E94BE020E94C9156093040170E080E038
:100E300090E00E94F81500E09B01AC010E9446067C
:100E400080910401853620F084E68093040104C07B
:100E5000811102C0C09304018091870190918801A3
:100E60008C3391051CF48CE390E006C08F3F910514
:100E700039F034F08FEF90E09093880180938701F0
:100E800080918501909186018C3391051CF48CE34F
:100E900090E007C08F3F910509F00CF457C08FEF29
:100EA00090E0909386018093850150C0609100018D
:100EB00070910101809102019091030120E030E0E6
:100EC00040E05FE30E94BE029B01AC016093000121
:100ED000709301018093020190930301609181015D
:100EE00070918201809183019091840101E00E94C0
:100EF0004606C0900001D0900101E0900201F09000
:100F0000030120E030E04CE052E4C701B6010E944A
:100F1000AA1618162CF480E090E0ACE0B2E40EC003
:100F200020E030E044E951E4C701B6010E944B15CE
:100F300087FF0CC080E090E0A0E9B1E4809300015D
:100F400090930101A0930201B0930301209100014D
:100F500030910101409102015091030160918101A2
:100F60007091820180918301909184010E94DE142E
:100F700020E030E0A9010E94AA16181624F481E0AE
:100F800080937A0102C010927A0180917A018823BD
:100F900011F0429A01C04298CF910F91FF90EF90CB
:100FA000DF90CF900C9403020F93CF93DF9300D088
:100FB00000D0CDB7DEB76091B2017091B30180E08F
:100FC00090E00E94F81520E030E040E85FE30E94E6
:100FD000BE020E94C9156F3F710521F018F08FEF16
:100FE00090E00AC06115710529F07093B301609318
:100FF000B20106C081E090E09093B3018093B2010A
:101000006091B2017091B30180E090E00E94F81508
:101010009B01AC018091B4019091B501BC0180E0CD
:1010200090E029833A834B835C830E94F81500E0AB
:1010300029813A814B815C810E944606882331F0E8
:101040006091B20181E090E00E9474176091B2015A
:101050007091B3018CE20F900F900F900F90DF9181
:10106000CF910F910C9428030F93CF93DF9300D06F
:1010700000D0CDB7DEB76091AE017091AF0180E0D6
:1010800090E00E94F81520E030E040E85FE30E9425
:10109000BE020E94C9156F3F710521F018F08FEF55
:1010A00090E00AC06115710529F07093AF0160935B
:1010B000AE0106C081E090E09093AF018093AE0155
:1010C0006091AE017091AF0180E090E00E94F81550
:1010D0009B01AC018091B0019091B101BC0180E015
:1010E00090E029833A834B835C830E94F81500E0EB
:1010F00029813A814B815C810E944606882331F028
:101100006091AE0182E090E00E9474176091AE01A0
:101110007091AF018DE20F900F900F900F90DF91C3
:10112000CF910F910C9428030F93CF93DF9300D0AE
:1011300000D0CDB7DEB76091AA017091AB0180E01D
:1011400090E00E94F81520E030E040E85FE30E9464
:10115000BE020E94C9156F3F710521F018F08FEF94
:1011600090E00AC06115710529F07093AB0160939E
:10117000AA0106C081E090E09093AB018093AA01A0
:101180006091AA017091AB0180E090E00E94F81597
:101190009B01AC018091AC019091AD01BC0180E05C
:1011A00090E029833A834B835C830E94F81500E02A
:1011B00029813A814B815C810E944606882331F067
:1011C0006091AA0183E090E00E9474176091AA01E7
:1011D0007091AB018EE20F900F900F900F90DF9106
:1011E000CF910F910C9428030F93CF93DF9300D0EE
:1011F00000D0CDB7DEB76091A6017091A70180E065
:1012000090E00E94F81520E030E040E85FE30E94A3
:10121000BE020E94C9156F3F710521F018F08FEFD3
:1012200090E00AC06115710529F07093A7016093E1
:10123000A60106C081E090E09093A7018093A601EB
:101240006091A6017091A70180E090E00E94F815DE
:101250009B01AC018091A8019091A901BC0180E0A3
:1012600090E029833A834B835C830E94F81500E069
:1012700029813A814B815C810E944606882331F0A6
:101280006091A60184E090E00E9474176091A6012D
:101290007091A7018FE20F900F900F900F90DF9148
:1012A000CF910F910C942803EF92FF920F931F930D
:1012B000CF93DF93EC018A30910568F440E065E656
:1012C00088E30E94E60340E060E089E30E94E603D1
:1012D00040E060E014C084369105B8F440E065E673
:1012E00088E30E94E60340E060E089E30E94E603B1
:1012F000CE016AE070E00E941C17C82F40E08AE32C
:101300000E94E60340E06C2F23C0C83E83E0D8076C
:1013100040F540E065E688E30E94E603CE0164E61E
:1013200070E00E941C177C0140E089E30E94E60304
:101330000AE010E0C701B8010E941C1740E08AE3F0
:101340000E94E603CE01B8010E941C1740E0682FFE
:101350008BE3DF91CF911F910F91FF90EF900C9451
:10136000E603DF91CF911F910F91FF90EF900895C9
:10137000EF92FF920F931F93CF93DF93109271011F
:101380001092700180919101811106C081E090E07E
:10139000909371018093700180918F01811109C038
:1013A000809170019091710182609093710180939E
:1013B000700180919001811109C08091700190911C
:1013C00071018460909371018093700180918E010E
:1013D000811109C080917001909171018860909392
:1013E00071018093700180918C01811109C08091FD
:1013F00070019091710180619093710180937001EF
:1014000080918B01811109C08091700190917101CF
:101410008062909371018093700180918D018111A0
:1014200009C0809170019091710180649093710165
:101430008093700180918A01811109C080917001AF
:1014400090917101806890937101809370018091F7
:101450008901811109C080917001909171019160A1
:10146000909371018093700180E090E00E94540994
:101470000EE511E0C0E0D0E0EE24E394F12C809181
:101480007001909171010C2E02C0959587950A9478
:10149000E2F7F80180FF1BC0F182E08280915C01DD
:1014A00090915D01843F91406CF4CE010E945409FB
:1014B00080915C0190915D01019690935D01809314
:1014C0005C01ECCF10925D0110925C0102C01182B0
:1014D000108221960E5F1F4FC930D10581F6DF9132
:1014E000CF911F910F91FF90EF900895CF9348E017
:1014F00050E0BC018DE092E00E94450E8DE092E04C
:101500000E941F0D892B31F08DE092E00E94270D83
:10151000C82FF4CF8C2FCF9108958CE390E00E94D8
:10152000760A877008958DE390E00E94760A8170B4
:10153000809393018DE390E00E94760A86958170F6
:10154000809392018DE390E00E94760A82FB8827C7
:1015500080F980938D018DE390E00E94760A83FBF1
:10156000882780F980938C018DE390E00E94760AB1
:101570008295817080938B018DE390E00E94760AC2
:1015800085FB882780F980938A018DE390E00E9493
:10159000760A86FB882780F9809389018CE390E0A6
:1015A0000E94760A82958170809391018CE390E08D
:1015B0000E94760A85FB882780F9809390018CE34E
:1015C00090E00E94760A86FB882780F980938F013D
:1015D0008CE390E00E94760A881F8827881F8093FA
:1015E0008E0183B181708093800183B18695817073
:1015F00080937F0108950E94930A61E084E690E061
:101600000E94FD02609381017093820180938301A7
:101610009093840141E050E063E070E08EE991E056
:101620000E94DA00E091A001F091A10180819181F6
:101630009093B5018093B401E091A401F091A501CC
:10164000808191819093B1018093B001E0919E01DE
:10165000F0919F01808191819093AD018093AC01C5
:10166000E091A201F091A301808191819093A90161
:101670008093A8010E948D0A90E088309105C0F403
:10168000FC01EC5CFF4F0C9466170C94BB060C94A9
:10169000D4070C9434080C94B8090C9494080C9456
:1016A000F40860E088EC90E00E94FD020C949F0436
:1016B00040E060E08BE30E94E60340E06EE68AE3F0
:1016C0000E94E60340E060E289E30E94E60340E016
:1016D00060E288E30C94E603FC0110861186128612
:1016E000138615A214A216A217A210A611A612A65E
:1016F00013A614A615A621E026A7CB01770FAA0BE7
:10170000BB0B848B958BA68BB78B08958F929F9282
:10171000AF92BF92CF92DF92EF92FF920F931F93FF
:10172000CF93DF93EC016A017B010E9480130C8947
:101730001D892E893F890230110521053105D1F01F
:1017400040F4013011052105310509F50E948C1383
:101750001EC0033011052105310579F00430110553
:1017600021053105A1F40E94801320E63AEE40E005
:1017700050E009C00E9480130AC00E94801328EE26
:1017800033E040E050E00E944417CA01B901CC8226
:10179000DD82EE82FF820C851D852E853F854B0103
:1017A0005C01801A910AA20AB30A8C149D04AE044B
:1017B000BF0458F06C877D878E879F878C8D811141
:1017C00003C081E08C8F01C01C8E8C8DDF91CF9186
:1017D0001F910F91FF90EF90DF90CF90BF90AF904F
:1017E0009F908F900895FC0166834783208781E056
:1017F00085870895CF92DF92FF920F931F93CF9327
:10180000DF93EC0161E08E810E9484140E948013BA
:1018100009851A852B853C85601771078207930718
:1018200020F419861A861B861C862D85211111C06D
:1018300009851A852B853C85DC01CB01801B910B2A
:10184000A20BB30B803D9740A105B10510F481E0D8
:101850006DC01D860E94801369877A878B879C875D
:101860001C821B821A821982188261E08E810E947A
:10187000481460E08E810E94841464E170E080E08E
:1018800090E00E94B113F89461E08E810E9484146C
:1018900088E290E00E94D91360E08E810E94481493
:1018A00010E0F12C81E000E0C82ED12C8E810E9446
:1018B000B4148C159D0539F40F5F81E090E00E940F
:1018C000D9130F3F99F78E810E94B4140F3FB9F0DE
:1018D000143090F010FD10C09F2D9695969596951A
:1018E000FE01E90FF11D9081990F90832885201743
:1018F00010F491609083F3941F5F1535A1F67894EE
:1019000087E28F1590F42C8130E04881898190E046
:10191000840F911D4A81840F911D4B81840F911D6D
:1019200099272817390709F492CF80E0DF91CF91EA
:101930001F910F91FF90DF90CF900895CF92DF928B
:10194000EF92FF920F931F93CF93DF93EC01162F2B
:101950000E94FA0B882309F455C08F818B3031F037
:1019600008F450C08551823098F04CC06A8170E014
:1019700080E090E00E94F815112309F44EC020E0A9
:1019800030E040E151E46B017C01C701B6012BC09E
:101990000A81602F6F7770E080E090E00E94FA1576
:1019A00020E030E040E853E40E94AF166B017C0178
:1019B0008B81682F70E080E090E00E94FA159B0117
:1019C000AC01C701B6010E94DF1420E030E040E224
:1019D00051E40E94501507FD90581123F1F020E0CA
:1019E00030E040E151E40E94AF1620E030E040EAF0
:1019F00050E40E94501520E030E040E052E40E94A4
:101A0000DF140BC06BE171E08DEC92E00E946B1271
:101A100040E030E020EC9FE703C0462F372F282F0F
:101A2000C42ED32EE22EF92EC701B601DF91CF913D
:101A30001F910F91FF90EF90DF90CF9008958091CC
:101A40003D0290E020913E02821B91090895909101
:101A50003E0280913D02981750F4E92FF0E0E15CDE
:101A6000FD4F208130E09F5F90933E0202C02FEF38
:101A70003FEFC9010895E0913E0280913D02E817D1
:101A800030F4F0E0E15CFD4F808190E008958FEF4D
:101A90009FEF08950895CF92DF92EF92FF920F93F8
:101AA0001F93CF93DF937C01262F972F8A0180917C
:101AB0001902882391F0C62FD72F6E01C40ED51EB0
:101AC000CC15DD0571F06991D701ED91FC91019084
:101AD000F081E02DC7010995F3CF642F822F0E947A
:101AE0000B0FC801DF91CF911F910F91FF90EF90E5
:101AF000DF90CF900895CF93DF931F92CDB7DEB7DD
:101B00006983209119022223D1F020911A022032F8
:101B100040F021E030E0FC013383228380E090E05C
:101B200015C080911B02E82FF0E0E45EFD4F998123
:101B300090838F5F80931B0280931A0205C061E03F
:101B4000CE0101960E940B0F81E090E00F90DF9193
:101B5000CF910895FC011382128288EE93E0A0E0F9
:101B6000B0E084839583A683B78389E291E0918373
:101B70008083089510923E0210923D0210921B0243
:101B800010921A020C944F0E81E080931902609318
:101B90003C0210921B0210921A0208950F93062F16
:101BA00021E040911A026CE172E080913C020E94B7
:101BB000B50E10921B0210921A02109219020F9188
:101BC00008954F925F926F927F92AF92BF92CF92A1
:101BD000EF92FF920F931F93CF93DF935C01F62E4A
:101BE000D42F28013901EE2021F10E94C40DCE2D01
:101BF000C43008F0C3E0C150C0F0D501ED91FC91B4
:101C0000B8E0CB9FC0011124A301920104C05695F6
:101C10004795379527958A95D2F7CA01B901019062
:101C2000F081E02DC5010995E6CF60E0C5010E9475
:101C3000CE0D4D2FD13208F040E22C2D6FE372E033
:101C40008F2D0E946D0E10923E0280933D02DF9117
:101C5000CF911F910F91FF90EF90CF90BF90AF90D9
:101C60007F906F905F904F900895CF92EF920F9377
:101C70001F93C22EE12C00E010E098010E94E10DBC
:101C80001F910F91EF90CF90089521E00C94350EA5
:101C900061E00C94CE0D8DE092E00C94AA0D1092B0
:101CA000CC0281E08093CA021092C90261E082E115
:101CB0000E94841461E083E10E948414E9EBF0E067
:101CC00080818E7F808380818D7F808388E4809374
:101CD000B80085E48093BC000895413208F043C009
:101CE0009091CC029111FCCF91E09093CC02209383
:101CF000CA022FEF20935F021092A402240F2093B8
:101D0000A3029093CB029091CB02880F892B8093F2
:101D1000CB028091C902813061F41092C902809196
:101D2000CB028093BB008091BC0083FDF8CF85EC93
:101D300001C085EE8093BC008091CC028130E1F33C
:101D40008091A402841710F44091A40225EA32E0A5
:101D5000FB01D9018A2F821B841718F48D9181937E
:101D6000F9CF842F089580E008950F93413208F051
:101D70004AC09091CC029111FCCF32E03093CC025A
:101D80000093CA023FEF30935F021092A402409387
:101D9000A302FB0165EA72E0DB013A2F361B341720
:101DA00018F431913D93F9CF1092CB023091CB02D0
:101DB000880F832B8093CB028091C902813061F41C
:101DC0001092C9028091CB028093BB008091BC002D
:101DD00083FDF8CF85EC01C085EE8093BC00222303
:101DE00021F08091CC028230D1F380915F028F3F4D
:101DF00079F080915F02803241F080915F02803300
:101E000031F094E005C091E003C092E001C093E09E
:101E1000892F0F910895613298F42091CC022430DB
:101E200089F460938102FC0123E832E0D9018A2F12
:101E3000821B861718F481918D93F9CF80E0089565
:101E400081E0089582E0089585ED8093BC00809143
:101E5000BC0084FDFCCF1092CC02089585EC8093E9
:101E6000BC001092CC0208951F920F920FB60F92F1
:101E700011242F933F934F935F936F937F938F938F
:101E80009F93AF93BF93EF93FF938091B900887FA7
:101E9000803609F49EC078F5883209F45DC090F46C
:101EA000803109F456C038F4882309F4F5C088302D
:101EB00009F44FC0F5C0883109F44EC0803209F4EE
:101EC0005FC0EEC0803409F46AC058F4803309F46E
:101ED00057C0883309F0E4C080935F020E942E0F40
:101EE000DFC0803509F44FC0883509F45DC08834FF
:101EF00009F0D6C0D3C0883909F4C4C0A8F4883723
:101F000009F467C038F4883609F463C0803709F4EF
:101F100060C0C6C0883809F4B5C0803909F45FC014
:101F2000803809F0BDC05BC0803B09F483C038F441
:101F3000803A09F466C0883A09F47CC0B1C0803C9C
:101F400009F4A4C0883C09F4A1C0883B09F487C007
:101F5000A7C08091CB0210C09091A4028091A302EF
:101F6000981770F5E091A40281E08E0F8093A4028F
:101F7000F0E0EB55FD4F80818093BB0085EC83C082
:101F800080935F028BC0E091A40281E08E0F80936A
:101F9000A4028091BB00F0E0EB55FD4F808390914F
:101FA000A4028091A3026BC0E091A40281E08E0F95
:101FB0008093A4028091BB00F0E0EB55FD4F80833D
:101FC0008091CA0281116AC081E08093C90284EACB
:101FD0005EC083E08093CC0210926002CFCF8091EC
:101FE0006002803208F04EC0E091600281E08E0F06
:101FF000809360028091BB00F0E0EF59FD4F808339
:10200000BDCF0E942E0F80916002803230F4E091AB
:102010006002F0E0EF59FD4F10826091600270E0C5
:10202000E091C502F091C60281E692E00995109216
:10203000600236C084E08093CC021092820210923B
:102040008102E091C702F091C80209958091810256
:10205000811105C081E08093810210928302E0919A
:10206000820281E08E0F80938202F0E0ED57FD4FF7
:1020700080818093BB0090918202809181029817A9
:1020800008F47CCF85E88093BC000AC085EC80937F
:10209000BC001092CC0204C010925F020E94240F78
:1020A000FF91EF91BF91AF919F918F917F916F9130
:1020B0005F914F913F912F910F900FBE0F901F9006
:1020C0001895FC01918D228D892F90E0805C9F4FA7
:1020D000821B91098F7399270895FC01918D828D40
:1020E000981731F0828DE80FF11D858D90E00895ED
:1020F0008FEF9FEF0895FC01918D828D981761F00D
:10210000828DDF01A80FB11D5D968C91928D9F5F2E
:102110009F73928F90E008958FEF9FEF089584EE64
:1021200091E1892B49F080E090E0892B29F00E9411
:10213000E41181110C9400000895FC01848DDF01ED
:10214000A80FB11DA35ABF4F2C91848D90E001962A
:102150008F739927848FA689B7892C93A089B18919
:102160008C9180648C93938D848D981306C0028823
:10217000F389E02D80818F7D80830895CF93DF9355
:10218000EC01888D8823C9F0EA89FB89808185FD6F
:1021900005C0A889B9898C9186FD0FC00FB607FCD0
:1021A000F5CF808185FFF2CFA889B9898C9185FF11
:1021B000EDCFCE010E949D10E7CFDF91CF91089522
:1021C000EF92FF920F931F93CF93DF93EC0181E087
:1021D000888F9B8D8C8D981305C0E889F989808143
:1021E00085FD24C0F62E0B8D10E00F5F1F4F0F737F
:1021F0001127E02E8C8DE8120CC00FB607FCFACF29
:10220000E889F989808185FFF5CFCE010E949D1074
:10221000F1CF8B8DFE01E80FF11DE35AFF4FF082E5
:102220000B8FEA89FB898081806207C0EE89FF8974
:102230006083E889F98980818064808381E090E00F
:10224000DF91CF911F910F91FF90EF900895CF9262
:10225000DF92EF92FF921F93CF93DF93EC016A011D
:102260007B01122FE889F98982E080834115514E64
:1022700061057105B1F060E079E08DE390E0A701C0
:1022800096010E944417DA01C9010197A109B10919
:10229000B695A79597958795AC01411580E15807AC
:1022A000A8F0E889F989108260E874E88EE190E08E
:1022B000A70196010E944417BA01A9014150510992
:1022C000610971097695679557954795EC85FD8568
:1022D0005083EE85FF854083188EEC89FD8910833D
:1022E000EA89FB89808180618083EA89FB8980811A
:1022F00088608083EA89FB89808180688083EA899D
:10230000FB8980818F7D8083DF91CF911F91FF902A
:10231000EF90DF90CF9008951F920F920FB60F921B
:1023200011242F938F939F93EF93FF93E091DD02FE
:10233000F091DE028081E091E302F091E40282FDFF
:1023400012C090818091E6028F5F8F732091E70227
:10235000821751F0E091E602F0E0E353FD4F958FD4
:102360008093E60201C08081FF91EF919F918F9150
:102370002F910F900FBE0F901F9018951F920F92E4
:102380000FB60F9211242F933F934F935F936F9348
:102390007F938F939F93AF93BF93EF93FF938DECB6
:1023A00092E00E949D10FF91EF91BF91AF919F919C
:1023B0008F917F916F915F914F913F912F910F90EE
:1023C0000FBE0F901F9018958DEC92E00E94611047
:1023D00021E0892B09F420E0822F0895EDECF2E052
:1023E0001382128288EE93E0A0E0B0E084839583AC
:1023F000A683B78389E391E09183808385EC90E0A5
:102400009587848784EC90E09787868780EC90E0BE
:10241000918B808B81EC90E0938B828B82EC90E0AF
:10242000958B848B86EC90E0978B868B118E128E29
:10243000138E148E089508950E94E4130E941B12B7
:102440000E948B01CFE8D0E10E94FB0A2097E1F3C4
:102450000E948F10F9CFCF92DF92EF92FF920F93ED
:102460001F93CF93DF936C017A018B01C0E0D0E022
:10247000CE15DF0589F0D8016D918D01D601ED9162
:10248000FC910190F081E02DC6010995892B11F492
:102490007E0102C02196ECCFC701DF91CF911F9141
:1024A0000F91FF90EF90DF90CF9008956115710527
:1024B00079F0FB0101900020E9F73197AF01461B4D
:1024C000570BDC01ED91FC910280F381E02D099422
:1024D00080E090E008950C945612DC01ED91FC919F
:1024E0000190F081E02D099465E471E00C9456129E
:1024F0008F929F92AF92BF92CF92DF92EF92FF9214
:102500000F931F93CF93DF93CDB7DEB7A1970FB68D
:10251000F894DEBF0FBECDBF6C01142FE52FCB01A9
:10252000022F19A2223008F40AE07E0121E2E20E15
:10253000F11C802E912CA12CB12C612F7E2FA50196
:1025400094010E944417029F1019112481E0E81A97
:10255000F1081A3014F4105D01C0195CF701108302
:10256000122FE32FCA01232B242B252B31F7B70180
:10257000C6010E945612A1960FB6F894DEBF0FBE98
:10258000CDBFDF91CF911F910F91FF90EF90DF9022
:10259000CF90BF90AF909F908F900895CF92DF9291
:1025A000EF92FF920F931F93CF93DF93EC016A0199
:1025B0007B012115310579F4E881F9810190F081E1
:1025C000E02D642FDF91CF911F910F91FF90EF903D
:1025D000DF90CF9009942A303105E9F477FF1AC0D3
:1025E0006DE20E946D128C0144275527BA014C19E7
:1025F0005D096E097F092AE0CE010E947812800FE2
:10260000911FDF91CF911F910F91FF90EF90DF907D
:10261000CF9008952AE0B701A601CE01DF91CF91B6
:102620001F910F91FF90EF90DF90CF900C94781254
:102630009A01AB01770F660B770B0C94CE120F93B8
:102640001F93CF93DF93EC019A01AB01770F660BD9
:10265000770B0E94CE128C01CE010E947412800F63
:10266000911FDF91CF911F910F9108951F920F92AB
:102670000FB60F9211242F933F938F939F93AF9395
:10268000BF9380916B0390916C03A0916D03B09107
:102690006E0330916A0323E0230F2D3720F4019657
:1026A000A11DB11D05C026E8230F0296A11DB11D75
:1026B00020936A0380936B0390936C03A0936D0344
:1026C000B0936E0380916F0390917003A09171039A
:1026D000B09172030196A11DB11D80936F03909379
:1026E0007003A0937103B0937203BF91AF919F9158
:1026F0008F913F912F910F900FBE0F901F901895C3
:102700002FB7F89460916B0370916C0380916D0307
:1027100090916E032FBF08953FB7F89480916F0397
:1027200090917003A0917103B091720326B5A89B9C
:1027300005C02F3F19F00196A11DB11D3FBFBA2F53
:10274000A92F982F8827820F911DA11DB11DBC01B3
:10275000CD0142E0660F771F881F991F4A95D1F778
:102760000895CF92DF92EF92FF92CF93DF936B01A8
:102770007C010E948C13EB01C114D104E104F1042B
:1027800089F00E94DD140E948C136C1B7D0B683E47
:10279000734090F381E0C81AD108E108F108C851EC
:1027A000DC4FEACFDF91CF91FF90EF90DF90CF9099
:1027B00008958230910538F0880F991F880F991F6E
:1027C00005970197F1F70895789484B5826084BDE8
:1027D00084B5816084BD85B5826085BD85B5816025
:1027E00085BDEEE6F0E0808181608083E1E8F0E085
:1027F0001082808182608083808181608083E0E8B4
:10280000F0E0808181608083E1EBF0E08081846092
:102810008083E0EBF0E0808181608083EAE7F0E094
:1028200080818460808380818260808380818160F8
:1028300080838081806880831092C10008958330F6
:1028400081F028F4813099F08230A1F0089587302A
:10285000A9F08830B9F08430D1F4809180008F7D68
:1028600003C0809180008F7780938000089584B5A5
:102870008F7702C084B58F7D84BD08958091B000AC
:102880008F7703C08091B0008F7D8093B000089552
:10289000CF93DF9390E0FC01E457FF4F2491FC01BC
:1028A000E056FF4F8491882361F190E0880F991FD3
:1028B000FC01E853FF4FC591D491FC01E254FF4F56
:1028C000A591B491611109C09FB7F89488812095B2
:1028D00082238883EC912E230BC0623061F49FB772
:1028E000F8943881822F809583238883EC912E2B56
:1028F0002C939FBF06C08FB7F894E8812E2B2883B6
:102900008FBFDF91CF9108951F93CF93DF93282F2F
:1029100030E0F901E858FF4F8491F901E457FF4F87
:10292000D491F901E056FF4FC491CC23C9F0162F82
:1029300081110E941F14EC2FF0E0EE0FFF1FE254F4
:10294000FF4FA591B4918FB7F894111105C09C91D8
:10295000ED2FE095E92302C0EC91ED2BEC938FBFB6
:10296000DF91CF911F910895CF93DF93282F30E00F
:10297000F901E858FF4F8491F901E457FF4FD491D2
:10298000F901E056FF4FC491CC2391F081110E94D0
:102990001F14EC2FF0E0EE0FFF1FEC54FF4FA5913A
:1029A000B491EC91ED2381E090E021F480E002C04D
:1029B00080E090E0DF91CF91089508955058BB27B3
:1029C000AA270E94F6140C9470160E94621638F022
:1029D0000E94691620F039F49F3F19F426F40C94F4
:1029E0005F160EF4E095E7FB0C945916E92F0E9450
:1029F000811658F3BA17620773078407950720F00A
:102A000079F4A6F50C94A3160EF4E0950B2EBA2FCC
:102A1000A02D0B01B90190010C01CA01A0011124E4
:102A2000FF27591B99F0593F50F4503E68F11A1690
:102A3000F040A22F232F342F4427585FF3CF469521
:102A400037952795A795F0405395C9F77EF41F1643
:102A5000BA0B620B730B840BBAF09150A1F0FF0F0D
:102A6000BB1F661F771F881FC2F70EC0BA0F621FF9
:102A7000731F841F48F4879577956795B795F795E9
:102A80009E3F08F0B0CF9395880F08F09927EE0F7E
:102A90009795879508950E94351608F481E008956A
:102AA0000E9464150C9470160E94691658F00E94DA
:102AB000621640F029F45F3F29F00C945916511129
:102AC0000C94A4160C945F160E94811668F3992347
:102AD000B1F3552391F3951B550BBB27AA2762171A
:102AE0007307840738F09F5F5F4F220F331F441F27
:102AF000AA1FA9F335D00E2E3AF0E0E832D091505B
:102B00005040E695001CCAF72BD0FE2F29D0660F47
:102B1000771F881FBB1F261737074807AB07B0E88A
:102B200009F0BB0B802DBF01FF2793585F4F3AF090
:102B30009E3F510578F00C9459160C94A4165F3FF3
:102B4000E4F3983ED4F3869577956795B795F79516
:102B50009F5FC9F7880F911D9695879597F90895FE
:102B6000E1E0660F771F881FBB1F6217730784079A
:102B7000BA0720F0621B730B840BBA0BEE1F88F7A9
:102B8000E09508950E94C9156894B1110C94A4169B
:102B900008950E94891688F09F5798F0B92F9927B9
:102BA000B751B0F0E1F0660F771F881F991F1AF038
:102BB000BA95C9F714C0B13091F00E94A316B1E0E4
:102BC00008950C94A316672F782F8827B85F39F0E3
:102BD000B93FCCF3869577956795B395D9F73EF4D1
:102BE00090958095709561957F4F8F4F9F4F089579
:102BF000E89409C097FB3EF4909580957095619597
:102C00007F4F8F4F9F4F9923A9F0F92F96E9BB274C
:102C10009395F695879577956795B795F111F8CFC8
:102C2000FAF4BB0F11F460FF1BC06F5F7F4F8F4F33
:102C30009F4F16C0882311F096E911C0772321F029
:102C40009EE8872F762F05C0662371F096E8862FC1
:102C500070E060E02AF09A95660F771F881FDAF718
:102C6000880F9695879597F90895990F0008550F45
:102C7000AA0BE0E8FEEF16161706E807F907C0F002
:102C800012161306E407F50798F0621B730B840B0A
:102C9000950B39F40A2661F0232B242B252B21F4E4
:102CA00008950A2609F4A140A6958FEF811D811D84
:102CB000089597F99F6780E870E060E008959FEFBE
:102CC00080EC089500240A941616170618060906C3
:102CD000089500240A941216130614060506089592
:102CE000092E0394000C11F4882352F0BB0F40F41A
:102CF000BF2B11F460FF04C06F5F7F4F8F4F9F4F5A
:102D0000089557FD9058440F551F59F05F3F71F0DB
:102D10004795880F97FB991F61F09F3F79F0879542
:102D20000895121613061406551FF2CF4695F1DFCB
:102D300008C0161617061806991FF1CF869571055B
:102D4000610508940895E894BB2766277727CB018F
:102D500097F908950E94351608F48FEF08950E94A0
:102D6000C2160C9470160E94621638F00E94691602
:102D700020F0952311F00C9459160C945F16112431
:102D80000C94A4160E94811670F3959FC1F3950FC1
:102D900050E0551F629FF001729FBB27F00DB11DDF
:102DA000639FAA27F00DB11DAA1F649F6627B00D6F
:102DB000A11D661F829F2227B00DA11D621F739F58
:102DC000B00DA11D621F839FA00D611D221F749F66
:102DD0003327A00D611D231F849F600D211D822FAD
:102DE000762F6A2F11249F5750409AF0F1F08823D4
:102DF0004AF0EE0FFF1FBB1F661F771F881F915001
:102E00005040A9F79E3F510580F00C9459160C9440
:102E1000A4165F3FE4F3983ED4F3869577956795C3
:102E2000B795F795E7959F5FC1F7FE2B880F911D2A
:102E30009695879597F90895AA1BBB1B51E107C08A
:102E4000AA1FBB1FA617B70710F0A61BB70B881F3A
:102E5000991F5A95A9F780959095BC01CD010895C9
:102E600097FB072E16F4009407D077FD09D00E9437
:102E70001C1707FC05D03EF4909581959F4F08954F
:102E8000709561957F4F0895A1E21A2EAA1BBB1B76
:102E9000FD010DC0AA1FBB1FEE1FFF1FA217B30726
:102EA000E407F50720F0A21BB30BE40BF50B661F3C
:102EB000771F881F991F1A9469F760957095809500
:102EC00090959B01AC01BD01CF010895EE0FFF1F4E
:102ED0000590F491E02D0994F999FECF92BD81BD42
:102EE000F89A992780B50895262FF999FECF1FBA31
:102EF00092BD81BD20BD0FB6F894FA9AF99A0FBE23
:082F000001960895F894FFCF3B
:102F08000000C84132010101012062313A2000204D
:102F180062323A20002062333A2000526561642010
:102F28006661696C00000000007B0D4B0D1F0D27CA
:102F38000D3B0D4A0D00000000E0102B1261107BC4
:102F4800106D10BE100D0A006E616E00696E66008D
:062F58006F7666002E00FA
:00000001FF
