:100000000C946E000C9450140C9477140C9496007D
:100010000C9496000C9496000C9496000C94960008
:100020000C9496000C9496000C9496000C94B200DC
:100030000C9496000C9496000C9496000C949600E8
:100040000C949E140C9496000C948C120C94BE127A
:100050000C9496000C9496000C9496000C949600C8
:100060000C9434100C949600C30CBC0CC50CB60C4C
:10007000B80CBA0CB40CB20CB00CAE0C00000008FA
:10008000000201000003040700000000000000005F
:10009000010204081020408001020408102001021F
:1000A00004081020040404040404040402020202EC
:1000B00002020303030303030000000023002600E1
:1000C000290000000000250028002B00000000008F
:1000D000240027002A006A034B0FEE1211241FBED2
:1000E000CFEFD8E0DEBFCDBF11E0A0E0B1E0E8ED9A
:1000F000F1E302C005900D92A635B107D9F723E0D0
:10010000A6E5B1E001C01D92A637B207E1F710E005
:10011000CEE6D0E004C02197FE010E94CE18CB3677
:10012000D107C9F70E941C130C94EA180C94000024
:1001300081E08093140108950C94DC1810928000E3
:1001400025E02093810029E03DE33093890020934E
:10015000880022E020936F00789490930D028093A2
:100160000C0208951F920F920FB60F9211242F9335
:100170003F938F939F9320910E0230910F028091B5
:100180000C0290910D0201972817390728F0109260
:100190000F0210920E0209C080910E0290910F0280
:1001A000019690930F0280930E0210928500109298
:1001B00084009F918F913F912F910F900FBE0F90D0
:1001C0001F9018954F925F927F928F929F92AF925D
:1001D000BF92CF92DF92EF92FF920F931F93CF9334
:1001E000DF93FC017A0140E050E000E010E0412C98
:1001F000512C21E030E0712C4B018E0C9F1C5C01D6
:1002000088E0A80EB11C80910E0290910F02C09060
:100210000E02D0900F02C814D90408F05EC08617F1
:10022000970708F45AC0772089F083B1807190E075
:1002300082179307B9F0C080D180D6012D913C91EF
:1002400011972F5F3F4F2D933C930CC0CF01DC01E2
:10025000CD90DD90CD01D6011D921C928A159B0593
:10026000B1F7E3CF29B1207130E02415350559F0FD
:10027000C280D380D6014D905C90BFEF4B1A5B0AD1
:10028000D6014D925C92A3B1A0724A2E512C401619
:10029000510651F0C480D580D6010D911C91119763
:1002A0000F5F1F4F0D931C9316B11170C12FB0E05B
:1002B000DB2FC417D50751F006811781D8014D9166
:1002C0005C9111974F5F5F4F4D935C9377247394CC
:1002D000AE01820129019C0196CFB1E07B1213C0CF
:1002E0009F01285F3F4FC191D1918881998197FDEE
:1002F000019695958795B7010E9484187983688344
:10030000E217F30781F7DF91CF911F910F91FF90D3
:10031000EF90DF90CF90BF90AF909F908F907F90A5
:100320005F904F9008950F931F93CF93DF9326E034
:1003300040E052EC61E070E080ED92E00E94271214
:1003400080E192E00E94BA0E62E086E00E94B01561
:1003500062E087E00E94B01562E088E00E94B0157C
:1003600062E089E00E94B01562E081E10E94B01570
:1003700061E083E00E94B01561E085E00E94B01565
:1003800041E050E068E970E080E00E94301481E0D4
:1003900090E00E94D41890E09093B0018093AF0158
:1003A00082E090E00E94D41890E09093AC0180939A
:1003B000AB0183E090E00E94D41890E09093A801F4
:1003C0008093A70184E090E00E94D41890E090937D
:1003D000A4018093A30108E511E0C0E0D0E0CE01C4
:1003E00004960E94D41890E0F801819391938F01B4
:1003F0002196C630D10599F786E090E00E949E00D4
:1004000083E991E090939C0180939B0185E991E0C1
:1004100090939E0180939D0187E991E09093A001C4
:1004200080939F0189E991E09093A2018093A101BB
:10043000DF91CF911F910F9108950F931F9380919A
:100440007C01811103C081E08093780180917B0160
:10045000811103C081E08093770180917801882326
:1004600019F18091920181111FC00E94E81400913E
:100470007201109173012091740130917501DC01BA
:10048000CB01801B910BA20BB30B893B9B40A105B9
:10049000B10520F081E08093780106C080917A0157
:1004A000811102C01092780180917701882319F19F
:1004B0008091910181111FC00E94E81400916E018A
:1004C00010916F012091700130917101DC01CB011D
:1004D000801B910BA20BB30B893B9B40A105B1057F
:1004E00020F081E08093770106C08091790181112D
:1004F00002C01092770180917601811104C01092A0
:1005000078011092770190917C01911110927801FD
:1005100020917B0121111092770140917D01509132
:100520007E0120910C0130910D014217530724F4F4
:10053000109278011092770120919201211104C04C
:10054000911102C081110AC00E94E81460937201E7
:100550007093730180937401909375018091910160
:10056000811108C080917B01811104C080917601C6
:1005700081110AC00E94E81460936E0170936F01AC
:10058000809370019093710180917801882321F00C
:1005900091E090937A0102C010927A0190917701D4
:1005A000992321F091E09093790102C01092790192
:1005B000882311F05B9A01C05B98809177018823B2
:1005C00011F05D9A01C05D981F910F910895CF922F
:1005D000DF92EF92FF92CF936B017C01CA01B901C8
:1005E000C9B1C6FBCC27C0F9C093EF0129B1221FC6
:1005F0002227221F2093EE01C11117C0309115014F
:10060000332399F0222331F020E030E0A9010E9449
:10061000471607C09B01AC0160E070E0CB010E946F
:10062000461621E02093ED0105C01092ED0160E037
:1006300070E0CB01C09315019B01AC01C701B6016D
:100640000E944716CF91FF90EF90DF90CF900895D2
:100650002091EC01422F50E08417950758F466234F
:1006600021F060E08EEF91E003C060E080EF91E068
:100670000C949E0D2F5F2093EC01089541E050E013
:1006800062E070E08BE991E00E94E200EBE9F1E0CA
:10069000A081B1818D919C919093B2018093B10121
:1006A000A481B5818D919C919093AE018093AD0111
:1006B000A281B3818D919C919093AA018093A9010D
:1006C0000680F781E02D808191819093A60180932F
:1006D000A501089526E046E16FE08EEF91E00E94CB
:1006E000F30C26E046E160E180EF91E00E94F30C1C
:1006F00062E070E08DEB91E00C94D90C1F93CF93E6
:10070000DF931F92CDB7DEB7633609F463C058F5A7
:10071000673009F455C090F4633009F44DC038F4E3
:10072000613009F461C008F045C010EC6EC065305E
:1007300009F464C008F042C019E967C06A3209F4DC
:1007400063C048F4693009F43FC0E0F1603209F059
:100750005CC01FEF5AC06136C9F1D0F56D3209F0A7
:1007600054C01FEB52C06C3609F440C080F46736A9
:10077000B9F128F4653681F188F511EA46C0693689
:1007800099F180F16A3609F040C011EF3EC062373E
:1007900099F138F4603761F168F56E36B1F51BEA0E
:1007A00034C0643769F150F1653761F1693769F533
:1007B00011E92BC014EA29C010EB27C012E825C0AC
:1007C00018EF23C010E821C010E91FC018E81DC0B1
:1007D00013E81BC016EC19C016E817C01EE815C0B8
:1007E00012EC13C016E711C019EF0FC017EC0DC0C3
:1007F0001CE80BC018E909C01FEA07C012E905C0D0
:1008000017E803C011EC01C01CE9682F80E192E0F9
:1008100049830E94C40E612F80E192E00E947B0E0A
:100820004981612F442311F06F7701C0606880E136
:1008300092E00E947B0E80E192E00F90DF91CF91D9
:100840001F910C94480F40E060E288E30E947E0311
:1008500040E060E289E30E947E0340E060E28AE3D8
:100860000E947E0340E060E28BE30C947E038F9253
:100870009F92AF92BF92CF92DF92EF92FF92CF936F
:10088000DF936B017C010E942A17EB01072E000CFD
:10089000880B990B0E9462179B01AC01C701B6013E
:1008A0000E94461620E030E040E251E40E94171812
:1008B0004B015C0120E030E040E251ECC701B601A1
:1008C0000E94B31618167CF140E06DE288E30E94A6
:1008D0007E0320E030E040E251E4C701B6010E940F
:1008E000B8166B017C0120E030E0A9010E941218CB
:1008F00018161CF4C701B60103C0C701B601905811
:100900000E94311740E089E30E947E03CE016AE035
:1009100070E00E94981897FF03C091958195910906
:1009200041E0682F25C020E030E0A901C701B601F1
:100930000E94B31687FF30C040E06DE288E30E945A
:100940007E0340E060E089E30E947E0320E030E027
:10095000A901C701B6010E94121818161CF4C7019C
:10096000B60103C0C701B60190580E94311741E09B
:100970008AE30E947E0320E030E0A901C501B401B2
:100980000E94121818160CF448C0C501B401905802
:100990000E94311740E054C020E030E040E251E4D2
:1009A000C701B6010E94B31687FF10C040E060E0A7
:1009B00088E30E947E0340E060E089E30E947E03BA
:1009C000C701B6010E94311741E024C020E030E0A9
:1009D00040E251E4C701B6010E94121840E087FDD1
:1009E0001FC060E088E30E947E0320E030E040E228
:1009F00051E4C701B6010E94B8160E94311740E0C9
:100A000089E30E947E03CE016AE070E00E9498189C
:100A100041E0682F8AE30E947E03C501B401B8CF8C
:100A200065E688E30E947E0340E062E789E30E9476
:100A30007E0340E062E78AE30E947E0340E060E2DA
:100A40008BE3DF91CF91FF90EF90DF90CF90BF903D
:100A5000AF909F908F900C947E03EF92FF920F9334
:100A60001F93CF93DF93EC018A30910568F440E047
:100A700060E088E30E947E0340E060E089E30E943A
:100A80007E0340E060E014C084369105B8F440E095
:100A900060E088E30E947E0340E060E089E30E941A
:100AA0007E03CE016AE070E00E948418C82F40E007
:100AB0008AE30E947E0340E06C2F42C0C83E83E080
:100AC000D80798F440E060E088E30E947E03CE01FE
:100AD00064E670E00E9484187C0140E089E30E9493
:100AE0007E030AE010E0C7011EC0C03187E2D807CC
:100AF00080F5CE0168EE73E00E9484187C0140E02E
:100B000088E30E947E0304E610E0C701B8010E945A
:100B1000841840E089E30E947E03CE01B8010E9460
:100B200084180AE010E0B8010E94841840E08AE3CB
:100B30000E947E03CE01B8010E94841840E0682F15
:100B40008BE3DF91CF911F910F91FF90EF900C9469
:100B50007E03DF91CF911F910F91FF90EF90089549
:100B60002091B5013091B601253B31055CF441116E
:100B700006C00E942A17CB010E942D0505C00E94C5
:100B8000370402C00E9423048091B5019091B60100
:100B900001968D3D91052CF49093B6018093B5019B
:100BA00008951092B6011092B50108954F925F9288
:100BB0006F927F928F929F92AF92BF92CF92DF926D
:100BC000EF92FF920F931F93CF936B017C0149012A
:100BD0005A018091ED01882369F081E08093BC0186
:100BE0000E94E8146093B8017093B9018093BA0130
:100BF0009093BB01C091BC01CC2309F443C00E9477
:100C0000E8144090B8015090B9016090BA0170901A
:100C1000BB01DC01CB0184199509A609B709813D07
:100C20009740A105B10508F10115110529F4C70187
:100C3000B6010E942A170FC00130110529F4C7011F
:100C4000B6010E9437040AC00230110539F4C70109
:100C5000B6010E943117CB010E942D05C091B7014A
:100C6000CC2371F01092B70127C041E0012B09F4A9
:100C700040E0C501B4010E94B00581E08093B70156
:100C8000C0E01AC00115110529F4C701B6010E9480
:100C90002A170FC00130110529F4C701B6010E94BF
:100CA00037040AC00230110559F7C701B6010E9486
:100CB0003117CB010E942D058C2FCF911F910F91E1
:100CC000FF90EF90DF90CF90BF90AF909F908F906C
:100CD0007F906F905F904F900895EF92FF920F93E7
:100CE0001F93CF93DF93EC018A30910568F440E0C5
:100CF00065E688E30E947E0340E060E089E30E94AD
:100D00007E0340E060E014C084369105B8F440E012
:100D100065E688E30E947E0340E060E089E30E948C
:100D20007E03CE016AE070E00E948418C82F40E084
:100D30008AE30E947E0340E06C2F23C0C83E83E01C
:100D4000D80740F540E065E688E30E947E03CE01C7
:100D500064E670E00E9484187C0140E089E30E9410
:100D60007E030AE010E0C701B8010E94841840E049
:100D70008AE30E947E03CE01B8010E94841840E0FD
:100D8000682F8BE3DF91CF911F910F91FF90EF9030
:100D90000C947E03DF91CF911F910F91FF90EF9004
:100DA0000895EF92FF920F931F93CF93DF931092CA
:100DB0006D0110926C0180919001811106C081E05B
:100DC00090E090936D0180936C0180918E01811170
:100DD00009C080916C0190916D01826090936D01CA
:100DE00080936C0180918F01811109C080916C0109
:100DF00090916D01846090936D0180936C0180915E
:100E00008D01811109C080916C0190916D01886004
:100E100090936D0180936C0180918B01811109C0C9
:100E200080916C0190916D01806190936D01809330
:100E30006C0180918A01811109C080916C019091AF
:100E40006D01806290936D0180936C0180918C01A3
:100E5000811109C080916C0190916D018064909323
:100E60006D0180936C0180918901811109C080918D
:100E70006C0190916D01806890936D0180936C017D
:100E800080918801811109C080916C0190916D0160
:100E9000916090936D0180936C0180916C019091B1
:100EA0006D01892B21F480E090E00E946D060AE537
:100EB00011E080E090E0EE24E394F12C20916C01AD
:100EC00030916D01082E02C0359527950A94E2F7FE
:100ED000EC012196F80120FF1AC0F182E082809196
:100EE0005801909159010A976CF4CE010E946D0649
:100EF00080915801909159010196909359018093E6
:100F00005801EDCF109259011092580102C0118280
:100F10001082CE010E5F1F4F299781F6DF91CF918E
:100F20001F910F91FF90EF900895CF93C62F682FD8
:100F300080E192E00E94C40E60E080E192E00E94B5
:100F40007B0E6C2F80E192E00E947B0E80E192E0AC
:100F5000CF910C94480F40E06EE68BE30E947E0335
:100F600040E065E68AE30E947E0340E060E789E3B3
:100F70000E947E0340E060E088E30E947E0360E020
:100F800070E08CE20E94950760E070E08DE20E94C4
:100F9000950760E070E08EE20E94950760E070E0E7
:100FA0008FE20E94950710927801109277010895C0
:100FB0000F931F93CF93DF9300D000D0CDB7DEB750
:100FC000339B02C081E001C082E0809313018091D5
:100FD000560190915701181619062CF010925701DE
:100FE0001092560108C0059734F085E090E0909388
:100FF00057018093560180911301813031F5609142
:10100000560170915701072E000C880B990B0E9416
:10101000621720E030E040E85FE30E94E7020E94B0
:101020002A177093570160935601660F771FFB01D3
:10103000E050FF4F60817181072E000C880B990BE7
:101040000E9462170E9437048CC0823009F089C068
:101050008091560190915701880F991F8C01085A71
:101060001E4FF80160817181072E000C880B990BCF
:101070000E94621720E030E040E050E40E94E70266
:101080000E942A17F80171836083E0915601F09164
:101090005701EE0FFF1FE85AFE4F60817181072E46
:1010A000000C880B990B0E9462172EE230E940E297
:1010B0005DE30E9417189B01AC018091A5019091FE
:1010C000A601BC0180E090E029833A834B835C83D6
:1010D0000E94601702E010E029813A814B815C8117
:1010E0000E94D605882339F18091560190915701CD
:1010F000FC01EE0FFF1FE85AFE4F608104960E942C
:101100009C00E0915601F0915701EE0FFF1FE85A45
:10111000FE4F608171818CE20E949507E09156013B
:10112000F0915701EE0FFF1FE85AFE4F6081718169
:101130008DE20E949507E0915601F0915701EE0F64
:10114000FF1FE85AFE4F808191818F3F91051CF06F
:101150008FEF90E004C04D9724F48CE190E09183F0
:1011600080830F900F900F900F90DF91CF911F9180
:101170000F910C943E030F931F93CF93DF938091B5
:101180007D0190917E01209100013091010128178D
:10119000390764F060915801709159018CE20E9406
:1011A0009507609158017091590112C020910A0170
:1011B00030910B018217930794F060916201709156
:1011C00063018CE20E949507609162017091630156
:1011D0008DE2DF91CF911F910F910C949507CCE098
:1011E000D1E008E511E080917D0190917E01229788
:1011F0002A813B81821793078CF4288139818217D9
:10120000930764F0F801628573858CE20E9495076C
:10121000F801628573858DE20E94950702501109DD
:10122000F1E0C030DF07F9F6DF91CF911F910F9108
:101230000895CF92DF92EF92FF920F931F93CF9377
:10124000339B02C082E001C081E080931301609172
:101250008501709186018EE20E949507609183015D
:10126000709184018FE20E9495070E94BB086091F3
:101270001201262F30E08091AF019091B001C2970A
:10128000820F931F90938601809385018091AB011B
:101290009091AC01C297280F391F3093840120939D
:1012A0008301C0911301C13021F0C23009F451C053
:1012B000A1C070E080E090E00E94601720E030E084
:1012C00040E85FE30E94E7020E9431176093120139
:1012D00070E080E090E00E94601700E010E09B0169
:1012E000AC010E94D60580911201853620F084E67B
:1012F0008093120104C0811102C0C0931201809139
:10130000850190918601823391051CF482E390E07F
:1013100006C08F3F910539F034F08FEF90E0909345
:1013200086018093850180918301909184018233AD
:1013300091051CF482E390E007C08F3F910509F00E
:101340000CF458C08FEF90E0909384018093830158
:1013500051C060910E0170910F0180911001909128
:10136000110120E030E040E05FE30E94E7029B01D2
:10137000AC0160930E0170930F0180931001909364
:10138000110160917F0170918001809181019091A4
:10139000820101E010E00E94D605C0900E01D090BD
:1013A0000F01E0901001F090110120E030E04CE0DE
:1013B00052E4C701B6010E94121818162CF480E0FE
:1013C00090E0ACE0B2E40EC020E030E040E951E44F
:1013D000C701B6010E94B31687FF0CC080E090E001
:1013E000A0E9B1E480930E0190930F01A093100146
:1013F000B093110120910E0130910F014091100125
:101400005091110160917F01709180018091810163
:10141000909182010E94461620E030E0A9010E94CE
:101420001218181624F481E08093760102C01092FD
:10143000760180917601882311F0429A01C042988A
:10144000CF911F910F91FF90EF90DF90CF900C9470
:101450001D020F931F93CF93DF9300D000D0CDB721
:10146000DEB76091AF017091B00180E090E00E9422
:10147000601720E030E040E050E40E94E7020E9464
:1014800031176F3F710521F018F08FEF90E00AC01F
:101490006D31710528F07093B0016093AF0106C003
:1014A0008CE190E09093B0018093AF016091AF0127
:1014B0007091B00180E090E00E9460172EE230E968
:1014C00040E25DE30E9417189B01AC018091B101DD
:1014D0009091B201BC0180E090E029833A834B8374
:1014E0005C830E94601702E010E029813A814B8101
:1014F0005C810E94D605882331F06091AF0181E0C4
:1015000090E00E949C006091AF017091B0018EE26A
:101510000E9495070F900F900F900F90DF91CF9141
:101520001F910F910C943E030F931F93CF93DF9362
:1015300000D000D0CDB7DEB76091AB017091AC01A7
:1015400080E090E00E94601720E030E040E050E44E
:101550000E94E7020E9431176F3F710518F08FEF6C
:1015600090E00AC06D31710528F07093AC01609372
:10157000AB0106C08CE190E09093AC018093AB018D
:101580006091AB017091AC0180E090E00E94601727
:101590002EE230E940E25DE30E9417189B01AC01A6
:1015A0008091AD019091AE01BC0180E090E0298373
:1015B0003A834B835C830E94601702E010E029812C
:1015C0003A814B815C810E94D605882331F060917D
:1015D000AB0182E090E00E949C006091AB017091B1
:1015E000AC018FE20E9495070F900F900F900F9023
:1015F000DF91CF911F910F910C943E030F931F9396
:10160000CF93DF9300D000D0CDB7DEB76091A701B4
:101610007091A80180E090E00E94601720E030E027
:1016200040E050E40E94E7020E9431176F3F7105CD
:1016300018F08FEF90E00AC06D31710528F07093BB
:10164000A8016093A70106C08CE190E09093A801E7
:101650008093A7016091A7017091A80180E090E0BC
:101660000E9460172EE230E940E25DE30E94171805
:101670009B01AC018091A9019091AA01BC0180E07D
:1016800090E029833A834B835C830E94601702E0D9
:1016900010E029813A814B815C810E94D605882324
:1016A00031F06091A70183E090E00E949C0060917E
:1016B000A7017091A8018CE20E9495070F900F90EE
:1016C0000F900F90DF91CF911F910F910C943E03DB
:1016D0000F931F93CF93DF9300D000D0CDB7DEB729
:1016E0006091A3017091A40180E090E00E946017D6
:1016F00020E030E040E050E40E94E7020E94311711
:101700006F3F710518F08FEF90E00AC06D317105E1
:1017100028F07093A4016093A30106C08CE190E0CF
:101720009093A4018093A3016091A3017091A401FF
:1017300080E090E00E9460172EE230E940E25DE335
:101740000E9417189B01AC018091A5019091A60100
:10175000BC0180E090E029833A834B835C830E9444
:10176000601702E010E029813A814B815C810E9480
:10177000D605882331F06091A30184E090E00E94B7
:101780009C006091A3017091A4018DE20E949507D5
:101790000F900F900F900F90DF91CF911F910F91AD
:1017A0000C943E03CF9348E050E0BC0180E192E00E
:1017B0000E94450F80E192E00E941F0E892B31F0BC
:1017C00080E192E00E94270EC82FF4CF8C2FCF919A
:1017D00008958CE390E00E94D20B8F7008958DE302
:1017E00090E00E94D20B8170809392018DE390E093
:1017F0000E94D20B86958170809391018DE390E0D9
:101800000E94D20B82FB882780F980938C018DE3A4
:1018100090E00E94D20B83FB882780F980938B0194
:101820008DE390E00E94D20B8295817080938A01B3
:101830008DE390E00E94D20B85FB882780F980938E
:1018400089018DE390E00E94D20B86FB882780F906
:10185000809388018DE390E00E94D20B881F882737
:10186000881F809387018CE390E00E94D20B8295C1
:101870008170809390018CE390E00E94D20B85FBF5
:10188000882780F980938F018CE390E00E94D20B2F
:1018900086FB882780F980938E018CE390E00E947C
:1018A000D20B881F8827881F80938D0183B1817098
:1018B00080937C0183B18695817080937B0108952C
:1018C00080911401882331F10E94EF0B0E94E90BF3
:1018D00090E09093B4018093B301809187018823B5
:1018E00031F080E190E09093B4018093B3011092C5
:1018F00014018CE390E00E94D20B8DE390E00E94F3
:10190000D20B6091870170E04AE050E080ED92E0F8
:101910000E94181461E088EC90E00E942803609314
:101920007F0170938001809381019093820160E038
:101930008AEF90E00E9428030E942A1770937E018C
:1019400060937D01E091B301F091B4013797EA30E3
:10195000F105D8F4EC5CFF4F0C94CE180C94AB0757
:101960000C9419090C94290A0C94940A0C94D1062D
:101970000C94FE0A0C94680B60E082E390E00E94F5
:1019800028030C9437040C94D80740E060E08BE304
:101990000E947E0340E06EE68AE30E947E0340E000
:1019A00060E289E30E947E0340E060E288E30C94F9
:1019B0007E03FC01108611861286138615A214A2DE
:1019C00016A217A210A611A612A613A614A615A653
:1019D00021E026A7CB01770FAA0BBB0B848B958B3D
:1019E000A68BB78B0895FC0166834783208781E02F
:1019F00085870895CF92DF92FF920F931F93CF9325
:101A0000DF93EC0161E08E810E94EC150E94E814E6
:101A100009851A852B853C85601771078207930716
:101A200020F419861A861B861C862D85211111C06B
:101A300009851A852B853C85DC01CB01801B910B28
:101A4000A20BB30B803D9740A105B10510F481E0D6
:101A50006DC01D860E94E81469877A878B879C87F2
:101A60001C821B821A821982188261E08E810E9478
:101A7000B01560E08E810E94EC1564E170E080E0BA
:101A800090E00E941915F89461E08E810E94EC1597
:101A900088E290E00E94411560E08E810E94B015BE
:101AA00010E0F12C81E000E0C82ED12C8E810E9444
:101AB0001C168C159D0539F40F5F81E090E00E94A3
:101AC00041150F3F99F78E810E941C160F3FB9F008
:101AD000143090F010FD10C09F2D96959695969518
:101AE000FE01E90FF11D9081990F90832885201741
:101AF00010F491609083F3941F5F1535A1F67894EC
:101B000087E28F1590F42C8130E04881898190E044
:101B1000840F911D4A81840F911D4B81840F911D6B
:101B200099272817390709F492CF80E0DF91CF91E8
:101B30001F910F91FF90DF90CF900895CF92DF9289
:101B4000EF92FF920F931F93CF93DF93EC01162F29
:101B50000E94FA0C882309F455C08F818B3031F034
:101B600008F450C08551823098F04CC06A8170E012
:101B700080E090E00E946017112309F44EC020E03D
:101B800030E040E151E46B017C01C701B6012BC09C
:101B90000A81602F6F7770E080E090E00E9462170A
:101BA00020E030E040E853E40E9417186B017C010C
:101BB0008B81682F70E080E090E00E9462179B01AB
:101BC000AC01C701B6010E94471620E030E040E2B8
:101BD00051E40E94B81607FD90581123F1F020E05F
:101BE00030E040E151E40E94171820E030E040EA84
:101BF00050E40E94B81620E030E040E052E40E9439
:101C000047160BC06AE171E080ED92E00E946B1311
:101C100040E030E020EC9FE703C0462F372F282F0D
:101C2000C42ED32EE22EF92EC701B601DF91CF913B
:101C30001F910F91FF90EF90DF90CF9008958091CA
:101C4000400290E020914102821B910908959091F9
:101C5000410280914002981750F4E92FF0E0EE5BCA
:101C6000FD4F208130E09F5F9093410202C02FEF33
:101C70003FEFC9010895E091410280914002E817C9
:101C800030F4F0E0EE5BFD4F808190E008958FEF3F
:101C90009FEF08950895CF92DF92EF92FF920F93F6
:101CA0001F93CF93DF937C01262F972F8A0180917A
:101CB0001C02882391F0C62FD72F6E01C40ED51EAB
:101CC000CC15DD0571F06991D701ED91FC91019082
:101CD000F081E02DC7010995F3CF642F822F0E9478
:101CE0000B10C801DF91CF911F910F91FF90EF90E2
:101CF000DF90CF900895CF93DF931F92CDB7DEB7DB
:101D0000698320911C022223D1F020911D022032F0
:101D100040F021E030E0FC013383228380E090E05A
:101D200015C080911E02E82FF0E0E15EFD4F998121
:101D300090838F5F80931E0280931D0205C061E037
:101D4000CE0101960E940B1081E090E00F90DF9190
:101D5000CF910895FC011382128288EE93E0A0E0F7
:101D6000B0E084839583A683B78388E291E0918372
:101D700080830895109241021092400210921E0238
:101D800010921D020C944F0F81E080931C0260930F
:101D90003F0210921E0210921D0208950F93062F0B
:101DA00021E040911D026FE172E080913F020E94AC
:101DB000B50F10921E0210921D0210921C020F917C
:101DC00008954F925F926F927F92AF92BF92CF929F
:101DD000EF92FF920F931F93CF93DF935C01F62E48
:101DE000D42F28013901EE2021F10E94C40ECE2DFE
:101DF000C43008F0C3E0C150C0F0D501ED91FC91B2
:101E0000B8E0CB9FC0011124A301920104C05695F4
:101E10004795379527958A95D2F7CA01B901019060
:101E2000F081E02DC5010995E6CF60E0C5010E9473
:101E3000CE0E4D2FD13208F040E22C2D62E472E03C
:101E40008F2D0E946D0F1092410280934002DF910E
:101E5000CF911F910F91FF90EF90CF90BF90AF90D7
:101E60007F906F905F904F900895CF92EF920F9375
:101E70001F93C22EE12C00E010E098010E94E10EB9
:101E80001F910F91EF90CF90089521E00C94350FA2
:101E900061E00C94CE0E80E192E00C94AA0E1092B8
:101EA000CF0281E08093CD021092CC0261E082E10A
:101EB0000E94EC1561E083E10E94EC15E9EBF0E093
:101EC00080818E7F808380818D7F808388E4809372
:101ED000B80085E48093BC000895413208F043C007
:101EE0009091CF029111FCCF91E09093CF0220937B
:101EF000CD022FEF209362021092A702240F2093AD
:101F0000A6029093CE029091CE02880F892B8093E7
:101F1000CE028091CC02813061F41092CC0280918B
:101F2000CE028093BB008091BC0083FDF8CF85EC8E
:101F300001C085EE8093BC008091CF028130E1F337
:101F40008091A702841710F44091A70228EA32E09A
:101F5000FB01D9018A2F821B841718F48D9181937C
:101F6000F9CF842F089580E008950F93413208F04F
:101F70004AC09091CF029111FCCF32E03093CF0252
:101F80000093CD023FEF309362021092A70240937C
:101F9000A602FB0168EA72E0DB013A2F361B341718
:101FA00018F431913D93F9CF1092CE023091CE02C8
:101FB000880F832B8093CE028091CC02813061F414
:101FC0001092CC028091CE028093BB008091BC0025
:101FD00083FDF8CF85EC01C085EE8093BC00222301
:101FE00021F08091CF028230D1F3809162028F3F45
:101FF00079F080916202803241F0809162028033F8
:1020000031F094E005C091E003C092E001C093E09C
:10201000892F0F910895613298F42091CF022430D6
:1020200089F460938402FC0126E832E0D9018A2F0A
:10203000821B861718F481918D93F9CF80E0089563
:1020400081E0089582E0089585ED8093BC00809141
:10205000BC0084FDFCCF1092CF02089585EC8093E4
:10206000BC001092CF0208951F920F920FB60F92EC
:1020700011242F933F934F935F936F937F938F938D
:102080009F93AF93BF93EF93FF938091B900887FA5
:10209000803609F49EC078F5883209F45DC090F46A
:1020A000803109F456C038F4882309F4F5C088302B
:1020B00009F44FC0F5C0883109F44EC0803209F4EC
:1020C0005FC0EEC0803409F46AC058F4803309F46C
:1020D00057C0883309F0E4C0809362020E942E103A
:1020E000DFC0803509F44FC0883509F45DC08834FD
:1020F00009F0D6C0D3C0883909F4C4C0A8F4883721
:1021000009F467C038F4883609F463C0803709F4ED
:1021100060C0C6C0883809F4B5C0803909F45FC012
:10212000803809F0BDC05BC0803B09F483C038F43F
:10213000803A09F466C0883A09F47CC0B1C0803C9A
:1021400009F4A4C0883C09F4A1C0883B09F487C005
:10215000A7C08091CE0210C09091A7028091A602E4
:10216000981770F5E091A70281E08E0F8093A70287
:10217000F0E0E855FD4F80818093BB0085EC83C083
:10218000809362028BC0E091A70281E08E0F809362
:10219000A7028091BB00F0E0E855FD4F808390914D
:1021A000A7028091A6026BC0E091A70281E08E0F8A
:1021B0008093A7028091BB00F0E0E855FD4F80833B
:1021C0008091CD0281116AC081E08093CC0284EAC3
:1021D0005EC083E08093CF0210926302CFCF8091E4
:1021E0006302803208F04EC0E091630281E08E0FFE
:1021F000809363028091BB00F0E0EC59FD4F808337
:10220000BDCF0E942E1080916302803230F4E091A5
:102210006302F0E0EC59FD4F10826091630270E0C0
:10222000E091C802F091C90284E692E0099510920B
:10223000630236C084E08093CF0210928502109230
:102240008402E091CA02F091CB0209958091840248
:10225000811105C081E08093840210928602E09192
:10226000850281E08E0F80938502F0E0EA57FD4FF2
:1022700080818093BB0090918502809184029817A1
:1022800008F47CCF85E88093BC000AC085EC80937D
:10229000BC001092CF0204C0109262020E9424106F
:1022A000FF91EF91BF91AF919F918F917F916F912E
:1022B0005F914F913F912F910F900FBE0F901F9004
:1022C0001895FC01918D228D892F90E0805C9F4FA5
:1022D000821B91098F7399270895FC01918D828D3E
:1022E000981731F0828DE80FF11D858D90E00895EB
:1022F0008FEF9FEF0895FC01918D828D981761F00B
:10230000828DDF01A80FB11D5D968C91928D9F5F2C
:102310009F73928F90E008958FEF9FEF089584EE62
:1023200092E1892B49F080E090E0892B29F00E940E
:10233000E41281110C9400000895FC01848DDF01EA
:10234000A80FB11DA35ABF4F2C91848D90E0019628
:102350008F739927848FA689B7892C93A089B18917
:102360008C9180648C93938D848D981306C0028821
:10237000F389E02D80818F7D80830895CF93DF9353
:10238000EC01888D8823C9F0EA89FB89808185FD6D
:1023900005C0A889B9898C9186FD0FC00FB607FCCE
:1023A000F5CF808185FFF2CFA889B9898C9185FF0F
:1023B000EDCFCE010E949D11E7CFDF91CF9108951F
:1023C000EF92FF920F931F93CF93DF93EC0181E085
:1023D000888F9B8D8C8D981305C0E889F989808141
:1023E00085FD24C0F62E0B8D10E00F5F1F4F0F737D
:1023F0001127E02E8C8DE8120CC00FB607FCFACF27
:10240000E889F989808185FFF5CFCE010E949D1171
:10241000F1CF8B8DFE01E80FF11DE35AFF4FF082E3
:102420000B8FEA89FB898081806207C0EE89FF8972
:102430006083E889F98980818064808381E090E00D
:10244000DF91CF911F910F91FF90EF900895CF9260
:10245000DF92EF92FF921F93CF93DF93EC016A011B
:102460007B01122FE889F98982E080834115514E62
:1024700061057105B1F060E079E08DE390E0A701BE
:1024800096010E94AC18DA01C9010197A109B109AE
:10249000B695A79597958795AC01411580E15807AA
:1024A000A8F0E889F989108260E874E88EE190E08C
:1024B000A70196010E94AC18BA01A9014150510927
:1024C000610971097695679557954795EC85FD8566
:1024D0005083EE85FF854083188EEC89FD8910833B
:1024E000EA89FB89808180618083EA89FB89808118
:1024F00088608083EA89FB89808180688083EA899B
:10250000FB8980818F7D8083DF91CF911F91FF9028
:10251000EF90DF90CF9008951F920F920FB60F9219
:1025200011242F938F939F93EF93FF93E091E002F9
:10253000F091E1028081E091E602F091E70282FDF4
:1025400012C090818091E9028F5F8F732091EA021F
:10255000821751F0E091E902F0E0E053FD4F958FD2
:102560008093E90201C08081FF91EF919F918F914B
:102570002F910F900FBE0F901F9018951F920F92E2
:102580000FB60F9211242F933F934F935F936F9346
:102590007F938F939F93AF93BF93EF93FF9380EDC0
:1025A00092E00E949D11FF91EF91BF91AF919F9199
:1025B0008F917F916F915F914F913F912F910F90EC
:1025C0000FBE0F901F90189580ED92E00E94611150
:1025D00021E0892B09F420E0822F0895E0EDF2E05C
:1025E0001382128288EE93E0A0E0B0E084839583AA
:1025F000A683B78388E391E09183808385EC90E0A4
:102600009587848784EC90E09787868780EC90E0BC
:10261000918B808B81EC90E0938B828B82EC90E0AD
:10262000958B848B86EC90E0978B868B118E128E27
:10263000138E148E089508950E944C150E941B134A
:102640000E949301CFE8D1E10E94600C2097E1F352
:102650000E948F11F9CFCF92DF92EF92FF920F93EA
:102660001F93CF93DF936C017A018B01C0E0D0E020
:10267000CE15DF0589F0D8016D918D01D601ED9160
:10268000FC910190F081E02DC6010995892B11F490
:102690007E0102C02196ECCFC701DF91CF911F913F
:1026A0000F91FF90EF90DF90CF9008956115710525
:1026B00079F0FB0101900020E9F73197AF01461B4B
:1026C000570BDC01ED91FC910280F381E02D099420
:1026D00080E090E008950C945613DC01ED91FC919C
:1026E0000190F081E02D099464E471E00C9456139C
:1026F0008F929F92AF92BF92CF92DF92EF92FF9212
:102700000F931F93CF93DF93CDB7DEB7A1970FB68B
:10271000F894DEBF0FBECDBF6C01142FE52FCB01A7
:10272000022F19A2223008F40AE07E0121E2E20E13
:10273000F11C802E912CA12CB12C612F7E2FA50194
:1027400094010E94AC18029F1019112481E0E81A2C
:10275000F1081A3014F4105D01C0195CF701108300
:10276000122FE32FCA01232B242B252B31F7B7017E
:10277000C6010E945613A1960FB6F894DEBF0FBE95
:10278000CDBFDF91CF911F910F91FF90EF90DF9020
:10279000CF90BF90AF909F908F900895CF92DF928F
:1027A000EF92FF920F931F93CF93DF93EC016A0197
:1027B0007B012115310579F4E881F9810190F081DF
:1027C000E02D642FDF91CF911F910F91FF90EF903B
:1027D000DF90CF9009942A303105E9F477FF1AC0D1
:1027E0006DE20E946D138C0144275527BA014C19E4
:1027F0005D096E097F092AE0CE010E947813800FDF
:10280000911FDF91CF911F910F91FF90EF90DF907B
:10281000CF9008952AE0B701A601CE01DF91CF91B4
:102820001F910F91FF90EF90DF90CF900C94781351
:102830000F931F93CF93DF93EC019A01AB01770FB6
:10284000660B770B0E94CE138C01CE010E9474138D
:10285000800F911FDF91CF911F910F9108950895DF
:102860008230E8F4E82FF0E0EE0FFF1FEA5EFE4F43
:1028700071836083813041F0809169008C7F482BA7
:1028800040936900E89A089580916900440F551FAC
:10289000440F551F837F482B40936900E99A0895A0
:1028A0001F920F920FB60F9211242F933F934F93C5
:1028B0005F936F937F938F939F93AF93BF93EF93A8
:1028C000FF93E0911601F09117010995FF91EF91A7
:1028D000BF91AF919F918F917F916F915F914F9138
:1028E0003F912F910F900FBE0F901F9018951F9240
:1028F0000F920FB60F9211242F933F934F935F9334
:102900006F937F938F939F93AF93BF93EF93FF93B7
:10291000E0911801F09119010995FF91EF91BF9194
:10292000AF919F918F917F916F915F914F913F9167
:102930002F910F900FBE0F901F9018951F920F921E
:102940000FB60F9211242F933F938F939F93AF93C2
:10295000BF9380916E0390916F03A0917003B0912B
:10296000710330916D0323E0230F2D3720F401967E
:10297000A11DB11D05C026E8230F0296A11DB11DA2
:1029800020936D0380936E0390936F03A093700365
:10299000B09371038091720390917303A0917403BB
:1029A000B09175030196A11DB11D809372039093A0
:1029B0007303A0937403B0937503BF91AF919F917C
:1029C0008F913F912F910F900FBE0F901F901895F0
:1029D0002FB7F89460916E0370916F03809170032C
:1029E000909171032FBF08953FB7F89480917203BF
:1029F00090917303A0917403B091750326B5A89BC1
:102A000005C02F3F19F00196A11DB11D3FBFBA2F80
:102A1000A92F982F8827820F911DA11DB11DBC01E0
:102A2000CD0142E0660F771F881F991F4A95D1F7A5
:102A30000895CF92DF92EF92FF92CF93DF936B01D5
:102A40007C010E94F414EB01C114D104E104F104EF
:102A500089F00E9445160E94F4146C1B7D0B683EA1
:102A6000734090F381E0C81AD108E108F108C85119
:102A7000DC4FEACFDF91CF91FF90EF90DF90CF90C6
:102A800008958230910538F0880F991F880F991F9B
:102A900005970197F1F70895789484B5826084BD15
:102AA00084B5816084BD85B5826085BD85B5816052
:102AB00085BDEEE6F0E0808181608083E1E8F0E0B2
:102AC0001082808182608083808181608083E0E8E1
:102AD000F0E0808181608083E1EBF0E080818460C0
:102AE0008083E0EBF0E0808181608083EAE7F0E0C2
:102AF0008081846080838081826080838081816026
:102B000080838081806880831092C1000895833023
:102B100081F028F4813099F08230A1F00895873057
:102B2000A9F08830B9F08430D1F4809180008F7D95
:102B300003C0809180008F7780938000089584B5D2
:102B40008F7702C084B58F7D84BD08958091B000D9
:102B50008F7703C08091B0008F7D8093B00008957F
:102B6000CF93DF9390E0FC01E057FF4F2491FC01ED
:102B7000EC55FF4F8491882361F190E0880F991FF5
:102B8000FC01E453FF4FC591D491FC01EE53FF4F7C
:102B9000A591B491611109C09FB7F89488812095DF
:102BA00082238883EC912E230BC0623061F49FB79F
:102BB000F8943881822F809583238883EC912E2B83
:102BC0002C939FBF06C08FB7F894E8812E2B2883E3
:102BD0008FBFDF91CF9108951F93CF93DF93282F5D
:102BE00030E0F901E458FF4F8491F901E057FF4FBD
:102BF000D491F901EC55FF4FC491CC23C9F0162FA5
:102C000081110E948715EC2FF0E0EE0FFF1FEE53AD
:102C1000FF4FA591B4918FB7F894111105C09C9105
:102C2000ED2FE095E92302C0EC91ED2BEC938FBFE3
:102C3000DF91CF911F910895CF93DF93282F30E03C
:102C4000F901E458FF4F8491F901E057FF4FD49107
:102C5000F901EC55FF4FC491CC2391F081110E94F2
:102C60008715EC2FF0E0EE0FFF1FE854FF4FA59102
:102C7000B491EC91ED2381E090E021F480E002C07A
:102C800080E090E0DF91CF91089508955058BB27E0
:102C9000AA270E945E160C94D8170E94CA1738F013
:102CA0000E94D11720F039F49F3F19F426F40C94B8
:102CB000C7170EF4E095E7FB0C94C117E92F0E94AB
:102CC000E91758F3BA17620773078407950720F0CE
:102CD00079F4A6F50C940B180EF4E0950B2EBA2F90
:102CE000A02D0B01B90190010C01CA01A001112412
:102CF000FF27591B99F0593F50F4503E68F11A16BE
:102D0000F040A22F232F342F4427585FF3CF46954E
:102D100037952795A795F0405395C9F77EF41F1670
:102D2000BA0B620B730B840BBAF09150A1F0FF0F3A
:102D3000BB1F661F771F881FC2F70EC0BA0F621F26
:102D4000731F841F48F4879577956795B795F79516
:102D50009E3F08F0B0CF9395880F08F09927EE0FAB
:102D60009795879508950E949D1708F481E008952E
:102D70000E94CC160C94D8170E94D11758F00E94CC
:102D8000CA1740F029F45F3F29F00C94C117511184
:102D90000C940C180C94C7170E94E91768F3992338
:102DA000B1F3552391F3951B550BBB27AA27621747
:102DB0007307840738F09F5F5F4F220F331F441F54
:102DC000AA1FA9F335D00E2E3AF0E0E832D0915088
:102DD0005040E695001CCAF72BD0FE2F29D0660F75
:102DE000771F881FBB1F261737074807AB07B0E8B8
:102DF00009F0BB0B802DBF01FF2793585F4F3AF0BE
:102E00009E3F510578F00C94C1170C940C185F3F4D
:102E1000E4F3983ED4F3869577956795B795F79543
:102E20009F5FC9F7880F911D9695879597F908952B
:102E3000E1E0660F771F881FBB1F621773078407C7
:102E4000BA0720F0621B730B840BBA0BEE1F88F7D6
:102E5000E09508950E9431176894B1110C940C18F4
:102E600008950E94F11788F09F5798F0B92F99277D
:102E7000B751B0F0E1F0660F771F881F991F1AF065
:102E8000BA95C9F714C0B13091F00E940B18B1E0A7
:102E900008950C940B18672F782F8827B85F39F0A6
:102EA000B93FCCF3869577956795B395D9F73EF4FE
:102EB00090958095709561957F4F8F4F9F4F0895A6
:102EC000E89409C097FB3EF49095809570956195C4
:102ED0007F4F8F4F9F4F9923A9F0F92F96E9BB277A
:102EE0009395F695879577956795B795F111F8CFF6
:102EF000FAF4BB0F11F460FF1BC06F5F7F4F8F4F61
:102F00009F4F16C0882311F096E911C0772321F056
:102F10009EE8872F762F05C0662371F096E8862FEE
:102F200070E060E02AF09A95660F771F881FDAF745
:102F3000880F9695879597F90895990F0008550F72
:102F4000AA0BE0E8FEEF16161706E807F907C0F02F
:102F500012161306E407F50798F0621B730B840B37
:102F6000950B39F40A2661F0232B242B252B21F411
:102F700008950A2609F4A140A6958FEF811D811DB1
:102F8000089597F99F6780E870E060E008959FEFEB
:102F900080EC089500240A941616170618060906F0
:102FA000089500240A9412161306140605060895BF
:102FB000092E0394000C11F4882352F0BB0F40F447
:102FC000BF2B11F460FF04C06F5F7F4F8F4F9F4F87
:102FD000089557FD9058440F551F59F05F3F71F009
:102FE0004795880F97FB991F61F09F3F79F0879570
:102FF0000895121613061406551FF2CF4695F1DFF9
:1030000008C0161617061806991FF1CF8695710588
:10301000610508940895E894BB2766277727CB01BC
:1030200097F908950E949D1708F48FEF08950E9464
:103030002A180C94D8170E94CA1738F00E94D1178A
:1030400020F0952311F00C94C1170C94C71711248C
:103050000C940C180E94E91770F3959FC1F3950F1B
:1030600050E0551F629FF001729FBB27F00DB11D0C
:10307000639FAA27F00DB11DAA1F649F6627B00D9C
:10308000A11D661F829F2227B00DA11D621F739F85
:10309000B00DA11D621F839FA00D611D221F749F93
:1030A0003327A00D611D231F849F600D211D822FDA
:1030B000762F6A2F11249F5750409AF0F1F0882301
:1030C0004AF0EE0FFF1FBB1F661F771F881F91502E
:1030D0005040A9F79E3F510580F00C94C1170C9405
:1030E0000C185F3FE4F3983ED4F386957795679587
:1030F000B795F795E7959F5FC1F7FE2B880F911D58
:103100009695879597F90895AA1BBB1B51E107C0B7
:10311000AA1FBB1FA617B70710F0A61BB70B881F67
:10312000991F5A95A9F780959095BC01CD010895F6
:1031300097FB072E16F4009407D077FD09D00E9464
:10314000841807FC05D03EF4909581959F4F089513
:10315000709561957F4F0895A1E21A2EAA1BBB1BA3
:10316000FD010DC0AA1FBB1FEE1FFF1FA217B30753
:10317000E407F50720F0A21BB30BE40BF50B661F69
:10318000771F881F991F1A9469F76095709580952D
:1031900090959B01AC01BD01CF010895EE0FFF1F7B
:1031A0000590F491E02D0994F999FECF92BD81BD6F
:1031B000F89A992780B50895262FF999FECF1FBA5E
:1031C00092BD81BD20BD0FB6F894FA9AF99A0FBE50
:0831D00001960895F894FFCF69
:1031D800230028002D00320037003C000E000000BC
:1031E800C841320101012F142F1452656164206611
:1031F80061696C00000000007B0E4B0E1F0E270E4D
:103208003B0E4A0E00000000E0112B1361117B11E8
:103218006D11BE110D0A006E616E00696E66006F59
:063228007666002E000096
:00000001FF
