:100000000C946D000C9495000C9495000C94950044
:100010000C9495000C9495000C9495000C9495000C
:100020000C9495000C9495000C9495000C94AD00E4
:100030000C9495000C9495000C9495000C949500EC
:100040000C947F130C9495000C9421120C94531271
:100050000C9495000C9495000C9495000C949500CC
:100060000C94C90F0C949500D80BD00BDB0BC70B6D
:10007000CA0BCD0BC40BC10BBE0B00000008000265
:10008000010000030407000000000000000001025E
:100090000408102040800102040810200102040816
:1000A00010200404040404040404020202020202F4
:1000B00003030303030300000000230026002900BC
:1000C00000000000250028002B0000000000240094
:1000D00027002A005C03E00E831211241FBECFEF1D
:1000E000D8E0DEBFCDBF11E0A0E0B1E0EAE9FFE279
:1000F00002C005900D92A235B107D9F723E0A2E521
:10010000B1E001C01D92AF36B207E1F710E0CDE6D5
:10011000D0E004C02197FE010E94AF17CA36D10774
:10012000C9F70E94B1120C94CB170C9400000C94E8
:10013000BD171092800025E02093810029E03DE367
:10014000309389002093880022E020936F007894F8
:10015000909306028093050208951F920F920FB6A6
:100160000F9211242F933F938F939F932091070217
:10017000309108028091050290910602019728179C
:10018000390728F0109208021092070209C08091E6
:10019000070290910802019690930802809307024B
:1001A00010928500109284009F918F913F912F9122
:1001B0000F900FBE0F901F9018954F925F927F92F5
:1001C0008F929F92AF92BF92CF92DF92EF92FF9267
:1001D0000F931F93CF93DF93FC017A0140E050E02F
:1001E00000E010E0412C512C21E030E0712C4B015B
:1001F0008E0C9F1C5C0188E0A80EB11C8091070248
:1002000090910802C0900702D0900802C814D90447
:1002100008F05EC08617970708F45AC0772089F067
:1002200083B1807190E082179307B9F0C080D180CC
:10023000D6012D913C9111972F5F3F4F2D933C9309
:100240000CC0CF01DC01CD90DD90CD01D6011D9217
:100250001C928A159B05B1F7E3CF29B1207130E0DC
:100260002415350559F0C280D380D6014D905C909D
:10027000BFEF4B1A5B0AD6014D925C92A3B1A072FC
:100280004A2E512C4016510651F0C480D580D6011B
:100290000D911C9111970F5F1F4F0D931C9316B179
:1002A0001170C12FB0E0DB2FC417D50751F00681C4
:1002B0001781D8014D915C9111974F5F5F4F4D931E
:1002C0005C9377247394AE01820129019C0196CF3F
:1002D000B1E07B1213C09F01285F3F4FC191D191C4
:1002E0008881998197FD019695958795B7010E9420
:1002F000651779836883E217F30781F7DF91CF9160
:100300001F910F91FF90EF90DF90CF90BF90AF9033
:100310009F908F907F905F904F9008950F931F93C1
:10032000CF93DF9326E040E052EC61E070E089EC8F
:1003300092E00E94BC1189E092E00E944F0E62E0C0
:1003400086E00E94911462E087E00E94911462E0CE
:1003500088E00E94911462E089E00E94911462E0BA
:1003600081E10E94911461E083E00E94911461E0B8
:1003700085E00E94911481E090E00E94B51790E022
:100380009093AB018093AA0182E090E00E94B517A0
:1003900090E09093A7018093A60183E090E00E94F3
:1003A000B51790E09093A3018093A20184E090E0C0
:1003B0000E94B51790E090939F0180939E0104E501
:1003C00011E0C0E0D0E0CE0104960E94B51790E0A5
:1003D000F801819391938F012196C630D10599F749
:1003E00085E090E00E9499008EE891E0909397015B
:1003F0008093960180E991E0909399018093980110
:1004000082E991E090939B0180939A0184E991E0C5
:1004100090939D0180939C01DF91CF911F910F914B
:1004200008950F931F9380917801811103C081E09B
:100430008093740180917701811103C081E08093E2
:10044000730180917401882319F180918D018111CC
:100450001FC00E94C91300916E0110916F0120917D
:10046000700130917101DC01CB01801B910BA20B5B
:10047000B30B893B9B40A105B10520F081E080933F
:10048000740106C080917601811102C0109274013E
:1004900080917301882319F180918C0181111FC013
:1004A0000E94C91300916A0110916B0120916C01A7
:1004B00030916D01DC01CB01801B910BA20BB30BC2
:1004C000893B9B40A105B10520F081E08093730139
:1004D00006C080917501811102C010927301809154
:1004E0007201811104C010927401109273019091F5
:1004F00078019111109274012091770121111092CD
:1005000073014091790150917A0120910C01309151
:100510000D014217530724F41092740110927301D5
:1005200020918D01211104C0911102C081110AC0D6
:100530000E94C91360936E0170936F0180937001E4
:100540009093710180918C01811108C08091770195
:10055000811104C08091720181110AC00E94C913E7
:1005600060936A0170936B0180936C0190936D01AD
:1005700080917401882321F091E09093760102C06C
:100580001092760190917301992321F091E090935C
:10059000750102C010927501882311F05B9A01C0A9
:1005A0005B9880917301882311F05D9A01C05D987A
:1005B0001F910F910895CF92DF92EF92FF92CF9308
:1005C0006B017C01CA01B901C9B1C6FBCC27C0F9D6
:1005D000C093160129B1221F2227221F2093150143
:1005E00030911401C31799F02C1731F020E030E05E
:1005F000A9010E94281507C09B01AC0160E070E0D2
:10060000CB010E94271521E02093E40105C0109240
:10061000E40160E070E0CB01C09314019B01AC01E8
:10062000C701B6010E942815CF91FF90EF90DF908F
:10063000CF9008952091E301422F50E08417950751
:1006400058F4662321F060E087EF91E003C060E09A
:1006500089EE91E00C94330D2F5F2093E301089510
:1006600041E050E063E070E086E991E00E94DD0047
:10067000E6E9F1E0A081B1818D919C919093AD016B
:100680008093AC01A481B5818D919C919093A90137
:100690008093A801A281B3818D919C919093A50133
:1006A0008093A4010680F781E02D80819181909351
:1006B000A1018093A001089526E046E16FE087EF55
:1006C00091E00E94880C26E046E160E189EE91E02D
:1006D0000E94880C62E070E084EB91E00C94010CC5
:1006E0001F93CF93DF931F92CDB7DEB7633609F424
:1006F00063C058F5673009F455C090F4633009F4CD
:100700004DC038F4613009F461C008F045C010EC08
:100710006EC0653009F464C008F042C019E967C0D2
:100720006A3209F463C048F4693009F43FC0E0F16B
:10073000603209F05CC01FEF5AC06136C9F1D0F5D4
:100740006D3209F054C01FEB52C06C3609F440C042
:1007500080F46736B9F128F4653681F188F511EA3D
:1007600046C0693699F180F16A3609F040C011EF50
:100770003EC0623799F138F4603761F168F56E3642
:10078000B1F51BEA34C0643769F150F1653761F1A6
:10079000693769F511E92BC014EA29C010EB27C0AD
:1007A00012E825C018EF23C010E821C010E91FC0CF
:1007B00018E81DC013E81BC016EC19C016E817C0D6
:1007C0001EE815C012EC13C016E711C019EF0FC0D8
:1007D00017EC0DC01CE80BC018E909C01FEA07C0E0
:1007E00012E905C017E803C011EC01C01CE9682F2D
:1007F00089E092E049830E94590E612F89E092E0DE
:100800000E94100E4981612F442311F06F7701C0BF
:10081000606889E092E00E94100E89E092E00F90FB
:10082000DF91CF911F910C94DD0E40E060E288E3F0
:100830000E94700340E060E289E30E94700340E0A0
:1008400060E28AE30E94700340E060E28BE30C9474
:1008500070038F929F92AF92BF92CF92DF92EF92EE
:10086000FF92CF93DF936B017C010E940B16EB018B
:10087000072E000C880B990B0E9443169B01AC01BC
:10088000C701B6010E94271520E030E040E251E4A4
:100890000E94F8164B015C0120E030E040E251EC90
:1008A000C701B6010E94941518167CF140E06DE274
:1008B00088E30E94700320E030E040E251E4C70189
:1008C000B6010E9499156B017C0120E030E0A9017E
:1008D0000E94F31618161CF4C701B60103C0C70125
:1008E000B60190580E94121640E089E30E947003FE
:1008F000CE016AE070E00E94791797FF03C09195DE
:100900008195910941E0682F25C020E030E0A901E0
:10091000C701B6010E94941587FF30C040E06DE228
:1009200088E30E94700340E060E089E30E94700366
:1009300020E030E0A901C701B6010E94F3161816A5
:100940001CF4C701B60103C0C701B60190580E944C
:10095000121641E08AE30E94700320E030E0A90112
:10096000C501B4010E94F31618160CF448C0C50165
:10097000B40190580E94121640E054C020E030E0CC
:1009800040E251E4C701B6010E94941587FF10C0F0
:1009900040E060E088E30E94700340E060E089E3AB
:1009A0000E947003C701B6010E94121641E024C0E4
:1009B00020E030E040E251E4C701B6010E94F316A6
:1009C00040E087FD1FC060E088E30E94700320E0E4
:1009D00030E040E251E4C701B6010E9499150E943F
:1009E000121640E089E30E947003CE016AE070E0D5
:1009F0000E94791741E0682F8AE30E947003C501C5
:100A0000B401B8CF65E688E30E94700340E062E776
:100A100089E30E94700340E062E78AE30E9470036A
:100A200040E060E28BE3DF91CF91FF90EF90DF90A9
:100A3000CF90BF90AF909F908F900C947003EF92E7
:100A4000FF920F931F93CF93DF93EC018A309105B0
:100A500068F440E060E088E30E94700340E060E0FA
:100A600089E30E94700340E060E014C08436910581
:100A7000B8F440E060E088E30E94700340E060E08A
:100A800089E30E947003CE016AE070E00E9465175E
:100A9000C82F40E08AE30E94700340E06C2F42C000
:100AA000C83E83E0D80798F440E060E088E30E9405
:100AB0007003CE0164E670E00E9465177C0140E09F
:100AC00089E30E9470030AE010E0C7011EC0C03134
:100AD00087E2D80780F5CE0168EE73E00E946517C3
:100AE0007C0140E088E30E94700304E610E0C70147
:100AF000B8010E94651740E089E30E947003CE01AF
:100B0000B8010E9465170AE010E0B8010E9465175D
:100B100040E08AE30E947003CE01B8010E9465178D
:100B200040E0682F8BE3DF91CF911F910F91FF90F1
:100B3000EF900C947003DF91CF911F910F91FF9074
:100B4000EF900895CF92DF92EF92FF92CF936B01D7
:100B50007C01C42F42E350E060E070E084EB91E060
:100B60000E941B0C8823A9F0C701B601CC2339F0E1
:100B7000CF91FF90EF90DF90CF900C9429040E94CA
:100B80000B16CB01CF91FF90EF90DF90CF900C949C
:100B90001F05CF91FF90EF90DF90CF900C9415043C
:100BA0004F925F926F927F928F929F92AF92BF927D
:100BB000CF92DF92EF92FF920F93CF936B017C0164
:100BC00049015A018091E401882369F081E0809312
:100BD000B3010E94C9136093AF017093B001809379
:100BE000B1019093B201C091B301CC2391F10E9465
:100BF000C9134090AF015090B0016090B101709066
:100C0000B201DC01CB0184199509A609B7098D3B16
:100C10009240A105B10598F0C701B601002319F073
:100C20000E94290405C00E940B16CB010E941F05DB
:100C3000C091AE01CC23C9F01092AE0116C0402F76
:100C4000C501B4010E94A20581E08093AE01C0E01D
:100C50000CC0C701B601002319F00E94290405C089
:100C60000E940B16CB010E941F058C2FCF910F9174
:100C7000FF90EF90DF90CF90BF90AF909F908F90BC
:100C80007F906F905F904F9008950F93CF93DF9375
:100C9000339B02C081E001C082E080931301809108
:100CA000520190915301181619062CF0109253011D
:100CB0001092520108C0059734F085E090E09093BF
:100CC0005301809352018091520190915301EC01A4
:100CD000CC0FDD1FFE01EC5AFE4F608171816F3F2A
:100CE00071052CF02FEF30E03183208305C01616FC
:100CF000170614F01182108220911301213021F582
:100D0000BC01990F880B990B0E94431620E030E03C
:100D100040E85FE30E94DB020E940B1670935301D0
:100D200060935201660F771FFB01E050FF4F608117
:100D30007181072E000C880B990B0E944316DF91DE
:100D4000CF910F910C9429042230C9F5072E000C85
:100D5000880B990B0E94431620E030E040E85FE3E7
:100D60000E94DB02CC5ADE4F0E940B167983688307
:100D7000E0915201F0915301EE0FFF1FEC5AFE4F2C
:100D800060817181072E000C880B990B0E9443161D
:100D900000E09B01AC010E94D005882381F0809186
:100DA000520190915301FC01EE0FFF1FEC5AFE4FD0
:100DB00060810496DF91CF910F910C949700DF91A1
:100DC000CF910F910895EF92FF920F931F93CF93BE
:100DD000DF93EC018A30910568F440E065E688E332
:100DE0000E94700340E060E089E30E94700340E0ED
:100DF00060E014C084369105B8F440E065E688E30D
:100E00000E94700340E060E089E30E947003CE011D
:100E10006AE070E00E946517C82F40E08AE30E94F4
:100E2000700340E06C2F23C0C83E83E0D80740F534
:100E300040E065E688E30E947003CE0164E670E05E
:100E40000E9465177C0140E089E30E9470030AE07C
:100E500010E0C701B8010E94651740E08AE30E94D4
:100E60007003CE01B8010E94651740E0682F8BE344
:100E7000DF91CF911F910F91FF90EF900C94700331
:100E8000DF91CF911F910F91FF90EF900895EF9216
:100E9000FF920F931F93CF93DF93109269011092EB
:100EA000680180918B01811106C081E090E09093F0
:100EB00069018093680180918901811109C0809145
:100EC0006801909169018260909369018093680143
:100ED00080918A01811109C0809168019091690116
:100EE00084609093690180936801809188018111E9
:100EF00009C08091680190916901886090936901AF
:100F00008093680180918601811109C080916801F8
:100F1000909169018061909369018093680180914B
:100F20008501811109C080916801909169018062F9
:100F3000909369018093680180918701811109C0B4
:100F40008091680190916901806490936901809318
:100F5000680180918401811109C08091680190919C
:100F60006901806890936901809368018091830191
:100F7000811109C0809168019091690191609093FD
:100F800069018093680180E090E00E94E30606E535
:100F900011E0C0E0D0E0EE24E394F12C80916801F0
:100FA000909169010C2E02C0959587950A94E2F7FD
:100FB000F80180FF1BC0F182E08280915401909182
:100FC0005501843F91406CF4CE010E94E30680916C
:100FD00054019091550101969093550180935401CD
:100FE000ECCF109255011092540102C01182108270
:100FF00021960E5F1F4FC930D10581F6DF91CF9149
:101000001F910F91FF90EF900895CF93C62F682FF7
:1010100089E092E00E94590E60E089E092E00E942F
:10102000100E6C2F89E092E00E94100E89E092E091
:10103000CF910C94DD0E0F931F93CF93DF9380918C
:10104000790190917A0120910001309101012817D6
:10105000390764F060915401709155018CE20E944F
:101060000508609154017091550112C020910A0148
:1010700030910B018217930794F060915E0170919B
:101080005F018CE20E94050860915E0170915F0132
:101090008DE2DF91CF911F910F910C940508CCE068
:1010A000D1E004E511E08091790190917A012297D5
:1010B0002A813B81821793078CF42881398182171A
:1010C000930764F0F801628573858CE20E9405083D
:1010D000F801628573858DE20E94050802501109AE
:1010E000F1E0C030DF07F9F6DF91CF911F910F914A
:1010F0000895CF92DF92EF92FF920F93CF93339B9D
:1011000002C081E001C082E08093130160918101FF
:10111000709182018EE20E94050860917F017091BA
:1011200080018FE20E9405080E941B086091120155
:10113000262F30E08091AA019091AB01C297820FD7
:10114000931F90938201809381018091A6019091D9
:10115000A701C297280F391F3093800120937F0188
:10116000C0911301C13021F0C23009F450C09FC0BA
:1011700070E080E090E00E94411620E030E040E81E
:101180005FE30E94DB020E9412166093120170E07E
:1011900080E090E00E94411600E09B01AC010E94BB
:1011A000D00580911201853620F084E680931201EB
:1011B00004C0811102C0C0931201809181019091FD
:1011C00082018C3391051CF48CE390E006C08F3FC4
:1011D000910539F034F08FEF90E090938201809385
:1011E000810180917F01909180018C3391051CF4E5
:1011F0008CE390E007C08F3F910509F00CF457C0D5
:101200008FEF90E09093800180937F0150C06091B8
:101210000E0170910F01809110019091110120E059
:1012200030E040E05FE30E94DB029B01AC01609391
:101230000E0170930F018093100190931101609142
:101240007B0170917C0180917D0190917E0101E094
:101250000E94D005C0900E01D0900F01E0901001C7
:10126000F090110120E030E04CE052E4C701B601FB
:101270000E94F31618162CF480E090E0ACE0B2E483
:101280000EC020E030E044E951E4C701B6010E94FD
:10129000941587FF0CC080E090E0A0E9B1E4809352
:1012A0000E0190930F01A0931001B09311012091B2
:1012B0000E0130910F014091100150911101609188
:1012C0007B0170917C0180917D0190917E010E9453
:1012D000271520E030E0A9010E94F316181624F427
:1012E00081E08093720102C01092720180917201BC
:1012F000882311F0429A01C04298CF910F91FF903C
:10130000EF90DF90CF900C9411020F93CF93DF9367
:1013100000D000D0CDB7DEB76091AA017091AB01CB
:1013200080E090E00E94411620E030E040E85FE37A
:101330000E94DB020E9412166F3F710521F018F027
:101340008FEF90E00AC06115710529F07093AB0131
:101350006093AA0106C081E090E09093AB01809376
:10136000AA016091AA017091AB0180E090E00E9417
:1013700041169B01AC018091AC019091AD01BC0183
:1013800080E090E029833A834B835C830E9441167E
:1013900000E029813A814B815C810E94D00588233D
:1013A00031F06091AA0181E090E00E949700609185
:1013B000AA017091AB018EE20E9405080F900F9078
:1013C0000F900F90DF91CF910F910C9430030F93FA
:1013D000CF93DF9300D000D0CDB7DEB76091A601E8
:1013E0007091A70180E090E00E94411620E030E07B
:1013F00040E85FE30E94DB020E9412166F3F710516
:1014000021F018F08FEF90E00AC06115710529F006
:101410007093A7016093A60106C081E090E09093CD
:10142000A7018093A6016091A6017091A70180E0B9
:1014300090E00E9441169B01AC018091A80190911F
:10144000A901BC0180E090E029833A834B835C834F
:101450000E94411600E029813A814B815C810E9403
:10146000D005882331F06091A60182E090E00E94CF
:1014700097006091A6017091A7018FE20E94050874
:101480000F900F900F900F90DF91CF910F910C94D0
:1014900030030F93CF93DF9300D000D0CDB7DEB7EA
:1014A0006091A2017091A30180E090E00E9441163A
:1014B00020E030E040E85FE30E94DB020E94121669
:1014C0006F3F710521F018F08FEF90E00AC06115B1
:1014D000710529F07093A3016093A20106C081E019
:1014E00090E09093A3018093A2016091A20170917A
:1014F000A30180E090E00E9441169B01AC01809125
:10150000A4019091A501BC0180E090E029833A8379
:101510004B835C830E94411600E029813A814B8114
:101520005C810E94D005882331F06091A20183E0A4
:1015300090E00E9497006091A2017091A3018CE25B
:101540000E9405080F900F900F900F90DF91CF91A0
:101550000F910C9430030F93CF93DF9300D000D002
:10156000CDB7DEB760919E0170919F0180E090E061
:101570000E94411620E030E040E85FE30E94DB0279
:101580000E9412166F3F710521F018F08FEF90E066
:101590000AC06115710529F070939F0160939E0147
:1015A00006C081E090E090939F0180939E0160913E
:1015B0009E0170919F0180E090E00E9441169B0186
:1015C000AC018091A0019091A101BC0180E090E06C
:1015D00029833A834B835C830E94411600E0298172
:1015E0003A814B815C810E94D005882331F0609163
:1015F0009E0184E090E00E94970060919E017091AE
:101600009F018DE20E9405080F900F900F900F90A0
:10161000DF91CF910F910C943003CF9348E050E0CD
:10162000BC0189E092E00E94DA0E89E092E00E941B
:10163000B40D892B31F089E092E00E94BC0DC82FD7
:10164000F4CF8C2FCF9108958CE390E00E940D0B86
:101650008F7008958DE390E00E940D0B8170809350
:101660008D018DE390E00E940D0B86958170809333
:101670008C018DE390E00E940D0B82FB882780F99E
:10168000809387018DE390E00E940D0B83FB8827F8
:1016900080F9809386018DE390E00E940D0B829586
:1016A0008170809385018DE390E00E940D0B85FB96
:1016B000882780F9809384018DE390E00E940D0BD0
:1016C00086FB882780F9809383018CE390E00E9459
:1016D0000D0B8295817080938B018CE390E00E94CA
:1016E0000D0B85FB882780F980938A018CE390E0BD
:1016F0000E940D0B86FB882780F9809389018CE37B
:1017000090E00E940D0B881F8827881F8093880116
:1017100083B181708093780183B1869581708093C5
:10172000770108950E94C9137093E8016093E7015F
:101730000E942A0B61E084E690E00E941A03609305
:101740007B0170937C0180937D0190937E0160E02A
:1017500086E990E00E941A030E940B1670937A01AA
:10176000609379010E94240B90E0FC013797E930E7
:10177000F10508F5EC5CFF4F0C94AF170E94790857
:101780002EC00E9485092BC00E94E70928C00E9434
:10179000470725C00E94490A22C00E94AB0A1FC009
:1017A00060E082E390E00E941A030E94290417C0BF
:1017B0000E94450614C040E060E08BE30E94700385
:1017C00040E06EE68AE30E94700340E060E289E355
:1017D0000E94700340E060E288E30E9470030E9470
:1017E000C9137093E6016093E5012091E701309100
:1017F000E801621B730B4AE050E089EC92E00C9424
:101800006913FC01108611861286138615A214A294
:1018100016A217A210A611A612A613A614A615A604
:1018200021E026A7CB01770FAA0BBB0B848B958BEE
:10183000A68BB78B08958F929F92AF92BF92CF9253
:10184000DF92EF92FF920F931F93CF93DF93EC0100
:101850006A017B010E94C9130C891D892E893F8969
:101860000230110521053105D1F040F40130110598
:101870002105310509F50E94D5131EC0033011055D
:101880002105310579F00430110521053105A1F458
:101890000E94C91320E63AEE40E050E009C00E94E1
:1018A000C9130AC00E94C91328EE33E040E050E09B
:1018B0000E948D17CA01B901CC82DD82EE82FF82BF
:1018C0000C851D852E853F854B015C01801A910A90
:1018D000A20AB30A8C149D04AE04BF0458F06C87AE
:1018E0007D878E879F878C8D811103C081E08C8FCF
:1018F00001C01C8E8C8DDF91CF911F910F91FF90B5
:10190000EF90DF90CF90BF90AF909F908F90089511
:10191000FC0166834783208781E085870895CF9205
:10192000DF92FF920F931F93CF93DF93EC0161E05F
:101930008E810E94CD140E94C91309851A852B85BA
:101940003C85601771078207930720F419861A8671
:101950001B861C862D85211111C009851A852B85B2
:101960003C85DC01CB01801B910BA20BB30B803DAE
:101970009740A105B10510F481E06DC01D860E945D
:10198000C91369877A878B879C871C821B821A827E
:101990001982188261E08E810E94911460E08E812C
:1019A0000E94CD1464E170E080E090E00E94FA13A0
:1019B000F89461E08E810E94CD1488E290E00E944C
:1019C000221460E08E810E94911410E0F12C81E0DD
:1019D00000E0C82ED12C8E810E94FD148C159D052F
:1019E00039F40F5F81E090E00E9422140F3F99F7D5
:1019F0008E810E94FD140F3FB9F0143090F010FD5D
:101A000010C09F2D969596959695FE01E90FF11DB4
:101A10009081990F90832885201710F4916090830E
:101A2000F3941F5F1535A1F6789487E28F1590F433
:101A30002C8130E04881898190E0840F911D4A819A
:101A4000840F911D4B81840F911D99272817390709
:101A500009F492CF80E0DF91CF911F910F91FF9019
:101A6000DF90CF900895CF92DF92EF92FF920F9385
:101A70001F93CF93DF93EC01162F0E948F0C8823C6
:101A800009F455C08F818B3031F008F450C0855176
:101A9000823098F04CC06A8170E080E090E00E9453
:101AA0004116112309F44EC020E030E040E151E43A
:101AB0006B017C01C701B6012BC00A81602F6F77D3
:101AC00070E080E090E00E94431620E030E040E8C3
:101AD00053E40E94F8166B017C018B81682F70E043
:101AE00080E090E00E9443169B01AC01C701B60163
:101AF0000E94281520E030E040E251E40E94991550
:101B000007FD90581123F1F020E030E040E151E46E
:101B10000E94F81620E030E040EA50E40E94991557
:101B200020E030E040E052E40E9428150BC067E15D
:101B300071E089EC92E00E94001340E030E020EC7C
:101B40009FE703C0462F372F282FC42ED32EE22E17
:101B5000F92EC701B601DF91CF911F910F91FF9030
:101B6000EF90DF90CF9008958091390290E020911E
:101B70003A02821B9109089590913A0280913902AC
:101B8000981750F4E92FF0E0E55CFD4F208130E03C
:101B90009F5F90933A0202C02FEF3FEFC901089573
:101BA000E0913A0280913902E81730F4F0E0E55C08
:101BB000FD4F808190E008958FEF9FEF0895089585
:101BC000CF92DF92EF92FF920F931F93CF93DF9309
:101BD0007C01262F972F8A0180911502882391F08E
:101BE000C62FD72F6E01C40ED51ECC15DD0571F0A2
:101BF0006991D701ED91FC910190F081E02DC70131
:101C00000995F3CF642F822F0E94A00FC801DF91A6
:101C1000CF911F910F91FF90EF90DF90CF9008959B
:101C2000CF93DF931F92CDB7DEB769832091150262
:101C30002223D1F020911602203240F021E030E042
:101C4000FC013383228380E090E015C0809117026D
:101C5000E82FF0E0E85EFD4F998190838F5F8093DD
:101C600017028093160205C061E0CE0101960E9422
:101C7000A00F81E090E00F90DF91CF910895FC01DB
:101C80001382128288EE93E0A0E0B0E08483958313
:101C9000A683B78385E291E09183808308951092B3
:101CA0003A021092390210921702109216020C9406
:101CB000E40E81E0809315026093380210921702BF
:101CC0001092160208950F93062F21E040911602FC
:101CD00068E172E0809138020E944A0F1092170268
:101CE00010921602109215020F9108954F925F9272
:101CF0006F927F92AF92BF92CF92EF92FF920F932B
:101D00001F93CF93DF935C01F62ED42F2801390166
:101D1000EE2021F10E94590ECE2DC43008F0C3E010
:101D2000C150C0F0D501ED91FC91B8E0CB9FC0014E
:101D30001124A301920104C0569547953795279524
:101D40008A95D2F7CA01B9010190F081E02DC50151
:101D50000995E6CF60E0C5010E94630E4D2FD13298
:101D600008F040E22C2D6BE372E08F2D0E94020FF1
:101D700010923A0280933902DF91CF911F910F9117
:101D8000FF90EF90CF90BF90AF907F906F905F905B
:101D90004F900895CF92EF920F931F93C22EE12C94
:101DA00000E010E098010E94760E1F910F91EF90D5
:101DB000CF90089521E00C94CA0E61E00C94630E5C
:101DC00089E092E00C943F0E1092C80281E080936B
:101DD000C6021092C50261E082E10E94CD1461E06A
:101DE00083E10E94CD14E9EBF0E080818E7F808357
:101DF00080818D7F808388E48093B80085E4809320
:101E0000BC000895413208F043C09091C80291117E
:101E1000FCCF91E09093C8022093C6022FEF20934D
:101E20005B021092A002240F20939F029093C7029E
:101E30009091C702880F892B8093C7028091C502B9
:101E4000813061F41092C5028091C7028093BB007B
:101E50008091BC0083FDF8CF85EC01C085EE8093B6
:101E6000BC008091C8028130E1F38091A002841708
:101E700010F44091A00221EA32E0FB01D9018A2F3F
:101E8000821B841718F48D918193F9CF842F0895C4
:101E900080E008950F93413208F04AC09091C80243
:101EA0009111FCCF32E03093C8020093C6023FEF9D
:101EB00030935B021092A00240939F02FB0161EA03
:101EC00072E0DB013A2F361B341718F431913D9341
:101ED000F9CF1092C7023091C702880F832B8093ED
:101EE000C7028091C502813061F41092C5028091D1
:101EF000C7028093BB008091BC0083FDF8CF85ECC6
:101F000001C085EE8093BC00222321F08091C8029D
:101F10008230D1F380915B028F3F79F080915B0238
:101F2000803241F080915B02803331F094E005C053
:101F300091E003C092E001C093E0892F0F910895D2
:101F4000613298F42091C802243089F460937D02B4
:101F5000FC012FE732E0D9018A2F821B861718F483
:101F600081918D93F9CF80E0089581E0089582E01A
:101F7000089585ED8093BC008091BC0084FDFCCF6A
:101F80001092C802089585EC8093BC001092C8029C
:101F900008951F920F920FB60F9211242F933F9323
:101FA0004F935F936F937F938F939F93AF93BF9361
:101FB000EF93FF938091B900887F803609F49EC02B
:101FC00078F5883209F45DC090F4803109F456C088
:101FD00038F4882309F4F5C0883009F44FC0F5C0FF
:101FE000883109F44EC0803209F45FC0EEC08034FD
:101FF00009F46AC058F4803309F457C0883309F0F3
:10200000E4C080935B020E94C30FDFC0803509F4F7
:102010004FC0883509F45DC0883409F0D6C0D3C0FC
:10202000883909F4C4C0A8F4883709F467C038F4C3
:10203000883609F463C0803709F460C0C6C08838A8
:1020400009F4B5C0803909F45FC0803809F0BDC01B
:102050005BC0803B09F483C038F4803A09F466C061
:10206000883A09F47CC0B1C0803C09F4A4C0883C23
:1020700009F4A1C0883B09F487C0A7C08091C702BA
:1020800010C09091A00280919F02981770F5E09186
:10209000A00281E08E0F8093A002F0E0EF55FD4F8B
:1020A00080818093BB0085EC83C080935B028BC0F2
:1020B000E091A00281E08E0F8093A0028091BB008E
:1020C000F0E0EF55FD4F80839091A00280919F0238
:1020D0006BC0E091A00281E08E0F8093A0028091FE
:1020E000BB00F0E0EF55FD4F80838091C602811167
:1020F0006AC081E08093C50284EA5EC083E0809379
:10210000C80210925C02CFCF80915C02803208F04E
:102110004EC0E0915C0281E08E0F80935C02809162
:10212000BB00F0E0E35AFD4F8083BDCF0E94C30F98
:1021300080915C02803230F4E0915C02F0E0E35A7E
:10214000FD4F108260915C0270E0E091C102F0915D
:10215000C2028DE592E0099510925C0236C084E0DF
:102160008093C80210927E0210927D02E091C30219
:10217000F091C402099580917D02811105C081E032
:1021800080937D0210927F02E0917E0281E08E0FAB
:1021900080937E02F0E0E158FD4F80818093BB0088
:1021A00090917E0280917D02981708F47CCF85E89B
:1021B0008093BC000AC085EC8093BC001092C802DA
:1021C00004C010925B020E94B90FFF91EF91BF9182
:1021D000AF919F918F917F916F915F914F913F91BF
:1021E0002F910F900FBE0F901F901895FC01918DAD
:1021F000228D892F90E0805C9F4F821B91098F7305
:1022000099270895FC01918D828D981731F0828D68
:10221000E80FF11D858D90E008958FEF9FEF0895F1
:10222000FC01918D828D981761F0828DDF01A80FDE
:10223000B11D5D968C91928D9F5F9F73928F90E000
:1022400008958FEF9FEF089589E792E1892B49F078
:1022500080E090E0892B29F00E94791281110C9482
:1022600000000895FC01848DDF01A80FB11DA35A61
:10227000BF4F2C91848D90E001968F739927848FA6
:10228000A689B7892C93A089B1898C9180648C939D
:10229000938D848D981306C00288F389E02D808188
:1022A0008F7D80830895CF93DF93EC01888D882301
:1022B000C9F0EA89FB89808185FD05C0A889B989B3
:1022C0008C9186FD0FC00FB607FCF5CF808185FF8E
:1022D000F2CFA889B9898C9185FFEDCFCE010E94FC
:1022E0003211E7CFDF91CF910895EF92FF920F93D4
:1022F0001F93CF93DF93EC0181E0888F9B8D8C8DB2
:10230000981305C0E889F989808185FD24C0F62EDF
:102310000B8D10E00F5F1F4F0F731127E02E8C8D78
:10232000E8120CC00FB607FCFACFE889F989808162
:1023300085FFF5CFCE010E943211F1CF8B8DFE01CA
:10234000E80FF11DE35AFF4FF0820B8FEA89FB89FA
:102350008081806207C0EE89FF896083E889F989FE
:1023600080818064808381E090E0DF91CF911F9134
:102370000F91FF90EF900895CF92DF92EF92FF922E
:102380001F93CF93DF93EC016A017B01122FE88941
:10239000F98982E080834115514E61057105B1F0E4
:1023A00060E079E08DE390E0A70196010E948D172F
:1023B000DA01C9010197A109B109B695A7959795C9
:1023C0008795AC01411580E15807A8F0E889F989A3
:1023D000108260E874E88EE190E0A70196010E9407
:1023E0008D17BA01A901415051096109710976950A
:1023F000679557954795EC85FD855083EE85FF855C
:102400004083188EEC89FD891083EA89FB898081DD
:1024100080618083EA89FB89808188608083EA8982
:10242000FB89808180688083EA89FB8980818F7D38
:102430008083DF91CF911F91FF90EF90DF90CF903D
:1024400008951F920F920FB60F9211242F938F931E
:102450009F93EF93FF93E091D902F091DA0280818C
:10246000E091DF02F091E00282FD12C09081809144
:10247000E2028F5F8F732091E302821751F0E091A7
:10248000E202F0E0E753FD4F958F8093E20201C036
:102490008081FF91EF919F918F912F910F900FBEAF
:1024A0000F901F9018951F920F920FB60F92112444
:1024B0002F933F934F935F936F937F938F939F934C
:1024C000AF93BF93EF93FF9389EC92E00E94321198
:1024D000FF91EF91BF91AF919F918F917F916F91FC
:1024E0005F914F913F912F910F900FBE0F901F90D2
:1024F000189589EC92E00E94F61021E0892B09F4EE
:1025000020E0822F0895E9ECF2E01382128288EE37
:1025100093E0A0E0B0E084839583A683B78385E34E
:1025200091E09183808385EC90E09587848784ECAB
:1025300090E09787868780EC90E0918B808B81EC90
:1025400090E0938B828B82EC90E0958B848B86EC71
:1025500090E0978B868B118E128E138E148E0895B9
:1025600008950E942D140E94B0120E948E01C4E2B0
:10257000D1E10E94920B2097E1F30E942411F9CF40
:10258000CF92DF92EF92FF920F931F93CF93DF933F
:102590006C017A018B01C0E0D0E0CE15DF0589F037
:1025A000D8016D918D01D601ED91FC910190F081E2
:1025B000E02DC6010995892B11F47E0102C02196F8
:1025C000ECCFC701DF91CF911F910F91FF90EF905A
:1025D000DF90CF9008956115710579F0FB010190AE
:1025E0000020E9F73197AF01461B570BDC01ED9155
:1025F000FC910280F381E02D099480E090E0089541
:102600000C94EB1261E471E00C94EB128F929F92A8
:10261000AF92BF92CF92DF92EF92FF920F931F93F0
:10262000CF93DF93CDB7DEB7A1970FB6F894DEBF97
:102630000FBECDBF6C01142FE52FCB01022F19A2C5
:10264000223008F40AE07E0121E2E20EF11C802E25
:10265000912CA12CB12C612F7E2FA50194010E94F9
:102660008D17029F1019112481E0E81AF1081A3021
:1026700014F4105D01C0195CF7011083122FE32FD1
:10268000CA01232B242B252B31F7B701C6010E9449
:10269000EB12A1960FB6F894DEBF0FBECDBFDF914F
:1026A000CF911F910F91FF90EF90DF90CF90BF904F
:1026B000AF909F908F9008952115310541F4DC0172
:1026C000ED91FC910190F081E02D642F09940C9420
:1026D00006130F931F93CF93DF93EC019A01AB0185
:1026E00060E070E00E945C138C01CE010E94021336
:1026F000800F911FDF91CF911F910F9108951F922D
:102700000F920FB60F9211242F933F938F939F93A5
:10271000AF93BF938091670390916803A091690381
:10272000B0916A033091660323E0230F2D3720F424
:102730000196A11DB11D05C026E8230F0296A11D1B
:10274000B11D209366038093670390936803A09361
:102750006903B0936A0380916B0390916C03A0911D
:102760006D03B0916E030196A11DB11D80936B03A3
:1027700090936C03A0936D03B0936E03BF91AF91E0
:102780009F918F913F912F910F900FBE0F901F90AF
:1027900018952FB7F8946091670370916803809142
:1027A000690390916A032FBF08953FB7F894809111
:1027B0006B0390916C03A0916D03B0916E0326B5ED
:1027C000A89B05C02F3F19F00196A11DB11D3FBF69
:1027D000BA2FA92F982F8827820F911DA11DB11DF7
:1027E000BC01CD0142E0660F771F881F991F4A95F3
:1027F000D1F70895CF92DF92EF92FF92CF93DF93BC
:102800006B017C010E94D513EB01C114D104E104DA
:10281000F10489F00E9426150E94D5136C1B7D0BD4
:10282000683E734090F381E0C81AD108E108F108CE
:10283000C851DC4FEACFDF91CF91FF90EF90DF904E
:10284000CF9008958230910538F0880F991F880F36
:10285000991F05970197F1F70895789484B58260E0
:1028600084BD84B5816084BD85B5826085BD85B534
:10287000816085BDEEE6F0E0808181608083E1E8E3
:10288000F0E010828081826080838081816080831B
:10289000E0E8F0E0808181608083E1EBF0E080811E
:1028A00084608083E0EBF0E0808181608083EAE7F0
:1028B000F0E0808184608083808182608083808179
:1028C000816080838081806880831092C100089538
:1028D000833081F028F4813099F08230A1F008959E
:1028E0008730A9F08830B9F08430D1F4809180002D
:1028F0008F7D03C0809180008F7780938000089542
:1029000084B58F7702C084B58F7D84BD0895809192
:10291000B0008F7703C08091B0008F7D8093B000AE
:102920000895CF93DF9390E0FC01E257FF4F24918D
:10293000FC01EE55FF4F8491882361F190E0880FF0
:10294000991FFC01E653FF4FC591D491FC01E0545F
:10295000FF4FA591B491611109C09FB7F894888188
:10296000209582238883EC912E230BC0623061F482
:102970009FB7F8943881822F809583238883EC91C8
:102980002E2B2C939FBF06C08FB7F894E8812E2B77
:1029900028838FBFDF91CF9108951F93CF93DF934B
:1029A000282F30E0F901E658FF4F8491F901E257F2
:1029B000FF4FD491F901EE55FF4FC491CC23C9F0DC
:1029C000162F81110E946814EC2FF0E0EE0FFF1F0C
:1029D000E054FF4FA591B4918FB7F894111105C041
:1029E0009C91ED2FE095E92302C0EC91ED2BEC9347
:1029F0008FBFDF91CF911F910895CF93DF93282F41
:102A000030E0F901E658FF4F8491F901E257FF4F9A
:102A1000D491F901EE55FF4FC491CC2391F081116F
:102A20000E946814EC2FF0E0EE0FFF1FEA54FF4FF6
:102A3000A591B491EC91ED2381E090E021F480E048
:102A400002C080E090E0DF91CF9108950895505842
:102A5000BB27AA270E943F150C94B9160E94AB16FB
:102A600038F00E94B21620F039F49F3F19F426F492
:102A70000C94A8160EF4E095E7FB0C94A216E92F2F
:102A80000E94CA1658F3BA1762077307840795079E
:102A900020F079F4A6F50C94EC160EF4E0950B2ECC
:102AA000BA2FA02D0B01B90190010C01CA01A001A0
:102AB0001124FF27591B99F0593F50F4503E68F1FB
:102AC0001A16F040A22F232F342F4427585FF3CF3C
:102AD000469537952795A795F0405395C9F77EF40D
:102AE0001F16BA0B620B730B840BBAF09150A1F056
:102AF000FF0FBB1F661F771F881FC2F70EC0BA0FDC
:102B0000621F731F841F48F4879577956795B79563
:102B1000F7959E3F08F0B0CF9395880F08F099275E
:102B2000EE0F9795879508950E947E1608F481E030
:102B300008950E94AD150C94B9160E94B21658F073
:102B40000E94AB1640F029F45F3F29F00C94A216C6
:102B500051110C94ED160C94A8160E94CA1668F335
:102B60009923B1F3552391F3951B550BBB27AA2746
:102B700062177307840738F09F5F5F4F220F331F80
:102B8000441FAA1FA9F335D00E2E3AF0E0E832D048
:102B900091505040E695001CCAF72BD0FE2F29D04B
:102BA000660F771F881FBB1F261737074807AB071D
:102BB000B0E809F0BB0B802DBF01FF2793585F4F92
:102BC0003AF09E3F510578F00C94A2160C94ED1645
:102BD0005F3FE4F3983ED4F3869577956795B79574
:102BE000F7959F5FC9F7880F911D9695879597F97F
:102BF0000895E1E0660F771F881FBB1F62177307F8
:102C00008407BA0720F0621B730B840BBA0BEE1F0C
:102C100088F7E09508950E9412166894B1110C94FB
:102C2000ED1608950E94D21688F09F5798F0B92F9C
:102C30009927B751B0F0E1F0660F771F881F991FF1
:102C40001AF0BA95C9F714C0B13091F00E94EC1691
:102C5000B1E008950C94EC16672F782F8827B85FA1
:102C600039F0B93FCCF3869577956795B395D9F749
:102C70003EF490958095709561957F4F8F4F9F4F53
:102C80000895E89409C097FB3EF49095809570955F
:102C900061957F4F8F4F9F4F9923A9F0F92F96E9A8
:102CA000BB279395F695879577956795B795F1111D
:102CB000F8CFFAF4BB0F11F460FF1BC06F5F7F4FBA
:102CC0008F4F9F4F16C0882311F096E911C07723CC
:102CD00021F09EE8872F762F05C0662371F096E8D5
:102CE000862F70E060E02AF09A95660F771F881FA4
:102CF000DAF7880F9695879597F90895990F000848
:102D0000550FAA0BE0E8FEEF16161706E807F907BD
:102D1000C0F012161306E407F50798F0621B730B58
:102D2000840B950B39F40A2661F0232B242B252BD9
:102D300021F408950A2609F4A140A6958FEF811D7C
:102D4000811D089597F99F6780E870E060E008951D
:102D50009FEF80EC089500240A94161617061806B3
:102D60000906089500240A9412161306140605068F
:102D70000895092E0394000C11F4882352F0BB0F20
:102D800040F4BF2B11F460FF04C06F5F7F4F8F4F83
:102D90009F4F089557FD9058440F551F59F05F3FBE
:102DA00071F04795880F97FB991F61F09F3F79F06D
:102DB00087950895121613061406551FF2CF4695EF
:102DC000F1DF08C0161617061806991FF1CF869571
:102DD0007105610508940895E894BB276627772755
:102DE000CB0197F908950E947E1608F48FEF08959D
:102DF0000E940B170C94B9160E94AB1638F00E9473
:102E0000B21620F0952311F00C94A2160C94A8167B
:102E100011240C94ED160E94CA1670F3959FC1F30D
:102E2000950F50E0551F629FF001729FBB27F00D78
:102E3000B11D639FAA27F00DB11DAA1F649F6627CD
:102E4000B00DA11D661F829F2227B00DA11D621F1C
:102E5000739FB00DA11D621F839FA00D611D221FD6
:102E6000749F3327A00D611D231F849F600D211DBA
:102E7000822F762F6A2F11249F5750409AF0F1F03D
:102E800088234AF0EE0FFF1FBB1F661F771F881FA6
:102E900091505040A9F79E3F510580F00C94A21626
:102EA0000C94ED165F3FE4F3983ED4F38695779546
:102EB0006795B795F795E7959F5FC1F7FE2B880F4C
:102EC000911D9695879597F90895AA1BBB1B51E113
:102ED00007C0AA1FBB1FA617B70710F0A61BB70B8A
:102EE000881F991F5A95A9F780959095BC01CD012F
:102EF000089597FB072E16F4009407D077FD09D0AC
:102F00000E94651707FC05D03EF4909581959F4F70
:102F10000895709561957F4F0895A1E21A2EAA1B1E
:102F2000BB1BFD010DC0AA1FBB1FEE1FFF1FA21779
:102F3000B307E407F50720F0A21BB30BE40BF50B76
:102F4000661F771F881F991F1A9469F760957095FF
:102F5000809590959B01AC01BD01CF010895EE0FC6
:102F6000FF1F0590F491E02D0994F999FECF92BDD1
:102F700081BDF89A992780B50895262FF999FECF3B
:102F80001FBA92BD81BD20BD0FB6F894FA9AF99A86
:0A2F90000FBE01960895F894FFCFDC
:102F9A00230028002D00320037003C000E000000FC
:102FAA00C841320101010152656164206661696CA0
:102FBA000000000000100EE00DB40DBC0DD00DDFB6
:102FCA000D000000007511C012F610101102115305
:102FDA00110D0A006E616E00696E66006F766600FA
:022FEA002E00B7
:00000001FF
