:100000000C9464000C948C000C948C000C948C0068
:100010000C948C000C948C000C948C000C948C0030
:100020000C948C000C948C000C948C000C94A2000A
:100030000C948C000C948C000C948C000C948C0010
:100040000C94420F0C948C000C94900D0C94C20DE7
:100050000C948C000C948C000C948C000C948C00F0
:100060000C94380B0C948C00000000080002010076
:100070000003040700000000000000000102040863
:100080001020408001020408102001020408102002
:10009000040404040404040402020202020203032E
:1000A00003030303000000002300260029000000D2
:1000B0000000250028002B0000000000240027007D
:1000C0002A0030024F0AF20D11241FBECFEFD8E0F4
:1000D000DEBFCDBF11E0A0E0B1E0E0E2F7E202C098
:1000E00005900D92A234B107D9F723E0A2E4B1E064
:1000F00001C01D92A132B207E1F710E0C4E6D0E0E2
:1001000004C02197FE010E947213C136D107C9F7BE
:100110000E94200E0C948E130C940000109280000C
:1001200025E02093810029E03DE33093890020936E
:10013000880022E020936F0078949093B801809318
:10014000B70108951F920F920FB60F9211242F93AB
:100150003F938F939F932091B9013091BA01809181
:10016000B7019091B80101972817390728F010922C
:10017000BA011092B90109C08091B9019091BA01F8
:1001800001969093BA018093B90110928500109264
:1001900084009F918F913F912F910F900FBE0F90F0
:1001A0001F9018954F925F927F928F929F92AF927D
:1001B000BF92CF92DF92EF92FF920F931F93CF9354
:1001C000DF93FC017A0140E050E000E010E0412CB8
:1001D000512C20E030E0712C4B018E0C9F1C5C01F7
:1001E00088E0A80EB11C8091B9019091BA01C0902D
:1001F000B901D090BA01C814D90408F05EC08617BE
:10020000970708F45AC0772089F083B1807190E095
:1002100082179307B9F0C080D180D6012D913C910F
:1002200011972F5F3F4F2D933C930CC0CF01DC0102
:10023000CD90DD90CD01D6011D921C928A159B05B3
:10024000B1F7E3CF29B1207130E02415350559F01D
:10025000C280D380D6014D905C90BFEF4B1A5B0AF1
:10026000D6014D925C92A3B1A0724A2E512C401639
:10027000510651F0C480D580D6010D911C91119783
:100280000F5F1F4F0D931C9316B11170C12FB0E07B
:10029000DB2FC417D50751F006811781D8014D9186
:1002A0005C9111974F5F5F4F4D935C9377247394EC
:1002B000AE01820129019C0196CFB1E07B1213C0EF
:1002C0009F01285F3F4FC191D1918881998197FD0E
:1002D000019695958795B7010E94281379836883C5
:1002E000E217F30781F7DF91CF911F910F91FF90F4
:1002F000EF90DF90CF90BF90AF909F908F907F90C6
:100300005F904F90089526E040E052EC61E070E08D
:100310008BE792E00E942B0D8BEB91E00E94BE09CF
:1003200062E086E00E94541062E087E00E94541070
:1003300062E088E00E94541081E090E00E9478130F
:1003400090E0909361018093600182E090E00E94D0
:10035000781390E090935D0180935C0183E090E0DE
:100360000E94781390E0909359018093580184E0A3
:1003700090E00E94781390E090935501809354018F
:1003800084E090E00E948E0080E090E020E030E089
:10039000F901E45BFE4FA9014C5B5E4F5183408342
:1003A00001962E5F3F4F8430910591F79093430162
:1003B000809342010895CF92DF92EF92FF92CF9304
:1003C0006B017C01CA01B901C9B1C6FBCC27C0F9D8
:1003D000C093020129B1221F2227221F209301016D
:1003E00030910001C31799F02C1731F020E030E074
:1003F000A9010E94EB1007C09B01AC0160E070E016
:10040000CB010E94EA1021E020939A0105C01092CE
:100410009A0160E070E0CB01C09300019B01AC0148
:10042000C701B6010E94EB10CF91FF90EF90DF90D3
:10043000CF90089520919901422F50E0841795079D
:1004400058F4662321F060E089EA91E003C060E09F
:100450008BE991E00C94A2082F5F209399010895F5
:1004600026E046E16FE089EA91E00E94F70726E086
:1004700046E160E18BE991E00E94F70762E070E0FD
:100480008AE691E00C9470071F93CF93DF931F923D
:10049000CDB7DEB7633609F463C058F5673009F4A9
:1004A00055C090F4633009F44DC038F4613009F45C
:1004B00061C008F045C01FE36EC0653009F464C038
:1004C00008F042C016E667C06A3209F463C048F417
:1004D000693009F43FC0E0F1603209F05CC010E01F
:1004E0005AC06136C9F1D0F56D3209F054C010E43C
:1004F00052C06C3609F440C080F46736B9F128F474
:10050000653681F188F51EE546C0693699F180F1BE
:100510006A3609F040C01EE03EC0623799F138F4F7
:10052000603761F168F56E36B1F514E534C06437B3
:1005300069F150F1653761F1693769F51EE62BC045
:100540001BE529C01FE427C01DE725C017E023C015
:100550001FE721C01FE61FC017E71DC01CE71BC017
:1005600019E319C019E717C011E715C01DE313C03F
:1005700016E711C016E00FC018E30DC013E70BC05B
:1005800017E609C010E507C01DE605C018E703C05F
:100590001EE301C013E6682F8BEB91E049830E94B4
:1005A000C809612F8BEB91E00E947F094981612F7F
:1005B000411160688BEB91E00E947F098BEB91E029
:1005C0000F90DF91CF911F910C944C0A40E060E2B4
:1005D00080E20E94440240E060E281E20E94440224
:1005E00040E060E282E20E94440240E060E283E296
:1005F0000C9444028F929F92AF92BF92CF92DF925F
:10060000EF92FF92CF93DF936B017C010E94CE119A
:10061000EB01072E000C880B990B0E9406129B0120
:10062000AC01C701B6010E94EA1020E030E040E2D0
:1006300051E40E94BB124B015C0120E030E040E23B
:1006400051ECC701B6010E94571118167CF140E029
:100650006DE280E20E94440220E030E040E251E49A
:10066000C701B6010E945C116B017C0120E030E003
:10067000A9010E94B61218161CF4C701B60103C0E6
:10068000C701B60190580E94D51140E081E20E9456
:100690004402CE016AE070E00E943C1397FF03C061
:1006A00091958195910941E0682F25C020E030E0C7
:1006B000A901C701B6010E94571187FF30C040E071
:1006C0006DE280E20E94440240E060E081E20E942C
:1006D000440220E030E0A901C701B6010E94B61231
:1006E00018161CF4C701B60103C0C701B601905823
:1006F0000E94D51141E082E20E94440220E030E0F5
:10070000A901C501B4010E94B61218160CF448C024
:10071000C501B40190580E94D51140E054C020E0BA
:1007200030E040E251E4C701B6010E94571187FF53
:1007300010C040E060E080E20E94440240E060E0DF
:1007400081E20E944402C701B6010E94D51141E036
:1007500024C020E030E040E251E4C701B6010E942D
:10076000B61240E087FD1FC060E080E20E944402B4
:1007700020E030E040E251E4C701B6010E945C1184
:100780000E94D51140E081E20E944402CE016AE05D
:1007900070E00E943C1341E0682F82E20E94440214
:1007A000C501B401B8CF65E680E20E94440240E092
:1007B00062E781E20E94440240E062E782E20E9436
:1007C000440240E060E283E2DF91CF91FF90EF903E
:1007D000DF90CF90BF90AF909F908F900C94440289
:1007E000EF92FF920F931F93CF93DF93EC018A3028
:1007F000910568F440E060E080E20E94440240E03D
:1008000060E081E20E94440240E060E014C084366F
:100810009105B8F440E060E080E20E94440240E0CC
:1008200060E081E20E944402CE016AE070E00E9432
:100830002813C82F40E082E20E94440240E06C2F5F
:1008400042C0C83E83E0D80798F440E060E080E210
:100850000E944402CE0164E670E00E9428137C01ED
:1008600040E081E20E9444020AE010E0C7011EC09D
:10087000C03187E2D80780F5CE0168EE73E00E94B0
:1008800028137C0140E080E20E94440204E610E06C
:10089000C701B8010E94281340E081E20E9444028F
:1008A000CE01B8010E9428130AE010E0B8010E94AE
:1008B000281340E082E20E944402CE01B8010E9467
:1008C000281340E0682F83E2DF91CF911F910F91B1
:1008D000FF90EF900C944402DF91CF911F910F9104
:1008E000FF90EF900895CF92DF92EF92FF92CF9317
:1008F0006B017C01C42F42E350E060E070E08AE6C7
:1009000091E00E948A078823A9F0C701B601CC2391
:1009100039F0CF91FF90EF90DF90CF900C94FA02D6
:100920000E94CE11CB01CF91FF90EF90DF90CF903E
:100930000C94F003CF91FF90EF90DF90CF900C9448
:10094000E6024F925F926F927F928F929F92AF9248
:10095000BF92CF92DF92EF92FF920F93CF936B01F2
:100960007C0149015A0180919A01882369F081E054
:10097000809369010E948C0F6093650170936601FA
:1009800080936701909368010E948C0F40906501ED
:10099000509066016090670170906801DC01CB01A6
:1009A00084199509A609B70921E030E08D3B9240F2
:1009B000A105B10510F420E030E04AE050E0B901B3
:1009C0008BE792E00E941C0F64E071E08BE792E0FD
:1009D0000E946F0E0E948C0FAB01BC012AE030E038
:1009E0008BE792E00E94230F63E071E08BE792E0D7
:1009F0000E946F0E40916501509166016091670100
:100A0000709168012AE030E08BE792E00E94300F9D
:100A1000C0916901CC2391F10E948C0F4090650137
:100A2000509066016090670170906801DC01CB0115
:100A300084199509A609B7098D3B9240A105B10516
:100A400098F0C701B601002319F00E94FA0205C010
:100A50000E94CE11CB010E94F003C0916401CC230F
:100A6000C9F01092640116C0402FC501B4010E9464
:100A7000730481E080936401C0E00CC0C701B6013B
:100A8000002319F00E94FA0205C00E94CE11CB018A
:100A90000E94F0038C2FCF910F91FF90EF90DF9089
:100AA000CF90BF90AF909F908F907F906F905F900E
:100AB0004F900895CF93C62F682F8BEB91E00E9443
:100AC000C80960E08BEB91E00E947F096C2F8BEBF3
:100AD00091E00E947F098BEB91E0CF910C944C0A3E
:100AE0000F93CF93DF9300D000D0CDB7DEB76091E6
:100AF00060017091610180E090E00E94041220E0AA
:100B000030E040E85FE30E94DB010E94D5116F3FB7
:100B1000710521F018F08FEF90E00AC061157105A2
:100B200029F0709361016093600106C081E090E05C
:100B30009093610180936001609160017091610107
:100B400080E090E00E9404129B01AC018091620160
:100B500090916301BC0180E090E029833A834B834C
:100B60005C830E94041200E029813A814B815C8100
:100B70000E94A104882331F06091600181E090E03F
:100B80000E94801360916001709161018CE20F906E
:100B90000F900F900F90DF91CF910F910C945A0509
:100BA0000F93CF93DF9300D000D0CDB7DEB7609125
:100BB0005C0170915D0180E090E00E94041220E0F1
:100BC00030E040E85FE30E94DB010E94D5116F3FF7
:100BD000710521F018F08FEF90E00AC061157105E2
:100BE00029F070935D0160935C0106C081E090E0A4
:100BF00090935D0180935C0160915C0170915D0157
:100C000080E090E00E9404129B01AC0180915E01A3
:100C100090915F01BC0180E090E029833A834B838F
:100C20005C830E94041200E029813A814B815C813F
:100C30000E94A104882331F060915C0182E090E081
:100C40000E94801360915C0170915D018DE20F90B4
:100C50000F900F900F90DF91CF910F910C945A0548
:100C60000F93CF93DF9300D000D0CDB7DEB7609164
:100C700058017091590180E090E00E94041220E038
:100C800030E040E85FE30E94DB010E94D5116F3F36
:100C9000710521F018F08FEF90E00AC06115710521
:100CA00029F0709359016093580106C081E090E0EB
:100CB00090935901809358016091580170915901A6
:100CC00080E090E00E9404129B01AC0180915A01E7
:100CD00090915B01BC0180E090E029833A834B83D3
:100CE0005C830E94041200E029813A814B815C817F
:100CF0000E94A104882331F06091580183E090E0C4
:100D00000E94801360915801709159018EE20F90FA
:100D10000F900F900F90DF91CF910F910C945A0587
:100D20000F93CF93DF9300D000D0CDB7DEB76091A3
:100D300054017091550180E090E00E94041220E07F
:100D400030E040E85FE30E94DB010E94D5116F3F75
:100D5000710521F018F08FEF90E00AC06115710560
:100D600029F0709355016093540106C081E090E032
:100D700090935501809354016091540170915501F5
:100D800080E090E00E9404129B01AC01809156012A
:100D900090915701BC0180E090E029833A834B8316
:100DA0005C830E94041200E029813A814B815C81BE
:100DB0000E94A104882331F06091540184E090E006
:100DC0000E94801360915401709155018FE20F9041
:100DD0000F900F900F90DF91CF910F910C945A05C7
:100DE000CF9348E050E0BC018BEB91E00E94490AB0
:100DF0008BEB91E00E942309892B31F08BEB91E082
:100E00000E942B09C82FF4CF8C2FCF91089584E234
:100E100090E00E94F0068F70089541E050E062E09B
:100E200070E08CE491E00E94D200E0914E01F091DC
:100E30004F01808191819093630180936201E091E1
:100E40005201F09153018081918190935F018093D1
:100E50005E01E0914C01F0914D0180819181909370
:100E60005B0180935A01E0915001F0915101808122
:100E7000918190935701809356010E9407078B3010
:100E800089F030F4882381F08730A9F40C9490061F
:100E90008E3031F08F3019F18D3069F40C94D0051B
:100EA0000C9470050C94300660E088EC90E00E9491
:100EB0001A020C94FA0240E060E083E20E944402CD
:100EC00040E06EE682E20E94440240E060E281E29D
:100ED0000E94440240E060E280E20C9444020895E3
:100EE000FC01108611861286138615A214A216A282
:100EF00017A210A611A612A613A614A615A621E0E5
:100F000026A7CB01770FAA0BBB0B848B958BA68BE7
:100F1000B78B08958F929F92AF92BF92CF92DF923C
:100F2000EF92FF920F931F93CF93DF93EC016A012F
:100F30007B010E948C0F0C891D892E893F8902300C
:100F4000110521053105D1F040F4013011052105CD
:100F5000310509F50E94980F1EC0033011052105C7
:100F6000310579F00430110521053105A1F40E9405
:100F70008C0F20E63AEE40E050E009C00E948C0F52
:100F80000AC00E948C0F28EE33E040E050E00E943F
:100F90005013CA01B901CC82DD82EE82FF820C853A
:100FA0001D852E853F854B015C01801A910AA20A9E
:100FB000B30A8C149D04AE04BF0458F06C877D877F
:100FC0008E879F878C8D811103C081E08C8F01C03B
:100FD0001C8E8C8DDF91CF911F910F91FF90EF9020
:100FE000DF90CF90BF90AF909F908F900895FC01BD
:100FF00066834783208781E085870895CF92DF92BB
:10100000FF920F931F93CF93DF93EC0161E08E81EA
:101010000E9490100E948C0F09851A852B853C85B3
:10102000601771078207930720F419861A861B86BA
:101030001C862D85211111C009851A852B853C85BB
:10104000DC01CB01801B910BA20BB30B803D9740C1
:10105000A105B10510F481E06DC01D860E948C0FC2
:1010600069877A878B879C871C821B821A821982E8
:10107000188261E08E810E94541060E08E810E948F
:10108000901064E170E080E090E00E94BD0FF89461
:1010900061E08E810E94901088E290E00E94E50F4E
:1010A00060E08E810E94541010E0F12C81E000E09D
:1010B000C82ED12C8E810E94C0108C159D0539F44C
:1010C0000F5F81E090E00E94E50F0F3F99F78E815E
:1010D0000E94C0100F3FB9F0143090F010FD10C006
:1010E0009F2D969596959695FE01E90FF11D90819D
:1010F000990F90832885201710F491609083F394C2
:101100001F5F1535A1F6789487E28F1590F42C8136
:1011100030E04881898190E0840F911D4A81840FDD
:10112000911D4B81840F911D99272817390709F4C8
:1011300092CF80E0DF91CF911F910F91FF90DF90D0
:10114000CF900895CF92DF92EF92FF920F931F936B
:10115000CF93DF93EC01162F0E94FE07882309F43A
:1011600055C08F818B3031F008F450C085518230EA
:1011700098F04CC06A8170E080E090E00E94041218
:10118000112309F44EC020E030E040E151E46B014E
:101190007C01C701B6012BC00A81602F6F7770E018
:1011A00080E090E00E94061220E030E040E853E446
:1011B0000E94BB126B017C018B81682F70E080E084
:1011C00090E00E9406129B01AC01C701B6010E948B
:1011D000EB1020E030E040E251E40E945C1107FD9A
:1011E00090581123F1F020E030E040E151E40E94FA
:1011F000BB1220E030E040EA50E40E945C1120E0A5
:1012000030E040E052E40E94EB100BC067E071E078
:101210008BE792E00E946F0E40E030E020EC9FE709
:1012200003C0462F372F282FC42ED32EE22EF92E9F
:10123000C701B601DF91CF911F910F91FF90EF9001
:10124000DF90CF9008958091EB0190E02091EC0128
:10125000821B910908959091EC018091EB01981700
:1012600050F4E92FF0E0E351FE4F208130E09F5F22
:101270009093EC0102C02FEF3FEFC9010895E09178
:10128000EC018091EB01E81730F4F0E0E351FE4F00
:10129000808190E008958FEF9FEF08950895CF9299
:1012A000DF92EF92FF920F931F93CF93DF937C0116
:1012B000262F972F8A018091C701882391F0C62F8E
:1012C000D72F6E01C40ED51ECC15DD0571F06991C6
:1012D000D701ED91FC910190F081E02DC7010995B6
:1012E000F3CF642F822F0E940F0BC801DF91CF91A3
:1012F0001F910F91FF90EF90DF90CF900895CF93C3
:10130000DF931F92CDB7DEB769832091C7012223F7
:10131000D1F02091C801203240F021E030E0FC0102
:101320003383228380E090E015C08091C901E82FCB
:10133000F0E0E653FE4F998190838F5F8093C9015F
:101340008093C80105C061E0CE0101960E940F0B99
:1013500081E090E00F90DF91CF910895FC0113821E
:10136000128288EE93E0A0E0B0E084839583A683A8
:10137000B78385E191E09183808308951092EC0119
:101380001092EB011092C9011092C8010C94530AFB
:1013900081E08093C7016093EA011092C901109225
:1013A000C80108950F93062F21E04091C8016AEC0F
:1013B00071E08091EA010E94B90A1092C90110926D
:1013C000C8011092C7010F9108954F925F926F92DA
:1013D0007F92AF92BF92CF92EF92FF920F931F93A3
:1013E000CF93DF935C01F62ED42F28013901EE2034
:1013F00021F10E94C809CE2DC43008F0C3E0C150CD
:10140000C0F0D501ED91FC91B8E0CB9FC001112453
:10141000A301920104C056954795379527958A9563
:10142000D2F7CA01B9010190F081E02DC5010995FB
:10143000E6CF60E0C5010E94D2094D2FD13208F0FD
:1014400040E22C2D6DEE71E08F2D0E94710A1092FA
:10145000EC018093EB01DF91CF911F910F91FF90F1
:10146000EF90CF90BF90AF907F906F905F904F9034
:101470000895CF92EF920F931F93C22EE12C00E0BC
:1014800010E098010E94E5091F910F91EF90CF9015
:10149000089521E00C94390A61E00C94D2098BEB99
:1014A00091E00C94AE0910927A0281E08093780268
:1014B0001092770261E082E10E94901061E083E186
:1014C0000E949010E9EBF0E080818E7F8083808124
:1014D0008D7F808388E48093B80085E48093BC008E
:1014E0000895413208F043C090917A029111FCCFE7
:1014F00091E090937A02209378022FEF20930D02CF
:1015000010925202240F20935102909379029091ED
:101510007902880F892B809379028091770281303C
:1015200061F410927702809179028093BB008091E0
:10153000BC0083FDF8CF85EC01C085EE8093BC0034
:1015400080917A028130E1F380915202841710F485
:101550004091520223E532E0FB01D9018A2F821B20
:10156000841718F48D918193F9CF842F089580E02A
:1015700008950F93413208F04AC090917A02911178
:10158000FCCF32E030937A02009378023FEF309341
:101590000D021092520240935102FB0163E572E08A
:1015A000DB013A2F361B341718F431913D93F9CFF4
:1015B0001092790230917902880F832B80937902FF
:1015C00080917702813061F41092770280917902E4
:1015D0008093BB008091BC0083FDF8CF85EC01C0F7
:1015E00085EE8093BC00222321F080917A02823024
:1015F000D1F380910D028F3F79F080910D028032FE
:1016000041F080910D02803331F094E005C091E00B
:1016100003C092E001C093E0892F0F9108956132D9
:1016200098F420917A02243089F460932F02FC010F
:1016300021E332E0D9018A2F821B861718F48191A9
:101640008D93F9CF80E0089581E0089582E00895B8
:1016500085ED8093BC008091BC0084FDFCCF10928E
:101660007A02089585EC8093BC0010927A02089566
:101670001F920F920FB60F9211242F933F934F9307
:101680005F936F937F938F939F93AF93BF93EF93EA
:10169000FF938091B900887F803609F49EC078F569
:1016A000883209F45DC090F4803109F456C038F4F2
:1016B000882309F4F5C0883009F44FC0F5C088319B
:1016C00009F44EC0803209F45FC0EEC0803409F4E2
:1016D0006AC058F4803309F457C0883309F0E4C075
:1016E00080930D020E94320BDFC0803509F44FC099
:1016F000883509F45DC0883409F0D6C0D3C0883974
:1017000009F4C4C0A8F4883709F467C038F48836EF
:1017100009F463C0803709F460C0C6C0883809F492
:10172000B5C0803909F45FC0803809F0BDC05BC026
:10173000803B09F483C038F4803A09F466C0883AE3
:1017400009F47CC0B1C0803C09F4A4C0883C09F411
:10175000A1C0883B09F487C0A7C08091790210C05E
:101760009091520280915102981770F5E0915202C7
:1017700081E08E0F80935202F0E0ED5AFD4F8081A0
:101780008093BB0085EC83C080930D028BC0E091F9
:10179000520281E08E0F809352028091BB00F0E0F4
:1017A000ED5AFD4F808390915202809151026BC09F
:1017B000E091520281E08E0F809352028091BB0033
:1017C000F0E0ED5AFD4F80838091780281116AC06C
:1017D00081E08093770284EA5EC083E080937A029E
:1017E00010920E02CFCF80910E02803208F04EC0D0
:1017F000E0910E0281E08E0F80930E028091BB007B
:10180000F0E0E15FFD4F8083BDCF0E94320B8091FD
:101810000E02803230F4E0910E02F0E0E15FFD4F05
:10182000108260910E0270E0E0917302F0917402F8
:101830008FE092E0099510920E0236C084E080930A
:101840007A021092300210922F02E0917502F0910C
:101850007602099580912F02811105C081E0809365
:101860002F0210923102E091300281E08E0F8093BE
:101870003002F0E0EF5CFD4F80818093BB009091DF
:10188000300280912F02981708F47CCF85E880936E
:10189000BC000AC085EC8093BC0010927A0204C0A0
:1018A00010920D020E94280BFF91EF91BF91AF9112
:1018B0009F918F917F916F915F914F913F912F9168
:1018C0000F900FBE0F901F901895FC01918D228DE7
:1018D000892F90E0805C9F4F821B91098F7399271D
:1018E0000895FC01918D828D981731F0828DE80F5B
:1018F000F11D858D90E008958FEF9FEF0895FC0115
:10190000918D828D981761F0828DDF01A80FB11D36
:101910005D968C91928D9F5F9F73928F90E008955A
:101920008FEF9FEF089588EE9DE0892B49F080E0CE
:1019300090E0892B29F00E94E80D81110C940000A1
:101940000895FC01848DDF01A80FB11DA35ABF4F7C
:101950002C91848D90E001968F739927848FA689AE
:10196000B7892C93A089B1898C9180648C93938DD5
:10197000848D981306C00288F389E02D80818F7DC5
:1019800080830895CF93DF93EC01888D8823C9F07D
:10199000EA89FB89808185FD05C0A889B9898C9178
:1019A00086FD0FC00FB607FCF5CF808185FFF2CF13
:1019B000A889B9898C9185FFEDCFCE010E94A10C39
:1019C000E7CFDF91CF910895EF92FF920F931F938E
:1019D000CF93DF93EC0181E0888F9B8D8C8D9813E2
:1019E00005C0E889F989808185FD24C0F62E0B8D1C
:1019F00010E00F5F1F4F0F731127E02E8C8DE81240
:101A00000CC00FB607FCFACFE889F989808185FF01
:101A1000F5CFCE010E94A10CF1CF8B8DFE01E80F16
:101A2000F11DE35AFF4FF0820B8FEA89FB89808119
:101A3000806207C0EE89FF896083E889F989808127
:101A40008064808381E090E0DF91CF911F910F91BE
:101A5000FF90EF900895CF92DF92EF92FF921F9345
:101A6000CF93DF93EC016A017B01122FE889F9899A
:101A700082E080834115514E61057105B1F060E04F
:101A800079E08DE390E0A70196010E945013DA01FE
:101A9000C9010197A109B109B695A79597958795B1
:101AA000AC01411580E15807A8F0E889F989108256
:101AB00060E874E88EE190E0A70196010E9450135F
:101AC000BA01A901415051096109710976956795DB
:101AD00057954795EC85FD855083EE85FF854083BE
:101AE000188EEC89FD891083EA89FB8980818061E9
:101AF0008083EA89FB89808188608083EA89FB8909
:101B0000808180688083EA89FB8980818F7D8083E2
:101B1000DF91CF911F91FF90EF90DF90CF900895CC
:101B20001F920F920FB60F9211242F938F939F93B2
:101B3000EF93FF93E0918B02F0918C028081E09112
:101B40009102F091920282FD12C0908180919402E4
:101B50008F5F8F7320919502821751F0E09194026C
:101B6000F0E0E558FD4F958F8093940201C080818D
:101B7000FF91EF919F918F912F910F900FBE0F903A
:101B80001F9018951F920F920FB60F9211242F934A
:101B90003F934F935F936F937F938F939F93AF93F5
:101BA000BF93EF93FF938BE792E00E94A10CFF910C
:101BB000EF91BF91AF919F918F917F916F915F91C5
:101BC0004F913F912F910F900FBE0F901F9018953E
:101BD0008BE792E00E94650C21E0892B09F420E05C
:101BE000822F0895EBE7F2E01382128288EE93E0F1
:101BF000A0E0B0E084839583A683B78385E291E07B
:101C00009183808385EC90E09587848784EC90E0D5
:101C10009787868780EC90E0918B808B81EC90E0B9
:101C2000938B828B82EC90E0958B848B86EC90E09A
:101C3000978B868B118E128E138E148E08950895B5
:101C40000E94F00F0E941F0E0E948301C3E9DCE096
:101C50000E940D072097E1F30E94930CF9CFCF92D9
:101C6000DF92EF92FF920F931F93CF93DF936C015C
:101C70007A018B01C0E0D0E0CE15DF0589F0D801F4
:101C80006D918D01D601ED91FC910190F081E02DD7
:101C9000C6010995892B11F47E0102C02196ECCF73
:101CA000C701DF91CF911F910F91FF90EF90DF90CF
:101CB000CF9008956115710579F0FB010190002026
:101CC000E9F73197AF01461B570BDC01ED91FC9111
:101CD0000280F381E02D099480E090E008950C9457
:101CE0005A0EDC01ED91FC910190F081E02D0994F8
:101CF00061E371E00C945A0E8F929F92AF92BF9263
:101D0000CF92DF92EF92FF920F931F93CF93DF93C7
:101D1000CDB7DEB7A1970FB6F894DEBF0FBECDBF2B
:101D20006C01142FE52FCB01022F19A2223008F4E9
:101D30000AE07E0121E2E20EF11C802E912CA12C02
:101D4000B12C612F7E2FA50194010E945013029F98
:101D50001019112481E0E81AF1081A3014F4105D0A
:101D600001C0195CF7011083122FE32FCA01232B46
:101D7000242B252B31F7B701C6010E945A0EA196DC
:101D80000FB6F894DEBF0FBECDBFDF91CF911F918C
:101D90000F91FF90EF90DF90CF90BF90AF909F900A
:101DA0008F900895CF92DF92EF92FF920F931F933F
:101DB000CF93DF93EC016A017B012115310579F4A2
:101DC000E881F9810190F081E02D642FDF91CF91BE
:101DD0001F910F91FF90EF90DF90CF9009942A30E0
:101DE0003105E9F477FF1AC06DE20E94710E8C0193
:101DF00044275527BA014C195D096E097F092AE06D
:101E0000CE010E947C0E800F911FDF91CF911F9118
:101E10000F91FF90EF90DF90CF9008952AE0B701E7
:101E2000A601CE01DF91CF911F910F91FF90EF900E
:101E3000DF90CF900C947C0E9A01AB01770F660B6C
:101E4000770B0C94D20E2115310541F4DC01ED9194
:101E5000FC910190F081E02D642F09940C947C0E8C
:101E60000F931F93CF93DF93EC010E94230F8C01FC
:101E7000CE010E94780E800F911FDF91CF911F91AC
:101E80000F9108951F920F920FB60F9211242F9366
:101E90003F938F939F93AF93BF938091190390913A
:101EA0001A03A0911B03B0911C033091180323E087
:101EB000230F2D3720F40196A11DB11D05C026E882
:101EC000230F0296A11DB11D2093180380931903BF
:101ED00090931A03A0931B03B0931C0380911D03DE
:101EE00090911E03A0911F03B09120030196A11DA4
:101EF000B11D80931D0390931E03A0931F03B09305
:101F00002003BF91AF919F918F913F912F910F909F
:101F10000FBE0F901F9018952FB7F894609119037A
:101F200070911A0380911B0390911C032FBF089599
:101F30003FB7F89480911D0390911E03A0911F0359
:101F4000B091200326B5A89B05C02F3F19F001963C
:101F5000A11DB11D3FBFBA2FA92F982F8827820F2F
:101F6000911DA11DB11DBC01CD0142E0660F771F7F
:101F7000881F991F4A95D1F70895CF92DF92EF926B
:101F8000FF92CF93DF936B017C010E94980FEB01CE
:101F9000C114D104E104F10489F00E94E9100E9407
:101FA000980F6C1B7D0B683E734090F381E0C81A5C
:101FB000D108E108F108C851DC4FEACFDF91CF9199
:101FC000FF90EF90DF90CF9008958230910538F028
:101FD000880F991F880F991F05970197F1F70895AA
:101FE000789484B5826084BD84B5816084BD85B5F4
:101FF000826085BD85B5816085BDEEE6F0E08081BB
:1020000081608083E1E8F0E01082808182608083DB
:10201000808181608083E0E8F0E08081816080835E
:10202000E1EBF0E0808184608083E0EBF0E0808190
:1020300081608083EAE7F0E0808184608083808132
:1020400082608083808181608083808180688083DA
:102050001092C1000895833081F028F4813099F006
:102060008230A1F008958730A9F08830B9F084302B
:10207000D1F4809180008F7D03C0809180008F77A4
:1020800080938000089584B58F7702C084B58F7DDA
:1020900084BD08958091B0008F7703C08091B00017
:1020A0008F7D8093B0000895CF93DF9390E0FC0183
:1020B000E458FF4F2491FC01E057FF4F849188239F
:1020C00061F190E0880F991FFC01E854FF4FC59122
:1020D000D491FC01E255FF4FA591B491611109C063
:1020E0009FB7F8948881209582238883EC912E23D2
:1020F0000BC0623061F49FB7F8943881822F8095CD
:1021000083238883EC912E2B2C939FBF06C08FB71F
:10211000F894E8812E2B28838FBFDF91CF9108950B
:102120001F93CF93DF93282F30E0F901E859FF4F39
:102130008491F901E458FF4FD491F901E057FF4F22
:10214000C491CC23C9F0162F81110E942B10EC2FC3
:10215000F0E0EE0FFF1FE255FF4FA591B4918FB74E
:10216000F894111105C09C91ED2FE095E92302C070
:10217000EC91ED2BEC938FBFDF91CF911F910895E0
:10218000CF93DF93282F30E0F901E859FF4F849176
:10219000F901E458FF4FD491F901E057FF4FC49182
:1021A000CC2391F081110E942B10EC2FF0E0EE0F68
:1021B000FF1FEC55FF4FA591B491EC91ED2381E009
:1021C00090E021F480E002C080E090E0DF91CF91C8
:1021D000089508955058BB27AA270E9402110C9415
:1021E0007C120E946E1238F00E94751220F039F4B1
:1021F0009F3F19F426F40C946B120EF4E095E7FB64
:102200000C946512E92F0E948D1258F3BA176207D9
:1022100073078407950720F079F4A6F50C94AF12A4
:102220000EF4E0950B2EBA2FA02D0B01B9019001F1
:102230000C01CA01A0011124FF27591B99F0593F35
:1022400050F4503E68F11A16F040A22F232F342F7D
:102250004427585FF3CF469537952795A795F040CB
:102260005395C9F77EF41F16BA0B620B730B840BE0
:10227000BAF09150A1F0FF0FBB1F661F771F881F98
:10228000C2F70EC0BA0F621F731F841F48F48795F0
:1022900077956795B795F7959E3F08F0B0CF9395E2
:1022A000880F08F09927EE0F9795879508950E945B
:1022B000411208F481E008950E9470110C947C1280
:1022C0000E94751258F00E946E1240F029F45F3F90
:1022D00029F00C94651251110C94B0120C946B12ED
:1022E0000E948D1268F39923B1F3552391F3951B46
:1022F000550BBB27AA2762177307840738F09F5F27
:102300005F4F220F331F441FAA1FA9F335D00E2E93
:102310003AF0E0E832D091505040E695001CCAF700
:102320002BD0FE2F29D0660F771F881FBB1F2617C3
:1023300037074807AB07B0E809F0BB0B802DBF019A
:10234000FF2793585F4F3AF09E3F510578F00C9469
:1023500065120C94B0125F3FE4F3983ED4F3869577
:1023600077956795B795F7959F5FC9F7880F911D8A
:102370009695879597F90895E1E0660F771F881F76
:10238000BB1F621773078407BA0720F0621B730B29
:10239000840BBA0BEE1F88F7E09508950E94D511C3
:1023A0006894B1110C94B01208950E94951288F0AF
:1023B0009F5798F0B92F9927B751B0F0E1F0660F09
:1023C000771F881F991F1AF0BA95C9F714C0B1304A
:1023D00091F00E94AF12B1E008950C94AF12672FF4
:1023E000782F8827B85F39F0B93FCCF38695779579
:1023F0006795B395D9F73EF4909580957095619562
:102400007F4F8F4F9F4F0895E89409C097FB3EF48C
:1024100090958095709561957F4F8F4F9F4F992331
:10242000A9F0F92F96E9BB279395F69587957795AF
:102430006795B795F111F8CFFAF4BB0F11F460FF6F
:102440001BC06F5F7F4F8F4F9F4F16C0882311F0C7
:1024500096E911C0772321F09EE8872F762F05C0DB
:10246000662371F096E8862F70E060E02AF09A9576
:10247000660F771F881FDAF7880F9695879597F96B
:102480000895990F0008550FAA0BE0E8FEEF161605
:102490001706E807F907C0F012161306E407F50758
:1024A00098F0621B730B840B950B39F40A2661F0CC
:1024B000232B242B252B21F408950A2609F4A1406F
:1024C000A6958FEF811D811D089597F99F6780E87C
:1024D00070E060E008959FEF80EC089500240A9476
:1024E0001616170618060906089500240A941216EF
:1024F0001306140605060895092E0394000C11F422
:10250000882352F0BB0F40F4BF2B11F460FF04C0CE
:102510006F5F7F4F8F4F9F4F089557FD9058440F27
:10252000551F59F05F3F71F04795880F97FB991F32
:1025300061F09F3F79F087950895121613061406EF
:10254000551FF2CF4695F1DF08C01616170618067C
:10255000991FF1CF86957105610508940895E89457
:10256000BB2766277727CB0197F908950E94411270
:1025700008F48FEF08950E94CE120C947C120E94F2
:102580006E1238F00E94751220F0952311F00C9411
:1025900065120C946B1211240C94B0120E948D12CF
:1025A00070F3959FC1F3950F50E0551F629FF001A6
:1025B000729FBB27F00DB11D639FAA27F00DB11DBF
:1025C000AA1F649F6627B00DA11D661F829F222748
:1025D000B00DA11D621F739FB00DA11D621F839FCF
:1025E000A00D611D221F749F3327A00D611D231FA5
:1025F000849F600D211D822F762F6A2F11249F57F3
:1026000050409AF0F1F088234AF0EE0FFF1FBB1FF5
:10261000661F771F881F91505040A9F79E3F5105B4
:1026200080F00C9465120C94B0125F3FE4F3983E76
:10263000D4F3869577956795B795F795E7959F5F5E
:10264000C1F7FE2B880F911D9695879597F90895F0
:10265000AA1BBB1B51E107C0AA1FBB1FA617B707C8
:1026600010F0A61BB70B881F991F5A95A9F78095E4
:102670009095BC01CD01089597FB072E16F40094A8
:1026800007D077FD09D00E94281307FC05D03EF43F
:10269000909581959F4F0895709561957F4F08950E
:1026A000A1E21A2EAA1BBB1BFD010DC0AA1FBB1F56
:1026B000EE1FFF1FA217B307E407F50720F0A21BC8
:1026C000B30BE40BF50B661F771F881F991F1A9435
:1026D00069F760957095809590959B01AC01BD015F
:1026E000CF010895EE0FFF1F0590F491E02D09949E
:1026F000F999FECF92BD81BDF89A992780B50895CA
:10270000262FF999FECF1FBA92BD81BD20BD0FB60D
:10271000F894FA9AF99A0FBE01960895F894FFCFAB
:102720000101012D2D2D0052656164206661696CE7
:1027300000000000007F094F0923092B093F094EC3
:102740000900000000E40C2F0E650C7F0C710CC218
:102750000C0D0A006E616E00696E66006F76660091
:022760002E0049
:00000001FF
